{
	"Desktop/Smart Contract/sc_ijazah/backend/sc-service/smartcontract/contracts/ijazah_v3.sol": {
		"VerifikasiIjazah": {
			"abi": [
				{
					"inputs": [],
					"stateMutability": "nonpayable",
					"type": "constructor"
				},
				{
					"anonymous": false,
					"inputs": [
						{
							"indexed": true,
							"internalType": "bytes32",
							"name": "degreeHash",
							"type": "bytes32"
						}
					],
					"name": "DegreeDeleted",
					"type": "event"
				},
				{
					"anonymous": false,
					"inputs": [
						{
							"indexed": true,
							"internalType": "bytes32",
							"name": "degreeHash",
							"type": "bytes32"
						},
						{
							"indexed": false,
							"internalType": "bytes32",
							"name": "sekolah",
							"type": "bytes32"
						},
						{
							"indexed": false,
							"internalType": "uint256",
							"name": "issueDate",
							"type": "uint256"
						},
						{
							"indexed": false,
							"internalType": "bytes32",
							"name": "ipfsUrl",
							"type": "bytes32"
						}
					],
					"name": "DegreeIssued",
					"type": "event"
				},
				{
					"inputs": [
						{
							"internalType": "bytes32",
							"name": "",
							"type": "bytes32"
						}
					],
					"name": "degrees",
					"outputs": [
						{
							"internalType": "bytes32",
							"name": "degreeHash",
							"type": "bytes32"
						},
						{
							"internalType": "bytes32",
							"name": "sekolah",
							"type": "bytes32"
						},
						{
							"internalType": "uint256",
							"name": "issueDate",
							"type": "uint256"
						},
						{
							"internalType": "bytes32",
							"name": "ipfsUrl",
							"type": "bytes32"
						},
						{
							"internalType": "bool",
							"name": "exists",
							"type": "bool"
						}
					],
					"stateMutability": "view",
					"type": "function"
				},
				{
					"inputs": [
						{
							"internalType": "bytes32",
							"name": "_degreeHash",
							"type": "bytes32"
						}
					],
					"name": "deleteDegree",
					"outputs": [],
					"stateMutability": "nonpayable",
					"type": "function"
				},
				{
					"inputs": [
						{
							"internalType": "bytes32",
							"name": "_degreeHash",
							"type": "bytes32"
						}
					],
					"name": "getDegree",
					"outputs": [
						{
							"internalType": "bytes32",
							"name": "",
							"type": "bytes32"
						},
						{
							"internalType": "uint256",
							"name": "",
							"type": "uint256"
						},
						{
							"internalType": "bytes32",
							"name": "",
							"type": "bytes32"
						},
						{
							"internalType": "bytes32[]",
							"name": "",
							"type": "bytes32[]"
						},
						{
							"internalType": "uint8[]",
							"name": "",
							"type": "uint8[]"
						}
					],
					"stateMutability": "view",
					"type": "function"
				},
				{
					"inputs": [
						{
							"internalType": "bytes32",
							"name": "_degreeHash",
							"type": "bytes32"
						},
						{
							"internalType": "bytes32",
							"name": "_sekolah",
							"type": "bytes32"
						},
						{
							"internalType": "uint256",
							"name": "_issueDate",
							"type": "uint256"
						},
						{
							"internalType": "bytes32",
							"name": "_ipfsUrl",
							"type": "bytes32"
						},
						{
							"internalType": "bytes32[]",
							"name": "_mataPelajaran",
							"type": "bytes32[]"
						},
						{
							"internalType": "uint8[]",
							"name": "_nilai",
							"type": "uint8[]"
						}
					],
					"name": "issueDegree",
					"outputs": [],
					"stateMutability": "nonpayable",
					"type": "function"
				},
				{
					"inputs": [],
					"name": "owner",
					"outputs": [
						{
							"internalType": "address",
							"name": "",
							"type": "address"
						}
					],
					"stateMutability": "view",
					"type": "function"
				},
				{
					"inputs": [
						{
							"internalType": "bytes32",
							"name": "",
							"type": "bytes32"
						},
						{
							"internalType": "uint256",
							"name": "",
							"type": "uint256"
						}
					],
					"name": "transcripts",
					"outputs": [
						{
							"internalType": "bytes32",
							"name": "name",
							"type": "bytes32"
						},
						{
							"internalType": "uint8",
							"name": "grade",
							"type": "uint8"
						}
					],
					"stateMutability": "view",
					"type": "function"
				}
			],
			"devdoc": {
				"kind": "dev",
				"methods": {},
				"version": 1
			},
			"evm": {
				"assembly": "    /* \"Desktop/Smart Contract/sc_ijazah/backend/sc-service/smartcontract/contracts/ijazah_v3.sol\":60:2996  contract VerifikasiIjazah {\r... */\n  mstore(0x40, 0x80)\n    /* \"Desktop/Smart Contract/sc_ijazah/backend/sc-service/smartcontract/contracts/ijazah_v3.sol\":531:582  constructor() {\r... */\n  callvalue\n  dup1\n  iszero\n  tag_1\n  jumpi\n  0x00\n  dup1\n  revert\ntag_1:\n  pop\n    /* \"Desktop/Smart Contract/sc_ijazah/backend/sc-service/smartcontract/contracts/ijazah_v3.sol\":564:574  msg.sender */\n  caller\n    /* \"Desktop/Smart Contract/sc_ijazah/backend/sc-service/smartcontract/contracts/ijazah_v3.sol\":556:561  owner */\n  0x00\n  dup1\n    /* \"Desktop/Smart Contract/sc_ijazah/backend/sc-service/smartcontract/contracts/ijazah_v3.sol\":556:574  owner = msg.sender */\n  0x0100\n  exp\n  dup2\n  sload\n  dup2\n  0xffffffffffffffffffffffffffffffffffffffff\n  mul\n  not\n  and\n  swap1\n  dup4\n  0xffffffffffffffffffffffffffffffffffffffff\n  and\n  mul\n  or\n  swap1\n  sstore\n  pop\n    /* \"Desktop/Smart Contract/sc_ijazah/backend/sc-service/smartcontract/contracts/ijazah_v3.sol\":60:2996  contract VerifikasiIjazah {\r... */\n  dataSize(sub_0)\n  dup1\n  dataOffset(sub_0)\n  0x00\n  codecopy\n  0x00\n  return\nstop\n\nsub_0: assembly {\n        /* \"Desktop/Smart Contract/sc_ijazah/backend/sc-service/smartcontract/contracts/ijazah_v3.sol\":60:2996  contract VerifikasiIjazah {\r... */\n      mstore(0x40, 0x80)\n      callvalue\n      dup1\n      iszero\n      tag_1\n      jumpi\n      0x00\n      dup1\n      revert\n    tag_1:\n      pop\n      jumpi(tag_2, lt(calldatasize, 0x04))\n      shr(0xe0, calldataload(0x00))\n      dup1\n      0x037392da\n      eq\n      tag_3\n      jumpi\n      dup1\n      0x8da5cb5b\n      eq\n      tag_4\n      jumpi\n      dup1\n      0x91f2bceb\n      eq\n      tag_5\n      jumpi\n      dup1\n      0xa08b9b81\n      eq\n      tag_6\n      jumpi\n      dup1\n      0xbc50b3cd\n      eq\n      tag_7\n      jumpi\n      dup1\n      0xd04a419b\n      eq\n      tag_8\n      jumpi\n    tag_2:\n      0x00\n      dup1\n      revert\n        /* \"Desktop/Smart Contract/sc_ijazah/backend/sc-service/smartcontract/contracts/ijazah_v3.sol\":638:704  mapping(bytes32 => mapping(uint256 => Subject)) public transcripts */\n    tag_3:\n      tag_9\n      0x04\n      dup1\n      calldatasize\n      sub\n      dup2\n      add\n      swap1\n      tag_10\n      swap2\n      swap1\n      tag_11\n      jump\t// in\n    tag_10:\n      tag_12\n      jump\t// in\n    tag_9:\n      mload(0x40)\n      tag_13\n      swap3\n      swap2\n      swap1\n      tag_14\n      jump\t// in\n    tag_13:\n      mload(0x40)\n      dup1\n      swap2\n      sub\n      swap1\n      return\n        /* \"Desktop/Smart Contract/sc_ijazah/backend/sc-service/smartcontract/contracts/ijazah_v3.sol\":93:113  address public owner */\n    tag_4:\n      tag_15\n      tag_16\n      jump\t// in\n    tag_15:\n      mload(0x40)\n      tag_17\n      swap2\n      swap1\n      tag_18\n      jump\t// in\n    tag_17:\n      mload(0x40)\n      dup1\n      swap2\n      sub\n      swap1\n      return\n        /* \"Desktop/Smart Contract/sc_ijazah/backend/sc-service/smartcontract/contracts/ijazah_v3.sol\":1826:2082  function deleteDegree(bytes32 _degreeHash) public isOwner {\r... */\n    tag_5:\n      tag_19\n      0x04\n      dup1\n      calldatasize\n      sub\n      dup2\n      add\n      swap1\n      tag_20\n      swap2\n      swap1\n      tag_21\n      jump\t// in\n    tag_20:\n      tag_22\n      jump\t// in\n    tag_19:\n      stop\n        /* \"Desktop/Smart Contract/sc_ijazah/backend/sc-service/smartcontract/contracts/ijazah_v3.sol\":957:1818  function issueDegree(\r... */\n    tag_6:\n      tag_23\n      0x04\n      dup1\n      calldatasize\n      sub\n      dup2\n      add\n      swap1\n      tag_24\n      swap2\n      swap1\n      tag_25\n      jump\t// in\n    tag_24:\n      tag_26\n      jump\t// in\n    tag_23:\n      stop\n        /* \"Desktop/Smart Contract/sc_ijazah/backend/sc-service/smartcontract/contracts/ijazah_v3.sol\":590:631  mapping(bytes32 => Degree) public degrees */\n    tag_7:\n      tag_27\n      0x04\n      dup1\n      calldatasize\n      sub\n      dup2\n      add\n      swap1\n      tag_28\n      swap2\n      swap1\n      tag_21\n      jump\t// in\n    tag_28:\n      tag_29\n      jump\t// in\n    tag_27:\n      mload(0x40)\n      tag_30\n      swap6\n      swap5\n      swap4\n      swap3\n      swap2\n      swap1\n      tag_31\n      jump\t// in\n    tag_30:\n      mload(0x40)\n      dup1\n      swap2\n      sub\n      swap1\n      return\n        /* \"Desktop/Smart Contract/sc_ijazah/backend/sc-service/smartcontract/contracts/ijazah_v3.sol\":2090:2993  function getDegree(\r... */\n    tag_8:\n      tag_32\n      0x04\n      dup1\n      calldatasize\n      sub\n      dup2\n      add\n      swap1\n      tag_33\n      swap2\n      swap1\n      tag_21\n      jump\t// in\n    tag_33:\n      tag_34\n      jump\t// in\n    tag_32:\n      mload(0x40)\n      tag_35\n      swap6\n      swap5\n      swap4\n      swap3\n      swap2\n      swap1\n      tag_36\n      jump\t// in\n    tag_35:\n      mload(0x40)\n      dup1\n      swap2\n      sub\n      swap1\n      return\n        /* \"Desktop/Smart Contract/sc_ijazah/backend/sc-service/smartcontract/contracts/ijazah_v3.sol\":638:704  mapping(bytes32 => mapping(uint256 => Subject)) public transcripts */\n    tag_12:\n      mstore(0x20, 0x02)\n      dup2\n      0x00\n      mstore\n      mstore(0x20, keccak256(0x00, 0x40))\n      dup1\n      0x00\n      mstore\n      keccak256(0x00, 0x40)\n      0x00\n      swap2\n      pop\n      swap2\n      pop\n      pop\n      dup1\n      0x00\n      add\n      sload\n      swap1\n      dup1\n      0x01\n      add\n      0x00\n      swap1\n      sload\n      swap1\n      0x0100\n      exp\n      swap1\n      div\n      0xff\n      and\n      swap1\n      pop\n      dup3\n      jump\t// out\n        /* \"Desktop/Smart Contract/sc_ijazah/backend/sc-service/smartcontract/contracts/ijazah_v3.sol\":93:113  address public owner */\n    tag_16:\n      0x00\n      dup1\n      sload\n      swap1\n      0x0100\n      exp\n      swap1\n      div\n      0xffffffffffffffffffffffffffffffffffffffff\n      and\n      dup2\n      jump\t// out\n        /* \"Desktop/Smart Contract/sc_ijazah/backend/sc-service/smartcontract/contracts/ijazah_v3.sol\":1826:2082  function deleteDegree(bytes32 _degreeHash) public isOwner {\r... */\n    tag_22:\n        /* \"Desktop/Smart Contract/sc_ijazah/backend/sc-service/smartcontract/contracts/ijazah_v3.sol\":450:460  msg.sender */\n      caller\n        /* \"Desktop/Smart Contract/sc_ijazah/backend/sc-service/smartcontract/contracts/ijazah_v3.sol\":441:460  owner == msg.sender */\n      0xffffffffffffffffffffffffffffffffffffffff\n      and\n        /* \"Desktop/Smart Contract/sc_ijazah/backend/sc-service/smartcontract/contracts/ijazah_v3.sol\":441:446  owner */\n      0x00\n      dup1\n      sload\n      swap1\n      0x0100\n      exp\n      swap1\n      div\n      0xffffffffffffffffffffffffffffffffffffffff\n      and\n        /* \"Desktop/Smart Contract/sc_ijazah/backend/sc-service/smartcontract/contracts/ijazah_v3.sol\":441:460  owner == msg.sender */\n      0xffffffffffffffffffffffffffffffffffffffff\n      and\n      eq\n        /* \"Desktop/Smart Contract/sc_ijazah/backend/sc-service/smartcontract/contracts/ijazah_v3.sol\":433:503  require(owner == msg.sender, \"Hanya pemilik yang bisa melakukan ini.\") */\n      tag_38\n      jumpi\n      mload(0x40)\n      0x08c379a000000000000000000000000000000000000000000000000000000000\n      dup2\n      mstore\n      0x04\n      add\n      tag_39\n      swap1\n      tag_40\n      jump\t// in\n    tag_39:\n      mload(0x40)\n      dup1\n      swap2\n      sub\n      swap1\n      revert\n    tag_38:\n        /* \"Desktop/Smart Contract/sc_ijazah/backend/sc-service/smartcontract/contracts/ijazah_v3.sol\":1903:1910  degrees */\n      0x01\n        /* \"Desktop/Smart Contract/sc_ijazah/backend/sc-service/smartcontract/contracts/ijazah_v3.sol\":1903:1923  degrees[_degreeHash] */\n      0x00\n        /* \"Desktop/Smart Contract/sc_ijazah/backend/sc-service/smartcontract/contracts/ijazah_v3.sol\":1911:1922  _degreeHash */\n      dup3\n        /* \"Desktop/Smart Contract/sc_ijazah/backend/sc-service/smartcontract/contracts/ijazah_v3.sol\":1903:1923  degrees[_degreeHash] */\n      dup2\n      mstore\n      0x20\n      add\n      swap1\n      dup2\n      mstore\n      0x20\n      add\n      0x00\n      keccak256\n        /* \"Desktop/Smart Contract/sc_ijazah/backend/sc-service/smartcontract/contracts/ijazah_v3.sol\":1903:1930  degrees[_degreeHash].exists */\n      0x04\n      add\n      0x00\n      swap1\n      sload\n      swap1\n      0x0100\n      exp\n      swap1\n      div\n      0xff\n      and\n        /* \"Desktop/Smart Contract/sc_ijazah/backend/sc-service/smartcontract/contracts/ijazah_v3.sol\":1895:1958  require(degrees[_degreeHash].exists, \"Ijazah tidak ditemukan.\") */\n      tag_42\n      jumpi\n      mload(0x40)\n      0x08c379a000000000000000000000000000000000000000000000000000000000\n      dup2\n      mstore\n      0x04\n      add\n      tag_43\n      swap1\n      tag_44\n      jump\t// in\n    tag_43:\n      mload(0x40)\n      dup1\n      swap2\n      sub\n      swap1\n      revert\n    tag_42:\n        /* \"Desktop/Smart Contract/sc_ijazah/backend/sc-service/smartcontract/contracts/ijazah_v3.sol\":2001:2006  false */\n      0x00\n        /* \"Desktop/Smart Contract/sc_ijazah/backend/sc-service/smartcontract/contracts/ijazah_v3.sol\":1971:1978  degrees */\n      0x01\n        /* \"Desktop/Smart Contract/sc_ijazah/backend/sc-service/smartcontract/contracts/ijazah_v3.sol\":1971:1991  degrees[_degreeHash] */\n      0x00\n        /* \"Desktop/Smart Contract/sc_ijazah/backend/sc-service/smartcontract/contracts/ijazah_v3.sol\":1979:1990  _degreeHash */\n      dup4\n        /* \"Desktop/Smart Contract/sc_ijazah/backend/sc-service/smartcontract/contracts/ijazah_v3.sol\":1971:1991  degrees[_degreeHash] */\n      dup2\n      mstore\n      0x20\n      add\n      swap1\n      dup2\n      mstore\n      0x20\n      add\n      0x00\n      keccak256\n        /* \"Desktop/Smart Contract/sc_ijazah/backend/sc-service/smartcontract/contracts/ijazah_v3.sol\":1971:1998  degrees[_degreeHash].exists */\n      0x04\n      add\n      0x00\n        /* \"Desktop/Smart Contract/sc_ijazah/backend/sc-service/smartcontract/contracts/ijazah_v3.sol\":1971:2006  degrees[_degreeHash].exists = false */\n      0x0100\n      exp\n      dup2\n      sload\n      dup2\n      0xff\n      mul\n      not\n      and\n      swap1\n      dup4\n      iszero\n      iszero\n      mul\n      or\n      swap1\n      sstore\n      pop\n        /* \"Desktop/Smart Contract/sc_ijazah/backend/sc-service/smartcontract/contracts/ijazah_v3.sol\":2062:2073  _degreeHash */\n      dup1\n        /* \"Desktop/Smart Contract/sc_ijazah/backend/sc-service/smartcontract/contracts/ijazah_v3.sol\":2048:2074  DegreeDeleted(_degreeHash) */\n      0x2378393e5e45ca60b5cc050d80fa00b05dc03948e54f0260efb5af5229b9ca3e\n      mload(0x40)\n      mload(0x40)\n      dup1\n      swap2\n      sub\n      swap1\n      log2\n        /* \"Desktop/Smart Contract/sc_ijazah/backend/sc-service/smartcontract/contracts/ijazah_v3.sol\":1826:2082  function deleteDegree(bytes32 _degreeHash) public isOwner {\r... */\n      pop\n      jump\t// out\n        /* \"Desktop/Smart Contract/sc_ijazah/backend/sc-service/smartcontract/contracts/ijazah_v3.sol\":957:1818  function issueDegree(\r... */\n    tag_26:\n        /* \"Desktop/Smart Contract/sc_ijazah/backend/sc-service/smartcontract/contracts/ijazah_v3.sol\":450:460  msg.sender */\n      caller\n        /* \"Desktop/Smart Contract/sc_ijazah/backend/sc-service/smartcontract/contracts/ijazah_v3.sol\":441:460  owner == msg.sender */\n      0xffffffffffffffffffffffffffffffffffffffff\n      and\n        /* \"Desktop/Smart Contract/sc_ijazah/backend/sc-service/smartcontract/contracts/ijazah_v3.sol\":441:446  owner */\n      0x00\n      dup1\n      sload\n      swap1\n      0x0100\n      exp\n      swap1\n      div\n      0xffffffffffffffffffffffffffffffffffffffff\n      and\n        /* \"Desktop/Smart Contract/sc_ijazah/backend/sc-service/smartcontract/contracts/ijazah_v3.sol\":441:460  owner == msg.sender */\n      0xffffffffffffffffffffffffffffffffffffffff\n      and\n      eq\n        /* \"Desktop/Smart Contract/sc_ijazah/backend/sc-service/smartcontract/contracts/ijazah_v3.sol\":433:503  require(owner == msg.sender, \"Hanya pemilik yang bisa melakukan ini.\") */\n      tag_46\n      jumpi\n      mload(0x40)\n      0x08c379a000000000000000000000000000000000000000000000000000000000\n      dup2\n      mstore\n      0x04\n      add\n      tag_47\n      swap1\n      tag_40\n      jump\t// in\n    tag_47:\n      mload(0x40)\n      dup1\n      swap2\n      sub\n      swap1\n      revert\n    tag_46:\n        /* \"Desktop/Smart Contract/sc_ijazah/backend/sc-service/smartcontract/contracts/ijazah_v3.sol\":1211:1218  degrees */\n      0x01\n        /* \"Desktop/Smart Contract/sc_ijazah/backend/sc-service/smartcontract/contracts/ijazah_v3.sol\":1211:1231  degrees[_degreeHash] */\n      0x00\n        /* \"Desktop/Smart Contract/sc_ijazah/backend/sc-service/smartcontract/contracts/ijazah_v3.sol\":1219:1230  _degreeHash */\n      dup10\n        /* \"Desktop/Smart Contract/sc_ijazah/backend/sc-service/smartcontract/contracts/ijazah_v3.sol\":1211:1231  degrees[_degreeHash] */\n      dup2\n      mstore\n      0x20\n      add\n      swap1\n      dup2\n      mstore\n      0x20\n      add\n      0x00\n      keccak256\n        /* \"Desktop/Smart Contract/sc_ijazah/backend/sc-service/smartcontract/contracts/ijazah_v3.sol\":1211:1238  degrees[_degreeHash].exists */\n      0x04\n      add\n      0x00\n      swap1\n      sload\n      swap1\n      0x0100\n      exp\n      swap1\n      div\n      0xff\n      and\n        /* \"Desktop/Smart Contract/sc_ijazah/backend/sc-service/smartcontract/contracts/ijazah_v3.sol\":1210:1238  !degrees[_degreeHash].exists */\n      iszero\n        /* \"Desktop/Smart Contract/sc_ijazah/backend/sc-service/smartcontract/contracts/ijazah_v3.sol\":1202:1266  require(!degrees[_degreeHash].exists, \"Ijazah sudah terdaftar.\") */\n      tag_49\n      jumpi\n      mload(0x40)\n      0x08c379a000000000000000000000000000000000000000000000000000000000\n      dup2\n      mstore\n      0x04\n      add\n      tag_50\n      swap1\n      tag_51\n      jump\t// in\n    tag_50:\n      mload(0x40)\n      dup1\n      swap2\n      sub\n      swap1\n      revert\n    tag_49:\n        /* \"Desktop/Smart Contract/sc_ijazah/backend/sc-service/smartcontract/contracts/ijazah_v3.sol\":1324:1330  _nilai */\n      dup2\n      dup2\n        /* \"Desktop/Smart Contract/sc_ijazah/backend/sc-service/smartcontract/contracts/ijazah_v3.sol\":1324:1337  _nilai.length */\n      swap1\n      pop\n        /* \"Desktop/Smart Contract/sc_ijazah/backend/sc-service/smartcontract/contracts/ijazah_v3.sol\":1299:1313  _mataPelajaran */\n      dup5\n      dup5\n        /* \"Desktop/Smart Contract/sc_ijazah/backend/sc-service/smartcontract/contracts/ijazah_v3.sol\":1299:1320  _mataPelajaran.length */\n      swap1\n      pop\n        /* \"Desktop/Smart Contract/sc_ijazah/backend/sc-service/smartcontract/contracts/ijazah_v3.sol\":1299:1337  _mataPelajaran.length == _nilai.length */\n      eq\n        /* \"Desktop/Smart Contract/sc_ijazah/backend/sc-service/smartcontract/contracts/ijazah_v3.sol\":1277:1408  require(\r... */\n      tag_52\n      jumpi\n      mload(0x40)\n      0x08c379a000000000000000000000000000000000000000000000000000000000\n      dup2\n      mstore\n      0x04\n      add\n      tag_53\n      swap1\n      tag_54\n      jump\t// in\n    tag_53:\n      mload(0x40)\n      dup1\n      swap2\n      sub\n      swap1\n      revert\n    tag_52:\n        /* \"Desktop/Smart Contract/sc_ijazah/backend/sc-service/smartcontract/contracts/ijazah_v3.sol\":1444:1577  Degree(\r... */\n      mload(0x40)\n      dup1\n      0xa0\n      add\n      0x40\n      mstore\n      dup1\n        /* \"Desktop/Smart Contract/sc_ijazah/backend/sc-service/smartcontract/contracts/ijazah_v3.sol\":1465:1476  _degreeHash */\n      dup10\n        /* \"Desktop/Smart Contract/sc_ijazah/backend/sc-service/smartcontract/contracts/ijazah_v3.sol\":1444:1577  Degree(\r... */\n      dup2\n      mstore\n      0x20\n      add\n        /* \"Desktop/Smart Contract/sc_ijazah/backend/sc-service/smartcontract/contracts/ijazah_v3.sol\":1491:1499  _sekolah */\n      dup9\n        /* \"Desktop/Smart Contract/sc_ijazah/backend/sc-service/smartcontract/contracts/ijazah_v3.sol\":1444:1577  Degree(\r... */\n      dup2\n      mstore\n      0x20\n      add\n        /* \"Desktop/Smart Contract/sc_ijazah/backend/sc-service/smartcontract/contracts/ijazah_v3.sol\":1514:1524  _issueDate */\n      dup8\n        /* \"Desktop/Smart Contract/sc_ijazah/backend/sc-service/smartcontract/contracts/ijazah_v3.sol\":1444:1577  Degree(\r... */\n      dup2\n      mstore\n      0x20\n      add\n        /* \"Desktop/Smart Contract/sc_ijazah/backend/sc-service/smartcontract/contracts/ijazah_v3.sol\":1539:1547  _ipfsUrl */\n      dup7\n        /* \"Desktop/Smart Contract/sc_ijazah/backend/sc-service/smartcontract/contracts/ijazah_v3.sol\":1444:1577  Degree(\r... */\n      dup2\n      mstore\n      0x20\n      add\n        /* \"Desktop/Smart Contract/sc_ijazah/backend/sc-service/smartcontract/contracts/ijazah_v3.sol\":1562:1566  true */\n      0x01\n        /* \"Desktop/Smart Contract/sc_ijazah/backend/sc-service/smartcontract/contracts/ijazah_v3.sol\":1444:1577  Degree(\r... */\n      iszero\n      iszero\n      dup2\n      mstore\n      pop\n        /* \"Desktop/Smart Contract/sc_ijazah/backend/sc-service/smartcontract/contracts/ijazah_v3.sol\":1421:1428  degrees */\n      0x01\n        /* \"Desktop/Smart Contract/sc_ijazah/backend/sc-service/smartcontract/contracts/ijazah_v3.sol\":1421:1441  degrees[_degreeHash] */\n      0x00\n        /* \"Desktop/Smart Contract/sc_ijazah/backend/sc-service/smartcontract/contracts/ijazah_v3.sol\":1429:1440  _degreeHash */\n      dup11\n        /* \"Desktop/Smart Contract/sc_ijazah/backend/sc-service/smartcontract/contracts/ijazah_v3.sol\":1421:1441  degrees[_degreeHash] */\n      dup2\n      mstore\n      0x20\n      add\n      swap1\n      dup2\n      mstore\n      0x20\n      add\n      0x00\n      keccak256\n        /* \"Desktop/Smart Contract/sc_ijazah/backend/sc-service/smartcontract/contracts/ijazah_v3.sol\":1421:1577  degrees[_degreeHash] = Degree(\r... */\n      0x00\n      dup3\n      add\n      mload\n      dup2\n      0x00\n      add\n      sstore\n      0x20\n      dup3\n      add\n      mload\n      dup2\n      0x01\n      add\n      sstore\n      0x40\n      dup3\n      add\n      mload\n      dup2\n      0x02\n      add\n      sstore\n      0x60\n      dup3\n      add\n      mload\n      dup2\n      0x03\n      add\n      sstore\n      0x80\n      dup3\n      add\n      mload\n      dup2\n      0x04\n      add\n      exp(0x0100, 0x00)\n      dup2\n      sload\n      dup2\n      0xff\n      mul\n      not\n      and\n      swap1\n      dup4\n      iszero\n      iszero\n      mul\n      or\n      swap1\n      sstore\n      pop\n      swap1\n      pop\n      pop\n        /* \"Desktop/Smart Contract/sc_ijazah/backend/sc-service/smartcontract/contracts/ijazah_v3.sol\":1595:1604  uint256 i */\n      0x00\n        /* \"Desktop/Smart Contract/sc_ijazah/backend/sc-service/smartcontract/contracts/ijazah_v3.sol\":1590:1736  for (uint256 i = 0; i < _mataPelajaran.length; i++) {\r... */\n    tag_55:\n        /* \"Desktop/Smart Contract/sc_ijazah/backend/sc-service/smartcontract/contracts/ijazah_v3.sol\":1614:1628  _mataPelajaran */\n      dup5\n      dup5\n        /* \"Desktop/Smart Contract/sc_ijazah/backend/sc-service/smartcontract/contracts/ijazah_v3.sol\":1614:1635  _mataPelajaran.length */\n      swap1\n      pop\n        /* \"Desktop/Smart Contract/sc_ijazah/backend/sc-service/smartcontract/contracts/ijazah_v3.sol\":1610:1611  i */\n      dup2\n        /* \"Desktop/Smart Contract/sc_ijazah/backend/sc-service/smartcontract/contracts/ijazah_v3.sol\":1610:1635  i < _mataPelajaran.length */\n      lt\n        /* \"Desktop/Smart Contract/sc_ijazah/backend/sc-service/smartcontract/contracts/ijazah_v3.sol\":1590:1736  for (uint256 i = 0; i < _mataPelajaran.length; i++) {\r... */\n      iszero\n      tag_56\n      jumpi\n        /* \"Desktop/Smart Contract/sc_ijazah/backend/sc-service/smartcontract/contracts/ijazah_v3.sol\":1687:1724  Subject(_mataPelajaran[i], _nilai[i]) */\n      mload(0x40)\n      dup1\n      0x40\n      add\n      0x40\n      mstore\n      dup1\n        /* \"Desktop/Smart Contract/sc_ijazah/backend/sc-service/smartcontract/contracts/ijazah_v3.sol\":1695:1709  _mataPelajaran */\n      dup7\n      dup7\n        /* \"Desktop/Smart Contract/sc_ijazah/backend/sc-service/smartcontract/contracts/ijazah_v3.sol\":1710:1711  i */\n      dup5\n        /* \"Desktop/Smart Contract/sc_ijazah/backend/sc-service/smartcontract/contracts/ijazah_v3.sol\":1695:1712  _mataPelajaran[i] */\n      dup2\n      dup2\n      lt\n      tag_58\n      jumpi\n      mstore(0x00, 0x4e487b7100000000000000000000000000000000000000000000000000000000)\n      mstore(0x04, 0x32)\n      revert(0x00, 0x24)\n    tag_58:\n      swap1\n      pop\n      0x20\n      mul\n      add\n      calldataload\n        /* \"Desktop/Smart Contract/sc_ijazah/backend/sc-service/smartcontract/contracts/ijazah_v3.sol\":1687:1724  Subject(_mataPelajaran[i], _nilai[i]) */\n      dup2\n      mstore\n      0x20\n      add\n        /* \"Desktop/Smart Contract/sc_ijazah/backend/sc-service/smartcontract/contracts/ijazah_v3.sol\":1714:1720  _nilai */\n      dup5\n      dup5\n        /* \"Desktop/Smart Contract/sc_ijazah/backend/sc-service/smartcontract/contracts/ijazah_v3.sol\":1721:1722  i */\n      dup5\n        /* \"Desktop/Smart Contract/sc_ijazah/backend/sc-service/smartcontract/contracts/ijazah_v3.sol\":1714:1723  _nilai[i] */\n      dup2\n      dup2\n      lt\n      tag_59\n      jumpi\n      mstore(0x00, 0x4e487b7100000000000000000000000000000000000000000000000000000000)\n      mstore(0x04, 0x32)\n      revert(0x00, 0x24)\n    tag_59:\n      swap1\n      pop\n      0x20\n      mul\n      add\n      0x20\n      dup2\n      add\n      swap1\n      tag_60\n      swap2\n      swap1\n      tag_61\n      jump\t// in\n    tag_60:\n        /* \"Desktop/Smart Contract/sc_ijazah/backend/sc-service/smartcontract/contracts/ijazah_v3.sol\":1687:1724  Subject(_mataPelajaran[i], _nilai[i]) */\n      0xff\n      and\n      dup2\n      mstore\n      pop\n        /* \"Desktop/Smart Contract/sc_ijazah/backend/sc-service/smartcontract/contracts/ijazah_v3.sol\":1657:1668  transcripts */\n      0x02\n        /* \"Desktop/Smart Contract/sc_ijazah/backend/sc-service/smartcontract/contracts/ijazah_v3.sol\":1657:1681  transcripts[_degreeHash] */\n      0x00\n        /* \"Desktop/Smart Contract/sc_ijazah/backend/sc-service/smartcontract/contracts/ijazah_v3.sol\":1669:1680  _degreeHash */\n      dup12\n        /* \"Desktop/Smart Contract/sc_ijazah/backend/sc-service/smartcontract/contracts/ijazah_v3.sol\":1657:1681  transcripts[_degreeHash] */\n      dup2\n      mstore\n      0x20\n      add\n      swap1\n      dup2\n      mstore\n      0x20\n      add\n      0x00\n      keccak256\n        /* \"Desktop/Smart Contract/sc_ijazah/backend/sc-service/smartcontract/contracts/ijazah_v3.sol\":1657:1684  transcripts[_degreeHash][i] */\n      0x00\n        /* \"Desktop/Smart Contract/sc_ijazah/backend/sc-service/smartcontract/contracts/ijazah_v3.sol\":1682:1683  i */\n      dup4\n        /* \"Desktop/Smart Contract/sc_ijazah/backend/sc-service/smartcontract/contracts/ijazah_v3.sol\":1657:1684  transcripts[_degreeHash][i] */\n      dup2\n      mstore\n      0x20\n      add\n      swap1\n      dup2\n      mstore\n      0x20\n      add\n      0x00\n      keccak256\n        /* \"Desktop/Smart Contract/sc_ijazah/backend/sc-service/smartcontract/contracts/ijazah_v3.sol\":1657:1724  transcripts[_degreeHash][i] = Subject(_mataPelajaran[i], _nilai[i]) */\n      0x00\n      dup3\n      add\n      mload\n      dup2\n      0x00\n      add\n      sstore\n      0x20\n      dup3\n      add\n      mload\n      dup2\n      0x01\n      add\n      exp(0x0100, 0x00)\n      dup2\n      sload\n      dup2\n      0xff\n      mul\n      not\n      and\n      swap1\n      dup4\n      0xff\n      and\n      mul\n      or\n      swap1\n      sstore\n      pop\n      swap1\n      pop\n      pop\n        /* \"Desktop/Smart Contract/sc_ijazah/backend/sc-service/smartcontract/contracts/ijazah_v3.sol\":1637:1640  i++ */\n      dup1\n      dup1\n      tag_62\n      swap1\n      tag_63\n      jump\t// in\n    tag_62:\n      swap2\n      pop\n      pop\n        /* \"Desktop/Smart Contract/sc_ijazah/backend/sc-service/smartcontract/contracts/ijazah_v3.sol\":1590:1736  for (uint256 i = 0; i < _mataPelajaran.length; i++) {\r... */\n      jump(tag_55)\n    tag_56:\n      pop\n        /* \"Desktop/Smart Contract/sc_ijazah/backend/sc-service/smartcontract/contracts/ijazah_v3.sol\":1766:1777  _degreeHash */\n      dup8\n        /* \"Desktop/Smart Contract/sc_ijazah/backend/sc-service/smartcontract/contracts/ijazah_v3.sol\":1753:1810  DegreeIssued(_degreeHash, _sekolah, _issueDate, _ipfsUrl) */\n      0x75340621c4ab21fbf7de1dedc1b6db33fa2f3d5a2029e76bdf70c0d2b1087c4b\n        /* \"Desktop/Smart Contract/sc_ijazah/backend/sc-service/smartcontract/contracts/ijazah_v3.sol\":1779:1787  _sekolah */\n      dup9\n        /* \"Desktop/Smart Contract/sc_ijazah/backend/sc-service/smartcontract/contracts/ijazah_v3.sol\":1789:1799  _issueDate */\n      dup9\n        /* \"Desktop/Smart Contract/sc_ijazah/backend/sc-service/smartcontract/contracts/ijazah_v3.sol\":1801:1809  _ipfsUrl */\n      dup9\n        /* \"Desktop/Smart Contract/sc_ijazah/backend/sc-service/smartcontract/contracts/ijazah_v3.sol\":1753:1810  DegreeIssued(_degreeHash, _sekolah, _issueDate, _ipfsUrl) */\n      mload(0x40)\n      tag_64\n      swap4\n      swap3\n      swap2\n      swap1\n      tag_65\n      jump\t// in\n    tag_64:\n      mload(0x40)\n      dup1\n      swap2\n      sub\n      swap1\n      log2\n        /* \"Desktop/Smart Contract/sc_ijazah/backend/sc-service/smartcontract/contracts/ijazah_v3.sol\":957:1818  function issueDegree(\r... */\n      pop\n      pop\n      pop\n      pop\n      pop\n      pop\n      pop\n      pop\n      jump\t// out\n        /* \"Desktop/Smart Contract/sc_ijazah/backend/sc-service/smartcontract/contracts/ijazah_v3.sol\":590:631  mapping(bytes32 => Degree) public degrees */\n    tag_29:\n      mstore(0x20, 0x01)\n      dup1\n      0x00\n      mstore\n      keccak256(0x00, 0x40)\n      0x00\n      swap2\n      pop\n      swap1\n      pop\n      dup1\n      0x00\n      add\n      sload\n      swap1\n      dup1\n      0x01\n      add\n      sload\n      swap1\n      dup1\n      0x02\n      add\n      sload\n      swap1\n      dup1\n      0x03\n      add\n      sload\n      swap1\n      dup1\n      0x04\n      add\n      0x00\n      swap1\n      sload\n      swap1\n      0x0100\n      exp\n      swap1\n      div\n      0xff\n      and\n      swap1\n      pop\n      dup6\n      jump\t// out\n        /* \"Desktop/Smart Contract/sc_ijazah/backend/sc-service/smartcontract/contracts/ijazah_v3.sol\":2090:2993  function getDegree(\r... */\n    tag_34:\n        /* \"Desktop/Smart Contract/sc_ijazah/backend/sc-service/smartcontract/contracts/ijazah_v3.sol\":2194:2201  bytes32 */\n      0x00\n        /* \"Desktop/Smart Contract/sc_ijazah/backend/sc-service/smartcontract/contracts/ijazah_v3.sol\":2203:2210  uint256 */\n      dup1\n        /* \"Desktop/Smart Contract/sc_ijazah/backend/sc-service/smartcontract/contracts/ijazah_v3.sol\":2212:2219  bytes32 */\n      0x00\n        /* \"Desktop/Smart Contract/sc_ijazah/backend/sc-service/smartcontract/contracts/ijazah_v3.sol\":2221:2237  bytes32[] memory */\n      0x60\n        /* \"Desktop/Smart Contract/sc_ijazah/backend/sc-service/smartcontract/contracts/ijazah_v3.sol\":2239:2253  uint8[] memory */\n      dup1\n        /* \"Desktop/Smart Contract/sc_ijazah/backend/sc-service/smartcontract/contracts/ijazah_v3.sol\":2271:2292  Degree storage degree */\n      0x00\n        /* \"Desktop/Smart Contract/sc_ijazah/backend/sc-service/smartcontract/contracts/ijazah_v3.sol\":2295:2302  degrees */\n      0x01\n        /* \"Desktop/Smart Contract/sc_ijazah/backend/sc-service/smartcontract/contracts/ijazah_v3.sol\":2295:2315  degrees[_degreeHash] */\n      0x00\n        /* \"Desktop/Smart Contract/sc_ijazah/backend/sc-service/smartcontract/contracts/ijazah_v3.sol\":2303:2314  _degreeHash */\n      dup9\n        /* \"Desktop/Smart Contract/sc_ijazah/backend/sc-service/smartcontract/contracts/ijazah_v3.sol\":2295:2315  degrees[_degreeHash] */\n      dup2\n      mstore\n      0x20\n      add\n      swap1\n      dup2\n      mstore\n      0x20\n      add\n      0x00\n      keccak256\n        /* \"Desktop/Smart Contract/sc_ijazah/backend/sc-service/smartcontract/contracts/ijazah_v3.sol\":2271:2315  Degree storage degree = degrees[_degreeHash] */\n      swap1\n      pop\n        /* \"Desktop/Smart Contract/sc_ijazah/backend/sc-service/smartcontract/contracts/ijazah_v3.sol\":2334:2340  degree */\n      dup1\n        /* \"Desktop/Smart Contract/sc_ijazah/backend/sc-service/smartcontract/contracts/ijazah_v3.sol\":2334:2347  degree.exists */\n      0x04\n      add\n      0x00\n      swap1\n      sload\n      swap1\n      0x0100\n      exp\n      swap1\n      div\n      0xff\n      and\n        /* \"Desktop/Smart Contract/sc_ijazah/backend/sc-service/smartcontract/contracts/ijazah_v3.sol\":2326:2375  require(degree.exists, \"Ijazah tidak ditemukan.\") */\n      tag_67\n      jumpi\n      mload(0x40)\n      0x08c379a000000000000000000000000000000000000000000000000000000000\n      dup2\n      mstore\n      0x04\n      add\n      tag_68\n      swap1\n      tag_44\n      jump\t// in\n    tag_68:\n      mload(0x40)\n      dup1\n      swap2\n      sub\n      swap1\n      revert\n    tag_67:\n        /* \"Desktop/Smart Contract/sc_ijazah/backend/sc-service/smartcontract/contracts/ijazah_v3.sol\":2388:2402  uint256 length */\n      0x00\n        /* \"Desktop/Smart Contract/sc_ijazah/backend/sc-service/smartcontract/contracts/ijazah_v3.sol\":2417:2512  while (transcripts[_degreeHash][length].name != bytes32(0)) {\r... */\n    tag_69:\n        /* \"Desktop/Smart Contract/sc_ijazah/backend/sc-service/smartcontract/contracts/ijazah_v3.sol\":2473:2474  0 */\n      0x00\n        /* \"Desktop/Smart Contract/sc_ijazah/backend/sc-service/smartcontract/contracts/ijazah_v3.sol\":2465:2475  bytes32(0) */\n      dup1\n      shl\n        /* \"Desktop/Smart Contract/sc_ijazah/backend/sc-service/smartcontract/contracts/ijazah_v3.sol\":2424:2435  transcripts */\n      0x02\n        /* \"Desktop/Smart Contract/sc_ijazah/backend/sc-service/smartcontract/contracts/ijazah_v3.sol\":2424:2448  transcripts[_degreeHash] */\n      0x00\n        /* \"Desktop/Smart Contract/sc_ijazah/backend/sc-service/smartcontract/contracts/ijazah_v3.sol\":2436:2447  _degreeHash */\n      dup11\n        /* \"Desktop/Smart Contract/sc_ijazah/backend/sc-service/smartcontract/contracts/ijazah_v3.sol\":2424:2448  transcripts[_degreeHash] */\n      dup2\n      mstore\n      0x20\n      add\n      swap1\n      dup2\n      mstore\n      0x20\n      add\n      0x00\n      keccak256\n        /* \"Desktop/Smart Contract/sc_ijazah/backend/sc-service/smartcontract/contracts/ijazah_v3.sol\":2424:2456  transcripts[_degreeHash][length] */\n      0x00\n        /* \"Desktop/Smart Contract/sc_ijazah/backend/sc-service/smartcontract/contracts/ijazah_v3.sol\":2449:2455  length */\n      dup4\n        /* \"Desktop/Smart Contract/sc_ijazah/backend/sc-service/smartcontract/contracts/ijazah_v3.sol\":2424:2456  transcripts[_degreeHash][length] */\n      dup2\n      mstore\n      0x20\n      add\n      swap1\n      dup2\n      mstore\n      0x20\n      add\n      0x00\n      keccak256\n        /* \"Desktop/Smart Contract/sc_ijazah/backend/sc-service/smartcontract/contracts/ijazah_v3.sol\":2424:2461  transcripts[_degreeHash][length].name */\n      0x00\n      add\n      sload\n        /* \"Desktop/Smart Contract/sc_ijazah/backend/sc-service/smartcontract/contracts/ijazah_v3.sol\":2424:2475  transcripts[_degreeHash][length].name != bytes32(0) */\n      eq\n        /* \"Desktop/Smart Contract/sc_ijazah/backend/sc-service/smartcontract/contracts/ijazah_v3.sol\":2417:2512  while (transcripts[_degreeHash][length].name != bytes32(0)) {\r... */\n      tag_70\n      jumpi\n        /* \"Desktop/Smart Contract/sc_ijazah/backend/sc-service/smartcontract/contracts/ijazah_v3.sol\":2492:2500  length++ */\n      dup1\n      dup1\n      tag_71\n      swap1\n      tag_63\n      jump\t// in\n    tag_71:\n      swap2\n      pop\n      pop\n        /* \"Desktop/Smart Contract/sc_ijazah/backend/sc-service/smartcontract/contracts/ijazah_v3.sol\":2417:2512  while (transcripts[_degreeHash][length].name != bytes32(0)) {\r... */\n      jump(tag_69)\n    tag_70:\n        /* \"Desktop/Smart Contract/sc_ijazah/backend/sc-service/smartcontract/contracts/ijazah_v3.sol\":2524:2554  bytes32[] memory mataPelajaran */\n      0x00\n        /* \"Desktop/Smart Contract/sc_ijazah/backend/sc-service/smartcontract/contracts/ijazah_v3.sol\":2571:2577  length */\n      dup2\n        /* \"Desktop/Smart Contract/sc_ijazah/backend/sc-service/smartcontract/contracts/ijazah_v3.sol\":2557:2578  new bytes32[](length) */\n      0xffffffffffffffff\n      dup2\n      gt\n      iszero\n      tag_72\n      jumpi\n      mstore(0x00, 0x4e487b7100000000000000000000000000000000000000000000000000000000)\n      mstore(0x04, 0x41)\n      revert(0x00, 0x24)\n    tag_72:\n      mload(0x40)\n      swap1\n      dup1\n      dup3\n      mstore\n      dup1\n      0x20\n      mul\n      0x20\n      add\n      dup3\n      add\n      0x40\n      mstore\n      dup1\n      iszero\n      tag_73\n      jumpi\n      dup2\n      0x20\n      add\n      0x20\n      dup3\n      mul\n      dup1\n      calldatasize\n      dup4\n      calldatacopy\n      dup1\n      dup3\n      add\n      swap2\n      pop\n      pop\n      swap1\n      pop\n    tag_73:\n      pop\n        /* \"Desktop/Smart Contract/sc_ijazah/backend/sc-service/smartcontract/contracts/ijazah_v3.sol\":2524:2578  bytes32[] memory mataPelajaran = new bytes32[](length) */\n      swap1\n      pop\n        /* \"Desktop/Smart Contract/sc_ijazah/backend/sc-service/smartcontract/contracts/ijazah_v3.sol\":2589:2609  uint8[] memory nilai */\n      0x00\n        /* \"Desktop/Smart Contract/sc_ijazah/backend/sc-service/smartcontract/contracts/ijazah_v3.sol\":2624:2630  length */\n      dup3\n        /* \"Desktop/Smart Contract/sc_ijazah/backend/sc-service/smartcontract/contracts/ijazah_v3.sol\":2612:2631  new uint8[](length) */\n      0xffffffffffffffff\n      dup2\n      gt\n      iszero\n      tag_74\n      jumpi\n      mstore(0x00, 0x4e487b7100000000000000000000000000000000000000000000000000000000)\n      mstore(0x04, 0x41)\n      revert(0x00, 0x24)\n    tag_74:\n      mload(0x40)\n      swap1\n      dup1\n      dup3\n      mstore\n      dup1\n      0x20\n      mul\n      0x20\n      add\n      dup3\n      add\n      0x40\n      mstore\n      dup1\n      iszero\n      tag_75\n      jumpi\n      dup2\n      0x20\n      add\n      0x20\n      dup3\n      mul\n      dup1\n      calldatasize\n      dup4\n      calldatacopy\n      dup1\n      dup3\n      add\n      swap2\n      pop\n      pop\n      swap1\n      pop\n    tag_75:\n      pop\n        /* \"Desktop/Smart Contract/sc_ijazah/backend/sc-service/smartcontract/contracts/ijazah_v3.sol\":2589:2631  uint8[] memory nilai = new uint8[](length) */\n      swap1\n      pop\n        /* \"Desktop/Smart Contract/sc_ijazah/backend/sc-service/smartcontract/contracts/ijazah_v3.sol\":2649:2658  uint256 i */\n      0x00\n        /* \"Desktop/Smart Contract/sc_ijazah/backend/sc-service/smartcontract/contracts/ijazah_v3.sol\":2644:2818  for (uint256 i = 0; i < length; i++) {\r... */\n    tag_76:\n        /* \"Desktop/Smart Contract/sc_ijazah/backend/sc-service/smartcontract/contracts/ijazah_v3.sol\":2668:2674  length */\n      dup4\n        /* \"Desktop/Smart Contract/sc_ijazah/backend/sc-service/smartcontract/contracts/ijazah_v3.sol\":2664:2665  i */\n      dup2\n        /* \"Desktop/Smart Contract/sc_ijazah/backend/sc-service/smartcontract/contracts/ijazah_v3.sol\":2664:2674  i < length */\n      lt\n        /* \"Desktop/Smart Contract/sc_ijazah/backend/sc-service/smartcontract/contracts/ijazah_v3.sol\":2644:2818  for (uint256 i = 0; i < length; i++) {\r... */\n      iszero\n      tag_77\n      jumpi\n        /* \"Desktop/Smart Contract/sc_ijazah/backend/sc-service/smartcontract/contracts/ijazah_v3.sol\":2715:2726  transcripts */\n      0x02\n        /* \"Desktop/Smart Contract/sc_ijazah/backend/sc-service/smartcontract/contracts/ijazah_v3.sol\":2715:2739  transcripts[_degreeHash] */\n      0x00\n        /* \"Desktop/Smart Contract/sc_ijazah/backend/sc-service/smartcontract/contracts/ijazah_v3.sol\":2727:2738  _degreeHash */\n      dup13\n        /* \"Desktop/Smart Contract/sc_ijazah/backend/sc-service/smartcontract/contracts/ijazah_v3.sol\":2715:2739  transcripts[_degreeHash] */\n      dup2\n      mstore\n      0x20\n      add\n      swap1\n      dup2\n      mstore\n      0x20\n      add\n      0x00\n      keccak256\n        /* \"Desktop/Smart Contract/sc_ijazah/backend/sc-service/smartcontract/contracts/ijazah_v3.sol\":2715:2742  transcripts[_degreeHash][i] */\n      0x00\n        /* \"Desktop/Smart Contract/sc_ijazah/backend/sc-service/smartcontract/contracts/ijazah_v3.sol\":2740:2741  i */\n      dup3\n        /* \"Desktop/Smart Contract/sc_ijazah/backend/sc-service/smartcontract/contracts/ijazah_v3.sol\":2715:2742  transcripts[_degreeHash][i] */\n      dup2\n      mstore\n      0x20\n      add\n      swap1\n      dup2\n      mstore\n      0x20\n      add\n      0x00\n      keccak256\n        /* \"Desktop/Smart Contract/sc_ijazah/backend/sc-service/smartcontract/contracts/ijazah_v3.sol\":2715:2747  transcripts[_degreeHash][i].name */\n      0x00\n      add\n      sload\n        /* \"Desktop/Smart Contract/sc_ijazah/backend/sc-service/smartcontract/contracts/ijazah_v3.sol\":2696:2709  mataPelajaran */\n      dup4\n        /* \"Desktop/Smart Contract/sc_ijazah/backend/sc-service/smartcontract/contracts/ijazah_v3.sol\":2710:2711  i */\n      dup3\n        /* \"Desktop/Smart Contract/sc_ijazah/backend/sc-service/smartcontract/contracts/ijazah_v3.sol\":2696:2712  mataPelajaran[i] */\n      dup2\n      mload\n      dup2\n      lt\n      tag_79\n      jumpi\n      mstore(0x00, 0x4e487b7100000000000000000000000000000000000000000000000000000000)\n      mstore(0x04, 0x32)\n      revert(0x00, 0x24)\n    tag_79:\n      0x20\n      mul\n      0x20\n      add\n      add\n        /* \"Desktop/Smart Contract/sc_ijazah/backend/sc-service/smartcontract/contracts/ijazah_v3.sol\":2696:2747  mataPelajaran[i] = transcripts[_degreeHash][i].name */\n      dup2\n      dup2\n      mstore\n      pop\n      pop\n        /* \"Desktop/Smart Contract/sc_ijazah/backend/sc-service/smartcontract/contracts/ijazah_v3.sol\":2773:2784  transcripts */\n      0x02\n        /* \"Desktop/Smart Contract/sc_ijazah/backend/sc-service/smartcontract/contracts/ijazah_v3.sol\":2773:2797  transcripts[_degreeHash] */\n      0x00\n        /* \"Desktop/Smart Contract/sc_ijazah/backend/sc-service/smartcontract/contracts/ijazah_v3.sol\":2785:2796  _degreeHash */\n      dup13\n        /* \"Desktop/Smart Contract/sc_ijazah/backend/sc-service/smartcontract/contracts/ijazah_v3.sol\":2773:2797  transcripts[_degreeHash] */\n      dup2\n      mstore\n      0x20\n      add\n      swap1\n      dup2\n      mstore\n      0x20\n      add\n      0x00\n      keccak256\n        /* \"Desktop/Smart Contract/sc_ijazah/backend/sc-service/smartcontract/contracts/ijazah_v3.sol\":2773:2800  transcripts[_degreeHash][i] */\n      0x00\n        /* \"Desktop/Smart Contract/sc_ijazah/backend/sc-service/smartcontract/contracts/ijazah_v3.sol\":2798:2799  i */\n      dup3\n        /* \"Desktop/Smart Contract/sc_ijazah/backend/sc-service/smartcontract/contracts/ijazah_v3.sol\":2773:2800  transcripts[_degreeHash][i] */\n      dup2\n      mstore\n      0x20\n      add\n      swap1\n      dup2\n      mstore\n      0x20\n      add\n      0x00\n      keccak256\n        /* \"Desktop/Smart Contract/sc_ijazah/backend/sc-service/smartcontract/contracts/ijazah_v3.sol\":2773:2806  transcripts[_degreeHash][i].grade */\n      0x01\n      add\n      0x00\n      swap1\n      sload\n      swap1\n      0x0100\n      exp\n      swap1\n      div\n      0xff\n      and\n        /* \"Desktop/Smart Contract/sc_ijazah/backend/sc-service/smartcontract/contracts/ijazah_v3.sol\":2762:2767  nilai */\n      dup3\n        /* \"Desktop/Smart Contract/sc_ijazah/backend/sc-service/smartcontract/contracts/ijazah_v3.sol\":2768:2769  i */\n      dup3\n        /* \"Desktop/Smart Contract/sc_ijazah/backend/sc-service/smartcontract/contracts/ijazah_v3.sol\":2762:2770  nilai[i] */\n      dup2\n      mload\n      dup2\n      lt\n      tag_80\n      jumpi\n      mstore(0x00, 0x4e487b7100000000000000000000000000000000000000000000000000000000)\n      mstore(0x04, 0x32)\n      revert(0x00, 0x24)\n    tag_80:\n      0x20\n      mul\n      0x20\n      add\n      add\n        /* \"Desktop/Smart Contract/sc_ijazah/backend/sc-service/smartcontract/contracts/ijazah_v3.sol\":2762:2806  nilai[i] = transcripts[_degreeHash][i].grade */\n      swap1\n      0xff\n      and\n      swap1\n      dup2\n      0xff\n      and\n      dup2\n      mstore\n      pop\n      pop\n        /* \"Desktop/Smart Contract/sc_ijazah/backend/sc-service/smartcontract/contracts/ijazah_v3.sol\":2676:2679  i++ */\n      dup1\n      dup1\n      tag_81\n      swap1\n      tag_63\n      jump\t// in\n    tag_81:\n      swap2\n      pop\n      pop\n        /* \"Desktop/Smart Contract/sc_ijazah/backend/sc-service/smartcontract/contracts/ijazah_v3.sol\":2644:2818  for (uint256 i = 0; i < length; i++) {\r... */\n      jump(tag_76)\n    tag_77:\n      pop\n        /* \"Desktop/Smart Contract/sc_ijazah/backend/sc-service/smartcontract/contracts/ijazah_v3.sol\":2852:2858  degree */\n      dup4\n        /* \"Desktop/Smart Contract/sc_ijazah/backend/sc-service/smartcontract/contracts/ijazah_v3.sol\":2852:2866  degree.sekolah */\n      0x01\n      add\n      sload\n        /* \"Desktop/Smart Contract/sc_ijazah/backend/sc-service/smartcontract/contracts/ijazah_v3.sol\":2881:2887  degree */\n      dup5\n        /* \"Desktop/Smart Contract/sc_ijazah/backend/sc-service/smartcontract/contracts/ijazah_v3.sol\":2881:2897  degree.issueDate */\n      0x02\n      add\n      sload\n        /* \"Desktop/Smart Contract/sc_ijazah/backend/sc-service/smartcontract/contracts/ijazah_v3.sol\":2912:2918  degree */\n      dup6\n        /* \"Desktop/Smart Contract/sc_ijazah/backend/sc-service/smartcontract/contracts/ijazah_v3.sol\":2912:2926  degree.ipfsUrl */\n      0x03\n      add\n      sload\n        /* \"Desktop/Smart Contract/sc_ijazah/backend/sc-service/smartcontract/contracts/ijazah_v3.sol\":2941:2954  mataPelajaran */\n      dup5\n        /* \"Desktop/Smart Contract/sc_ijazah/backend/sc-service/smartcontract/contracts/ijazah_v3.sol\":2969:2974  nilai */\n      dup5\n        /* \"Desktop/Smart Contract/sc_ijazah/backend/sc-service/smartcontract/contracts/ijazah_v3.sol\":2830:2985  return (\r... */\n      swap9\n      pop\n      swap9\n      pop\n      swap9\n      pop\n      swap9\n      pop\n      swap9\n      pop\n      pop\n      pop\n      pop\n      pop\n        /* \"Desktop/Smart Contract/sc_ijazah/backend/sc-service/smartcontract/contracts/ijazah_v3.sol\":2090:2993  function getDegree(\r... */\n      swap2\n      swap4\n      swap6\n      swap1\n      swap3\n      swap5\n      pop\n      jump\t// out\n        /* \"#utility.yul\":24:391   */\n    tag_83:\n      0x00\n      dup1\n        /* \"#utility.yul\":157:160   */\n      dup4\n        /* \"#utility.yul\":150:154   */\n      0x1f\n        /* \"#utility.yul\":142:148   */\n      dup5\n        /* \"#utility.yul\":138:155   */\n      add\n        /* \"#utility.yul\":134:161   */\n      slt\n        /* \"#utility.yul\":124:126   */\n      tag_85\n      jumpi\n        /* \"#utility.yul\":175:176   */\n      0x00\n        /* \"#utility.yul\":172:173   */\n      dup1\n        /* \"#utility.yul\":165:177   */\n      revert\n        /* \"#utility.yul\":124:126   */\n    tag_85:\n        /* \"#utility.yul\":211:217   */\n      dup3\n        /* \"#utility.yul\":198:218   */\n      calldataload\n        /* \"#utility.yul\":188:218   */\n      swap1\n      pop\n        /* \"#utility.yul\":241:259   */\n      0xffffffffffffffff\n        /* \"#utility.yul\":233:239   */\n      dup2\n        /* \"#utility.yul\":230:260   */\n      gt\n        /* \"#utility.yul\":227:229   */\n      iszero\n      tag_86\n      jumpi\n        /* \"#utility.yul\":273:274   */\n      0x00\n        /* \"#utility.yul\":270:271   */\n      dup1\n        /* \"#utility.yul\":263:275   */\n      revert\n        /* \"#utility.yul\":227:229   */\n    tag_86:\n        /* \"#utility.yul\":310:314   */\n      0x20\n        /* \"#utility.yul\":302:308   */\n      dup4\n        /* \"#utility.yul\":298:315   */\n      add\n        /* \"#utility.yul\":286:315   */\n      swap2\n      pop\n        /* \"#utility.yul\":364:367   */\n      dup4\n        /* \"#utility.yul\":356:360   */\n      0x20\n        /* \"#utility.yul\":348:354   */\n      dup3\n        /* \"#utility.yul\":344:361   */\n      mul\n        /* \"#utility.yul\":334:342   */\n      dup4\n        /* \"#utility.yul\":330:362   */\n      add\n        /* \"#utility.yul\":327:368   */\n      gt\n        /* \"#utility.yul\":324:326   */\n      iszero\n      tag_87\n      jumpi\n        /* \"#utility.yul\":381:382   */\n      0x00\n        /* \"#utility.yul\":378:379   */\n      dup1\n        /* \"#utility.yul\":371:383   */\n      revert\n        /* \"#utility.yul\":324:326   */\n    tag_87:\n        /* \"#utility.yul\":114:391   */\n      swap3\n      pop\n      swap3\n      swap1\n      pop\n      jump\t// out\n        /* \"#utility.yul\":412:777   */\n    tag_88:\n      0x00\n      dup1\n        /* \"#utility.yul\":543:546   */\n      dup4\n        /* \"#utility.yul\":536:540   */\n      0x1f\n        /* \"#utility.yul\":528:534   */\n      dup5\n        /* \"#utility.yul\":524:541   */\n      add\n        /* \"#utility.yul\":520:547   */\n      slt\n        /* \"#utility.yul\":510:512   */\n      tag_90\n      jumpi\n        /* \"#utility.yul\":561:562   */\n      0x00\n        /* \"#utility.yul\":558:559   */\n      dup1\n        /* \"#utility.yul\":551:563   */\n      revert\n        /* \"#utility.yul\":510:512   */\n    tag_90:\n        /* \"#utility.yul\":597:603   */\n      dup3\n        /* \"#utility.yul\":584:604   */\n      calldataload\n        /* \"#utility.yul\":574:604   */\n      swap1\n      pop\n        /* \"#utility.yul\":627:645   */\n      0xffffffffffffffff\n        /* \"#utility.yul\":619:625   */\n      dup2\n        /* \"#utility.yul\":616:646   */\n      gt\n        /* \"#utility.yul\":613:615   */\n      iszero\n      tag_91\n      jumpi\n        /* \"#utility.yul\":659:660   */\n      0x00\n        /* \"#utility.yul\":656:657   */\n      dup1\n        /* \"#utility.yul\":649:661   */\n      revert\n        /* \"#utility.yul\":613:615   */\n    tag_91:\n        /* \"#utility.yul\":696:700   */\n      0x20\n        /* \"#utility.yul\":688:694   */\n      dup4\n        /* \"#utility.yul\":684:701   */\n      add\n        /* \"#utility.yul\":672:701   */\n      swap2\n      pop\n        /* \"#utility.yul\":750:753   */\n      dup4\n        /* \"#utility.yul\":742:746   */\n      0x20\n        /* \"#utility.yul\":734:740   */\n      dup3\n        /* \"#utility.yul\":730:747   */\n      mul\n        /* \"#utility.yul\":720:728   */\n      dup4\n        /* \"#utility.yul\":716:748   */\n      add\n        /* \"#utility.yul\":713:754   */\n      gt\n        /* \"#utility.yul\":710:712   */\n      iszero\n      tag_92\n      jumpi\n        /* \"#utility.yul\":767:768   */\n      0x00\n        /* \"#utility.yul\":764:765   */\n      dup1\n        /* \"#utility.yul\":757:769   */\n      revert\n        /* \"#utility.yul\":710:712   */\n    tag_92:\n        /* \"#utility.yul\":500:777   */\n      swap3\n      pop\n      swap3\n      swap1\n      pop\n      jump\t// out\n        /* \"#utility.yul\":783:922   */\n    tag_93:\n      0x00\n        /* \"#utility.yul\":867:873   */\n      dup2\n        /* \"#utility.yul\":854:874   */\n      calldataload\n        /* \"#utility.yul\":845:874   */\n      swap1\n      pop\n        /* \"#utility.yul\":883:916   */\n      tag_95\n        /* \"#utility.yul\":910:915   */\n      dup2\n        /* \"#utility.yul\":883:916   */\n      tag_96\n      jump\t// in\n    tag_95:\n        /* \"#utility.yul\":835:922   */\n      swap3\n      swap2\n      pop\n      pop\n      jump\t// out\n        /* \"#utility.yul\":928:1067   */\n    tag_97:\n      0x00\n        /* \"#utility.yul\":1012:1018   */\n      dup2\n        /* \"#utility.yul\":999:1019   */\n      calldataload\n        /* \"#utility.yul\":990:1019   */\n      swap1\n      pop\n        /* \"#utility.yul\":1028:1061   */\n      tag_99\n        /* \"#utility.yul\":1055:1060   */\n      dup2\n        /* \"#utility.yul\":1028:1061   */\n      tag_100\n      jump\t// in\n    tag_99:\n        /* \"#utility.yul\":980:1067   */\n      swap3\n      swap2\n      pop\n      pop\n      jump\t// out\n        /* \"#utility.yul\":1073:1208   */\n    tag_101:\n      0x00\n        /* \"#utility.yul\":1155:1161   */\n      dup2\n        /* \"#utility.yul\":1142:1162   */\n      calldataload\n        /* \"#utility.yul\":1133:1162   */\n      swap1\n      pop\n        /* \"#utility.yul\":1171:1202   */\n      tag_103\n        /* \"#utility.yul\":1196:1201   */\n      dup2\n        /* \"#utility.yul\":1171:1202   */\n      tag_104\n      jump\t// in\n    tag_103:\n        /* \"#utility.yul\":1123:1208   */\n      swap3\n      swap2\n      pop\n      pop\n      jump\t// out\n        /* \"#utility.yul\":1214:1476   */\n    tag_21:\n      0x00\n        /* \"#utility.yul\":1322:1324   */\n      0x20\n        /* \"#utility.yul\":1310:1319   */\n      dup3\n        /* \"#utility.yul\":1301:1308   */\n      dup5\n        /* \"#utility.yul\":1297:1320   */\n      sub\n        /* \"#utility.yul\":1293:1325   */\n      slt\n        /* \"#utility.yul\":1290:1292   */\n      iszero\n      tag_106\n      jumpi\n        /* \"#utility.yul\":1338:1339   */\n      0x00\n        /* \"#utility.yul\":1335:1336   */\n      dup1\n        /* \"#utility.yul\":1328:1340   */\n      revert\n        /* \"#utility.yul\":1290:1292   */\n    tag_106:\n        /* \"#utility.yul\":1381:1382   */\n      0x00\n        /* \"#utility.yul\":1406:1459   */\n      tag_107\n        /* \"#utility.yul\":1451:1458   */\n      dup5\n        /* \"#utility.yul\":1442:1448   */\n      dup3\n        /* \"#utility.yul\":1431:1440   */\n      dup6\n        /* \"#utility.yul\":1427:1449   */\n      add\n        /* \"#utility.yul\":1406:1459   */\n      tag_93\n      jump\t// in\n    tag_107:\n        /* \"#utility.yul\":1396:1459   */\n      swap2\n      pop\n        /* \"#utility.yul\":1352:1469   */\n      pop\n        /* \"#utility.yul\":1280:1476   */\n      swap3\n      swap2\n      pop\n      pop\n      jump\t// out\n        /* \"#utility.yul\":1482:2794   */\n    tag_25:\n      0x00\n      dup1\n      0x00\n      dup1\n      0x00\n      dup1\n      0x00\n      dup1\n        /* \"#utility.yul\":1743:1746   */\n      0xc0\n        /* \"#utility.yul\":1731:1740   */\n      dup10\n        /* \"#utility.yul\":1722:1729   */\n      dup12\n        /* \"#utility.yul\":1718:1741   */\n      sub\n        /* \"#utility.yul\":1714:1747   */\n      slt\n        /* \"#utility.yul\":1711:1713   */\n      iszero\n      tag_109\n      jumpi\n        /* \"#utility.yul\":1760:1761   */\n      0x00\n        /* \"#utility.yul\":1757:1758   */\n      dup1\n        /* \"#utility.yul\":1750:1762   */\n      revert\n        /* \"#utility.yul\":1711:1713   */\n    tag_109:\n        /* \"#utility.yul\":1803:1804   */\n      0x00\n        /* \"#utility.yul\":1828:1881   */\n      tag_110\n        /* \"#utility.yul\":1873:1880   */\n      dup12\n        /* \"#utility.yul\":1864:1870   */\n      dup3\n        /* \"#utility.yul\":1853:1862   */\n      dup13\n        /* \"#utility.yul\":1849:1871   */\n      add\n        /* \"#utility.yul\":1828:1881   */\n      tag_93\n      jump\t// in\n    tag_110:\n        /* \"#utility.yul\":1818:1881   */\n      swap9\n      pop\n        /* \"#utility.yul\":1774:1891   */\n      pop\n        /* \"#utility.yul\":1930:1932   */\n      0x20\n        /* \"#utility.yul\":1956:2009   */\n      tag_111\n        /* \"#utility.yul\":2001:2008   */\n      dup12\n        /* \"#utility.yul\":1992:1998   */\n      dup3\n        /* \"#utility.yul\":1981:1990   */\n      dup13\n        /* \"#utility.yul\":1977:1999   */\n      add\n        /* \"#utility.yul\":1956:2009   */\n      tag_93\n      jump\t// in\n    tag_111:\n        /* \"#utility.yul\":1946:2009   */\n      swap8\n      pop\n        /* \"#utility.yul\":1901:2019   */\n      pop\n        /* \"#utility.yul\":2058:2060   */\n      0x40\n        /* \"#utility.yul\":2084:2137   */\n      tag_112\n        /* \"#utility.yul\":2129:2136   */\n      dup12\n        /* \"#utility.yul\":2120:2126   */\n      dup3\n        /* \"#utility.yul\":2109:2118   */\n      dup13\n        /* \"#utility.yul\":2105:2127   */\n      add\n        /* \"#utility.yul\":2084:2137   */\n      tag_97\n      jump\t// in\n    tag_112:\n        /* \"#utility.yul\":2074:2137   */\n      swap7\n      pop\n        /* \"#utility.yul\":2029:2147   */\n      pop\n        /* \"#utility.yul\":2186:2188   */\n      0x60\n        /* \"#utility.yul\":2212:2265   */\n      tag_113\n        /* \"#utility.yul\":2257:2264   */\n      dup12\n        /* \"#utility.yul\":2248:2254   */\n      dup3\n        /* \"#utility.yul\":2237:2246   */\n      dup13\n        /* \"#utility.yul\":2233:2255   */\n      add\n        /* \"#utility.yul\":2212:2265   */\n      tag_93\n      jump\t// in\n    tag_113:\n        /* \"#utility.yul\":2202:2265   */\n      swap6\n      pop\n        /* \"#utility.yul\":2157:2275   */\n      pop\n        /* \"#utility.yul\":2342:2345   */\n      0x80\n        /* \"#utility.yul\":2331:2340   */\n      dup10\n        /* \"#utility.yul\":2327:2346   */\n      add\n        /* \"#utility.yul\":2314:2347   */\n      calldataload\n        /* \"#utility.yul\":2374:2392   */\n      0xffffffffffffffff\n        /* \"#utility.yul\":2366:2372   */\n      dup2\n        /* \"#utility.yul\":2363:2393   */\n      gt\n        /* \"#utility.yul\":2360:2362   */\n      iszero\n      tag_114\n      jumpi\n        /* \"#utility.yul\":2406:2407   */\n      0x00\n        /* \"#utility.yul\":2403:2404   */\n      dup1\n        /* \"#utility.yul\":2396:2408   */\n      revert\n        /* \"#utility.yul\":2360:2362   */\n    tag_114:\n        /* \"#utility.yul\":2442:2522   */\n      tag_115\n        /* \"#utility.yul\":2514:2521   */\n      dup12\n        /* \"#utility.yul\":2505:2511   */\n      dup3\n        /* \"#utility.yul\":2494:2503   */\n      dup13\n        /* \"#utility.yul\":2490:2512   */\n      add\n        /* \"#utility.yul\":2442:2522   */\n      tag_83\n      jump\t// in\n    tag_115:\n        /* \"#utility.yul\":2424:2522   */\n      swap5\n      pop\n      swap5\n      pop\n        /* \"#utility.yul\":2285:2532   */\n      pop\n        /* \"#utility.yul\":2599:2602   */\n      0xa0\n        /* \"#utility.yul\":2588:2597   */\n      dup10\n        /* \"#utility.yul\":2584:2603   */\n      add\n        /* \"#utility.yul\":2571:2604   */\n      calldataload\n        /* \"#utility.yul\":2631:2649   */\n      0xffffffffffffffff\n        /* \"#utility.yul\":2623:2629   */\n      dup2\n        /* \"#utility.yul\":2620:2650   */\n      gt\n        /* \"#utility.yul\":2617:2619   */\n      iszero\n      tag_116\n      jumpi\n        /* \"#utility.yul\":2663:2664   */\n      0x00\n        /* \"#utility.yul\":2660:2661   */\n      dup1\n        /* \"#utility.yul\":2653:2665   */\n      revert\n        /* \"#utility.yul\":2617:2619   */\n    tag_116:\n        /* \"#utility.yul\":2699:2777   */\n      tag_117\n        /* \"#utility.yul\":2769:2776   */\n      dup12\n        /* \"#utility.yul\":2760:2766   */\n      dup3\n        /* \"#utility.yul\":2749:2758   */\n      dup13\n        /* \"#utility.yul\":2745:2767   */\n      add\n        /* \"#utility.yul\":2699:2777   */\n      tag_88\n      jump\t// in\n    tag_117:\n        /* \"#utility.yul\":2681:2777   */\n      swap3\n      pop\n      swap3\n      pop\n        /* \"#utility.yul\":2542:2787   */\n      pop\n        /* \"#utility.yul\":1701:2794   */\n      swap3\n      swap6\n      swap9\n      pop\n      swap3\n      swap6\n      swap9\n      swap1\n      swap4\n      swap7\n      pop\n      jump\t// out\n        /* \"#utility.yul\":2800:3207   */\n    tag_11:\n      0x00\n      dup1\n        /* \"#utility.yul\":2925:2927   */\n      0x40\n        /* \"#utility.yul\":2913:2922   */\n      dup4\n        /* \"#utility.yul\":2904:2911   */\n      dup6\n        /* \"#utility.yul\":2900:2923   */\n      sub\n        /* \"#utility.yul\":2896:2928   */\n      slt\n        /* \"#utility.yul\":2893:2895   */\n      iszero\n      tag_119\n      jumpi\n        /* \"#utility.yul\":2941:2942   */\n      0x00\n        /* \"#utility.yul\":2938:2939   */\n      dup1\n        /* \"#utility.yul\":2931:2943   */\n      revert\n        /* \"#utility.yul\":2893:2895   */\n    tag_119:\n        /* \"#utility.yul\":2984:2985   */\n      0x00\n        /* \"#utility.yul\":3009:3062   */\n      tag_120\n        /* \"#utility.yul\":3054:3061   */\n      dup6\n        /* \"#utility.yul\":3045:3051   */\n      dup3\n        /* \"#utility.yul\":3034:3043   */\n      dup7\n        /* \"#utility.yul\":3030:3052   */\n      add\n        /* \"#utility.yul\":3009:3062   */\n      tag_93\n      jump\t// in\n    tag_120:\n        /* \"#utility.yul\":2999:3062   */\n      swap3\n      pop\n        /* \"#utility.yul\":2955:3072   */\n      pop\n        /* \"#utility.yul\":3111:3113   */\n      0x20\n        /* \"#utility.yul\":3137:3190   */\n      tag_121\n        /* \"#utility.yul\":3182:3189   */\n      dup6\n        /* \"#utility.yul\":3173:3179   */\n      dup3\n        /* \"#utility.yul\":3162:3171   */\n      dup7\n        /* \"#utility.yul\":3158:3180   */\n      add\n        /* \"#utility.yul\":3137:3190   */\n      tag_97\n      jump\t// in\n    tag_121:\n        /* \"#utility.yul\":3127:3190   */\n      swap2\n      pop\n        /* \"#utility.yul\":3082:3200   */\n      pop\n        /* \"#utility.yul\":2883:3207   */\n      swap3\n      pop\n      swap3\n      swap1\n      pop\n      jump\t// out\n        /* \"#utility.yul\":3213:3471   */\n    tag_61:\n      0x00\n        /* \"#utility.yul\":3319:3321   */\n      0x20\n        /* \"#utility.yul\":3307:3316   */\n      dup3\n        /* \"#utility.yul\":3298:3305   */\n      dup5\n        /* \"#utility.yul\":3294:3317   */\n      sub\n        /* \"#utility.yul\":3290:3322   */\n      slt\n        /* \"#utility.yul\":3287:3289   */\n      iszero\n      tag_123\n      jumpi\n        /* \"#utility.yul\":3335:3336   */\n      0x00\n        /* \"#utility.yul\":3332:3333   */\n      dup1\n        /* \"#utility.yul\":3325:3337   */\n      revert\n        /* \"#utility.yul\":3287:3289   */\n    tag_123:\n        /* \"#utility.yul\":3378:3379   */\n      0x00\n        /* \"#utility.yul\":3403:3454   */\n      tag_124\n        /* \"#utility.yul\":3446:3453   */\n      dup5\n        /* \"#utility.yul\":3437:3443   */\n      dup3\n        /* \"#utility.yul\":3426:3435   */\n      dup6\n        /* \"#utility.yul\":3422:3444   */\n      add\n        /* \"#utility.yul\":3403:3454   */\n      tag_101\n      jump\t// in\n    tag_124:\n        /* \"#utility.yul\":3393:3454   */\n      swap2\n      pop\n        /* \"#utility.yul\":3349:3464   */\n      pop\n        /* \"#utility.yul\":3277:3471   */\n      swap3\n      swap2\n      pop\n      pop\n      jump\t// out\n        /* \"#utility.yul\":3477:3656   */\n    tag_125:\n      0x00\n        /* \"#utility.yul\":3567:3613   */\n      tag_127\n        /* \"#utility.yul\":3609:3612   */\n      dup4\n        /* \"#utility.yul\":3601:3607   */\n      dup4\n        /* \"#utility.yul\":3567:3613   */\n      tag_128\n      jump\t// in\n    tag_127:\n        /* \"#utility.yul\":3645:3649   */\n      0x20\n        /* \"#utility.yul\":3640:3643   */\n      dup4\n        /* \"#utility.yul\":3636:3650   */\n      add\n        /* \"#utility.yul\":3622:3650   */\n      swap1\n      pop\n        /* \"#utility.yul\":3557:3656   */\n      swap3\n      swap2\n      pop\n      pop\n      jump\t// out\n        /* \"#utility.yul\":3662:3833   */\n    tag_129:\n      0x00\n        /* \"#utility.yul\":3748:3790   */\n      tag_131\n        /* \"#utility.yul\":3786:3789   */\n      dup4\n        /* \"#utility.yul\":3778:3784   */\n      dup4\n        /* \"#utility.yul\":3748:3790   */\n      tag_132\n      jump\t// in\n    tag_131:\n        /* \"#utility.yul\":3822:3826   */\n      0x20\n        /* \"#utility.yul\":3817:3820   */\n      dup4\n        /* \"#utility.yul\":3813:3827   */\n      add\n        /* \"#utility.yul\":3799:3827   */\n      swap1\n      pop\n        /* \"#utility.yul\":3738:3833   */\n      swap3\n      swap2\n      pop\n      pop\n      jump\t// out\n        /* \"#utility.yul\":3839:3957   */\n    tag_133:\n        /* \"#utility.yul\":3926:3950   */\n      tag_135\n        /* \"#utility.yul\":3944:3949   */\n      dup2\n        /* \"#utility.yul\":3926:3950   */\n      tag_136\n      jump\t// in\n    tag_135:\n        /* \"#utility.yul\":3921:3924   */\n      dup3\n        /* \"#utility.yul\":3914:3951   */\n      mstore\n        /* \"#utility.yul\":3904:3957   */\n      pop\n      pop\n      jump\t// out\n        /* \"#utility.yul\":3993:4725   */\n    tag_137:\n      0x00\n        /* \"#utility.yul\":4141:4195   */\n      tag_139\n        /* \"#utility.yul\":4189:4194   */\n      dup3\n        /* \"#utility.yul\":4141:4195   */\n      tag_140\n      jump\t// in\n    tag_139:\n        /* \"#utility.yul\":4211:4297   */\n      tag_141\n        /* \"#utility.yul\":4290:4296   */\n      dup2\n        /* \"#utility.yul\":4285:4288   */\n      dup6\n        /* \"#utility.yul\":4211:4297   */\n      tag_142\n      jump\t// in\n    tag_141:\n        /* \"#utility.yul\":4204:4297   */\n      swap4\n      pop\n        /* \"#utility.yul\":4321:4377   */\n      tag_143\n        /* \"#utility.yul\":4371:4376   */\n      dup4\n        /* \"#utility.yul\":4321:4377   */\n      tag_144\n      jump\t// in\n    tag_143:\n        /* \"#utility.yul\":4400:4407   */\n      dup1\n        /* \"#utility.yul\":4431:4432   */\n      0x00\n        /* \"#utility.yul\":4416:4700   */\n    tag_145:\n        /* \"#utility.yul\":4441:4447   */\n      dup4\n        /* \"#utility.yul\":4438:4439   */\n      dup2\n        /* \"#utility.yul\":4435:4448   */\n      lt\n        /* \"#utility.yul\":4416:4700   */\n      iszero\n      tag_147\n      jumpi\n        /* \"#utility.yul\":4517:4523   */\n      dup2\n        /* \"#utility.yul\":4511:4524   */\n      mload\n        /* \"#utility.yul\":4544:4607   */\n      tag_148\n        /* \"#utility.yul\":4603:4606   */\n      dup9\n        /* \"#utility.yul\":4588:4601   */\n      dup3\n        /* \"#utility.yul\":4544:4607   */\n      tag_125\n      jump\t// in\n    tag_148:\n        /* \"#utility.yul\":4537:4607   */\n      swap8\n      pop\n        /* \"#utility.yul\":4630:4690   */\n      tag_149\n        /* \"#utility.yul\":4683:4689   */\n      dup4\n        /* \"#utility.yul\":4630:4690   */\n      tag_150\n      jump\t// in\n    tag_149:\n        /* \"#utility.yul\":4620:4690   */\n      swap3\n      pop\n        /* \"#utility.yul\":4476:4700   */\n      pop\n        /* \"#utility.yul\":4463:4464   */\n      0x01\n        /* \"#utility.yul\":4460:4461   */\n      dup2\n        /* \"#utility.yul\":4456:4465   */\n      add\n        /* \"#utility.yul\":4451:4465   */\n      swap1\n      pop\n        /* \"#utility.yul\":4416:4700   */\n      jump(tag_145)\n    tag_147:\n        /* \"#utility.yul\":4420:4434   */\n      pop\n        /* \"#utility.yul\":4716:4719   */\n      dup6\n        /* \"#utility.yul\":4709:4719   */\n      swap4\n      pop\n        /* \"#utility.yul\":4117:4725   */\n      pop\n      pop\n      pop\n      swap3\n      swap2\n      pop\n      pop\n      jump\t// out\n        /* \"#utility.yul\":4757:5473   */\n    tag_151:\n      0x00\n        /* \"#utility.yul\":4901:4953   */\n      tag_153\n        /* \"#utility.yul\":4947:4952   */\n      dup3\n        /* \"#utility.yul\":4901:4953   */\n      tag_154\n      jump\t// in\n    tag_153:\n        /* \"#utility.yul\":4969:5053   */\n      tag_155\n        /* \"#utility.yul\":5046:5052   */\n      dup2\n        /* \"#utility.yul\":5041:5044   */\n      dup6\n        /* \"#utility.yul\":4969:5053   */\n      tag_156\n      jump\t// in\n    tag_155:\n        /* \"#utility.yul\":4962:5053   */\n      swap4\n      pop\n        /* \"#utility.yul\":5077:5131   */\n      tag_157\n        /* \"#utility.yul\":5125:5130   */\n      dup4\n        /* \"#utility.yul\":5077:5131   */\n      tag_158\n      jump\t// in\n    tag_157:\n        /* \"#utility.yul\":5154:5161   */\n      dup1\n        /* \"#utility.yul\":5185:5186   */\n      0x00\n        /* \"#utility.yul\":5170:5448   */\n    tag_159:\n        /* \"#utility.yul\":5195:5201   */\n      dup4\n        /* \"#utility.yul\":5192:5193   */\n      dup2\n        /* \"#utility.yul\":5189:5202   */\n      lt\n        /* \"#utility.yul\":5170:5448   */\n      iszero\n      tag_161\n      jumpi\n        /* \"#utility.yul\":5271:5277   */\n      dup2\n        /* \"#utility.yul\":5265:5278   */\n      mload\n        /* \"#utility.yul\":5298:5357   */\n      tag_162\n        /* \"#utility.yul\":5353:5356   */\n      dup9\n        /* \"#utility.yul\":5338:5351   */\n      dup3\n        /* \"#utility.yul\":5298:5357   */\n      tag_129\n      jump\t// in\n    tag_162:\n        /* \"#utility.yul\":5291:5357   */\n      swap8\n      pop\n        /* \"#utility.yul\":5380:5438   */\n      tag_163\n        /* \"#utility.yul\":5431:5437   */\n      dup4\n        /* \"#utility.yul\":5380:5438   */\n      tag_164\n      jump\t// in\n    tag_163:\n        /* \"#utility.yul\":5370:5438   */\n      swap3\n      pop\n        /* \"#utility.yul\":5230:5448   */\n      pop\n        /* \"#utility.yul\":5217:5218   */\n      0x01\n        /* \"#utility.yul\":5214:5215   */\n      dup2\n        /* \"#utility.yul\":5210:5219   */\n      add\n        /* \"#utility.yul\":5205:5219   */\n      swap1\n      pop\n        /* \"#utility.yul\":5170:5448   */\n      jump(tag_159)\n    tag_161:\n        /* \"#utility.yul\":5174:5188   */\n      pop\n        /* \"#utility.yul\":5464:5467   */\n      dup6\n        /* \"#utility.yul\":5457:5467   */\n      swap4\n      pop\n        /* \"#utility.yul\":4877:5473   */\n      pop\n      pop\n      pop\n      swap3\n      swap2\n      pop\n      pop\n      jump\t// out\n        /* \"#utility.yul\":5479:5588   */\n    tag_165:\n        /* \"#utility.yul\":5560:5581   */\n      tag_167\n        /* \"#utility.yul\":5575:5580   */\n      dup2\n        /* \"#utility.yul\":5560:5581   */\n      tag_168\n      jump\t// in\n    tag_167:\n        /* \"#utility.yul\":5555:5558   */\n      dup3\n        /* \"#utility.yul\":5548:5582   */\n      mstore\n        /* \"#utility.yul\":5538:5588   */\n      pop\n      pop\n      jump\t// out\n        /* \"#utility.yul\":5594:5702   */\n    tag_128:\n        /* \"#utility.yul\":5671:5695   */\n      tag_170\n        /* \"#utility.yul\":5689:5694   */\n      dup2\n        /* \"#utility.yul\":5671:5695   */\n      tag_171\n      jump\t// in\n    tag_170:\n        /* \"#utility.yul\":5666:5669   */\n      dup3\n        /* \"#utility.yul\":5659:5696   */\n      mstore\n        /* \"#utility.yul\":5649:5702   */\n      pop\n      pop\n      jump\t// out\n        /* \"#utility.yul\":5708:5826   */\n    tag_172:\n        /* \"#utility.yul\":5795:5819   */\n      tag_174\n        /* \"#utility.yul\":5813:5818   */\n      dup2\n        /* \"#utility.yul\":5795:5819   */\n      tag_171\n      jump\t// in\n    tag_174:\n        /* \"#utility.yul\":5790:5793   */\n      dup3\n        /* \"#utility.yul\":5783:5820   */\n      mstore\n        /* \"#utility.yul\":5773:5826   */\n      pop\n      pop\n      jump\t// out\n        /* \"#utility.yul\":5832:6153   */\n    tag_175:\n      0x00\n        /* \"#utility.yul\":5995:6062   */\n      tag_177\n        /* \"#utility.yul\":6059:6061   */\n      0x17\n        /* \"#utility.yul\":6054:6057   */\n      dup4\n        /* \"#utility.yul\":5995:6062   */\n      tag_178\n      jump\t// in\n    tag_177:\n        /* \"#utility.yul\":5988:6062   */\n      swap2\n      pop\n        /* \"#utility.yul\":6092:6117   */\n      0x496a617a6168207375646168207465726461667461722e000000000000000000\n        /* \"#utility.yul\":6088:6089   */\n      0x00\n        /* \"#utility.yul\":6083:6086   */\n      dup4\n        /* \"#utility.yul\":6079:6090   */\n      add\n        /* \"#utility.yul\":6072:6118   */\n      mstore\n        /* \"#utility.yul\":6144:6146   */\n      0x20\n        /* \"#utility.yul\":6139:6142   */\n      dup3\n        /* \"#utility.yul\":6135:6147   */\n      add\n        /* \"#utility.yul\":6128:6147   */\n      swap1\n      pop\n        /* \"#utility.yul\":5978:6153   */\n      swap2\n      swap1\n      pop\n      jump\t// out\n        /* \"#utility.yul\":6159:6529   */\n    tag_179:\n      0x00\n        /* \"#utility.yul\":6322:6389   */\n      tag_181\n        /* \"#utility.yul\":6386:6388   */\n      0x26\n        /* \"#utility.yul\":6381:6384   */\n      dup4\n        /* \"#utility.yul\":6322:6389   */\n      tag_178\n      jump\t// in\n    tag_181:\n        /* \"#utility.yul\":6315:6389   */\n      swap2\n      pop\n        /* \"#utility.yul\":6419:6453   */\n      0x48616e79612070656d696c696b2079616e672062697361206d656c616b756b61\n        /* \"#utility.yul\":6415:6416   */\n      0x00\n        /* \"#utility.yul\":6410:6413   */\n      dup4\n        /* \"#utility.yul\":6406:6417   */\n      add\n        /* \"#utility.yul\":6399:6454   */\n      mstore\n        /* \"#utility.yul\":6485:6493   */\n      0x6e20696e692e0000000000000000000000000000000000000000000000000000\n        /* \"#utility.yul\":6480:6482   */\n      0x20\n        /* \"#utility.yul\":6475:6478   */\n      dup4\n        /* \"#utility.yul\":6471:6483   */\n      add\n        /* \"#utility.yul\":6464:6494   */\n      mstore\n        /* \"#utility.yul\":6520:6522   */\n      0x40\n        /* \"#utility.yul\":6515:6518   */\n      dup3\n        /* \"#utility.yul\":6511:6523   */\n      add\n        /* \"#utility.yul\":6504:6523   */\n      swap1\n      pop\n        /* \"#utility.yul\":6305:6529   */\n      swap2\n      swap1\n      pop\n      jump\t// out\n        /* \"#utility.yul\":6535:6856   */\n    tag_182:\n      0x00\n        /* \"#utility.yul\":6698:6765   */\n      tag_184\n        /* \"#utility.yul\":6762:6764   */\n      0x17\n        /* \"#utility.yul\":6757:6760   */\n      dup4\n        /* \"#utility.yul\":6698:6765   */\n      tag_178\n      jump\t// in\n    tag_184:\n        /* \"#utility.yul\":6691:6765   */\n      swap2\n      pop\n        /* \"#utility.yul\":6795:6820   */\n      0x496a617a616820746964616b20646974656d756b616e2e000000000000000000\n        /* \"#utility.yul\":6791:6792   */\n      0x00\n        /* \"#utility.yul\":6786:6789   */\n      dup4\n        /* \"#utility.yul\":6782:6793   */\n      add\n        /* \"#utility.yul\":6775:6821   */\n      mstore\n        /* \"#utility.yul\":6847:6849   */\n      0x20\n        /* \"#utility.yul\":6842:6845   */\n      dup3\n        /* \"#utility.yul\":6838:6850   */\n      add\n        /* \"#utility.yul\":6831:6850   */\n      swap1\n      pop\n        /* \"#utility.yul\":6681:6856   */\n      swap2\n      swap1\n      pop\n      jump\t// out\n        /* \"#utility.yul\":6862:7237   */\n    tag_185:\n      0x00\n        /* \"#utility.yul\":7025:7092   */\n      tag_187\n        /* \"#utility.yul\":7089:7091   */\n      0x2b\n        /* \"#utility.yul\":7084:7087   */\n      dup4\n        /* \"#utility.yul\":7025:7092   */\n      tag_178\n      jump\t// in\n    tag_187:\n        /* \"#utility.yul\":7018:7092   */\n      swap2\n      pop\n        /* \"#utility.yul\":7122:7156   */\n      0x4a756d6c6168206d6174612070656c616a6172616e2064616e206e696c616920\n        /* \"#utility.yul\":7118:7119   */\n      0x00\n        /* \"#utility.yul\":7113:7116   */\n      dup4\n        /* \"#utility.yul\":7109:7120   */\n      add\n        /* \"#utility.yul\":7102:7157   */\n      mstore\n        /* \"#utility.yul\":7188:7201   */\n      0x68617275732073616d612e000000000000000000000000000000000000000000\n        /* \"#utility.yul\":7183:7185   */\n      0x20\n        /* \"#utility.yul\":7178:7181   */\n      dup4\n        /* \"#utility.yul\":7174:7186   */\n      add\n        /* \"#utility.yul\":7167:7202   */\n      mstore\n        /* \"#utility.yul\":7228:7230   */\n      0x40\n        /* \"#utility.yul\":7223:7226   */\n      dup3\n        /* \"#utility.yul\":7219:7231   */\n      add\n        /* \"#utility.yul\":7212:7231   */\n      swap1\n      pop\n        /* \"#utility.yul\":7008:7237   */\n      swap2\n      swap1\n      pop\n      jump\t// out\n        /* \"#utility.yul\":7243:7361   */\n    tag_188:\n        /* \"#utility.yul\":7330:7354   */\n      tag_190\n        /* \"#utility.yul\":7348:7353   */\n      dup2\n        /* \"#utility.yul\":7330:7354   */\n      tag_191\n      jump\t// in\n    tag_190:\n        /* \"#utility.yul\":7325:7328   */\n      dup3\n        /* \"#utility.yul\":7318:7355   */\n      mstore\n        /* \"#utility.yul\":7308:7361   */\n      pop\n      pop\n      jump\t// out\n        /* \"#utility.yul\":7367:7469   */\n    tag_132:\n        /* \"#utility.yul\":7440:7462   */\n      tag_193\n        /* \"#utility.yul\":7456:7461   */\n      dup2\n        /* \"#utility.yul\":7440:7462   */\n      tag_194\n      jump\t// in\n    tag_193:\n        /* \"#utility.yul\":7435:7438   */\n      dup3\n        /* \"#utility.yul\":7428:7463   */\n      mstore\n        /* \"#utility.yul\":7418:7469   */\n      pop\n      pop\n      jump\t// out\n        /* \"#utility.yul\":7475:7587   */\n    tag_195:\n        /* \"#utility.yul\":7558:7580   */\n      tag_197\n        /* \"#utility.yul\":7574:7579   */\n      dup2\n        /* \"#utility.yul\":7558:7580   */\n      tag_194\n      jump\t// in\n    tag_197:\n        /* \"#utility.yul\":7553:7556   */\n      dup3\n        /* \"#utility.yul\":7546:7581   */\n      mstore\n        /* \"#utility.yul\":7536:7587   */\n      pop\n      pop\n      jump\t// out\n        /* \"#utility.yul\":7593:7815   */\n    tag_18:\n      0x00\n        /* \"#utility.yul\":7724:7726   */\n      0x20\n        /* \"#utility.yul\":7713:7722   */\n      dup3\n        /* \"#utility.yul\":7709:7727   */\n      add\n        /* \"#utility.yul\":7701:7727   */\n      swap1\n      pop\n        /* \"#utility.yul\":7737:7808   */\n      tag_199\n        /* \"#utility.yul\":7805:7806   */\n      0x00\n        /* \"#utility.yul\":7794:7803   */\n      dup4\n        /* \"#utility.yul\":7790:7807   */\n      add\n        /* \"#utility.yul\":7781:7787   */\n      dup5\n        /* \"#utility.yul\":7737:7808   */\n      tag_133\n      jump\t// in\n    tag_199:\n        /* \"#utility.yul\":7691:7815   */\n      swap3\n      swap2\n      pop\n      pop\n      jump\t// out\n        /* \"#utility.yul\":7821:8473   */\n    tag_31:\n      0x00\n        /* \"#utility.yul\":8058:8061   */\n      0xa0\n        /* \"#utility.yul\":8047:8056   */\n      dup3\n        /* \"#utility.yul\":8043:8062   */\n      add\n        /* \"#utility.yul\":8035:8062   */\n      swap1\n      pop\n        /* \"#utility.yul\":8072:8143   */\n      tag_201\n        /* \"#utility.yul\":8140:8141   */\n      0x00\n        /* \"#utility.yul\":8129:8138   */\n      dup4\n        /* \"#utility.yul\":8125:8142   */\n      add\n        /* \"#utility.yul\":8116:8122   */\n      dup9\n        /* \"#utility.yul\":8072:8143   */\n      tag_172\n      jump\t// in\n    tag_201:\n        /* \"#utility.yul\":8153:8225   */\n      tag_202\n        /* \"#utility.yul\":8221:8223   */\n      0x20\n        /* \"#utility.yul\":8210:8219   */\n      dup4\n        /* \"#utility.yul\":8206:8224   */\n      add\n        /* \"#utility.yul\":8197:8203   */\n      dup8\n        /* \"#utility.yul\":8153:8225   */\n      tag_172\n      jump\t// in\n    tag_202:\n        /* \"#utility.yul\":8235:8307   */\n      tag_203\n        /* \"#utility.yul\":8303:8305   */\n      0x40\n        /* \"#utility.yul\":8292:8301   */\n      dup4\n        /* \"#utility.yul\":8288:8306   */\n      add\n        /* \"#utility.yul\":8279:8285   */\n      dup7\n        /* \"#utility.yul\":8235:8307   */\n      tag_188\n      jump\t// in\n    tag_203:\n        /* \"#utility.yul\":8317:8389   */\n      tag_204\n        /* \"#utility.yul\":8385:8387   */\n      0x60\n        /* \"#utility.yul\":8374:8383   */\n      dup4\n        /* \"#utility.yul\":8370:8388   */\n      add\n        /* \"#utility.yul\":8361:8367   */\n      dup6\n        /* \"#utility.yul\":8317:8389   */\n      tag_172\n      jump\t// in\n    tag_204:\n        /* \"#utility.yul\":8399:8466   */\n      tag_205\n        /* \"#utility.yul\":8461:8464   */\n      0x80\n        /* \"#utility.yul\":8450:8459   */\n      dup4\n        /* \"#utility.yul\":8446:8465   */\n      add\n        /* \"#utility.yul\":8437:8443   */\n      dup5\n        /* \"#utility.yul\":8399:8466   */\n      tag_165\n      jump\t// in\n    tag_205:\n        /* \"#utility.yul\":8025:8473   */\n      swap7\n      swap6\n      pop\n      pop\n      pop\n      pop\n      pop\n      pop\n      jump\t// out\n        /* \"#utility.yul\":8479:8921   */\n    tag_65:\n      0x00\n        /* \"#utility.yul\":8666:8668   */\n      0x60\n        /* \"#utility.yul\":8655:8664   */\n      dup3\n        /* \"#utility.yul\":8651:8669   */\n      add\n        /* \"#utility.yul\":8643:8669   */\n      swap1\n      pop\n        /* \"#utility.yul\":8679:8750   */\n      tag_207\n        /* \"#utility.yul\":8747:8748   */\n      0x00\n        /* \"#utility.yul\":8736:8745   */\n      dup4\n        /* \"#utility.yul\":8732:8749   */\n      add\n        /* \"#utility.yul\":8723:8729   */\n      dup7\n        /* \"#utility.yul\":8679:8750   */\n      tag_172\n      jump\t// in\n    tag_207:\n        /* \"#utility.yul\":8760:8832   */\n      tag_208\n        /* \"#utility.yul\":8828:8830   */\n      0x20\n        /* \"#utility.yul\":8817:8826   */\n      dup4\n        /* \"#utility.yul\":8813:8831   */\n      add\n        /* \"#utility.yul\":8804:8810   */\n      dup6\n        /* \"#utility.yul\":8760:8832   */\n      tag_188\n      jump\t// in\n    tag_208:\n        /* \"#utility.yul\":8842:8914   */\n      tag_209\n        /* \"#utility.yul\":8910:8912   */\n      0x40\n        /* \"#utility.yul\":8899:8908   */\n      dup4\n        /* \"#utility.yul\":8895:8913   */\n      add\n        /* \"#utility.yul\":8886:8892   */\n      dup5\n        /* \"#utility.yul\":8842:8914   */\n      tag_172\n      jump\t// in\n    tag_209:\n        /* \"#utility.yul\":8633:8921   */\n      swap5\n      swap4\n      pop\n      pop\n      pop\n      pop\n      jump\t// out\n        /* \"#utility.yul\":8927:9885   */\n    tag_36:\n      0x00\n        /* \"#utility.yul\":9266:9269   */\n      0xa0\n        /* \"#utility.yul\":9255:9264   */\n      dup3\n        /* \"#utility.yul\":9251:9270   */\n      add\n        /* \"#utility.yul\":9243:9270   */\n      swap1\n      pop\n        /* \"#utility.yul\":9280:9351   */\n      tag_211\n        /* \"#utility.yul\":9348:9349   */\n      0x00\n        /* \"#utility.yul\":9337:9346   */\n      dup4\n        /* \"#utility.yul\":9333:9350   */\n      add\n        /* \"#utility.yul\":9324:9330   */\n      dup9\n        /* \"#utility.yul\":9280:9351   */\n      tag_172\n      jump\t// in\n    tag_211:\n        /* \"#utility.yul\":9361:9433   */\n      tag_212\n        /* \"#utility.yul\":9429:9431   */\n      0x20\n        /* \"#utility.yul\":9418:9427   */\n      dup4\n        /* \"#utility.yul\":9414:9432   */\n      add\n        /* \"#utility.yul\":9405:9411   */\n      dup8\n        /* \"#utility.yul\":9361:9433   */\n      tag_188\n      jump\t// in\n    tag_212:\n        /* \"#utility.yul\":9443:9515   */\n      tag_213\n        /* \"#utility.yul\":9511:9513   */\n      0x40\n        /* \"#utility.yul\":9500:9509   */\n      dup4\n        /* \"#utility.yul\":9496:9514   */\n      add\n        /* \"#utility.yul\":9487:9493   */\n      dup7\n        /* \"#utility.yul\":9443:9515   */\n      tag_172\n      jump\t// in\n    tag_213:\n        /* \"#utility.yul\":9562:9571   */\n      dup2\n        /* \"#utility.yul\":9556:9560   */\n      dup2\n        /* \"#utility.yul\":9552:9572   */\n      sub\n        /* \"#utility.yul\":9547:9549   */\n      0x60\n        /* \"#utility.yul\":9536:9545   */\n      dup4\n        /* \"#utility.yul\":9532:9550   */\n      add\n        /* \"#utility.yul\":9525:9573   */\n      mstore\n        /* \"#utility.yul\":9590:9698   */\n      tag_214\n        /* \"#utility.yul\":9693:9697   */\n      dup2\n        /* \"#utility.yul\":9684:9690   */\n      dup6\n        /* \"#utility.yul\":9590:9698   */\n      tag_137\n      jump\t// in\n    tag_214:\n        /* \"#utility.yul\":9582:9698   */\n      swap1\n      pop\n        /* \"#utility.yul\":9746:9755   */\n      dup2\n        /* \"#utility.yul\":9740:9744   */\n      dup2\n        /* \"#utility.yul\":9736:9756   */\n      sub\n        /* \"#utility.yul\":9730:9733   */\n      0x80\n        /* \"#utility.yul\":9719:9728   */\n      dup4\n        /* \"#utility.yul\":9715:9734   */\n      add\n        /* \"#utility.yul\":9708:9757   */\n      mstore\n        /* \"#utility.yul\":9774:9878   */\n      tag_215\n        /* \"#utility.yul\":9873:9877   */\n      dup2\n        /* \"#utility.yul\":9864:9870   */\n      dup5\n        /* \"#utility.yul\":9774:9878   */\n      tag_151\n      jump\t// in\n    tag_215:\n        /* \"#utility.yul\":9766:9878   */\n      swap1\n      pop\n        /* \"#utility.yul\":9233:9885   */\n      swap7\n      swap6\n      pop\n      pop\n      pop\n      pop\n      pop\n      pop\n      jump\t// out\n        /* \"#utility.yul\":9891:10215   */\n    tag_14:\n      0x00\n        /* \"#utility.yul\":10046:10048   */\n      0x40\n        /* \"#utility.yul\":10035:10044   */\n      dup3\n        /* \"#utility.yul\":10031:10049   */\n      add\n        /* \"#utility.yul\":10023:10049   */\n      swap1\n      pop\n        /* \"#utility.yul\":10059:10130   */\n      tag_217\n        /* \"#utility.yul\":10127:10128   */\n      0x00\n        /* \"#utility.yul\":10116:10125   */\n      dup4\n        /* \"#utility.yul\":10112:10129   */\n      add\n        /* \"#utility.yul\":10103:10109   */\n      dup6\n        /* \"#utility.yul\":10059:10130   */\n      tag_172\n      jump\t// in\n    tag_217:\n        /* \"#utility.yul\":10140:10208   */\n      tag_218\n        /* \"#utility.yul\":10204:10206   */\n      0x20\n        /* \"#utility.yul\":10193:10202   */\n      dup4\n        /* \"#utility.yul\":10189:10207   */\n      add\n        /* \"#utility.yul\":10180:10186   */\n      dup5\n        /* \"#utility.yul\":10140:10208   */\n      tag_195\n      jump\t// in\n    tag_218:\n        /* \"#utility.yul\":10013:10215   */\n      swap4\n      swap3\n      pop\n      pop\n      pop\n      jump\t// out\n        /* \"#utility.yul\":10221:10640   */\n    tag_51:\n      0x00\n        /* \"#utility.yul\":10425:10427   */\n      0x20\n        /* \"#utility.yul\":10414:10423   */\n      dup3\n        /* \"#utility.yul\":10410:10428   */\n      add\n        /* \"#utility.yul\":10402:10428   */\n      swap1\n      pop\n        /* \"#utility.yul\":10474:10483   */\n      dup2\n        /* \"#utility.yul\":10468:10472   */\n      dup2\n        /* \"#utility.yul\":10464:10484   */\n      sub\n        /* \"#utility.yul\":10460:10461   */\n      0x00\n        /* \"#utility.yul\":10449:10458   */\n      dup4\n        /* \"#utility.yul\":10445:10462   */\n      add\n        /* \"#utility.yul\":10438:10485   */\n      mstore\n        /* \"#utility.yul\":10502:10633   */\n      tag_220\n        /* \"#utility.yul\":10628:10632   */\n      dup2\n        /* \"#utility.yul\":10502:10633   */\n      tag_175\n      jump\t// in\n    tag_220:\n        /* \"#utility.yul\":10494:10633   */\n      swap1\n      pop\n        /* \"#utility.yul\":10392:10640   */\n      swap2\n      swap1\n      pop\n      jump\t// out\n        /* \"#utility.yul\":10646:11065   */\n    tag_40:\n      0x00\n        /* \"#utility.yul\":10850:10852   */\n      0x20\n        /* \"#utility.yul\":10839:10848   */\n      dup3\n        /* \"#utility.yul\":10835:10853   */\n      add\n        /* \"#utility.yul\":10827:10853   */\n      swap1\n      pop\n        /* \"#utility.yul\":10899:10908   */\n      dup2\n        /* \"#utility.yul\":10893:10897   */\n      dup2\n        /* \"#utility.yul\":10889:10909   */\n      sub\n        /* \"#utility.yul\":10885:10886   */\n      0x00\n        /* \"#utility.yul\":10874:10883   */\n      dup4\n        /* \"#utility.yul\":10870:10887   */\n      add\n        /* \"#utility.yul\":10863:10910   */\n      mstore\n        /* \"#utility.yul\":10927:11058   */\n      tag_222\n        /* \"#utility.yul\":11053:11057   */\n      dup2\n        /* \"#utility.yul\":10927:11058   */\n      tag_179\n      jump\t// in\n    tag_222:\n        /* \"#utility.yul\":10919:11058   */\n      swap1\n      pop\n        /* \"#utility.yul\":10817:11065   */\n      swap2\n      swap1\n      pop\n      jump\t// out\n        /* \"#utility.yul\":11071:11490   */\n    tag_44:\n      0x00\n        /* \"#utility.yul\":11275:11277   */\n      0x20\n        /* \"#utility.yul\":11264:11273   */\n      dup3\n        /* \"#utility.yul\":11260:11278   */\n      add\n        /* \"#utility.yul\":11252:11278   */\n      swap1\n      pop\n        /* \"#utility.yul\":11324:11333   */\n      dup2\n        /* \"#utility.yul\":11318:11322   */\n      dup2\n        /* \"#utility.yul\":11314:11334   */\n      sub\n        /* \"#utility.yul\":11310:11311   */\n      0x00\n        /* \"#utility.yul\":11299:11308   */\n      dup4\n        /* \"#utility.yul\":11295:11312   */\n      add\n        /* \"#utility.yul\":11288:11335   */\n      mstore\n        /* \"#utility.yul\":11352:11483   */\n      tag_224\n        /* \"#utility.yul\":11478:11482   */\n      dup2\n        /* \"#utility.yul\":11352:11483   */\n      tag_182\n      jump\t// in\n    tag_224:\n        /* \"#utility.yul\":11344:11483   */\n      swap1\n      pop\n        /* \"#utility.yul\":11242:11490   */\n      swap2\n      swap1\n      pop\n      jump\t// out\n        /* \"#utility.yul\":11496:11915   */\n    tag_54:\n      0x00\n        /* \"#utility.yul\":11700:11702   */\n      0x20\n        /* \"#utility.yul\":11689:11698   */\n      dup3\n        /* \"#utility.yul\":11685:11703   */\n      add\n        /* \"#utility.yul\":11677:11703   */\n      swap1\n      pop\n        /* \"#utility.yul\":11749:11758   */\n      dup2\n        /* \"#utility.yul\":11743:11747   */\n      dup2\n        /* \"#utility.yul\":11739:11759   */\n      sub\n        /* \"#utility.yul\":11735:11736   */\n      0x00\n        /* \"#utility.yul\":11724:11733   */\n      dup4\n        /* \"#utility.yul\":11720:11737   */\n      add\n        /* \"#utility.yul\":11713:11760   */\n      mstore\n        /* \"#utility.yul\":11777:11908   */\n      tag_226\n        /* \"#utility.yul\":11903:11907   */\n      dup2\n        /* \"#utility.yul\":11777:11908   */\n      tag_185\n      jump\t// in\n    tag_226:\n        /* \"#utility.yul\":11769:11908   */\n      swap1\n      pop\n        /* \"#utility.yul\":11667:11915   */\n      swap2\n      swap1\n      pop\n      jump\t// out\n        /* \"#utility.yul\":11921:12053   */\n    tag_144:\n      0x00\n        /* \"#utility.yul\":12011:12014   */\n      dup2\n        /* \"#utility.yul\":12003:12014   */\n      swap1\n      pop\n        /* \"#utility.yul\":12041:12045   */\n      0x20\n        /* \"#utility.yul\":12036:12039   */\n      dup3\n        /* \"#utility.yul\":12032:12046   */\n      add\n        /* \"#utility.yul\":12024:12046   */\n      swap1\n      pop\n        /* \"#utility.yul\":11993:12053   */\n      swap2\n      swap1\n      pop\n      jump\t// out\n        /* \"#utility.yul\":12059:12189   */\n    tag_158:\n      0x00\n        /* \"#utility.yul\":12147:12150   */\n      dup2\n        /* \"#utility.yul\":12139:12150   */\n      swap1\n      pop\n        /* \"#utility.yul\":12177:12181   */\n      0x20\n        /* \"#utility.yul\":12172:12175   */\n      dup3\n        /* \"#utility.yul\":12168:12182   */\n      add\n        /* \"#utility.yul\":12160:12182   */\n      swap1\n      pop\n        /* \"#utility.yul\":12129:12189   */\n      swap2\n      swap1\n      pop\n      jump\t// out\n        /* \"#utility.yul\":12195:12309   */\n    tag_140:\n      0x00\n        /* \"#utility.yul\":12296:12301   */\n      dup2\n        /* \"#utility.yul\":12290:12302   */\n      mload\n        /* \"#utility.yul\":12280:12302   */\n      swap1\n      pop\n        /* \"#utility.yul\":12269:12309   */\n      swap2\n      swap1\n      pop\n      jump\t// out\n        /* \"#utility.yul\":12315:12427   */\n    tag_154:\n      0x00\n        /* \"#utility.yul\":12414:12419   */\n      dup2\n        /* \"#utility.yul\":12408:12420   */\n      mload\n        /* \"#utility.yul\":12398:12420   */\n      swap1\n      pop\n        /* \"#utility.yul\":12387:12427   */\n      swap2\n      swap1\n      pop\n      jump\t// out\n        /* \"#utility.yul\":12433:12546   */\n    tag_150:\n      0x00\n        /* \"#utility.yul\":12535:12539   */\n      0x20\n        /* \"#utility.yul\":12530:12533   */\n      dup3\n        /* \"#utility.yul\":12526:12540   */\n      add\n        /* \"#utility.yul\":12518:12540   */\n      swap1\n      pop\n        /* \"#utility.yul\":12508:12546   */\n      swap2\n      swap1\n      pop\n      jump\t// out\n        /* \"#utility.yul\":12552:12663   */\n    tag_164:\n      0x00\n        /* \"#utility.yul\":12652:12656   */\n      0x20\n        /* \"#utility.yul\":12647:12650   */\n      dup3\n        /* \"#utility.yul\":12643:12657   */\n      add\n        /* \"#utility.yul\":12635:12657   */\n      swap1\n      pop\n        /* \"#utility.yul\":12625:12663   */\n      swap2\n      swap1\n      pop\n      jump\t// out\n        /* \"#utility.yul\":12669:12853   */\n    tag_142:\n      0x00\n        /* \"#utility.yul\":12802:12808   */\n      dup3\n        /* \"#utility.yul\":12797:12800   */\n      dup3\n        /* \"#utility.yul\":12790:12809   */\n      mstore\n        /* \"#utility.yul\":12842:12846   */\n      0x20\n        /* \"#utility.yul\":12837:12840   */\n      dup3\n        /* \"#utility.yul\":12833:12847   */\n      add\n        /* \"#utility.yul\":12818:12847   */\n      swap1\n      pop\n        /* \"#utility.yul\":12780:12853   */\n      swap3\n      swap2\n      pop\n      pop\n      jump\t// out\n        /* \"#utility.yul\":12859:13041   */\n    tag_156:\n      0x00\n        /* \"#utility.yul\":12990:12996   */\n      dup3\n        /* \"#utility.yul\":12985:12988   */\n      dup3\n        /* \"#utility.yul\":12978:12997   */\n      mstore\n        /* \"#utility.yul\":13030:13034   */\n      0x20\n        /* \"#utility.yul\":13025:13028   */\n      dup3\n        /* \"#utility.yul\":13021:13035   */\n      add\n        /* \"#utility.yul\":13006:13035   */\n      swap1\n      pop\n        /* \"#utility.yul\":12968:13041   */\n      swap3\n      swap2\n      pop\n      pop\n      jump\t// out\n        /* \"#utility.yul\":13047:13216   */\n    tag_178:\n      0x00\n        /* \"#utility.yul\":13165:13171   */\n      dup3\n        /* \"#utility.yul\":13160:13163   */\n      dup3\n        /* \"#utility.yul\":13153:13172   */\n      mstore\n        /* \"#utility.yul\":13205:13209   */\n      0x20\n        /* \"#utility.yul\":13200:13203   */\n      dup3\n        /* \"#utility.yul\":13196:13210   */\n      add\n        /* \"#utility.yul\":13181:13210   */\n      swap1\n      pop\n        /* \"#utility.yul\":13143:13216   */\n      swap3\n      swap2\n      pop\n      pop\n      jump\t// out\n        /* \"#utility.yul\":13222:13318   */\n    tag_136:\n      0x00\n        /* \"#utility.yul\":13288:13312   */\n      tag_237\n        /* \"#utility.yul\":13306:13311   */\n      dup3\n        /* \"#utility.yul\":13288:13312   */\n      tag_238\n      jump\t// in\n    tag_237:\n        /* \"#utility.yul\":13277:13312   */\n      swap1\n      pop\n        /* \"#utility.yul\":13267:13318   */\n      swap2\n      swap1\n      pop\n      jump\t// out\n        /* \"#utility.yul\":13324:13414   */\n    tag_168:\n      0x00\n        /* \"#utility.yul\":13401:13406   */\n      dup2\n        /* \"#utility.yul\":13394:13407   */\n      iszero\n        /* \"#utility.yul\":13387:13408   */\n      iszero\n        /* \"#utility.yul\":13376:13408   */\n      swap1\n      pop\n        /* \"#utility.yul\":13366:13414   */\n      swap2\n      swap1\n      pop\n      jump\t// out\n        /* \"#utility.yul\":13420:13497   */\n    tag_171:\n      0x00\n        /* \"#utility.yul\":13486:13491   */\n      dup2\n        /* \"#utility.yul\":13475:13491   */\n      swap1\n      pop\n        /* \"#utility.yul\":13465:13497   */\n      swap2\n      swap1\n      pop\n      jump\t// out\n        /* \"#utility.yul\":13503:13629   */\n    tag_238:\n      0x00\n        /* \"#utility.yul\":13580:13622   */\n      0xffffffffffffffffffffffffffffffffffffffff\n        /* \"#utility.yul\":13573:13578   */\n      dup3\n        /* \"#utility.yul\":13569:13623   */\n      and\n        /* \"#utility.yul\":13558:13623   */\n      swap1\n      pop\n        /* \"#utility.yul\":13548:13629   */\n      swap2\n      swap1\n      pop\n      jump\t// out\n        /* \"#utility.yul\":13635:13712   */\n    tag_191:\n      0x00\n        /* \"#utility.yul\":13701:13706   */\n      dup2\n        /* \"#utility.yul\":13690:13706   */\n      swap1\n      pop\n        /* \"#utility.yul\":13680:13712   */\n      swap2\n      swap1\n      pop\n      jump\t// out\n        /* \"#utility.yul\":13718:13804   */\n    tag_194:\n      0x00\n        /* \"#utility.yul\":13793:13797   */\n      0xff\n        /* \"#utility.yul\":13786:13791   */\n      dup3\n        /* \"#utility.yul\":13782:13798   */\n      and\n        /* \"#utility.yul\":13771:13798   */\n      swap1\n      pop\n        /* \"#utility.yul\":13761:13804   */\n      swap2\n      swap1\n      pop\n      jump\t// out\n        /* \"#utility.yul\":13810:14043   */\n    tag_63:\n      0x00\n        /* \"#utility.yul\":13872:13896   */\n      tag_245\n        /* \"#utility.yul\":13890:13895   */\n      dup3\n        /* \"#utility.yul\":13872:13896   */\n      tag_191\n      jump\t// in\n    tag_245:\n        /* \"#utility.yul\":13863:13896   */\n      swap2\n      pop\n        /* \"#utility.yul\":13918:13984   */\n      0xffffffffffffffffffffffffffffffffffffffffffffffffffffffffffffffff\n        /* \"#utility.yul\":13911:13916   */\n      dup3\n        /* \"#utility.yul\":13908:13985   */\n      eq\n        /* \"#utility.yul\":13905:13907   */\n      iszero\n      tag_246\n      jumpi\n        /* \"#utility.yul\":13988:14006   */\n      tag_247\n      tag_248\n      jump\t// in\n    tag_247:\n        /* \"#utility.yul\":13905:13907   */\n    tag_246:\n        /* \"#utility.yul\":14035:14036   */\n      0x01\n        /* \"#utility.yul\":14028:14033   */\n      dup3\n        /* \"#utility.yul\":14024:14037   */\n      add\n        /* \"#utility.yul\":14017:14037   */\n      swap1\n      pop\n        /* \"#utility.yul\":13853:14043   */\n      swap2\n      swap1\n      pop\n      jump\t// out\n        /* \"#utility.yul\":14049:14229   */\n    tag_248:\n        /* \"#utility.yul\":14097:14174   */\n      0x4e487b7100000000000000000000000000000000000000000000000000000000\n        /* \"#utility.yul\":14094:14095   */\n      0x00\n        /* \"#utility.yul\":14087:14175   */\n      mstore\n        /* \"#utility.yul\":14194:14198   */\n      0x11\n        /* \"#utility.yul\":14191:14192   */\n      0x04\n        /* \"#utility.yul\":14184:14199   */\n      mstore\n        /* \"#utility.yul\":14218:14222   */\n      0x24\n        /* \"#utility.yul\":14215:14216   */\n      0x00\n        /* \"#utility.yul\":14208:14223   */\n      revert\n        /* \"#utility.yul\":14235:14357   */\n    tag_96:\n        /* \"#utility.yul\":14308:14332   */\n      tag_251\n        /* \"#utility.yul\":14326:14331   */\n      dup2\n        /* \"#utility.yul\":14308:14332   */\n      tag_171\n      jump\t// in\n    tag_251:\n        /* \"#utility.yul\":14301:14306   */\n      dup2\n        /* \"#utility.yul\":14298:14333   */\n      eq\n        /* \"#utility.yul\":14288:14290   */\n      tag_252\n      jumpi\n        /* \"#utility.yul\":14347:14348   */\n      0x00\n        /* \"#utility.yul\":14344:14345   */\n      dup1\n        /* \"#utility.yul\":14337:14349   */\n      revert\n        /* \"#utility.yul\":14288:14290   */\n    tag_252:\n        /* \"#utility.yul\":14278:14357   */\n      pop\n      jump\t// out\n        /* \"#utility.yul\":14363:14485   */\n    tag_100:\n        /* \"#utility.yul\":14436:14460   */\n      tag_254\n        /* \"#utility.yul\":14454:14459   */\n      dup2\n        /* \"#utility.yul\":14436:14460   */\n      tag_191\n      jump\t// in\n    tag_254:\n        /* \"#utility.yul\":14429:14434   */\n      dup2\n        /* \"#utility.yul\":14426:14461   */\n      eq\n        /* \"#utility.yul\":14416:14418   */\n      tag_255\n      jumpi\n        /* \"#utility.yul\":14475:14476   */\n      0x00\n        /* \"#utility.yul\":14472:14473   */\n      dup1\n        /* \"#utility.yul\":14465:14477   */\n      revert\n        /* \"#utility.yul\":14416:14418   */\n    tag_255:\n        /* \"#utility.yul\":14406:14485   */\n      pop\n      jump\t// out\n        /* \"#utility.yul\":14491:14609   */\n    tag_104:\n        /* \"#utility.yul\":14562:14584   */\n      tag_257\n        /* \"#utility.yul\":14578:14583   */\n      dup2\n        /* \"#utility.yul\":14562:14584   */\n      tag_194\n      jump\t// in\n    tag_257:\n        /* \"#utility.yul\":14555:14560   */\n      dup2\n        /* \"#utility.yul\":14552:14585   */\n      eq\n        /* \"#utility.yul\":14542:14544   */\n      tag_258\n      jumpi\n        /* \"#utility.yul\":14599:14600   */\n      0x00\n        /* \"#utility.yul\":14596:14597   */\n      dup1\n        /* \"#utility.yul\":14589:14601   */\n      revert\n        /* \"#utility.yul\":14542:14544   */\n    tag_258:\n        /* \"#utility.yul\":14532:14609   */\n      pop\n      jump\t// out\n\n    auxdata: 0xa2646970667358221220d4d11de4987844857db4cac3058c0743bd5816ea9fe73926cfd17dd9ecb3e64864736f6c63430008000033\n}\n",
				"bytecode": {
					"linkReferences": {},
					"object": "608060405234801561001057600080fd5b50336000806101000a81548173ffffffffffffffffffffffffffffffffffffffff021916908373ffffffffffffffffffffffffffffffffffffffff160217905550611187806100606000396000f3fe608060405234801561001057600080fd5b50600436106100625760003560e01c8063037392da146100675780638da5cb5b1461009857806391f2bceb146100b6578063a08b9b81146100d2578063bc50b3cd146100ee578063d04a419b14610122575b600080fd5b610081600480360381019061007c9190610afd565b610156565b60405161008f929190610f09565b60405180910390f35b6100a0610194565b6040516100ad9190610e03565b60405180910390f35b6100d060048036038101906100cb9190610a11565b6101b8565b005b6100ec60048036038101906100e79190610a3a565b610308565b005b61010860048036038101906101039190610a11565b610628565b604051610119959493929190610e1e565b60405180910390f35b61013c60048036038101906101379190610a11565b61066b565b60405161014d959493929190610ea8565b60405180910390f35b6002602052816000526040600020602052806000526040600020600091509150508060000154908060010160009054906101000a900460ff16905082565b60008054906101000a900473ffffffffffffffffffffffffffffffffffffffff1681565b3373ffffffffffffffffffffffffffffffffffffffff1660008054906101000a900473ffffffffffffffffffffffffffffffffffffffff1673ffffffffffffffffffffffffffffffffffffffff1614610246576040517f08c379a000000000000000000000000000000000000000000000000000000000815260040161023d90610f52565b60405180910390fd5b6001600082815260200190815260200160002060040160009054906101000a900460ff166102a9576040517f08c379a00000000000000000000000000000000000000000000000000000000081526004016102a090610f72565b60405180910390fd5b60006001600083815260200190815260200160002060040160006101000a81548160ff021916908315150217905550807f2378393e5e45ca60b5cc050d80fa00b05dc03948e54f0260efb5af5229b9ca3e60405160405180910390a250565b3373ffffffffffffffffffffffffffffffffffffffff1660008054906101000a900473ffffffffffffffffffffffffffffffffffffffff1673ffffffffffffffffffffffffffffffffffffffff1614610396576040517f08c379a000000000000000000000000000000000000000000000000000000000815260040161038d90610f52565b60405180910390fd5b6001600089815260200190815260200160002060040160009054906101000a900460ff16156103fa576040517f08c379a00000000000000000000000000000000000000000000000000000000081526004016103f190610f32565b60405180910390fd5b818190508484905014610442576040517f08c379a000000000000000000000000000000000000000000000000000000000815260040161043990610f92565b60405180910390fd5b6040518060a0016040528089815260200188815260200187815260200186815260200160011515815250600160008a81526020019081526020016000206000820151816000015560208201518160010155604082015181600201556060820151816003015560808201518160040160006101000a81548160ff02191690831515021790555090505060005b848490508110156105e157604051806040016040528086868481811061051c577f4e487b7100000000000000000000000000000000000000000000000000000000600052603260045260246000fd5b905060200201358152602001848484818110610561577f4e487b7100000000000000000000000000000000000000000000000000000000600052603260045260246000fd5b90506020020160208101906105769190610b39565b60ff16815250600260008b815260200190815260200160002060008381526020019081526020016000206000820151816000015560208201518160010160006101000a81548160ff021916908360ff16021790555090505080806105d990611094565b9150506104cd565b50877f75340621c4ab21fbf7de1dedc1b6db33fa2f3d5a2029e76bdf70c0d2b1087c4b88888860405161061693929190610e71565b60405180910390a25050505050505050565b60016020528060005260406000206000915090508060000154908060010154908060020154908060030154908060040160009054906101000a900460ff16905085565b600080600060608060006001600088815260200190815260200160002090508060040160009054906101000a900460ff166106db576040517f08c379a00000000000000000000000000000000000000000000000000000000081526004016106d290610f72565b60405180910390fd5b60005b6000801b600260008a81526020019081526020016000206000838152602001908152602001600020600001541461072257808061071a90611094565b9150506106de565b60008167ffffffffffffffff811115610764577f4e487b7100000000000000000000000000000000000000000000000000000000600052604160045260246000fd5b6040519080825280602002602001820160405280156107925781602001602082028036833780820191505090505b50905060008267ffffffffffffffff8111156107d7577f4e487b7100000000000000000000000000000000000000000000000000000000600052604160045260246000fd5b6040519080825280602002602001820160405280156108055781602001602082028036833780820191505090505b50905060005b8381101561091557600260008c8152602001908152602001600020600082815260200190815260200160002060000154838281518110610874577f4e487b7100000000000000000000000000000000000000000000000000000000600052603260045260246000fd5b602002602001018181525050600260008c8152602001908152602001600020600082815260200190815260200160002060010160009054906101000a900460ff168282815181106108ee577f4e487b7100000000000000000000000000000000000000000000000000000000600052603260045260246000fd5b602002602001019060ff16908160ff1681525050808061090d90611094565b91505061080b565b508360010154846002015485600301548484985098509850985098505050505091939590929450565b60008083601f84011261095057600080fd5b8235905067ffffffffffffffff81111561096957600080fd5b60208301915083602082028301111561098157600080fd5b9250929050565b60008083601f84011261099a57600080fd5b8235905067ffffffffffffffff8111156109b357600080fd5b6020830191508360208202830111156109cb57600080fd5b9250929050565b6000813590506109e18161110c565b92915050565b6000813590506109f681611123565b92915050565b600081359050610a0b8161113a565b92915050565b600060208284031215610a2357600080fd5b6000610a31848285016109d2565b91505092915050565b60008060008060008060008060c0898b031215610a5657600080fd5b6000610a648b828c016109d2565b9850506020610a758b828c016109d2565b9750506040610a868b828c016109e7565b9650506060610a978b828c016109d2565b955050608089013567ffffffffffffffff811115610ab457600080fd5b610ac08b828c0161093e565b945094505060a089013567ffffffffffffffff811115610adf57600080fd5b610aeb8b828c01610988565b92509250509295985092959890939650565b60008060408385031215610b1057600080fd5b6000610b1e858286016109d2565b9250506020610b2f858286016109e7565b9150509250929050565b600060208284031215610b4b57600080fd5b6000610b59848285016109fc565b91505092915050565b6000610b6e8383610c6c565b60208301905092915050565b6000610b868383610de5565b60208301905092915050565b610b9b81611035565b82525050565b6000610bac82610fd2565b610bb68185611002565b9350610bc183610fb2565b8060005b83811015610bf2578151610bd98882610b62565b9750610be483610fe8565b925050600181019050610bc5565b5085935050505092915050565b6000610c0a82610fdd565b610c148185611013565b9350610c1f83610fc2565b8060005b83811015610c50578151610c378882610b7a565b9750610c4283610ff5565b925050600181019050610c23565b5085935050505092915050565b610c6681611047565b82525050565b610c7581611053565b82525050565b610c8481611053565b82525050565b6000610c97601783611024565b91507f496a617a6168207375646168207465726461667461722e0000000000000000006000830152602082019050919050565b6000610cd7602683611024565b91507f48616e79612070656d696c696b2079616e672062697361206d656c616b756b6160008301527f6e20696e692e00000000000000000000000000000000000000000000000000006020830152604082019050919050565b6000610d3d601783611024565b91507f496a617a616820746964616b20646974656d756b616e2e0000000000000000006000830152602082019050919050565b6000610d7d602b83611024565b91507f4a756d6c6168206d6174612070656c616a6172616e2064616e206e696c61692060008301527f68617275732073616d612e0000000000000000000000000000000000000000006020830152604082019050919050565b610ddf8161107d565b82525050565b610dee81611087565b82525050565b610dfd81611087565b82525050565b6000602082019050610e186000830184610b92565b92915050565b600060a082019050610e336000830188610c7b565b610e406020830187610c7b565b610e4d6040830186610dd6565b610e5a6060830185610c7b565b610e676080830184610c5d565b9695505050505050565b6000606082019050610e866000830186610c7b565b610e936020830185610dd6565b610ea06040830184610c7b565b949350505050565b600060a082019050610ebd6000830188610c7b565b610eca6020830187610dd6565b610ed76040830186610c7b565b8181036060830152610ee98185610ba1565b90508181036080830152610efd8184610bff565b90509695505050505050565b6000604082019050610f1e6000830185610c7b565b610f2b6020830184610df4565b9392505050565b60006020820190508181036000830152610f4b81610c8a565b9050919050565b60006020820190508181036000830152610f6b81610cca565b9050919050565b60006020820190508181036000830152610f8b81610d30565b9050919050565b60006020820190508181036000830152610fab81610d70565b9050919050565b6000819050602082019050919050565b6000819050602082019050919050565b600081519050919050565b600081519050919050565b6000602082019050919050565b6000602082019050919050565b600082825260208201905092915050565b600082825260208201905092915050565b600082825260208201905092915050565b60006110408261105d565b9050919050565b60008115159050919050565b6000819050919050565b600073ffffffffffffffffffffffffffffffffffffffff82169050919050565b6000819050919050565b600060ff82169050919050565b600061109f8261107d565b91507fffffffffffffffffffffffffffffffffffffffffffffffffffffffffffffffff8214156110d2576110d16110dd565b5b600182019050919050565b7f4e487b7100000000000000000000000000000000000000000000000000000000600052601160045260246000fd5b61111581611053565b811461112057600080fd5b50565b61112c8161107d565b811461113757600080fd5b50565b61114381611087565b811461114e57600080fd5b5056fea2646970667358221220d4d11de4987844857db4cac3058c0743bd5816ea9fe73926cfd17dd9ecb3e64864736f6c63430008000033",
					"opcodes": "PUSH1 0x80 PUSH1 0x40 MSTORE CALLVALUE DUP1 ISZERO PUSH2 0x10 JUMPI PUSH1 0x0 DUP1 REVERT JUMPDEST POP CALLER PUSH1 0x0 DUP1 PUSH2 0x100 EXP DUP2 SLOAD DUP2 PUSH20 0xFFFFFFFFFFFFFFFFFFFFFFFFFFFFFFFFFFFFFFFF MUL NOT AND SWAP1 DUP4 PUSH20 0xFFFFFFFFFFFFFFFFFFFFFFFFFFFFFFFFFFFFFFFF AND MUL OR SWAP1 SSTORE POP PUSH2 0x1187 DUP1 PUSH2 0x60 PUSH1 0x0 CODECOPY PUSH1 0x0 RETURN INVALID PUSH1 0x80 PUSH1 0x40 MSTORE CALLVALUE DUP1 ISZERO PUSH2 0x10 JUMPI PUSH1 0x0 DUP1 REVERT JUMPDEST POP PUSH1 0x4 CALLDATASIZE LT PUSH2 0x62 JUMPI PUSH1 0x0 CALLDATALOAD PUSH1 0xE0 SHR DUP1 PUSH4 0x37392DA EQ PUSH2 0x67 JUMPI DUP1 PUSH4 0x8DA5CB5B EQ PUSH2 0x98 JUMPI DUP1 PUSH4 0x91F2BCEB EQ PUSH2 0xB6 JUMPI DUP1 PUSH4 0xA08B9B81 EQ PUSH2 0xD2 JUMPI DUP1 PUSH4 0xBC50B3CD EQ PUSH2 0xEE JUMPI DUP1 PUSH4 0xD04A419B EQ PUSH2 0x122 JUMPI JUMPDEST PUSH1 0x0 DUP1 REVERT JUMPDEST PUSH2 0x81 PUSH1 0x4 DUP1 CALLDATASIZE SUB DUP2 ADD SWAP1 PUSH2 0x7C SWAP2 SWAP1 PUSH2 0xAFD JUMP JUMPDEST PUSH2 0x156 JUMP JUMPDEST PUSH1 0x40 MLOAD PUSH2 0x8F SWAP3 SWAP2 SWAP1 PUSH2 0xF09 JUMP JUMPDEST PUSH1 0x40 MLOAD DUP1 SWAP2 SUB SWAP1 RETURN JUMPDEST PUSH2 0xA0 PUSH2 0x194 JUMP JUMPDEST PUSH1 0x40 MLOAD PUSH2 0xAD SWAP2 SWAP1 PUSH2 0xE03 JUMP JUMPDEST PUSH1 0x40 MLOAD DUP1 SWAP2 SUB SWAP1 RETURN JUMPDEST PUSH2 0xD0 PUSH1 0x4 DUP1 CALLDATASIZE SUB DUP2 ADD SWAP1 PUSH2 0xCB SWAP2 SWAP1 PUSH2 0xA11 JUMP JUMPDEST PUSH2 0x1B8 JUMP JUMPDEST STOP JUMPDEST PUSH2 0xEC PUSH1 0x4 DUP1 CALLDATASIZE SUB DUP2 ADD SWAP1 PUSH2 0xE7 SWAP2 SWAP1 PUSH2 0xA3A JUMP JUMPDEST PUSH2 0x308 JUMP JUMPDEST STOP JUMPDEST PUSH2 0x108 PUSH1 0x4 DUP1 CALLDATASIZE SUB DUP2 ADD SWAP1 PUSH2 0x103 SWAP2 SWAP1 PUSH2 0xA11 JUMP JUMPDEST PUSH2 0x628 JUMP JUMPDEST PUSH1 0x40 MLOAD PUSH2 0x119 SWAP6 SWAP5 SWAP4 SWAP3 SWAP2 SWAP1 PUSH2 0xE1E JUMP JUMPDEST PUSH1 0x40 MLOAD DUP1 SWAP2 SUB SWAP1 RETURN JUMPDEST PUSH2 0x13C PUSH1 0x4 DUP1 CALLDATASIZE SUB DUP2 ADD SWAP1 PUSH2 0x137 SWAP2 SWAP1 PUSH2 0xA11 JUMP JUMPDEST PUSH2 0x66B JUMP JUMPDEST PUSH1 0x40 MLOAD PUSH2 0x14D SWAP6 SWAP5 SWAP4 SWAP3 SWAP2 SWAP1 PUSH2 0xEA8 JUMP JUMPDEST PUSH1 0x40 MLOAD DUP1 SWAP2 SUB SWAP1 RETURN JUMPDEST PUSH1 0x2 PUSH1 0x20 MSTORE DUP2 PUSH1 0x0 MSTORE PUSH1 0x40 PUSH1 0x0 KECCAK256 PUSH1 0x20 MSTORE DUP1 PUSH1 0x0 MSTORE PUSH1 0x40 PUSH1 0x0 KECCAK256 PUSH1 0x0 SWAP2 POP SWAP2 POP POP DUP1 PUSH1 0x0 ADD SLOAD SWAP1 DUP1 PUSH1 0x1 ADD PUSH1 0x0 SWAP1 SLOAD SWAP1 PUSH2 0x100 EXP SWAP1 DIV PUSH1 0xFF AND SWAP1 POP DUP3 JUMP JUMPDEST PUSH1 0x0 DUP1 SLOAD SWAP1 PUSH2 0x100 EXP SWAP1 DIV PUSH20 0xFFFFFFFFFFFFFFFFFFFFFFFFFFFFFFFFFFFFFFFF AND DUP2 JUMP JUMPDEST CALLER PUSH20 0xFFFFFFFFFFFFFFFFFFFFFFFFFFFFFFFFFFFFFFFF AND PUSH1 0x0 DUP1 SLOAD SWAP1 PUSH2 0x100 EXP SWAP1 DIV PUSH20 0xFFFFFFFFFFFFFFFFFFFFFFFFFFFFFFFFFFFFFFFF AND PUSH20 0xFFFFFFFFFFFFFFFFFFFFFFFFFFFFFFFFFFFFFFFF AND EQ PUSH2 0x246 JUMPI PUSH1 0x40 MLOAD PUSH32 0x8C379A000000000000000000000000000000000000000000000000000000000 DUP2 MSTORE PUSH1 0x4 ADD PUSH2 0x23D SWAP1 PUSH2 0xF52 JUMP JUMPDEST PUSH1 0x40 MLOAD DUP1 SWAP2 SUB SWAP1 REVERT JUMPDEST PUSH1 0x1 PUSH1 0x0 DUP3 DUP2 MSTORE PUSH1 0x20 ADD SWAP1 DUP2 MSTORE PUSH1 0x20 ADD PUSH1 0x0 KECCAK256 PUSH1 0x4 ADD PUSH1 0x0 SWAP1 SLOAD SWAP1 PUSH2 0x100 EXP SWAP1 DIV PUSH1 0xFF AND PUSH2 0x2A9 JUMPI PUSH1 0x40 MLOAD PUSH32 0x8C379A000000000000000000000000000000000000000000000000000000000 DUP2 MSTORE PUSH1 0x4 ADD PUSH2 0x2A0 SWAP1 PUSH2 0xF72 JUMP JUMPDEST PUSH1 0x40 MLOAD DUP1 SWAP2 SUB SWAP1 REVERT JUMPDEST PUSH1 0x0 PUSH1 0x1 PUSH1 0x0 DUP4 DUP2 MSTORE PUSH1 0x20 ADD SWAP1 DUP2 MSTORE PUSH1 0x20 ADD PUSH1 0x0 KECCAK256 PUSH1 0x4 ADD PUSH1 0x0 PUSH2 0x100 EXP DUP2 SLOAD DUP2 PUSH1 0xFF MUL NOT AND SWAP1 DUP4 ISZERO ISZERO MUL OR SWAP1 SSTORE POP DUP1 PUSH32 0x2378393E5E45CA60B5CC050D80FA00B05DC03948E54F0260EFB5AF5229B9CA3E PUSH1 0x40 MLOAD PUSH1 0x40 MLOAD DUP1 SWAP2 SUB SWAP1 LOG2 POP JUMP JUMPDEST CALLER PUSH20 0xFFFFFFFFFFFFFFFFFFFFFFFFFFFFFFFFFFFFFFFF AND PUSH1 0x0 DUP1 SLOAD SWAP1 PUSH2 0x100 EXP SWAP1 DIV PUSH20 0xFFFFFFFFFFFFFFFFFFFFFFFFFFFFFFFFFFFFFFFF AND PUSH20 0xFFFFFFFFFFFFFFFFFFFFFFFFFFFFFFFFFFFFFFFF AND EQ PUSH2 0x396 JUMPI PUSH1 0x40 MLOAD PUSH32 0x8C379A000000000000000000000000000000000000000000000000000000000 DUP2 MSTORE PUSH1 0x4 ADD PUSH2 0x38D SWAP1 PUSH2 0xF52 JUMP JUMPDEST PUSH1 0x40 MLOAD DUP1 SWAP2 SUB SWAP1 REVERT JUMPDEST PUSH1 0x1 PUSH1 0x0 DUP10 DUP2 MSTORE PUSH1 0x20 ADD SWAP1 DUP2 MSTORE PUSH1 0x20 ADD PUSH1 0x0 KECCAK256 PUSH1 0x4 ADD PUSH1 0x0 SWAP1 SLOAD SWAP1 PUSH2 0x100 EXP SWAP1 DIV PUSH1 0xFF AND ISZERO PUSH2 0x3FA JUMPI PUSH1 0x40 MLOAD PUSH32 0x8C379A000000000000000000000000000000000000000000000000000000000 DUP2 MSTORE PUSH1 0x4 ADD PUSH2 0x3F1 SWAP1 PUSH2 0xF32 JUMP JUMPDEST PUSH1 0x40 MLOAD DUP1 SWAP2 SUB SWAP1 REVERT JUMPDEST DUP2 DUP2 SWAP1 POP DUP5 DUP5 SWAP1 POP EQ PUSH2 0x442 JUMPI PUSH1 0x40 MLOAD PUSH32 0x8C379A000000000000000000000000000000000000000000000000000000000 DUP2 MSTORE PUSH1 0x4 ADD PUSH2 0x439 SWAP1 PUSH2 0xF92 JUMP JUMPDEST PUSH1 0x40 MLOAD DUP1 SWAP2 SUB SWAP1 REVERT JUMPDEST PUSH1 0x40 MLOAD DUP1 PUSH1 0xA0 ADD PUSH1 0x40 MSTORE DUP1 DUP10 DUP2 MSTORE PUSH1 0x20 ADD DUP9 DUP2 MSTORE PUSH1 0x20 ADD DUP8 DUP2 MSTORE PUSH1 0x20 ADD DUP7 DUP2 MSTORE PUSH1 0x20 ADD PUSH1 0x1 ISZERO ISZERO DUP2 MSTORE POP PUSH1 0x1 PUSH1 0x0 DUP11 DUP2 MSTORE PUSH1 0x20 ADD SWAP1 DUP2 MSTORE PUSH1 0x20 ADD PUSH1 0x0 KECCAK256 PUSH1 0x0 DUP3 ADD MLOAD DUP2 PUSH1 0x0 ADD SSTORE PUSH1 0x20 DUP3 ADD MLOAD DUP2 PUSH1 0x1 ADD SSTORE PUSH1 0x40 DUP3 ADD MLOAD DUP2 PUSH1 0x2 ADD SSTORE PUSH1 0x60 DUP3 ADD MLOAD DUP2 PUSH1 0x3 ADD SSTORE PUSH1 0x80 DUP3 ADD MLOAD DUP2 PUSH1 0x4 ADD PUSH1 0x0 PUSH2 0x100 EXP DUP2 SLOAD DUP2 PUSH1 0xFF MUL NOT AND SWAP1 DUP4 ISZERO ISZERO MUL OR SWAP1 SSTORE POP SWAP1 POP POP PUSH1 0x0 JUMPDEST DUP5 DUP5 SWAP1 POP DUP2 LT ISZERO PUSH2 0x5E1 JUMPI PUSH1 0x40 MLOAD DUP1 PUSH1 0x40 ADD PUSH1 0x40 MSTORE DUP1 DUP7 DUP7 DUP5 DUP2 DUP2 LT PUSH2 0x51C JUMPI PUSH32 0x4E487B7100000000000000000000000000000000000000000000000000000000 PUSH1 0x0 MSTORE PUSH1 0x32 PUSH1 0x4 MSTORE PUSH1 0x24 PUSH1 0x0 REVERT JUMPDEST SWAP1 POP PUSH1 0x20 MUL ADD CALLDATALOAD DUP2 MSTORE PUSH1 0x20 ADD DUP5 DUP5 DUP5 DUP2 DUP2 LT PUSH2 0x561 JUMPI PUSH32 0x4E487B7100000000000000000000000000000000000000000000000000000000 PUSH1 0x0 MSTORE PUSH1 0x32 PUSH1 0x4 MSTORE PUSH1 0x24 PUSH1 0x0 REVERT JUMPDEST SWAP1 POP PUSH1 0x20 MUL ADD PUSH1 0x20 DUP2 ADD SWAP1 PUSH2 0x576 SWAP2 SWAP1 PUSH2 0xB39 JUMP JUMPDEST PUSH1 0xFF AND DUP2 MSTORE POP PUSH1 0x2 PUSH1 0x0 DUP12 DUP2 MSTORE PUSH1 0x20 ADD SWAP1 DUP2 MSTORE PUSH1 0x20 ADD PUSH1 0x0 KECCAK256 PUSH1 0x0 DUP4 DUP2 MSTORE PUSH1 0x20 ADD SWAP1 DUP2 MSTORE PUSH1 0x20 ADD PUSH1 0x0 KECCAK256 PUSH1 0x0 DUP3 ADD MLOAD DUP2 PUSH1 0x0 ADD SSTORE PUSH1 0x20 DUP3 ADD MLOAD DUP2 PUSH1 0x1 ADD PUSH1 0x0 PUSH2 0x100 EXP DUP2 SLOAD DUP2 PUSH1 0xFF MUL NOT AND SWAP1 DUP4 PUSH1 0xFF AND MUL OR SWAP1 SSTORE POP SWAP1 POP POP DUP1 DUP1 PUSH2 0x5D9 SWAP1 PUSH2 0x1094 JUMP JUMPDEST SWAP2 POP POP PUSH2 0x4CD JUMP JUMPDEST POP DUP8 PUSH32 0x75340621C4AB21FBF7DE1DEDC1B6DB33FA2F3D5A2029E76BDF70C0D2B1087C4B DUP9 DUP9 DUP9 PUSH1 0x40 MLOAD PUSH2 0x616 SWAP4 SWAP3 SWAP2 SWAP1 PUSH2 0xE71 JUMP JUMPDEST PUSH1 0x40 MLOAD DUP1 SWAP2 SUB SWAP1 LOG2 POP POP POP POP POP POP POP POP JUMP JUMPDEST PUSH1 0x1 PUSH1 0x20 MSTORE DUP1 PUSH1 0x0 MSTORE PUSH1 0x40 PUSH1 0x0 KECCAK256 PUSH1 0x0 SWAP2 POP SWAP1 POP DUP1 PUSH1 0x0 ADD SLOAD SWAP1 DUP1 PUSH1 0x1 ADD SLOAD SWAP1 DUP1 PUSH1 0x2 ADD SLOAD SWAP1 DUP1 PUSH1 0x3 ADD SLOAD SWAP1 DUP1 PUSH1 0x4 ADD PUSH1 0x0 SWAP1 SLOAD SWAP1 PUSH2 0x100 EXP SWAP1 DIV PUSH1 0xFF AND SWAP1 POP DUP6 JUMP JUMPDEST PUSH1 0x0 DUP1 PUSH1 0x0 PUSH1 0x60 DUP1 PUSH1 0x0 PUSH1 0x1 PUSH1 0x0 DUP9 DUP2 MSTORE PUSH1 0x20 ADD SWAP1 DUP2 MSTORE PUSH1 0x20 ADD PUSH1 0x0 KECCAK256 SWAP1 POP DUP1 PUSH1 0x4 ADD PUSH1 0x0 SWAP1 SLOAD SWAP1 PUSH2 0x100 EXP SWAP1 DIV PUSH1 0xFF AND PUSH2 0x6DB JUMPI PUSH1 0x40 MLOAD PUSH32 0x8C379A000000000000000000000000000000000000000000000000000000000 DUP2 MSTORE PUSH1 0x4 ADD PUSH2 0x6D2 SWAP1 PUSH2 0xF72 JUMP JUMPDEST PUSH1 0x40 MLOAD DUP1 SWAP2 SUB SWAP1 REVERT JUMPDEST PUSH1 0x0 JUMPDEST PUSH1 0x0 DUP1 SHL PUSH1 0x2 PUSH1 0x0 DUP11 DUP2 MSTORE PUSH1 0x20 ADD SWAP1 DUP2 MSTORE PUSH1 0x20 ADD PUSH1 0x0 KECCAK256 PUSH1 0x0 DUP4 DUP2 MSTORE PUSH1 0x20 ADD SWAP1 DUP2 MSTORE PUSH1 0x20 ADD PUSH1 0x0 KECCAK256 PUSH1 0x0 ADD SLOAD EQ PUSH2 0x722 JUMPI DUP1 DUP1 PUSH2 0x71A SWAP1 PUSH2 0x1094 JUMP JUMPDEST SWAP2 POP POP PUSH2 0x6DE JUMP JUMPDEST PUSH1 0x0 DUP2 PUSH8 0xFFFFFFFFFFFFFFFF DUP2 GT ISZERO PUSH2 0x764 JUMPI PUSH32 0x4E487B7100000000000000000000000000000000000000000000000000000000 PUSH1 0x0 MSTORE PUSH1 0x41 PUSH1 0x4 MSTORE PUSH1 0x24 PUSH1 0x0 REVERT JUMPDEST PUSH1 0x40 MLOAD SWAP1 DUP1 DUP3 MSTORE DUP1 PUSH1 0x20 MUL PUSH1 0x20 ADD DUP3 ADD PUSH1 0x40 MSTORE DUP1 ISZERO PUSH2 0x792 JUMPI DUP2 PUSH1 0x20 ADD PUSH1 0x20 DUP3 MUL DUP1 CALLDATASIZE DUP4 CALLDATACOPY DUP1 DUP3 ADD SWAP2 POP POP SWAP1 POP JUMPDEST POP SWAP1 POP PUSH1 0x0 DUP3 PUSH8 0xFFFFFFFFFFFFFFFF DUP2 GT ISZERO PUSH2 0x7D7 JUMPI PUSH32 0x4E487B7100000000000000000000000000000000000000000000000000000000 PUSH1 0x0 MSTORE PUSH1 0x41 PUSH1 0x4 MSTORE PUSH1 0x24 PUSH1 0x0 REVERT JUMPDEST PUSH1 0x40 MLOAD SWAP1 DUP1 DUP3 MSTORE DUP1 PUSH1 0x20 MUL PUSH1 0x20 ADD DUP3 ADD PUSH1 0x40 MSTORE DUP1 ISZERO PUSH2 0x805 JUMPI DUP2 PUSH1 0x20 ADD PUSH1 0x20 DUP3 MUL DUP1 CALLDATASIZE DUP4 CALLDATACOPY DUP1 DUP3 ADD SWAP2 POP POP SWAP1 POP JUMPDEST POP SWAP1 POP PUSH1 0x0 JUMPDEST DUP4 DUP2 LT ISZERO PUSH2 0x915 JUMPI PUSH1 0x2 PUSH1 0x0 DUP13 DUP2 MSTORE PUSH1 0x20 ADD SWAP1 DUP2 MSTORE PUSH1 0x20 ADD PUSH1 0x0 KECCAK256 PUSH1 0x0 DUP3 DUP2 MSTORE PUSH1 0x20 ADD SWAP1 DUP2 MSTORE PUSH1 0x20 ADD PUSH1 0x0 KECCAK256 PUSH1 0x0 ADD SLOAD DUP4 DUP3 DUP2 MLOAD DUP2 LT PUSH2 0x874 JUMPI PUSH32 0x4E487B7100000000000000000000000000000000000000000000000000000000 PUSH1 0x0 MSTORE PUSH1 0x32 PUSH1 0x4 MSTORE PUSH1 0x24 PUSH1 0x0 REVERT JUMPDEST PUSH1 0x20 MUL PUSH1 0x20 ADD ADD DUP2 DUP2 MSTORE POP POP PUSH1 0x2 PUSH1 0x0 DUP13 DUP2 MSTORE PUSH1 0x20 ADD SWAP1 DUP2 MSTORE PUSH1 0x20 ADD PUSH1 0x0 KECCAK256 PUSH1 0x0 DUP3 DUP2 MSTORE PUSH1 0x20 ADD SWAP1 DUP2 MSTORE PUSH1 0x20 ADD PUSH1 0x0 KECCAK256 PUSH1 0x1 ADD PUSH1 0x0 SWAP1 SLOAD SWAP1 PUSH2 0x100 EXP SWAP1 DIV PUSH1 0xFF AND DUP3 DUP3 DUP2 MLOAD DUP2 LT PUSH2 0x8EE JUMPI PUSH32 0x4E487B7100000000000000000000000000000000000000000000000000000000 PUSH1 0x0 MSTORE PUSH1 0x32 PUSH1 0x4 MSTORE PUSH1 0x24 PUSH1 0x0 REVERT JUMPDEST PUSH1 0x20 MUL PUSH1 0x20 ADD ADD SWAP1 PUSH1 0xFF AND SWAP1 DUP2 PUSH1 0xFF AND DUP2 MSTORE POP POP DUP1 DUP1 PUSH2 0x90D SWAP1 PUSH2 0x1094 JUMP JUMPDEST SWAP2 POP POP PUSH2 0x80B JUMP JUMPDEST POP DUP4 PUSH1 0x1 ADD SLOAD DUP5 PUSH1 0x2 ADD SLOAD DUP6 PUSH1 0x3 ADD SLOAD DUP5 DUP5 SWAP9 POP SWAP9 POP SWAP9 POP SWAP9 POP SWAP9 POP POP POP POP POP SWAP2 SWAP4 SWAP6 SWAP1 SWAP3 SWAP5 POP JUMP JUMPDEST PUSH1 0x0 DUP1 DUP4 PUSH1 0x1F DUP5 ADD SLT PUSH2 0x950 JUMPI PUSH1 0x0 DUP1 REVERT JUMPDEST DUP3 CALLDATALOAD SWAP1 POP PUSH8 0xFFFFFFFFFFFFFFFF DUP2 GT ISZERO PUSH2 0x969 JUMPI PUSH1 0x0 DUP1 REVERT JUMPDEST PUSH1 0x20 DUP4 ADD SWAP2 POP DUP4 PUSH1 0x20 DUP3 MUL DUP4 ADD GT ISZERO PUSH2 0x981 JUMPI PUSH1 0x0 DUP1 REVERT JUMPDEST SWAP3 POP SWAP3 SWAP1 POP JUMP JUMPDEST PUSH1 0x0 DUP1 DUP4 PUSH1 0x1F DUP5 ADD SLT PUSH2 0x99A JUMPI PUSH1 0x0 DUP1 REVERT JUMPDEST DUP3 CALLDATALOAD SWAP1 POP PUSH8 0xFFFFFFFFFFFFFFFF DUP2 GT ISZERO PUSH2 0x9B3 JUMPI PUSH1 0x0 DUP1 REVERT JUMPDEST PUSH1 0x20 DUP4 ADD SWAP2 POP DUP4 PUSH1 0x20 DUP3 MUL DUP4 ADD GT ISZERO PUSH2 0x9CB JUMPI PUSH1 0x0 DUP1 REVERT JUMPDEST SWAP3 POP SWAP3 SWAP1 POP JUMP JUMPDEST PUSH1 0x0 DUP2 CALLDATALOAD SWAP1 POP PUSH2 0x9E1 DUP2 PUSH2 0x110C JUMP JUMPDEST SWAP3 SWAP2 POP POP JUMP JUMPDEST PUSH1 0x0 DUP2 CALLDATALOAD SWAP1 POP PUSH2 0x9F6 DUP2 PUSH2 0x1123 JUMP JUMPDEST SWAP3 SWAP2 POP POP JUMP JUMPDEST PUSH1 0x0 DUP2 CALLDATALOAD SWAP1 POP PUSH2 0xA0B DUP2 PUSH2 0x113A JUMP JUMPDEST SWAP3 SWAP2 POP POP JUMP JUMPDEST PUSH1 0x0 PUSH1 0x20 DUP3 DUP5 SUB SLT ISZERO PUSH2 0xA23 JUMPI PUSH1 0x0 DUP1 REVERT JUMPDEST PUSH1 0x0 PUSH2 0xA31 DUP5 DUP3 DUP6 ADD PUSH2 0x9D2 JUMP JUMPDEST SWAP2 POP POP SWAP3 SWAP2 POP POP JUMP JUMPDEST PUSH1 0x0 DUP1 PUSH1 0x0 DUP1 PUSH1 0x0 DUP1 PUSH1 0x0 DUP1 PUSH1 0xC0 DUP10 DUP12 SUB SLT ISZERO PUSH2 0xA56 JUMPI PUSH1 0x0 DUP1 REVERT JUMPDEST PUSH1 0x0 PUSH2 0xA64 DUP12 DUP3 DUP13 ADD PUSH2 0x9D2 JUMP JUMPDEST SWAP9 POP POP PUSH1 0x20 PUSH2 0xA75 DUP12 DUP3 DUP13 ADD PUSH2 0x9D2 JUMP JUMPDEST SWAP8 POP POP PUSH1 0x40 PUSH2 0xA86 DUP12 DUP3 DUP13 ADD PUSH2 0x9E7 JUMP JUMPDEST SWAP7 POP POP PUSH1 0x60 PUSH2 0xA97 DUP12 DUP3 DUP13 ADD PUSH2 0x9D2 JUMP JUMPDEST SWAP6 POP POP PUSH1 0x80 DUP10 ADD CALLDATALOAD PUSH8 0xFFFFFFFFFFFFFFFF DUP2 GT ISZERO PUSH2 0xAB4 JUMPI PUSH1 0x0 DUP1 REVERT JUMPDEST PUSH2 0xAC0 DUP12 DUP3 DUP13 ADD PUSH2 0x93E JUMP JUMPDEST SWAP5 POP SWAP5 POP POP PUSH1 0xA0 DUP10 ADD CALLDATALOAD PUSH8 0xFFFFFFFFFFFFFFFF DUP2 GT ISZERO PUSH2 0xADF JUMPI PUSH1 0x0 DUP1 REVERT JUMPDEST PUSH2 0xAEB DUP12 DUP3 DUP13 ADD PUSH2 0x988 JUMP JUMPDEST SWAP3 POP SWAP3 POP POP SWAP3 SWAP6 SWAP9 POP SWAP3 SWAP6 SWAP9 SWAP1 SWAP4 SWAP7 POP JUMP JUMPDEST PUSH1 0x0 DUP1 PUSH1 0x40 DUP4 DUP6 SUB SLT ISZERO PUSH2 0xB10 JUMPI PUSH1 0x0 DUP1 REVERT JUMPDEST PUSH1 0x0 PUSH2 0xB1E DUP6 DUP3 DUP7 ADD PUSH2 0x9D2 JUMP JUMPDEST SWAP3 POP POP PUSH1 0x20 PUSH2 0xB2F DUP6 DUP3 DUP7 ADD PUSH2 0x9E7 JUMP JUMPDEST SWAP2 POP POP SWAP3 POP SWAP3 SWAP1 POP JUMP JUMPDEST PUSH1 0x0 PUSH1 0x20 DUP3 DUP5 SUB SLT ISZERO PUSH2 0xB4B JUMPI PUSH1 0x0 DUP1 REVERT JUMPDEST PUSH1 0x0 PUSH2 0xB59 DUP5 DUP3 DUP6 ADD PUSH2 0x9FC JUMP JUMPDEST SWAP2 POP POP SWAP3 SWAP2 POP POP JUMP JUMPDEST PUSH1 0x0 PUSH2 0xB6E DUP4 DUP4 PUSH2 0xC6C JUMP JUMPDEST PUSH1 0x20 DUP4 ADD SWAP1 POP SWAP3 SWAP2 POP POP JUMP JUMPDEST PUSH1 0x0 PUSH2 0xB86 DUP4 DUP4 PUSH2 0xDE5 JUMP JUMPDEST PUSH1 0x20 DUP4 ADD SWAP1 POP SWAP3 SWAP2 POP POP JUMP JUMPDEST PUSH2 0xB9B DUP2 PUSH2 0x1035 JUMP JUMPDEST DUP3 MSTORE POP POP JUMP JUMPDEST PUSH1 0x0 PUSH2 0xBAC DUP3 PUSH2 0xFD2 JUMP JUMPDEST PUSH2 0xBB6 DUP2 DUP6 PUSH2 0x1002 JUMP JUMPDEST SWAP4 POP PUSH2 0xBC1 DUP4 PUSH2 0xFB2 JUMP JUMPDEST DUP1 PUSH1 0x0 JUMPDEST DUP4 DUP2 LT ISZERO PUSH2 0xBF2 JUMPI DUP2 MLOAD PUSH2 0xBD9 DUP9 DUP3 PUSH2 0xB62 JUMP JUMPDEST SWAP8 POP PUSH2 0xBE4 DUP4 PUSH2 0xFE8 JUMP JUMPDEST SWAP3 POP POP PUSH1 0x1 DUP2 ADD SWAP1 POP PUSH2 0xBC5 JUMP JUMPDEST POP DUP6 SWAP4 POP POP POP POP SWAP3 SWAP2 POP POP JUMP JUMPDEST PUSH1 0x0 PUSH2 0xC0A DUP3 PUSH2 0xFDD JUMP JUMPDEST PUSH2 0xC14 DUP2 DUP6 PUSH2 0x1013 JUMP JUMPDEST SWAP4 POP PUSH2 0xC1F DUP4 PUSH2 0xFC2 JUMP JUMPDEST DUP1 PUSH1 0x0 JUMPDEST DUP4 DUP2 LT ISZERO PUSH2 0xC50 JUMPI DUP2 MLOAD PUSH2 0xC37 DUP9 DUP3 PUSH2 0xB7A JUMP JUMPDEST SWAP8 POP PUSH2 0xC42 DUP4 PUSH2 0xFF5 JUMP JUMPDEST SWAP3 POP POP PUSH1 0x1 DUP2 ADD SWAP1 POP PUSH2 0xC23 JUMP JUMPDEST POP DUP6 SWAP4 POP POP POP POP SWAP3 SWAP2 POP POP JUMP JUMPDEST PUSH2 0xC66 DUP2 PUSH2 0x1047 JUMP JUMPDEST DUP3 MSTORE POP POP JUMP JUMPDEST PUSH2 0xC75 DUP2 PUSH2 0x1053 JUMP JUMPDEST DUP3 MSTORE POP POP JUMP JUMPDEST PUSH2 0xC84 DUP2 PUSH2 0x1053 JUMP JUMPDEST DUP3 MSTORE POP POP JUMP JUMPDEST PUSH1 0x0 PUSH2 0xC97 PUSH1 0x17 DUP4 PUSH2 0x1024 JUMP JUMPDEST SWAP2 POP PUSH32 0x496A617A6168207375646168207465726461667461722E000000000000000000 PUSH1 0x0 DUP4 ADD MSTORE PUSH1 0x20 DUP3 ADD SWAP1 POP SWAP2 SWAP1 POP JUMP JUMPDEST PUSH1 0x0 PUSH2 0xCD7 PUSH1 0x26 DUP4 PUSH2 0x1024 JUMP JUMPDEST SWAP2 POP PUSH32 0x48616E79612070656D696C696B2079616E672062697361206D656C616B756B61 PUSH1 0x0 DUP4 ADD MSTORE PUSH32 0x6E20696E692E0000000000000000000000000000000000000000000000000000 PUSH1 0x20 DUP4 ADD MSTORE PUSH1 0x40 DUP3 ADD SWAP1 POP SWAP2 SWAP1 POP JUMP JUMPDEST PUSH1 0x0 PUSH2 0xD3D PUSH1 0x17 DUP4 PUSH2 0x1024 JUMP JUMPDEST SWAP2 POP PUSH32 0x496A617A616820746964616B20646974656D756B616E2E000000000000000000 PUSH1 0x0 DUP4 ADD MSTORE PUSH1 0x20 DUP3 ADD SWAP1 POP SWAP2 SWAP1 POP JUMP JUMPDEST PUSH1 0x0 PUSH2 0xD7D PUSH1 0x2B DUP4 PUSH2 0x1024 JUMP JUMPDEST SWAP2 POP PUSH32 0x4A756D6C6168206D6174612070656C616A6172616E2064616E206E696C616920 PUSH1 0x0 DUP4 ADD MSTORE PUSH32 0x68617275732073616D612E000000000000000000000000000000000000000000 PUSH1 0x20 DUP4 ADD MSTORE PUSH1 0x40 DUP3 ADD SWAP1 POP SWAP2 SWAP1 POP JUMP JUMPDEST PUSH2 0xDDF DUP2 PUSH2 0x107D JUMP JUMPDEST DUP3 MSTORE POP POP JUMP JUMPDEST PUSH2 0xDEE DUP2 PUSH2 0x1087 JUMP JUMPDEST DUP3 MSTORE POP POP JUMP JUMPDEST PUSH2 0xDFD DUP2 PUSH2 0x1087 JUMP JUMPDEST DUP3 MSTORE POP POP JUMP JUMPDEST PUSH1 0x0 PUSH1 0x20 DUP3 ADD SWAP1 POP PUSH2 0xE18 PUSH1 0x0 DUP4 ADD DUP5 PUSH2 0xB92 JUMP JUMPDEST SWAP3 SWAP2 POP POP JUMP JUMPDEST PUSH1 0x0 PUSH1 0xA0 DUP3 ADD SWAP1 POP PUSH2 0xE33 PUSH1 0x0 DUP4 ADD DUP9 PUSH2 0xC7B JUMP JUMPDEST PUSH2 0xE40 PUSH1 0x20 DUP4 ADD DUP8 PUSH2 0xC7B JUMP JUMPDEST PUSH2 0xE4D PUSH1 0x40 DUP4 ADD DUP7 PUSH2 0xDD6 JUMP JUMPDEST PUSH2 0xE5A PUSH1 0x60 DUP4 ADD DUP6 PUSH2 0xC7B JUMP JUMPDEST PUSH2 0xE67 PUSH1 0x80 DUP4 ADD DUP5 PUSH2 0xC5D JUMP JUMPDEST SWAP7 SWAP6 POP POP POP POP POP POP JUMP JUMPDEST PUSH1 0x0 PUSH1 0x60 DUP3 ADD SWAP1 POP PUSH2 0xE86 PUSH1 0x0 DUP4 ADD DUP7 PUSH2 0xC7B JUMP JUMPDEST PUSH2 0xE93 PUSH1 0x20 DUP4 ADD DUP6 PUSH2 0xDD6 JUMP JUMPDEST PUSH2 0xEA0 PUSH1 0x40 DUP4 ADD DUP5 PUSH2 0xC7B JUMP JUMPDEST SWAP5 SWAP4 POP POP POP POP JUMP JUMPDEST PUSH1 0x0 PUSH1 0xA0 DUP3 ADD SWAP1 POP PUSH2 0xEBD PUSH1 0x0 DUP4 ADD DUP9 PUSH2 0xC7B JUMP JUMPDEST PUSH2 0xECA PUSH1 0x20 DUP4 ADD DUP8 PUSH2 0xDD6 JUMP JUMPDEST PUSH2 0xED7 PUSH1 0x40 DUP4 ADD DUP7 PUSH2 0xC7B JUMP JUMPDEST DUP2 DUP2 SUB PUSH1 0x60 DUP4 ADD MSTORE PUSH2 0xEE9 DUP2 DUP6 PUSH2 0xBA1 JUMP JUMPDEST SWAP1 POP DUP2 DUP2 SUB PUSH1 0x80 DUP4 ADD MSTORE PUSH2 0xEFD DUP2 DUP5 PUSH2 0xBFF JUMP JUMPDEST SWAP1 POP SWAP7 SWAP6 POP POP POP POP POP POP JUMP JUMPDEST PUSH1 0x0 PUSH1 0x40 DUP3 ADD SWAP1 POP PUSH2 0xF1E PUSH1 0x0 DUP4 ADD DUP6 PUSH2 0xC7B JUMP JUMPDEST PUSH2 0xF2B PUSH1 0x20 DUP4 ADD DUP5 PUSH2 0xDF4 JUMP JUMPDEST SWAP4 SWAP3 POP POP POP JUMP JUMPDEST PUSH1 0x0 PUSH1 0x20 DUP3 ADD SWAP1 POP DUP2 DUP2 SUB PUSH1 0x0 DUP4 ADD MSTORE PUSH2 0xF4B DUP2 PUSH2 0xC8A JUMP JUMPDEST SWAP1 POP SWAP2 SWAP1 POP JUMP JUMPDEST PUSH1 0x0 PUSH1 0x20 DUP3 ADD SWAP1 POP DUP2 DUP2 SUB PUSH1 0x0 DUP4 ADD MSTORE PUSH2 0xF6B DUP2 PUSH2 0xCCA JUMP JUMPDEST SWAP1 POP SWAP2 SWAP1 POP JUMP JUMPDEST PUSH1 0x0 PUSH1 0x20 DUP3 ADD SWAP1 POP DUP2 DUP2 SUB PUSH1 0x0 DUP4 ADD MSTORE PUSH2 0xF8B DUP2 PUSH2 0xD30 JUMP JUMPDEST SWAP1 POP SWAP2 SWAP1 POP JUMP JUMPDEST PUSH1 0x0 PUSH1 0x20 DUP3 ADD SWAP1 POP DUP2 DUP2 SUB PUSH1 0x0 DUP4 ADD MSTORE PUSH2 0xFAB DUP2 PUSH2 0xD70 JUMP JUMPDEST SWAP1 POP SWAP2 SWAP1 POP JUMP JUMPDEST PUSH1 0x0 DUP2 SWAP1 POP PUSH1 0x20 DUP3 ADD SWAP1 POP SWAP2 SWAP1 POP JUMP JUMPDEST PUSH1 0x0 DUP2 SWAP1 POP PUSH1 0x20 DUP3 ADD SWAP1 POP SWAP2 SWAP1 POP JUMP JUMPDEST PUSH1 0x0 DUP2 MLOAD SWAP1 POP SWAP2 SWAP1 POP JUMP JUMPDEST PUSH1 0x0 DUP2 MLOAD SWAP1 POP SWAP2 SWAP1 POP JUMP JUMPDEST PUSH1 0x0 PUSH1 0x20 DUP3 ADD SWAP1 POP SWAP2 SWAP1 POP JUMP JUMPDEST PUSH1 0x0 PUSH1 0x20 DUP3 ADD SWAP1 POP SWAP2 SWAP1 POP JUMP JUMPDEST PUSH1 0x0 DUP3 DUP3 MSTORE PUSH1 0x20 DUP3 ADD SWAP1 POP SWAP3 SWAP2 POP POP JUMP JUMPDEST PUSH1 0x0 DUP3 DUP3 MSTORE PUSH1 0x20 DUP3 ADD SWAP1 POP SWAP3 SWAP2 POP POP JUMP JUMPDEST PUSH1 0x0 DUP3 DUP3 MSTORE PUSH1 0x20 DUP3 ADD SWAP1 POP SWAP3 SWAP2 POP POP JUMP JUMPDEST PUSH1 0x0 PUSH2 0x1040 DUP3 PUSH2 0x105D JUMP JUMPDEST SWAP1 POP SWAP2 SWAP1 POP JUMP JUMPDEST PUSH1 0x0 DUP2 ISZERO ISZERO SWAP1 POP SWAP2 SWAP1 POP JUMP JUMPDEST PUSH1 0x0 DUP2 SWAP1 POP SWAP2 SWAP1 POP JUMP JUMPDEST PUSH1 0x0 PUSH20 0xFFFFFFFFFFFFFFFFFFFFFFFFFFFFFFFFFFFFFFFF DUP3 AND SWAP1 POP SWAP2 SWAP1 POP JUMP JUMPDEST PUSH1 0x0 DUP2 SWAP1 POP SWAP2 SWAP1 POP JUMP JUMPDEST PUSH1 0x0 PUSH1 0xFF DUP3 AND SWAP1 POP SWAP2 SWAP1 POP JUMP JUMPDEST PUSH1 0x0 PUSH2 0x109F DUP3 PUSH2 0x107D JUMP JUMPDEST SWAP2 POP PUSH32 0xFFFFFFFFFFFFFFFFFFFFFFFFFFFFFFFFFFFFFFFFFFFFFFFFFFFFFFFFFFFFFFFF DUP3 EQ ISZERO PUSH2 0x10D2 JUMPI PUSH2 0x10D1 PUSH2 0x10DD JUMP JUMPDEST JUMPDEST PUSH1 0x1 DUP3 ADD SWAP1 POP SWAP2 SWAP1 POP JUMP JUMPDEST PUSH32 0x4E487B7100000000000000000000000000000000000000000000000000000000 PUSH1 0x0 MSTORE PUSH1 0x11 PUSH1 0x4 MSTORE PUSH1 0x24 PUSH1 0x0 REVERT JUMPDEST PUSH2 0x1115 DUP2 PUSH2 0x1053 JUMP JUMPDEST DUP2 EQ PUSH2 0x1120 JUMPI PUSH1 0x0 DUP1 REVERT JUMPDEST POP JUMP JUMPDEST PUSH2 0x112C DUP2 PUSH2 0x107D JUMP JUMPDEST DUP2 EQ PUSH2 0x1137 JUMPI PUSH1 0x0 DUP1 REVERT JUMPDEST POP JUMP JUMPDEST PUSH2 0x1143 DUP2 PUSH2 0x1087 JUMP JUMPDEST DUP2 EQ PUSH2 0x114E JUMPI PUSH1 0x0 DUP1 REVERT JUMPDEST POP JUMP INVALID LOG2 PUSH5 0x6970667358 0x22 SLT KECCAK256 0xD4 0xD1 SAR 0xE4 SWAP9 PUSH25 0x44857DB4CAC3058C0743BD5816EA9FE73926CFD17DD9ECB3E6 0x48 PUSH5 0x736F6C6343 STOP ADDMOD STOP STOP CALLER "
				},
				"gasEstimates": {
					"creation": {
						"codeDepositCost": "897400",
						"executionCost": "21801",
						"totalCost": "919201"
					},
					"external": {
						"degrees(bytes32)": "infinite",
						"deleteDegree(bytes32)": "24338",
						"getDegree(bytes32)": "infinite",
						"issueDegree(bytes32,bytes32,uint256,bytes32,bytes32[],uint8[])": "infinite",
						"owner()": "1211",
						"transcripts(bytes32,uint256)": "infinite"
					}
				},
				"methodIdentifiers": {
					"degrees(bytes32)": "bc50b3cd",
					"deleteDegree(bytes32)": "91f2bceb",
					"getDegree(bytes32)": "d04a419b",
					"issueDegree(bytes32,bytes32,uint256,bytes32,bytes32[],uint8[])": "a08b9b81",
					"owner()": "8da5cb5b",
					"transcripts(bytes32,uint256)": "037392da"
				}
			},
			"storageLayout": {
				"storage": [
					{
						"astId": 3,
						"contract": "Desktop/Smart Contract/sc_ijazah/backend/sc-service/smartcontract/contracts/ijazah_v3.sol:VerifikasiIjazah",
						"label": "owner",
						"offset": 0,
						"slot": "0",
						"type": "t_address"
					},
					{
						"astId": 45,
						"contract": "Desktop/Smart Contract/sc_ijazah/backend/sc-service/smartcontract/contracts/ijazah_v3.sol:VerifikasiIjazah",
						"label": "degrees",
						"offset": 0,
						"slot": "1",
						"type": "t_mapping(t_bytes32,t_struct(Degree)19_storage)"
					},
					{
						"astId": 52,
						"contract": "Desktop/Smart Contract/sc_ijazah/backend/sc-service/smartcontract/contracts/ijazah_v3.sol:VerifikasiIjazah",
						"label": "transcripts",
						"offset": 0,
						"slot": "2",
						"type": "t_mapping(t_bytes32,t_mapping(t_uint256,t_struct(Subject)8_storage))"
					}
				],
				"types": {
					"t_address": {
						"encoding": "inplace",
						"label": "address",
						"numberOfBytes": "20"
					},
					"t_bool": {
						"encoding": "inplace",
						"label": "bool",
						"numberOfBytes": "1"
					},
					"t_bytes32": {
						"encoding": "inplace",
						"label": "bytes32",
						"numberOfBytes": "32"
					},
					"t_mapping(t_bytes32,t_mapping(t_uint256,t_struct(Subject)8_storage))": {
						"encoding": "mapping",
						"key": "t_bytes32",
						"label": "mapping(bytes32 => mapping(uint256 => struct VerifikasiIjazah.Subject))",
						"numberOfBytes": "32",
						"value": "t_mapping(t_uint256,t_struct(Subject)8_storage)"
					},
					"t_mapping(t_bytes32,t_struct(Degree)19_storage)": {
						"encoding": "mapping",
						"key": "t_bytes32",
						"label": "mapping(bytes32 => struct VerifikasiIjazah.Degree)",
						"numberOfBytes": "32",
						"value": "t_struct(Degree)19_storage"
					},
					"t_mapping(t_uint256,t_struct(Subject)8_storage)": {
						"encoding": "mapping",
						"key": "t_uint256",
						"label": "mapping(uint256 => struct VerifikasiIjazah.Subject)",
						"numberOfBytes": "32",
						"value": "t_struct(Subject)8_storage"
					},
					"t_struct(Degree)19_storage": {
						"encoding": "inplace",
						"label": "struct VerifikasiIjazah.Degree",
						"members": [
							{
								"astId": 10,
								"contract": "Desktop/Smart Contract/sc_ijazah/backend/sc-service/smartcontract/contracts/ijazah_v3.sol:VerifikasiIjazah",
								"label": "degreeHash",
								"offset": 0,
								"slot": "0",
								"type": "t_bytes32"
							},
							{
								"astId": 12,
								"contract": "Desktop/Smart Contract/sc_ijazah/backend/sc-service/smartcontract/contracts/ijazah_v3.sol:VerifikasiIjazah",
								"label": "sekolah",
								"offset": 0,
								"slot": "1",
								"type": "t_bytes32"
							},
							{
								"astId": 14,
								"contract": "Desktop/Smart Contract/sc_ijazah/backend/sc-service/smartcontract/contracts/ijazah_v3.sol:VerifikasiIjazah",
								"label": "issueDate",
								"offset": 0,
								"slot": "2",
								"type": "t_uint256"
							},
							{
								"astId": 16,
								"contract": "Desktop/Smart Contract/sc_ijazah/backend/sc-service/smartcontract/contracts/ijazah_v3.sol:VerifikasiIjazah",
								"label": "ipfsUrl",
								"offset": 0,
								"slot": "3",
								"type": "t_bytes32"
							},
							{
								"astId": 18,
								"contract": "Desktop/Smart Contract/sc_ijazah/backend/sc-service/smartcontract/contracts/ijazah_v3.sol:VerifikasiIjazah",
								"label": "exists",
								"offset": 0,
								"slot": "4",
								"type": "t_bool"
							}
						],
						"numberOfBytes": "160"
					},
					"t_struct(Subject)8_storage": {
						"encoding": "inplace",
						"label": "struct VerifikasiIjazah.Subject",
						"members": [
							{
								"astId": 5,
								"contract": "Desktop/Smart Contract/sc_ijazah/backend/sc-service/smartcontract/contracts/ijazah_v3.sol:VerifikasiIjazah",
								"label": "name",
								"offset": 0,
								"slot": "0",
								"type": "t_bytes32"
							},
							{
								"astId": 7,
								"contract": "Desktop/Smart Contract/sc_ijazah/backend/sc-service/smartcontract/contracts/ijazah_v3.sol:VerifikasiIjazah",
								"label": "grade",
								"offset": 0,
								"slot": "1",
								"type": "t_uint8"
							}
						],
						"numberOfBytes": "64"
					},
					"t_uint256": {
						"encoding": "inplace",
						"label": "uint256",
						"numberOfBytes": "32"
					},
					"t_uint8": {
						"encoding": "inplace",
						"label": "uint8",
						"numberOfBytes": "1"
					}
				}
			},
			"userdoc": {
				"kind": "user",
				"methods": {},
				"version": 1
			}
		}
	}
}