{
	"Desktop/Smart Contract/sc_ijazah/backend/sc-service/smartcontract/contracts/ijazah_v2.sol": {
		"VerifikasiIjazah": {
			"abi": [
				{
					"inputs": [],
					"stateMutability": "nonpayable",
					"type": "constructor"
				},
				{
					"anonymous": false,
					"inputs": [
						{
							"indexed": true,
							"internalType": "bytes32",
							"name": "degreeHash",
							"type": "bytes32"
						}
					],
					"name": "DegreeDeleted",
					"type": "event"
				},
				{
					"anonymous": false,
					"inputs": [
						{
							"indexed": true,
							"internalType": "bytes32",
							"name": "degreeHash",
							"type": "bytes32"
						},
						{
							"indexed": false,
							"internalType": "string",
							"name": "sekolah",
							"type": "string"
						},
						{
							"indexed": false,
							"internalType": "uint256",
							"name": "issueDate",
							"type": "uint256"
						},
						{
							"indexed": false,
							"internalType": "string",
							"name": "ipfsUrl",
							"type": "string"
						}
					],
					"name": "DegreeIssued",
					"type": "event"
				},
				{
					"inputs": [
						{
							"internalType": "bytes32",
							"name": "",
							"type": "bytes32"
						}
					],
					"name": "degrees",
					"outputs": [
						{
							"internalType": "bytes32",
							"name": "degreeHash",
							"type": "bytes32"
						},
						{
							"internalType": "string",
							"name": "sekolah",
							"type": "string"
						},
						{
							"internalType": "uint256",
							"name": "issueDate",
							"type": "uint256"
						},
						{
							"internalType": "string",
							"name": "ipfsUrl",
							"type": "string"
						}
					],
					"stateMutability": "view",
					"type": "function"
				},
				{
					"inputs": [
						{
							"internalType": "bytes32",
							"name": "_degreeHash",
							"type": "bytes32"
						}
					],
					"name": "deleteDegree",
					"outputs": [],
					"stateMutability": "nonpayable",
					"type": "function"
				},
				{
					"inputs": [
						{
							"internalType": "bytes32",
							"name": "_degreeHash",
							"type": "bytes32"
						}
					],
					"name": "getDegree",
					"outputs": [
						{
							"internalType": "string",
							"name": "",
							"type": "string"
						},
						{
							"internalType": "uint256",
							"name": "",
							"type": "uint256"
						},
						{
							"internalType": "string",
							"name": "",
							"type": "string"
						},
						{
							"internalType": "string[]",
							"name": "",
							"type": "string[]"
						},
						{
							"internalType": "uint8[]",
							"name": "",
							"type": "uint8[]"
						}
					],
					"stateMutability": "view",
					"type": "function"
				},
				{
					"inputs": [
						{
							"internalType": "bytes32",
							"name": "_degreeHash",
							"type": "bytes32"
						},
						{
							"internalType": "string",
							"name": "_sekolah",
							"type": "string"
						},
						{
							"internalType": "uint256",
							"name": "_issueDate",
							"type": "uint256"
						},
						{
							"internalType": "string",
							"name": "_ipfsUrl",
							"type": "string"
						},
						{
							"internalType": "string[]",
							"name": "_mataPelajaran",
							"type": "string[]"
						},
						{
							"internalType": "uint8[]",
							"name": "_nilai",
							"type": "uint8[]"
						}
					],
					"name": "issueDegree",
					"outputs": [],
					"stateMutability": "nonpayable",
					"type": "function"
				},
				{
					"inputs": [],
					"name": "listDegrees",
					"outputs": [
						{
							"internalType": "bytes32[]",
							"name": "",
							"type": "bytes32[]"
						}
					],
					"stateMutability": "view",
					"type": "function"
				},
				{
					"inputs": [],
					"name": "owner",
					"outputs": [
						{
							"internalType": "address",
							"name": "",
							"type": "address"
						}
					],
					"stateMutability": "view",
					"type": "function"
				},
				{
					"inputs": [
						{
							"internalType": "bytes32",
							"name": "_degreeHash",
							"type": "bytes32"
						},
						{
							"internalType": "string",
							"name": "_sekolah",
							"type": "string"
						},
						{
							"internalType": "uint256",
							"name": "_issueDate",
							"type": "uint256"
						}
					],
					"name": "verifyDegree",
					"outputs": [
						{
							"internalType": "bool",
							"name": "",
							"type": "bool"
						}
					],
					"stateMutability": "view",
					"type": "function"
				}
			],
			"devdoc": {
				"kind": "dev",
				"methods": {},
				"version": 1
			},
			"evm": {
				"assembly": "    /* \"Desktop/Smart Contract/sc_ijazah/backend/sc-service/smartcontract/contracts/ijazah_v2.sol\":60:4255  contract VerifikasiIjazah {\r... */\n  mstore(0x40, 0x80)\n    /* \"Desktop/Smart Contract/sc_ijazah/backend/sc-service/smartcontract/contracts/ijazah_v2.sol\":535:586  constructor() {\r... */\n  callvalue\n  dup1\n  iszero\n  tag_1\n  jumpi\n  0x00\n  dup1\n  revert\ntag_1:\n  pop\n    /* \"Desktop/Smart Contract/sc_ijazah/backend/sc-service/smartcontract/contracts/ijazah_v2.sol\":568:578  msg.sender */\n  caller\n    /* \"Desktop/Smart Contract/sc_ijazah/backend/sc-service/smartcontract/contracts/ijazah_v2.sol\":560:565  owner */\n  0x00\n  dup1\n    /* \"Desktop/Smart Contract/sc_ijazah/backend/sc-service/smartcontract/contracts/ijazah_v2.sol\":560:578  owner = msg.sender */\n  0x0100\n  exp\n  dup2\n  sload\n  dup2\n  0xffffffffffffffffffffffffffffffffffffffff\n  mul\n  not\n  and\n  swap1\n  dup4\n  0xffffffffffffffffffffffffffffffffffffffff\n  and\n  mul\n  or\n  swap1\n  sstore\n  pop\n    /* \"Desktop/Smart Contract/sc_ijazah/backend/sc-service/smartcontract/contracts/ijazah_v2.sol\":60:4255  contract VerifikasiIjazah {\r... */\n  dataSize(sub_0)\n  dup1\n  dataOffset(sub_0)\n  0x00\n  codecopy\n  0x00\n  return\nstop\n\nsub_0: assembly {\n        /* \"Desktop/Smart Contract/sc_ijazah/backend/sc-service/smartcontract/contracts/ijazah_v2.sol\":60:4255  contract VerifikasiIjazah {\r... */\n      mstore(0x40, 0x80)\n      callvalue\n      dup1\n      iszero\n      tag_1\n      jumpi\n      0x00\n      dup1\n      revert\n    tag_1:\n      pop\n      jumpi(tag_2, lt(calldatasize, 0x04))\n      shr(0xe0, calldataload(0x00))\n      dup1\n      0xbc50b3cd\n      gt\n      tag_10\n      jumpi\n      dup1\n      0xbc50b3cd\n      eq\n      tag_6\n      jumpi\n      dup1\n      0xd04a419b\n      eq\n      tag_7\n      jumpi\n      dup1\n      0xe6faad29\n      eq\n      tag_8\n      jumpi\n      dup1\n      0xf266c791\n      eq\n      tag_9\n      jumpi\n      jump(tag_2)\n    tag_10:\n      dup1\n      0x578d30da\n      eq\n      tag_3\n      jumpi\n      dup1\n      0x8da5cb5b\n      eq\n      tag_4\n      jumpi\n      dup1\n      0x91f2bceb\n      eq\n      tag_5\n      jumpi\n    tag_2:\n      0x00\n      dup1\n      revert\n        /* \"Desktop/Smart Contract/sc_ijazah/backend/sc-service/smartcontract/contracts/ijazah_v2.sol\":941:1951  function issueDegree(\r... */\n    tag_3:\n      tag_11\n      0x04\n      dup1\n      calldatasize\n      sub\n      dup2\n      add\n      swap1\n      tag_12\n      swap2\n      swap1\n      tag_13\n      jump\t// in\n    tag_12:\n      tag_14\n      jump\t// in\n    tag_11:\n      stop\n        /* \"Desktop/Smart Contract/sc_ijazah/backend/sc-service/smartcontract/contracts/ijazah_v2.sol\":93:113  address public owner */\n    tag_4:\n      tag_15\n      tag_16\n      jump\t// in\n    tag_15:\n      mload(0x40)\n      tag_17\n      swap2\n      swap1\n      tag_18\n      jump\t// in\n    tag_17:\n      mload(0x40)\n      dup1\n      swap2\n      sub\n      swap1\n      return\n        /* \"Desktop/Smart Contract/sc_ijazah/backend/sc-service/smartcontract/contracts/ijazah_v2.sol\":2008:2339  function deleteDegree(bytes32 _degreeHash) public isOwner {\r... */\n    tag_5:\n      tag_19\n      0x04\n      dup1\n      calldatasize\n      sub\n      dup2\n      add\n      swap1\n      tag_20\n      swap2\n      swap1\n      tag_21\n      jump\t// in\n    tag_20:\n      tag_22\n      jump\t// in\n    tag_19:\n      stop\n        /* \"Desktop/Smart Contract/sc_ijazah/backend/sc-service/smartcontract/contracts/ijazah_v2.sol\":594:635  mapping(bytes32 => Degree) public degrees */\n    tag_6:\n      tag_23\n      0x04\n      dup1\n      calldatasize\n      sub\n      dup2\n      add\n      swap1\n      tag_24\n      swap2\n      swap1\n      tag_21\n      jump\t// in\n    tag_24:\n      tag_25\n      jump\t// in\n    tag_23:\n      mload(0x40)\n      tag_26\n      swap5\n      swap4\n      swap3\n      swap2\n      swap1\n      tag_27\n      jump\t// in\n    tag_26:\n      mload(0x40)\n      dup1\n      swap2\n      sub\n      swap1\n      return\n        /* \"Desktop/Smart Contract/sc_ijazah/backend/sc-service/smartcontract/contracts/ijazah_v2.sol\":2403:3311  function getDegree(\r... */\n    tag_7:\n      tag_28\n      0x04\n      dup1\n      calldatasize\n      sub\n      dup2\n      add\n      swap1\n      tag_29\n      swap2\n      swap1\n      tag_21\n      jump\t// in\n    tag_29:\n      tag_30\n      jump\t// in\n    tag_28:\n      mload(0x40)\n      tag_31\n      swap6\n      swap5\n      swap4\n      swap3\n      swap2\n      swap1\n      tag_32\n      jump\t// in\n    tag_31:\n      mload(0x40)\n      dup1\n      swap2\n      sub\n      swap1\n      return\n        /* \"Desktop/Smart Contract/sc_ijazah/backend/sc-service/smartcontract/contracts/ijazah_v2.sol\":3861:4252  function verifyDegree(\r... */\n    tag_8:\n      tag_33\n      0x04\n      dup1\n      calldatasize\n      sub\n      dup2\n      add\n      swap1\n      tag_34\n      swap2\n      swap1\n      tag_35\n      jump\t// in\n    tag_34:\n      tag_36\n      jump\t// in\n    tag_33:\n      mload(0x40)\n      tag_37\n      swap2\n      swap1\n      tag_38\n      jump\t// in\n    tag_37:\n      mload(0x40)\n      dup1\n      swap2\n      sub\n      swap1\n      return\n        /* \"Desktop/Smart Contract/sc_ijazah/backend/sc-service/smartcontract/contracts/ijazah_v2.sol\":3359:3458  function listDegrees() public view returns (bytes32[] memory) {\r... */\n    tag_9:\n      tag_39\n      tag_40\n      jump\t// in\n    tag_39:\n      mload(0x40)\n      tag_41\n      swap2\n      swap1\n      tag_42\n      jump\t// in\n    tag_41:\n      mload(0x40)\n      dup1\n      swap2\n      sub\n      swap1\n      return\n        /* \"Desktop/Smart Contract/sc_ijazah/backend/sc-service/smartcontract/contracts/ijazah_v2.sol\":941:1951  function issueDegree(\r... */\n    tag_14:\n        /* \"Desktop/Smart Contract/sc_ijazah/backend/sc-service/smartcontract/contracts/ijazah_v2.sol\":1250:1251  0 */\n      0x00\n        /* \"Desktop/Smart Contract/sc_ijazah/backend/sc-service/smartcontract/contracts/ijazah_v2.sol\":1242:1252  bytes32(0) */\n      dup1\n      shl\n        /* \"Desktop/Smart Contract/sc_ijazah/backend/sc-service/smartcontract/contracts/ijazah_v2.sol\":1207:1214  degrees */\n      0x01\n        /* \"Desktop/Smart Contract/sc_ijazah/backend/sc-service/smartcontract/contracts/ijazah_v2.sol\":1207:1227  degrees[_degreeHash] */\n      0x00\n        /* \"Desktop/Smart Contract/sc_ijazah/backend/sc-service/smartcontract/contracts/ijazah_v2.sol\":1215:1226  _degreeHash */\n      dup9\n        /* \"Desktop/Smart Contract/sc_ijazah/backend/sc-service/smartcontract/contracts/ijazah_v2.sol\":1207:1227  degrees[_degreeHash] */\n      dup2\n      mstore\n      0x20\n      add\n      swap1\n      dup2\n      mstore\n      0x20\n      add\n      0x00\n      keccak256\n        /* \"Desktop/Smart Contract/sc_ijazah/backend/sc-service/smartcontract/contracts/ijazah_v2.sol\":1207:1238  degrees[_degreeHash].degreeHash */\n      0x00\n      add\n      sload\n        /* \"Desktop/Smart Contract/sc_ijazah/backend/sc-service/smartcontract/contracts/ijazah_v2.sol\":1207:1252  degrees[_degreeHash].degreeHash == bytes32(0) */\n      eq\n        /* \"Desktop/Smart Contract/sc_ijazah/backend/sc-service/smartcontract/contracts/ijazah_v2.sol\":1185:1303  require(\r... */\n      tag_44\n      jumpi\n      mload(0x40)\n      0x08c379a000000000000000000000000000000000000000000000000000000000\n      dup2\n      mstore\n      0x04\n      add\n      tag_45\n      swap1\n      tag_46\n      jump\t// in\n    tag_45:\n      mload(0x40)\n      dup1\n      swap2\n      sub\n      swap1\n      revert\n    tag_44:\n        /* \"Desktop/Smart Contract/sc_ijazah/backend/sc-service/smartcontract/contracts/ijazah_v2.sol\":1361:1367  _nilai */\n      dup1\n        /* \"Desktop/Smart Contract/sc_ijazah/backend/sc-service/smartcontract/contracts/ijazah_v2.sol\":1361:1374  _nilai.length */\n      mload\n        /* \"Desktop/Smart Contract/sc_ijazah/backend/sc-service/smartcontract/contracts/ijazah_v2.sol\":1336:1350  _mataPelajaran */\n      dup3\n        /* \"Desktop/Smart Contract/sc_ijazah/backend/sc-service/smartcontract/contracts/ijazah_v2.sol\":1336:1357  _mataPelajaran.length */\n      mload\n        /* \"Desktop/Smart Contract/sc_ijazah/backend/sc-service/smartcontract/contracts/ijazah_v2.sol\":1336:1374  _mataPelajaran.length == _nilai.length */\n      eq\n        /* \"Desktop/Smart Contract/sc_ijazah/backend/sc-service/smartcontract/contracts/ijazah_v2.sol\":1314:1445  require(\r... */\n      tag_47\n      jumpi\n      mload(0x40)\n      0x08c379a000000000000000000000000000000000000000000000000000000000\n      dup2\n      mstore\n      0x04\n      add\n      tag_48\n      swap1\n      tag_49\n      jump\t// in\n    tag_48:\n      mload(0x40)\n      dup1\n      swap2\n      sub\n      swap1\n      revert\n    tag_47:\n        /* \"Desktop/Smart Contract/sc_ijazah/backend/sc-service/smartcontract/contracts/ijazah_v2.sol\":1458:1482  Degree storage newDegree */\n      0x00\n        /* \"Desktop/Smart Contract/sc_ijazah/backend/sc-service/smartcontract/contracts/ijazah_v2.sol\":1485:1492  degrees */\n      0x01\n        /* \"Desktop/Smart Contract/sc_ijazah/backend/sc-service/smartcontract/contracts/ijazah_v2.sol\":1485:1505  degrees[_degreeHash] */\n      0x00\n        /* \"Desktop/Smart Contract/sc_ijazah/backend/sc-service/smartcontract/contracts/ijazah_v2.sol\":1493:1504  _degreeHash */\n      dup9\n        /* \"Desktop/Smart Contract/sc_ijazah/backend/sc-service/smartcontract/contracts/ijazah_v2.sol\":1485:1505  degrees[_degreeHash] */\n      dup2\n      mstore\n      0x20\n      add\n      swap1\n      dup2\n      mstore\n      0x20\n      add\n      0x00\n      keccak256\n        /* \"Desktop/Smart Contract/sc_ijazah/backend/sc-service/smartcontract/contracts/ijazah_v2.sol\":1458:1505  Degree storage newDegree = degrees[_degreeHash] */\n      swap1\n      pop\n        /* \"Desktop/Smart Contract/sc_ijazah/backend/sc-service/smartcontract/contracts/ijazah_v2.sol\":1539:1550  _degreeHash */\n      dup7\n        /* \"Desktop/Smart Contract/sc_ijazah/backend/sc-service/smartcontract/contracts/ijazah_v2.sol\":1516:1525  newDegree */\n      dup2\n        /* \"Desktop/Smart Contract/sc_ijazah/backend/sc-service/smartcontract/contracts/ijazah_v2.sol\":1516:1536  newDegree.degreeHash */\n      0x00\n      add\n        /* \"Desktop/Smart Contract/sc_ijazah/backend/sc-service/smartcontract/contracts/ijazah_v2.sol\":1516:1550  newDegree.degreeHash = _degreeHash */\n      dup2\n      swap1\n      sstore\n      pop\n        /* \"Desktop/Smart Contract/sc_ijazah/backend/sc-service/smartcontract/contracts/ijazah_v2.sol\":1581:1589  _sekolah */\n      dup6\n        /* \"Desktop/Smart Contract/sc_ijazah/backend/sc-service/smartcontract/contracts/ijazah_v2.sol\":1561:1570  newDegree */\n      dup2\n        /* \"Desktop/Smart Contract/sc_ijazah/backend/sc-service/smartcontract/contracts/ijazah_v2.sol\":1561:1578  newDegree.sekolah */\n      0x01\n      add\n        /* \"Desktop/Smart Contract/sc_ijazah/backend/sc-service/smartcontract/contracts/ijazah_v2.sol\":1561:1589  newDegree.sekolah = _sekolah */\n      swap1\n      dup1\n      mload\n      swap1\n      0x20\n      add\n      swap1\n      tag_50\n      swap3\n      swap2\n      swap1\n      tag_51\n      jump\t// in\n    tag_50:\n      pop\n        /* \"Desktop/Smart Contract/sc_ijazah/backend/sc-service/smartcontract/contracts/ijazah_v2.sol\":1622:1632  _issueDate */\n      dup5\n        /* \"Desktop/Smart Contract/sc_ijazah/backend/sc-service/smartcontract/contracts/ijazah_v2.sol\":1600:1609  newDegree */\n      dup2\n        /* \"Desktop/Smart Contract/sc_ijazah/backend/sc-service/smartcontract/contracts/ijazah_v2.sol\":1600:1619  newDegree.issueDate */\n      0x02\n      add\n        /* \"Desktop/Smart Contract/sc_ijazah/backend/sc-service/smartcontract/contracts/ijazah_v2.sol\":1600:1632  newDegree.issueDate = _issueDate */\n      dup2\n      swap1\n      sstore\n      pop\n        /* \"Desktop/Smart Contract/sc_ijazah/backend/sc-service/smartcontract/contracts/ijazah_v2.sol\":1663:1671  _ipfsUrl */\n      dup4\n        /* \"Desktop/Smart Contract/sc_ijazah/backend/sc-service/smartcontract/contracts/ijazah_v2.sol\":1643:1652  newDegree */\n      dup2\n        /* \"Desktop/Smart Contract/sc_ijazah/backend/sc-service/smartcontract/contracts/ijazah_v2.sol\":1643:1660  newDegree.ipfsUrl */\n      0x03\n      add\n        /* \"Desktop/Smart Contract/sc_ijazah/backend/sc-service/smartcontract/contracts/ijazah_v2.sol\":1643:1671  newDegree.ipfsUrl = _ipfsUrl */\n      swap1\n      dup1\n      mload\n      swap1\n      0x20\n      add\n      swap1\n      tag_52\n      swap3\n      swap2\n      swap1\n      tag_51\n      jump\t// in\n    tag_52:\n      pop\n        /* \"Desktop/Smart Contract/sc_ijazah/backend/sc-service/smartcontract/contracts/ijazah_v2.sol\":1689:1698  uint256 i */\n      0x00\n        /* \"Desktop/Smart Contract/sc_ijazah/backend/sc-service/smartcontract/contracts/ijazah_v2.sol\":1684:1827  for (uint256 i = 0; i < _mataPelajaran.length; i++) {\r... */\n    tag_53:\n        /* \"Desktop/Smart Contract/sc_ijazah/backend/sc-service/smartcontract/contracts/ijazah_v2.sol\":1708:1722  _mataPelajaran */\n      dup4\n        /* \"Desktop/Smart Contract/sc_ijazah/backend/sc-service/smartcontract/contracts/ijazah_v2.sol\":1708:1729  _mataPelajaran.length */\n      mload\n        /* \"Desktop/Smart Contract/sc_ijazah/backend/sc-service/smartcontract/contracts/ijazah_v2.sol\":1704:1705  i */\n      dup2\n        /* \"Desktop/Smart Contract/sc_ijazah/backend/sc-service/smartcontract/contracts/ijazah_v2.sol\":1704:1729  i < _mataPelajaran.length */\n      lt\n        /* \"Desktop/Smart Contract/sc_ijazah/backend/sc-service/smartcontract/contracts/ijazah_v2.sol\":1684:1827  for (uint256 i = 0; i < _mataPelajaran.length; i++) {\r... */\n      iszero\n      tag_54\n      jumpi\n        /* \"Desktop/Smart Contract/sc_ijazah/backend/sc-service/smartcontract/contracts/ijazah_v2.sol\":1751:1760  newDegree */\n      dup2\n        /* \"Desktop/Smart Contract/sc_ijazah/backend/sc-service/smartcontract/contracts/ijazah_v2.sol\":1751:1771  newDegree.transcript */\n      0x04\n      add\n        /* \"Desktop/Smart Contract/sc_ijazah/backend/sc-service/smartcontract/contracts/ijazah_v2.sol\":1777:1814  Subject(_mataPelajaran[i], _nilai[i]) */\n      mload(0x40)\n      dup1\n      0x40\n      add\n      0x40\n      mstore\n      dup1\n        /* \"Desktop/Smart Contract/sc_ijazah/backend/sc-service/smartcontract/contracts/ijazah_v2.sol\":1785:1799  _mataPelajaran */\n      dup7\n        /* \"Desktop/Smart Contract/sc_ijazah/backend/sc-service/smartcontract/contracts/ijazah_v2.sol\":1800:1801  i */\n      dup5\n        /* \"Desktop/Smart Contract/sc_ijazah/backend/sc-service/smartcontract/contracts/ijazah_v2.sol\":1785:1802  _mataPelajaran[i] */\n      dup2\n      mload\n      dup2\n      lt\n      tag_56\n      jumpi\n      mstore(0x00, 0x4e487b7100000000000000000000000000000000000000000000000000000000)\n      mstore(0x04, 0x32)\n      revert(0x00, 0x24)\n    tag_56:\n      0x20\n      mul\n      0x20\n      add\n      add\n      mload\n        /* \"Desktop/Smart Contract/sc_ijazah/backend/sc-service/smartcontract/contracts/ijazah_v2.sol\":1777:1814  Subject(_mataPelajaran[i], _nilai[i]) */\n      dup2\n      mstore\n      0x20\n      add\n        /* \"Desktop/Smart Contract/sc_ijazah/backend/sc-service/smartcontract/contracts/ijazah_v2.sol\":1804:1810  _nilai */\n      dup6\n        /* \"Desktop/Smart Contract/sc_ijazah/backend/sc-service/smartcontract/contracts/ijazah_v2.sol\":1811:1812  i */\n      dup5\n        /* \"Desktop/Smart Contract/sc_ijazah/backend/sc-service/smartcontract/contracts/ijazah_v2.sol\":1804:1813  _nilai[i] */\n      dup2\n      mload\n      dup2\n      lt\n      tag_57\n      jumpi\n      mstore(0x00, 0x4e487b7100000000000000000000000000000000000000000000000000000000)\n      mstore(0x04, 0x32)\n      revert(0x00, 0x24)\n    tag_57:\n      0x20\n      mul\n      0x20\n      add\n      add\n      mload\n        /* \"Desktop/Smart Contract/sc_ijazah/backend/sc-service/smartcontract/contracts/ijazah_v2.sol\":1777:1814  Subject(_mataPelajaran[i], _nilai[i]) */\n      0xff\n      and\n      dup2\n      mstore\n      pop\n        /* \"Desktop/Smart Contract/sc_ijazah/backend/sc-service/smartcontract/contracts/ijazah_v2.sol\":1751:1815  newDegree.transcript.push(Subject(_mataPelajaran[i], _nilai[i])) */\n      swap1\n      dup1\n      0x01\n      dup2\n      sload\n      add\n      dup1\n      dup3\n      sstore\n      dup1\n      swap2\n      pop\n      pop\n      0x01\n      swap1\n      sub\n      swap1\n      0x00\n      mstore\n      keccak256(0x00, 0x20)\n      swap1\n      0x02\n      mul\n      add\n      0x00\n      swap1\n      swap2\n      swap1\n      swap2\n      swap1\n      swap2\n      pop\n      0x00\n      dup3\n      add\n      mload\n      dup2\n      0x00\n      add\n      swap1\n      dup1\n      mload\n      swap1\n      0x20\n      add\n      swap1\n      tag_59\n      swap3\n      swap2\n      swap1\n      tag_51\n      jump\t// in\n    tag_59:\n      pop\n      0x20\n      dup3\n      add\n      mload\n      dup2\n      0x01\n      add\n      exp(0x0100, 0x00)\n      dup2\n      sload\n      dup2\n      0xff\n      mul\n      not\n      and\n      swap1\n      dup4\n      0xff\n      and\n      mul\n      or\n      swap1\n      sstore\n      pop\n      pop\n      pop\n        /* \"Desktop/Smart Contract/sc_ijazah/backend/sc-service/smartcontract/contracts/ijazah_v2.sol\":1731:1734  i++ */\n      dup1\n      dup1\n      tag_60\n      swap1\n      tag_61\n      jump\t// in\n    tag_60:\n      swap2\n      pop\n      pop\n        /* \"Desktop/Smart Contract/sc_ijazah/backend/sc-service/smartcontract/contracts/ijazah_v2.sol\":1684:1827  for (uint256 i = 0; i < _mataPelajaran.length; i++) {\r... */\n      jump(tag_53)\n    tag_54:\n      pop\n        /* \"Desktop/Smart Contract/sc_ijazah/backend/sc-service/smartcontract/contracts/ijazah_v2.sol\":1839:1850  degreesList */\n      0x02\n        /* \"Desktop/Smart Contract/sc_ijazah/backend/sc-service/smartcontract/contracts/ijazah_v2.sol\":1856:1867  _degreeHash */\n      dup8\n        /* \"Desktop/Smart Contract/sc_ijazah/backend/sc-service/smartcontract/contracts/ijazah_v2.sol\":1839:1868  degreesList.push(_degreeHash) */\n      swap1\n      dup1\n      0x01\n      dup2\n      sload\n      add\n      dup1\n      dup3\n      sstore\n      dup1\n      swap2\n      pop\n      pop\n      0x01\n      swap1\n      sub\n      swap1\n      0x00\n      mstore\n      keccak256(0x00, 0x20)\n      add\n      0x00\n      swap1\n      swap2\n      swap1\n      swap2\n      swap1\n      swap2\n      pop\n      sstore\n        /* \"Desktop/Smart Contract/sc_ijazah/backend/sc-service/smartcontract/contracts/ijazah_v2.sol\":1899:1910  _degreeHash */\n      dup7\n        /* \"Desktop/Smart Contract/sc_ijazah/backend/sc-service/smartcontract/contracts/ijazah_v2.sol\":1886:1943  DegreeIssued(_degreeHash, _sekolah, _issueDate, _ipfsUrl) */\n      0xb604f6e596d89a3657daccdbb69c509b6039e34c5cff6500a0ff22efec8ac432\n        /* \"Desktop/Smart Contract/sc_ijazah/backend/sc-service/smartcontract/contracts/ijazah_v2.sol\":1912:1920  _sekolah */\n      dup8\n        /* \"Desktop/Smart Contract/sc_ijazah/backend/sc-service/smartcontract/contracts/ijazah_v2.sol\":1922:1932  _issueDate */\n      dup8\n        /* \"Desktop/Smart Contract/sc_ijazah/backend/sc-service/smartcontract/contracts/ijazah_v2.sol\":1934:1942  _ipfsUrl */\n      dup8\n        /* \"Desktop/Smart Contract/sc_ijazah/backend/sc-service/smartcontract/contracts/ijazah_v2.sol\":1886:1943  DegreeIssued(_degreeHash, _sekolah, _issueDate, _ipfsUrl) */\n      mload(0x40)\n      tag_63\n      swap4\n      swap3\n      swap2\n      swap1\n      tag_64\n      jump\t// in\n    tag_63:\n      mload(0x40)\n      dup1\n      swap2\n      sub\n      swap1\n      log2\n        /* \"Desktop/Smart Contract/sc_ijazah/backend/sc-service/smartcontract/contracts/ijazah_v2.sol\":941:1951  function issueDegree(\r... */\n      pop\n      pop\n      pop\n      pop\n      pop\n      pop\n      pop\n      jump\t// out\n        /* \"Desktop/Smart Contract/sc_ijazah/backend/sc-service/smartcontract/contracts/ijazah_v2.sol\":93:113  address public owner */\n    tag_16:\n      0x00\n      dup1\n      sload\n      swap1\n      0x0100\n      exp\n      swap1\n      div\n      0xffffffffffffffffffffffffffffffffffffffff\n      and\n      dup2\n      jump\t// out\n        /* \"Desktop/Smart Contract/sc_ijazah/backend/sc-service/smartcontract/contracts/ijazah_v2.sol\":2008:2339  function deleteDegree(bytes32 _degreeHash) public isOwner {\r... */\n    tag_22:\n        /* \"Desktop/Smart Contract/sc_ijazah/backend/sc-service/smartcontract/contracts/ijazah_v2.sol\":454:464  msg.sender */\n      caller\n        /* \"Desktop/Smart Contract/sc_ijazah/backend/sc-service/smartcontract/contracts/ijazah_v2.sol\":445:464  owner == msg.sender */\n      0xffffffffffffffffffffffffffffffffffffffff\n      and\n        /* \"Desktop/Smart Contract/sc_ijazah/backend/sc-service/smartcontract/contracts/ijazah_v2.sol\":445:450  owner */\n      0x00\n      dup1\n      sload\n      swap1\n      0x0100\n      exp\n      swap1\n      div\n      0xffffffffffffffffffffffffffffffffffffffff\n      and\n        /* \"Desktop/Smart Contract/sc_ijazah/backend/sc-service/smartcontract/contracts/ijazah_v2.sol\":445:464  owner == msg.sender */\n      0xffffffffffffffffffffffffffffffffffffffff\n      and\n      eq\n        /* \"Desktop/Smart Contract/sc_ijazah/backend/sc-service/smartcontract/contracts/ijazah_v2.sol\":437:507  require(owner == msg.sender, \"Hanya pemilik yang bisa melakukan ini.\") */\n      tag_66\n      jumpi\n      mload(0x40)\n      0x08c379a000000000000000000000000000000000000000000000000000000000\n      dup2\n      mstore\n      0x04\n      add\n      tag_67\n      swap1\n      tag_68\n      jump\t// in\n    tag_67:\n      mload(0x40)\n      dup1\n      swap2\n      sub\n      swap1\n      revert\n    tag_66:\n        /* \"Desktop/Smart Contract/sc_ijazah/backend/sc-service/smartcontract/contracts/ijazah_v2.sol\":2142:2143  0 */\n      0x00\n        /* \"Desktop/Smart Contract/sc_ijazah/backend/sc-service/smartcontract/contracts/ijazah_v2.sol\":2134:2144  bytes32(0) */\n      dup1\n      shl\n        /* \"Desktop/Smart Contract/sc_ijazah/backend/sc-service/smartcontract/contracts/ijazah_v2.sol\":2099:2106  degrees */\n      0x01\n        /* \"Desktop/Smart Contract/sc_ijazah/backend/sc-service/smartcontract/contracts/ijazah_v2.sol\":2099:2119  degrees[_degreeHash] */\n      0x00\n        /* \"Desktop/Smart Contract/sc_ijazah/backend/sc-service/smartcontract/contracts/ijazah_v2.sol\":2107:2118  _degreeHash */\n      dup4\n        /* \"Desktop/Smart Contract/sc_ijazah/backend/sc-service/smartcontract/contracts/ijazah_v2.sol\":2099:2119  degrees[_degreeHash] */\n      dup2\n      mstore\n      0x20\n      add\n      swap1\n      dup2\n      mstore\n      0x20\n      add\n      0x00\n      keccak256\n        /* \"Desktop/Smart Contract/sc_ijazah/backend/sc-service/smartcontract/contracts/ijazah_v2.sol\":2099:2130  degrees[_degreeHash].degreeHash */\n      0x00\n      add\n      sload\n        /* \"Desktop/Smart Contract/sc_ijazah/backend/sc-service/smartcontract/contracts/ijazah_v2.sol\":2099:2144  degrees[_degreeHash].degreeHash != bytes32(0) */\n      eq\n      iszero\n        /* \"Desktop/Smart Contract/sc_ijazah/backend/sc-service/smartcontract/contracts/ijazah_v2.sol\":2077:2195  require(\r... */\n      tag_70\n      jumpi\n      mload(0x40)\n      0x08c379a000000000000000000000000000000000000000000000000000000000\n      dup2\n      mstore\n      0x04\n      add\n      tag_71\n      swap1\n      tag_72\n      jump\t// in\n    tag_71:\n      mload(0x40)\n      dup1\n      swap2\n      sub\n      swap1\n      revert\n    tag_70:\n        /* \"Desktop/Smart Contract/sc_ijazah/backend/sc-service/smartcontract/contracts/ijazah_v2.sol\":2215:2222  degrees */\n      0x01\n        /* \"Desktop/Smart Contract/sc_ijazah/backend/sc-service/smartcontract/contracts/ijazah_v2.sol\":2215:2235  degrees[_degreeHash] */\n      0x00\n        /* \"Desktop/Smart Contract/sc_ijazah/backend/sc-service/smartcontract/contracts/ijazah_v2.sol\":2223:2234  _degreeHash */\n      dup3\n        /* \"Desktop/Smart Contract/sc_ijazah/backend/sc-service/smartcontract/contracts/ijazah_v2.sol\":2215:2235  degrees[_degreeHash] */\n      dup2\n      mstore\n      0x20\n      add\n      swap1\n      dup2\n      mstore\n      0x20\n      add\n      0x00\n      keccak256\n      0x00\n        /* \"Desktop/Smart Contract/sc_ijazah/backend/sc-service/smartcontract/contracts/ijazah_v2.sol\":2208:2235  delete degrees[_degreeHash] */\n      dup1\n      dup3\n      add\n      0x00\n      swap1\n      sstore\n      0x01\n      dup3\n      add\n      0x00\n      tag_73\n      swap2\n      swap1\n      tag_74\n      jump\t// in\n    tag_73:\n      0x02\n      dup3\n      add\n      0x00\n      swap1\n      sstore\n      0x03\n      dup3\n      add\n      0x00\n      tag_75\n      swap2\n      swap1\n      tag_74\n      jump\t// in\n    tag_75:\n      0x04\n      dup3\n      add\n      0x00\n      tag_76\n      swap2\n      swap1\n      tag_77\n      jump\t// in\n    tag_76:\n      pop\n      pop\n        /* \"Desktop/Smart Contract/sc_ijazah/backend/sc-service/smartcontract/contracts/ijazah_v2.sol\":2246:2287  _removeFromList(degreesList, _degreeHash) */\n      tag_78\n        /* \"Desktop/Smart Contract/sc_ijazah/backend/sc-service/smartcontract/contracts/ijazah_v2.sol\":2262:2273  degreesList */\n      0x02\n        /* \"Desktop/Smart Contract/sc_ijazah/backend/sc-service/smartcontract/contracts/ijazah_v2.sol\":2275:2286  _degreeHash */\n      dup3\n        /* \"Desktop/Smart Contract/sc_ijazah/backend/sc-service/smartcontract/contracts/ijazah_v2.sol\":2246:2261  _removeFromList */\n      tag_79\n        /* \"Desktop/Smart Contract/sc_ijazah/backend/sc-service/smartcontract/contracts/ijazah_v2.sol\":2246:2287  _removeFromList(degreesList, _degreeHash) */\n      jump\t// in\n    tag_78:\n        /* \"Desktop/Smart Contract/sc_ijazah/backend/sc-service/smartcontract/contracts/ijazah_v2.sol\":2319:2330  _degreeHash */\n      dup1\n        /* \"Desktop/Smart Contract/sc_ijazah/backend/sc-service/smartcontract/contracts/ijazah_v2.sol\":2305:2331  DegreeDeleted(_degreeHash) */\n      0x2378393e5e45ca60b5cc050d80fa00b05dc03948e54f0260efb5af5229b9ca3e\n      mload(0x40)\n      mload(0x40)\n      dup1\n      swap2\n      sub\n      swap1\n      log2\n        /* \"Desktop/Smart Contract/sc_ijazah/backend/sc-service/smartcontract/contracts/ijazah_v2.sol\":2008:2339  function deleteDegree(bytes32 _degreeHash) public isOwner {\r... */\n      pop\n      jump\t// out\n        /* \"Desktop/Smart Contract/sc_ijazah/backend/sc-service/smartcontract/contracts/ijazah_v2.sol\":594:635  mapping(bytes32 => Degree) public degrees */\n    tag_25:\n      mstore(0x20, 0x01)\n      dup1\n      0x00\n      mstore\n      keccak256(0x00, 0x40)\n      0x00\n      swap2\n      pop\n      swap1\n      pop\n      dup1\n      0x00\n      add\n      sload\n      swap1\n      dup1\n      0x01\n      add\n      dup1\n      sload\n      tag_80\n      swap1\n      tag_81\n      jump\t// in\n    tag_80:\n      dup1\n      0x1f\n      add\n      0x20\n      dup1\n      swap2\n      div\n      mul\n      0x20\n      add\n      mload(0x40)\n      swap1\n      dup2\n      add\n      0x40\n      mstore\n      dup1\n      swap3\n      swap2\n      swap1\n      dup2\n      dup2\n      mstore\n      0x20\n      add\n      dup3\n      dup1\n      sload\n      tag_82\n      swap1\n      tag_81\n      jump\t// in\n    tag_82:\n      dup1\n      iszero\n      tag_83\n      jumpi\n      dup1\n      0x1f\n      lt\n      tag_84\n      jumpi\n      0x0100\n      dup1\n      dup4\n      sload\n      div\n      mul\n      dup4\n      mstore\n      swap2\n      0x20\n      add\n      swap2\n      jump(tag_83)\n    tag_84:\n      dup3\n      add\n      swap2\n      swap1\n      0x00\n      mstore\n      keccak256(0x00, 0x20)\n      swap1\n    tag_85:\n      dup2\n      sload\n      dup2\n      mstore\n      swap1\n      0x01\n      add\n      swap1\n      0x20\n      add\n      dup1\n      dup4\n      gt\n      tag_85\n      jumpi\n      dup3\n      swap1\n      sub\n      0x1f\n      and\n      dup3\n      add\n      swap2\n    tag_83:\n      pop\n      pop\n      pop\n      pop\n      pop\n      swap1\n      dup1\n      0x02\n      add\n      sload\n      swap1\n      dup1\n      0x03\n      add\n      dup1\n      sload\n      tag_86\n      swap1\n      tag_81\n      jump\t// in\n    tag_86:\n      dup1\n      0x1f\n      add\n      0x20\n      dup1\n      swap2\n      div\n      mul\n      0x20\n      add\n      mload(0x40)\n      swap1\n      dup2\n      add\n      0x40\n      mstore\n      dup1\n      swap3\n      swap2\n      swap1\n      dup2\n      dup2\n      mstore\n      0x20\n      add\n      dup3\n      dup1\n      sload\n      tag_87\n      swap1\n      tag_81\n      jump\t// in\n    tag_87:\n      dup1\n      iszero\n      tag_88\n      jumpi\n      dup1\n      0x1f\n      lt\n      tag_89\n      jumpi\n      0x0100\n      dup1\n      dup4\n      sload\n      div\n      mul\n      dup4\n      mstore\n      swap2\n      0x20\n      add\n      swap2\n      jump(tag_88)\n    tag_89:\n      dup3\n      add\n      swap2\n      swap1\n      0x00\n      mstore\n      keccak256(0x00, 0x20)\n      swap1\n    tag_90:\n      dup2\n      sload\n      dup2\n      mstore\n      swap1\n      0x01\n      add\n      swap1\n      0x20\n      add\n      dup1\n      dup4\n      gt\n      tag_90\n      jumpi\n      dup3\n      swap1\n      sub\n      0x1f\n      and\n      dup3\n      add\n      swap2\n    tag_88:\n      pop\n      pop\n      pop\n      pop\n      pop\n      swap1\n      pop\n      dup5\n      jump\t// out\n        /* \"Desktop/Smart Contract/sc_ijazah/backend/sc-service/smartcontract/contracts/ijazah_v2.sol\":2403:3311  function getDegree(\r... */\n    tag_30:\n        /* \"Desktop/Smart Contract/sc_ijazah/backend/sc-service/smartcontract/contracts/ijazah_v2.sol\":2521:2534  string memory */\n      0x60\n        /* \"Desktop/Smart Contract/sc_ijazah/backend/sc-service/smartcontract/contracts/ijazah_v2.sol\":2549:2556  uint256 */\n      0x00\n        /* \"Desktop/Smart Contract/sc_ijazah/backend/sc-service/smartcontract/contracts/ijazah_v2.sol\":2571:2584  string memory */\n      0x60\n        /* \"Desktop/Smart Contract/sc_ijazah/backend/sc-service/smartcontract/contracts/ijazah_v2.sol\":2599:2614  string[] memory */\n      dup1\n        /* \"Desktop/Smart Contract/sc_ijazah/backend/sc-service/smartcontract/contracts/ijazah_v2.sol\":2629:2643  uint8[] memory */\n      0x60\n        /* \"Desktop/Smart Contract/sc_ijazah/backend/sc-service/smartcontract/contracts/ijazah_v2.sol\":2671:2692  Degree storage degree */\n      0x00\n        /* \"Desktop/Smart Contract/sc_ijazah/backend/sc-service/smartcontract/contracts/ijazah_v2.sol\":2695:2702  degrees */\n      0x01\n        /* \"Desktop/Smart Contract/sc_ijazah/backend/sc-service/smartcontract/contracts/ijazah_v2.sol\":2695:2715  degrees[_degreeHash] */\n      0x00\n        /* \"Desktop/Smart Contract/sc_ijazah/backend/sc-service/smartcontract/contracts/ijazah_v2.sol\":2703:2714  _degreeHash */\n      dup9\n        /* \"Desktop/Smart Contract/sc_ijazah/backend/sc-service/smartcontract/contracts/ijazah_v2.sol\":2695:2715  degrees[_degreeHash] */\n      dup2\n      mstore\n      0x20\n      add\n      swap1\n      dup2\n      mstore\n      0x20\n      add\n      0x00\n      keccak256\n        /* \"Desktop/Smart Contract/sc_ijazah/backend/sc-service/smartcontract/contracts/ijazah_v2.sol\":2671:2715  Degree storage degree = degrees[_degreeHash] */\n      swap1\n      pop\n        /* \"Desktop/Smart Contract/sc_ijazah/backend/sc-service/smartcontract/contracts/ijazah_v2.sol\":2763:2764  0 */\n      0x00\n        /* \"Desktop/Smart Contract/sc_ijazah/backend/sc-service/smartcontract/contracts/ijazah_v2.sol\":2755:2765  bytes32(0) */\n      dup1\n      shl\n        /* \"Desktop/Smart Contract/sc_ijazah/backend/sc-service/smartcontract/contracts/ijazah_v2.sol\":2734:2740  degree */\n      dup2\n        /* \"Desktop/Smart Contract/sc_ijazah/backend/sc-service/smartcontract/contracts/ijazah_v2.sol\":2734:2751  degree.degreeHash */\n      0x00\n      add\n      sload\n        /* \"Desktop/Smart Contract/sc_ijazah/backend/sc-service/smartcontract/contracts/ijazah_v2.sol\":2734:2765  degree.degreeHash != bytes32(0) */\n      eq\n      iszero\n        /* \"Desktop/Smart Contract/sc_ijazah/backend/sc-service/smartcontract/contracts/ijazah_v2.sol\":2726:2793  require(degree.degreeHash != bytes32(0), \"Ijazah tidak ditemukan.\") */\n      tag_92\n      jumpi\n      mload(0x40)\n      0x08c379a000000000000000000000000000000000000000000000000000000000\n      dup2\n      mstore\n      0x04\n      add\n      tag_93\n      swap1\n      tag_72\n      jump\t// in\n    tag_93:\n      mload(0x40)\n      dup1\n      swap2\n      sub\n      swap1\n      revert\n    tag_92:\n        /* \"Desktop/Smart Contract/sc_ijazah/backend/sc-service/smartcontract/contracts/ijazah_v2.sol\":2806:2820  uint256 length */\n      0x00\n        /* \"Desktop/Smart Contract/sc_ijazah/backend/sc-service/smartcontract/contracts/ijazah_v2.sol\":2823:2829  degree */\n      dup2\n        /* \"Desktop/Smart Contract/sc_ijazah/backend/sc-service/smartcontract/contracts/ijazah_v2.sol\":2823:2840  degree.transcript */\n      0x04\n      add\n        /* \"Desktop/Smart Contract/sc_ijazah/backend/sc-service/smartcontract/contracts/ijazah_v2.sol\":2823:2847  degree.transcript.length */\n      dup1\n      sload\n      swap1\n      pop\n        /* \"Desktop/Smart Contract/sc_ijazah/backend/sc-service/smartcontract/contracts/ijazah_v2.sol\":2806:2847  uint256 length = degree.transcript.length */\n      swap1\n      pop\n        /* \"Desktop/Smart Contract/sc_ijazah/backend/sc-service/smartcontract/contracts/ijazah_v2.sol\":2858:2887  string[] memory mataPelajaran */\n      0x00\n        /* \"Desktop/Smart Contract/sc_ijazah/backend/sc-service/smartcontract/contracts/ijazah_v2.sol\":2903:2909  length */\n      dup2\n        /* \"Desktop/Smart Contract/sc_ijazah/backend/sc-service/smartcontract/contracts/ijazah_v2.sol\":2890:2910  new string[](length) */\n      0xffffffffffffffff\n      dup2\n      gt\n      iszero\n      tag_94\n      jumpi\n      mstore(0x00, 0x4e487b7100000000000000000000000000000000000000000000000000000000)\n      mstore(0x04, 0x41)\n      revert(0x00, 0x24)\n    tag_94:\n      mload(0x40)\n      swap1\n      dup1\n      dup3\n      mstore\n      dup1\n      0x20\n      mul\n      0x20\n      add\n      dup3\n      add\n      0x40\n      mstore\n      dup1\n      iszero\n      tag_95\n      jumpi\n      dup2\n      0x20\n      add\n    tag_96:\n      0x60\n      dup2\n      mstore\n      0x20\n      add\n      swap1\n      0x01\n      swap1\n      sub\n      swap1\n      dup2\n      tag_96\n      jumpi\n      swap1\n      pop\n    tag_95:\n      pop\n        /* \"Desktop/Smart Contract/sc_ijazah/backend/sc-service/smartcontract/contracts/ijazah_v2.sol\":2858:2910  string[] memory mataPelajaran = new string[](length) */\n      swap1\n      pop\n        /* \"Desktop/Smart Contract/sc_ijazah/backend/sc-service/smartcontract/contracts/ijazah_v2.sol\":2921:2941  uint8[] memory nilai */\n      0x00\n        /* \"Desktop/Smart Contract/sc_ijazah/backend/sc-service/smartcontract/contracts/ijazah_v2.sol\":2956:2962  length */\n      dup3\n        /* \"Desktop/Smart Contract/sc_ijazah/backend/sc-service/smartcontract/contracts/ijazah_v2.sol\":2944:2963  new uint8[](length) */\n      0xffffffffffffffff\n      dup2\n      gt\n      iszero\n      tag_97\n      jumpi\n      mstore(0x00, 0x4e487b7100000000000000000000000000000000000000000000000000000000)\n      mstore(0x04, 0x41)\n      revert(0x00, 0x24)\n    tag_97:\n      mload(0x40)\n      swap1\n      dup1\n      dup3\n      mstore\n      dup1\n      0x20\n      mul\n      0x20\n      add\n      dup3\n      add\n      0x40\n      mstore\n      dup1\n      iszero\n      tag_98\n      jumpi\n      dup2\n      0x20\n      add\n      0x20\n      dup3\n      mul\n      dup1\n      calldatasize\n      dup4\n      calldatacopy\n      dup1\n      dup3\n      add\n      swap2\n      pop\n      pop\n      swap1\n      pop\n    tag_98:\n      pop\n        /* \"Desktop/Smart Contract/sc_ijazah/backend/sc-service/smartcontract/contracts/ijazah_v2.sol\":2921:2963  uint8[] memory nilai = new uint8[](length) */\n      swap1\n      pop\n        /* \"Desktop/Smart Contract/sc_ijazah/backend/sc-service/smartcontract/contracts/ijazah_v2.sol\":2981:2990  uint256 i */\n      0x00\n        /* \"Desktop/Smart Contract/sc_ijazah/backend/sc-service/smartcontract/contracts/ijazah_v2.sol\":2976:3136  for (uint256 i = 0; i < length; i++) {\r... */\n    tag_99:\n        /* \"Desktop/Smart Contract/sc_ijazah/backend/sc-service/smartcontract/contracts/ijazah_v2.sol\":3000:3006  length */\n      dup4\n        /* \"Desktop/Smart Contract/sc_ijazah/backend/sc-service/smartcontract/contracts/ijazah_v2.sol\":2996:2997  i */\n      dup2\n        /* \"Desktop/Smart Contract/sc_ijazah/backend/sc-service/smartcontract/contracts/ijazah_v2.sol\":2996:3006  i < length */\n      lt\n        /* \"Desktop/Smart Contract/sc_ijazah/backend/sc-service/smartcontract/contracts/ijazah_v2.sol\":2976:3136  for (uint256 i = 0; i < length; i++) {\r... */\n      iszero\n      tag_100\n      jumpi\n        /* \"Desktop/Smart Contract/sc_ijazah/backend/sc-service/smartcontract/contracts/ijazah_v2.sol\":3047:3053  degree */\n      dup5\n        /* \"Desktop/Smart Contract/sc_ijazah/backend/sc-service/smartcontract/contracts/ijazah_v2.sol\":3047:3064  degree.transcript */\n      0x04\n      add\n        /* \"Desktop/Smart Contract/sc_ijazah/backend/sc-service/smartcontract/contracts/ijazah_v2.sol\":3065:3066  i */\n      dup2\n        /* \"Desktop/Smart Contract/sc_ijazah/backend/sc-service/smartcontract/contracts/ijazah_v2.sol\":3047:3067  degree.transcript[i] */\n      dup2\n      sload\n      dup2\n      lt\n      tag_102\n      jumpi\n      mstore(0x00, 0x4e487b7100000000000000000000000000000000000000000000000000000000)\n      mstore(0x04, 0x32)\n      revert(0x00, 0x24)\n    tag_102:\n      swap1\n      0x00\n      mstore\n      keccak256(0x00, 0x20)\n      swap1\n      0x02\n      mul\n      add\n        /* \"Desktop/Smart Contract/sc_ijazah/backend/sc-service/smartcontract/contracts/ijazah_v2.sol\":3047:3072  degree.transcript[i].name */\n      0x00\n      add\n        /* \"Desktop/Smart Contract/sc_ijazah/backend/sc-service/smartcontract/contracts/ijazah_v2.sol\":3028:3072  mataPelajaran[i] = degree.transcript[i].name */\n      dup1\n      sload\n      tag_104\n      swap1\n      tag_81\n      jump\t// in\n    tag_104:\n      dup1\n      0x1f\n      add\n      0x20\n      dup1\n      swap2\n      div\n      mul\n      0x20\n      add\n      mload(0x40)\n      swap1\n      dup2\n      add\n      0x40\n      mstore\n      dup1\n      swap3\n      swap2\n      swap1\n      dup2\n      dup2\n      mstore\n      0x20\n      add\n      dup3\n      dup1\n      sload\n      tag_105\n      swap1\n      tag_81\n      jump\t// in\n    tag_105:\n      dup1\n      iszero\n      tag_106\n      jumpi\n      dup1\n      0x1f\n      lt\n      tag_107\n      jumpi\n      0x0100\n      dup1\n      dup4\n      sload\n      div\n      mul\n      dup4\n      mstore\n      swap2\n      0x20\n      add\n      swap2\n      jump(tag_106)\n    tag_107:\n      dup3\n      add\n      swap2\n      swap1\n      0x00\n      mstore\n      keccak256(0x00, 0x20)\n      swap1\n    tag_108:\n      dup2\n      sload\n      dup2\n      mstore\n      swap1\n      0x01\n      add\n      swap1\n      0x20\n      add\n      dup1\n      dup4\n      gt\n      tag_108\n      jumpi\n      dup3\n      swap1\n      sub\n      0x1f\n      and\n      dup3\n      add\n      swap2\n    tag_106:\n      pop\n      pop\n      pop\n      pop\n      pop\n        /* \"Desktop/Smart Contract/sc_ijazah/backend/sc-service/smartcontract/contracts/ijazah_v2.sol\":3028:3041  mataPelajaran */\n      dup4\n        /* \"Desktop/Smart Contract/sc_ijazah/backend/sc-service/smartcontract/contracts/ijazah_v2.sol\":3042:3043  i */\n      dup3\n        /* \"Desktop/Smart Contract/sc_ijazah/backend/sc-service/smartcontract/contracts/ijazah_v2.sol\":3028:3044  mataPelajaran[i] */\n      dup2\n      mload\n      dup2\n      lt\n      tag_109\n      jumpi\n      mstore(0x00, 0x4e487b7100000000000000000000000000000000000000000000000000000000)\n      mstore(0x04, 0x32)\n      revert(0x00, 0x24)\n    tag_109:\n      0x20\n      mul\n      0x20\n      add\n      add\n        /* \"Desktop/Smart Contract/sc_ijazah/backend/sc-service/smartcontract/contracts/ijazah_v2.sol\":3028:3072  mataPelajaran[i] = degree.transcript[i].name */\n      dup2\n      swap1\n      mstore\n      pop\n        /* \"Desktop/Smart Contract/sc_ijazah/backend/sc-service/smartcontract/contracts/ijazah_v2.sol\":3098:3104  degree */\n      dup5\n        /* \"Desktop/Smart Contract/sc_ijazah/backend/sc-service/smartcontract/contracts/ijazah_v2.sol\":3098:3115  degree.transcript */\n      0x04\n      add\n        /* \"Desktop/Smart Contract/sc_ijazah/backend/sc-service/smartcontract/contracts/ijazah_v2.sol\":3116:3117  i */\n      dup2\n        /* \"Desktop/Smart Contract/sc_ijazah/backend/sc-service/smartcontract/contracts/ijazah_v2.sol\":3098:3118  degree.transcript[i] */\n      dup2\n      sload\n      dup2\n      lt\n      tag_110\n      jumpi\n      mstore(0x00, 0x4e487b7100000000000000000000000000000000000000000000000000000000)\n      mstore(0x04, 0x32)\n      revert(0x00, 0x24)\n    tag_110:\n      swap1\n      0x00\n      mstore\n      keccak256(0x00, 0x20)\n      swap1\n      0x02\n      mul\n      add\n        /* \"Desktop/Smart Contract/sc_ijazah/backend/sc-service/smartcontract/contracts/ijazah_v2.sol\":3098:3124  degree.transcript[i].grade */\n      0x01\n      add\n      0x00\n      swap1\n      sload\n      swap1\n      0x0100\n      exp\n      swap1\n      div\n      0xff\n      and\n        /* \"Desktop/Smart Contract/sc_ijazah/backend/sc-service/smartcontract/contracts/ijazah_v2.sol\":3087:3092  nilai */\n      dup3\n        /* \"Desktop/Smart Contract/sc_ijazah/backend/sc-service/smartcontract/contracts/ijazah_v2.sol\":3093:3094  i */\n      dup3\n        /* \"Desktop/Smart Contract/sc_ijazah/backend/sc-service/smartcontract/contracts/ijazah_v2.sol\":3087:3095  nilai[i] */\n      dup2\n      mload\n      dup2\n      lt\n      tag_112\n      jumpi\n      mstore(0x00, 0x4e487b7100000000000000000000000000000000000000000000000000000000)\n      mstore(0x04, 0x32)\n      revert(0x00, 0x24)\n    tag_112:\n      0x20\n      mul\n      0x20\n      add\n      add\n        /* \"Desktop/Smart Contract/sc_ijazah/backend/sc-service/smartcontract/contracts/ijazah_v2.sol\":3087:3124  nilai[i] = degree.transcript[i].grade */\n      swap1\n      0xff\n      and\n      swap1\n      dup2\n      0xff\n      and\n      dup2\n      mstore\n      pop\n      pop\n        /* \"Desktop/Smart Contract/sc_ijazah/backend/sc-service/smartcontract/contracts/ijazah_v2.sol\":3008:3011  i++ */\n      dup1\n      dup1\n      tag_113\n      swap1\n      tag_61\n      jump\t// in\n    tag_113:\n      swap2\n      pop\n      pop\n        /* \"Desktop/Smart Contract/sc_ijazah/backend/sc-service/smartcontract/contracts/ijazah_v2.sol\":2976:3136  for (uint256 i = 0; i < length; i++) {\r... */\n      jump(tag_99)\n    tag_100:\n      pop\n        /* \"Desktop/Smart Contract/sc_ijazah/backend/sc-service/smartcontract/contracts/ijazah_v2.sol\":3170:3176  degree */\n      dup4\n        /* \"Desktop/Smart Contract/sc_ijazah/backend/sc-service/smartcontract/contracts/ijazah_v2.sol\":3170:3184  degree.sekolah */\n      0x01\n      add\n        /* \"Desktop/Smart Contract/sc_ijazah/backend/sc-service/smartcontract/contracts/ijazah_v2.sol\":3199:3205  degree */\n      dup5\n        /* \"Desktop/Smart Contract/sc_ijazah/backend/sc-service/smartcontract/contracts/ijazah_v2.sol\":3199:3215  degree.issueDate */\n      0x02\n      add\n      sload\n        /* \"Desktop/Smart Contract/sc_ijazah/backend/sc-service/smartcontract/contracts/ijazah_v2.sol\":3230:3236  degree */\n      dup6\n        /* \"Desktop/Smart Contract/sc_ijazah/backend/sc-service/smartcontract/contracts/ijazah_v2.sol\":3230:3244  degree.ipfsUrl */\n      0x03\n      add\n        /* \"Desktop/Smart Contract/sc_ijazah/backend/sc-service/smartcontract/contracts/ijazah_v2.sol\":3259:3272  mataPelajaran */\n      dup5\n        /* \"Desktop/Smart Contract/sc_ijazah/backend/sc-service/smartcontract/contracts/ijazah_v2.sol\":3287:3292  nilai */\n      dup5\n        /* \"Desktop/Smart Contract/sc_ijazah/backend/sc-service/smartcontract/contracts/ijazah_v2.sol\":3148:3303  return (\r... */\n      dup5\n      dup1\n      sload\n      tag_114\n      swap1\n      tag_81\n      jump\t// in\n    tag_114:\n      dup1\n      0x1f\n      add\n      0x20\n      dup1\n      swap2\n      div\n      mul\n      0x20\n      add\n      mload(0x40)\n      swap1\n      dup2\n      add\n      0x40\n      mstore\n      dup1\n      swap3\n      swap2\n      swap1\n      dup2\n      dup2\n      mstore\n      0x20\n      add\n      dup3\n      dup1\n      sload\n      tag_115\n      swap1\n      tag_81\n      jump\t// in\n    tag_115:\n      dup1\n      iszero\n      tag_116\n      jumpi\n      dup1\n      0x1f\n      lt\n      tag_117\n      jumpi\n      0x0100\n      dup1\n      dup4\n      sload\n      div\n      mul\n      dup4\n      mstore\n      swap2\n      0x20\n      add\n      swap2\n      jump(tag_116)\n    tag_117:\n      dup3\n      add\n      swap2\n      swap1\n      0x00\n      mstore\n      keccak256(0x00, 0x20)\n      swap1\n    tag_118:\n      dup2\n      sload\n      dup2\n      mstore\n      swap1\n      0x01\n      add\n      swap1\n      0x20\n      add\n      dup1\n      dup4\n      gt\n      tag_118\n      jumpi\n      dup3\n      swap1\n      sub\n      0x1f\n      and\n      dup3\n      add\n      swap2\n    tag_116:\n      pop\n      pop\n      pop\n      pop\n      pop\n      swap5\n      pop\n      dup3\n      dup1\n      sload\n      tag_119\n      swap1\n      tag_81\n      jump\t// in\n    tag_119:\n      dup1\n      0x1f\n      add\n      0x20\n      dup1\n      swap2\n      div\n      mul\n      0x20\n      add\n      mload(0x40)\n      swap1\n      dup2\n      add\n      0x40\n      mstore\n      dup1\n      swap3\n      swap2\n      swap1\n      dup2\n      dup2\n      mstore\n      0x20\n      add\n      dup3\n      dup1\n      sload\n      tag_120\n      swap1\n      tag_81\n      jump\t// in\n    tag_120:\n      dup1\n      iszero\n      tag_121\n      jumpi\n      dup1\n      0x1f\n      lt\n      tag_122\n      jumpi\n      0x0100\n      dup1\n      dup4\n      sload\n      div\n      mul\n      dup4\n      mstore\n      swap2\n      0x20\n      add\n      swap2\n      jump(tag_121)\n    tag_122:\n      dup3\n      add\n      swap2\n      swap1\n      0x00\n      mstore\n      keccak256(0x00, 0x20)\n      swap1\n    tag_123:\n      dup2\n      sload\n      dup2\n      mstore\n      swap1\n      0x01\n      add\n      swap1\n      0x20\n      add\n      dup1\n      dup4\n      gt\n      tag_123\n      jumpi\n      dup3\n      swap1\n      sub\n      0x1f\n      and\n      dup3\n      add\n      swap2\n    tag_121:\n      pop\n      pop\n      pop\n      pop\n      pop\n      swap3\n      pop\n      swap9\n      pop\n      swap9\n      pop\n      swap9\n      pop\n      swap9\n      pop\n      swap9\n      pop\n      pop\n      pop\n      pop\n      pop\n        /* \"Desktop/Smart Contract/sc_ijazah/backend/sc-service/smartcontract/contracts/ijazah_v2.sol\":2403:3311  function getDegree(\r... */\n      swap2\n      swap4\n      swap6\n      swap1\n      swap3\n      swap5\n      pop\n      jump\t// out\n        /* \"Desktop/Smart Contract/sc_ijazah/backend/sc-service/smartcontract/contracts/ijazah_v2.sol\":3861:4252  function verifyDegree(\r... */\n    tag_36:\n        /* \"Desktop/Smart Contract/sc_ijazah/backend/sc-service/smartcontract/contracts/ijazah_v2.sol\":3988:3992  bool */\n      0x00\n        /* \"Desktop/Smart Contract/sc_ijazah/backend/sc-service/smartcontract/contracts/ijazah_v2.sol\":4001:4022  Degree storage degree */\n      dup1\n        /* \"Desktop/Smart Contract/sc_ijazah/backend/sc-service/smartcontract/contracts/ijazah_v2.sol\":4025:4032  degrees */\n      0x01\n        /* \"Desktop/Smart Contract/sc_ijazah/backend/sc-service/smartcontract/contracts/ijazah_v2.sol\":4025:4045  degrees[_degreeHash] */\n      0x00\n        /* \"Desktop/Smart Contract/sc_ijazah/backend/sc-service/smartcontract/contracts/ijazah_v2.sol\":4033:4044  _degreeHash */\n      dup7\n        /* \"Desktop/Smart Contract/sc_ijazah/backend/sc-service/smartcontract/contracts/ijazah_v2.sol\":4025:4045  degrees[_degreeHash] */\n      dup2\n      mstore\n      0x20\n      add\n      swap1\n      dup2\n      mstore\n      0x20\n      add\n      0x00\n      keccak256\n        /* \"Desktop/Smart Contract/sc_ijazah/backend/sc-service/smartcontract/contracts/ijazah_v2.sol\":4001:4045  Degree storage degree = degrees[_degreeHash] */\n      swap1\n      pop\n        /* \"Desktop/Smart Contract/sc_ijazah/backend/sc-service/smartcontract/contracts/ijazah_v2.sol\":4099:4100  0 */\n      0x00\n        /* \"Desktop/Smart Contract/sc_ijazah/backend/sc-service/smartcontract/contracts/ijazah_v2.sol\":4091:4101  bytes32(0) */\n      dup1\n      shl\n        /* \"Desktop/Smart Contract/sc_ijazah/backend/sc-service/smartcontract/contracts/ijazah_v2.sol\":4070:4076  degree */\n      dup2\n        /* \"Desktop/Smart Contract/sc_ijazah/backend/sc-service/smartcontract/contracts/ijazah_v2.sol\":4070:4087  degree.degreeHash */\n      0x00\n      add\n      sload\n        /* \"Desktop/Smart Contract/sc_ijazah/backend/sc-service/smartcontract/contracts/ijazah_v2.sol\":4070:4101  degree.degreeHash != bytes32(0) */\n      eq\n      iszero\n        /* \"Desktop/Smart Contract/sc_ijazah/backend/sc-service/smartcontract/contracts/ijazah_v2.sol\":4070:4198  degree.degreeHash != bytes32(0) &&\r... */\n      dup1\n      iszero\n      tag_125\n      jumpi\n      pop\n        /* \"Desktop/Smart Contract/sc_ijazah/backend/sc-service/smartcontract/contracts/ijazah_v2.sol\":4188:4196  _sekolah */\n      dup4\n        /* \"Desktop/Smart Contract/sc_ijazah/backend/sc-service/smartcontract/contracts/ijazah_v2.sol\":4171:4197  abi.encodePacked(_sekolah) */\n      add(0x20, mload(0x40))\n      tag_126\n      swap2\n      swap1\n      tag_127\n      jump\t// in\n    tag_126:\n      mload(0x40)\n      0x20\n      dup2\n      dup4\n      sub\n      sub\n      dup2\n      mstore\n      swap1\n      0x40\n      mstore\n        /* \"Desktop/Smart Contract/sc_ijazah/backend/sc-service/smartcontract/contracts/ijazah_v2.sol\":4161:4198  keccak256(abi.encodePacked(_sekolah)) */\n      dup1\n      mload\n      swap1\n      0x20\n      add\n      keccak256\n        /* \"Desktop/Smart Contract/sc_ijazah/backend/sc-service/smartcontract/contracts/ijazah_v2.sol\":4141:4147  degree */\n      dup2\n        /* \"Desktop/Smart Contract/sc_ijazah/backend/sc-service/smartcontract/contracts/ijazah_v2.sol\":4141:4155  degree.sekolah */\n      0x01\n      add\n        /* \"Desktop/Smart Contract/sc_ijazah/backend/sc-service/smartcontract/contracts/ijazah_v2.sol\":4124:4156  abi.encodePacked(degree.sekolah) */\n      add(0x20, mload(0x40))\n      tag_128\n      swap2\n      swap1\n      tag_129\n      jump\t// in\n    tag_128:\n      mload(0x40)\n      0x20\n      dup2\n      dup4\n      sub\n      sub\n      dup2\n      mstore\n      swap1\n      0x40\n      mstore\n        /* \"Desktop/Smart Contract/sc_ijazah/backend/sc-service/smartcontract/contracts/ijazah_v2.sol\":4114:4157  keccak256(abi.encodePacked(degree.sekolah)) */\n      dup1\n      mload\n      swap1\n      0x20\n      add\n      keccak256\n        /* \"Desktop/Smart Contract/sc_ijazah/backend/sc-service/smartcontract/contracts/ijazah_v2.sol\":4114:4198  keccak256(abi.encodePacked(degree.sekolah)) == keccak256(abi.encodePacked(_sekolah)) */\n      eq\n        /* \"Desktop/Smart Contract/sc_ijazah/backend/sc-service/smartcontract/contracts/ijazah_v2.sol\":4070:4198  degree.degreeHash != bytes32(0) &&\r... */\n    tag_125:\n        /* \"Desktop/Smart Contract/sc_ijazah/backend/sc-service/smartcontract/contracts/ijazah_v2.sol\":4070:4241  degree.degreeHash != bytes32(0) &&\r... */\n      dup1\n      iszero\n      tag_130\n      jumpi\n      pop\n        /* \"Desktop/Smart Contract/sc_ijazah/backend/sc-service/smartcontract/contracts/ijazah_v2.sol\":4231:4241  _issueDate */\n      dup3\n        /* \"Desktop/Smart Contract/sc_ijazah/backend/sc-service/smartcontract/contracts/ijazah_v2.sol\":4211:4217  degree */\n      dup2\n        /* \"Desktop/Smart Contract/sc_ijazah/backend/sc-service/smartcontract/contracts/ijazah_v2.sol\":4211:4227  degree.issueDate */\n      0x02\n      add\n      sload\n        /* \"Desktop/Smart Contract/sc_ijazah/backend/sc-service/smartcontract/contracts/ijazah_v2.sol\":4211:4241  degree.issueDate == _issueDate */\n      eq\n        /* \"Desktop/Smart Contract/sc_ijazah/backend/sc-service/smartcontract/contracts/ijazah_v2.sol\":4070:4241  degree.degreeHash != bytes32(0) &&\r... */\n    tag_130:\n        /* \"Desktop/Smart Contract/sc_ijazah/backend/sc-service/smartcontract/contracts/ijazah_v2.sol\":4052:4248  return (\r... */\n      swap2\n      pop\n      pop\n        /* \"Desktop/Smart Contract/sc_ijazah/backend/sc-service/smartcontract/contracts/ijazah_v2.sol\":3861:4252  function verifyDegree(\r... */\n      swap4\n      swap3\n      pop\n      pop\n      pop\n      jump\t// out\n        /* \"Desktop/Smart Contract/sc_ijazah/backend/sc-service/smartcontract/contracts/ijazah_v2.sol\":3359:3458  function listDegrees() public view returns (bytes32[] memory) {\r... */\n    tag_40:\n        /* \"Desktop/Smart Contract/sc_ijazah/backend/sc-service/smartcontract/contracts/ijazah_v2.sol\":3403:3419  bytes32[] memory */\n      0x60\n        /* \"Desktop/Smart Contract/sc_ijazah/backend/sc-service/smartcontract/contracts/ijazah_v2.sol\":3439:3450  degreesList */\n      0x02\n        /* \"Desktop/Smart Contract/sc_ijazah/backend/sc-service/smartcontract/contracts/ijazah_v2.sol\":3432:3450  return degreesList */\n      dup1\n      sload\n      dup1\n      0x20\n      mul\n      0x20\n      add\n      mload(0x40)\n      swap1\n      dup2\n      add\n      0x40\n      mstore\n      dup1\n      swap3\n      swap2\n      swap1\n      dup2\n      dup2\n      mstore\n      0x20\n      add\n      dup3\n      dup1\n      sload\n      dup1\n      iszero\n      tag_132\n      jumpi\n      0x20\n      mul\n      dup3\n      add\n      swap2\n      swap1\n      0x00\n      mstore\n      keccak256(0x00, 0x20)\n      swap1\n    tag_133:\n      dup2\n      sload\n      dup2\n      mstore\n      0x20\n      add\n      swap1\n      0x01\n      add\n      swap1\n      dup1\n      dup4\n      gt\n      tag_133\n      jumpi\n    tag_132:\n      pop\n      pop\n      pop\n      pop\n      pop\n      swap1\n      pop\n        /* \"Desktop/Smart Contract/sc_ijazah/backend/sc-service/smartcontract/contracts/ijazah_v2.sol\":3359:3458  function listDegrees() public view returns (bytes32[] memory) {\r... */\n      swap1\n      jump\t// out\n        /* \"Desktop/Smart Contract/sc_ijazah/backend/sc-service/smartcontract/contracts/ijazah_v2.sol\":3524:3855  function _removeFromList(bytes32[] storage list, bytes32 value) internal {\r... */\n    tag_79:\n        /* \"Desktop/Smart Contract/sc_ijazah/backend/sc-service/smartcontract/contracts/ijazah_v2.sol\":3613:3622  uint256 i */\n      0x00\n        /* \"Desktop/Smart Contract/sc_ijazah/backend/sc-service/smartcontract/contracts/ijazah_v2.sol\":3608:3848  for (uint256 i = 0; i < list.length; i++) {\r... */\n    tag_135:\n        /* \"Desktop/Smart Contract/sc_ijazah/backend/sc-service/smartcontract/contracts/ijazah_v2.sol\":3632:3636  list */\n      dup3\n        /* \"Desktop/Smart Contract/sc_ijazah/backend/sc-service/smartcontract/contracts/ijazah_v2.sol\":3632:3643  list.length */\n      dup1\n      sload\n      swap1\n      pop\n        /* \"Desktop/Smart Contract/sc_ijazah/backend/sc-service/smartcontract/contracts/ijazah_v2.sol\":3628:3629  i */\n      dup2\n        /* \"Desktop/Smart Contract/sc_ijazah/backend/sc-service/smartcontract/contracts/ijazah_v2.sol\":3628:3643  i < list.length */\n      lt\n        /* \"Desktop/Smart Contract/sc_ijazah/backend/sc-service/smartcontract/contracts/ijazah_v2.sol\":3608:3848  for (uint256 i = 0; i < list.length; i++) {\r... */\n      iszero\n      tag_136\n      jumpi\n        /* \"Desktop/Smart Contract/sc_ijazah/backend/sc-service/smartcontract/contracts/ijazah_v2.sol\":3680:3685  value */\n      dup2\n        /* \"Desktop/Smart Contract/sc_ijazah/backend/sc-service/smartcontract/contracts/ijazah_v2.sol\":3669:3673  list */\n      dup4\n        /* \"Desktop/Smart Contract/sc_ijazah/backend/sc-service/smartcontract/contracts/ijazah_v2.sol\":3674:3675  i */\n      dup3\n        /* \"Desktop/Smart Contract/sc_ijazah/backend/sc-service/smartcontract/contracts/ijazah_v2.sol\":3669:3676  list[i] */\n      dup2\n      sload\n      dup2\n      lt\n      tag_138\n      jumpi\n      mstore(0x00, 0x4e487b7100000000000000000000000000000000000000000000000000000000)\n      mstore(0x04, 0x32)\n      revert(0x00, 0x24)\n    tag_138:\n      swap1\n      0x00\n      mstore\n      keccak256(0x00, 0x20)\n      add\n      sload\n        /* \"Desktop/Smart Contract/sc_ijazah/backend/sc-service/smartcontract/contracts/ijazah_v2.sol\":3669:3685  list[i] == value */\n      eq\n        /* \"Desktop/Smart Contract/sc_ijazah/backend/sc-service/smartcontract/contracts/ijazah_v2.sol\":3665:3837  if (list[i] == value) {\r... */\n      iszero\n      tag_140\n      jumpi\n        /* \"Desktop/Smart Contract/sc_ijazah/backend/sc-service/smartcontract/contracts/ijazah_v2.sol\":3716:3720  list */\n      dup3\n        /* \"Desktop/Smart Contract/sc_ijazah/backend/sc-service/smartcontract/contracts/ijazah_v2.sol\":3735:3736  1 */\n      0x01\n        /* \"Desktop/Smart Contract/sc_ijazah/backend/sc-service/smartcontract/contracts/ijazah_v2.sol\":3721:3725  list */\n      dup5\n        /* \"Desktop/Smart Contract/sc_ijazah/backend/sc-service/smartcontract/contracts/ijazah_v2.sol\":3721:3732  list.length */\n      dup1\n      sload\n      swap1\n      pop\n        /* \"Desktop/Smart Contract/sc_ijazah/backend/sc-service/smartcontract/contracts/ijazah_v2.sol\":3721:3736  list.length - 1 */\n      tag_141\n      swap2\n      swap1\n      tag_142\n      jump\t// in\n    tag_141:\n        /* \"Desktop/Smart Contract/sc_ijazah/backend/sc-service/smartcontract/contracts/ijazah_v2.sol\":3716:3737  list[list.length - 1] */\n      dup2\n      sload\n      dup2\n      lt\n      tag_143\n      jumpi\n      mstore(0x00, 0x4e487b7100000000000000000000000000000000000000000000000000000000)\n      mstore(0x04, 0x32)\n      revert(0x00, 0x24)\n    tag_143:\n      swap1\n      0x00\n      mstore\n      keccak256(0x00, 0x20)\n      add\n      sload\n        /* \"Desktop/Smart Contract/sc_ijazah/backend/sc-service/smartcontract/contracts/ijazah_v2.sol\":3706:3710  list */\n      dup4\n        /* \"Desktop/Smart Contract/sc_ijazah/backend/sc-service/smartcontract/contracts/ijazah_v2.sol\":3711:3712  i */\n      dup3\n        /* \"Desktop/Smart Contract/sc_ijazah/backend/sc-service/smartcontract/contracts/ijazah_v2.sol\":3706:3713  list[i] */\n      dup2\n      sload\n      dup2\n      lt\n      tag_145\n      jumpi\n      mstore(0x00, 0x4e487b7100000000000000000000000000000000000000000000000000000000)\n      mstore(0x04, 0x32)\n      revert(0x00, 0x24)\n    tag_145:\n      swap1\n      0x00\n      mstore\n      keccak256(0x00, 0x20)\n      add\n        /* \"Desktop/Smart Contract/sc_ijazah/backend/sc-service/smartcontract/contracts/ijazah_v2.sol\":3706:3737  list[i] = list[list.length - 1] */\n      dup2\n      swap1\n      sstore\n      pop\n        /* \"Desktop/Smart Contract/sc_ijazah/backend/sc-service/smartcontract/contracts/ijazah_v2.sol\":3787:3791  list */\n      dup3\n        /* \"Desktop/Smart Contract/sc_ijazah/backend/sc-service/smartcontract/contracts/ijazah_v2.sol\":3787:3797  list.pop() */\n      dup1\n      sload\n      dup1\n      tag_147\n      jumpi\n      mstore(0x00, 0x4e487b7100000000000000000000000000000000000000000000000000000000)\n      mstore(0x04, 0x31)\n      revert(0x00, 0x24)\n    tag_147:\n      0x01\n      swap1\n      sub\n      dup2\n      dup2\n      swap1\n      0x00\n      mstore\n      keccak256(0x00, 0x20)\n      add\n      0x00\n      swap1\n      sstore\n      swap1\n      sstore\n        /* \"Desktop/Smart Contract/sc_ijazah/backend/sc-service/smartcontract/contracts/ijazah_v2.sol\":3816:3821  break */\n      jump(tag_136)\n        /* \"Desktop/Smart Contract/sc_ijazah/backend/sc-service/smartcontract/contracts/ijazah_v2.sol\":3665:3837  if (list[i] == value) {\r... */\n    tag_140:\n        /* \"Desktop/Smart Contract/sc_ijazah/backend/sc-service/smartcontract/contracts/ijazah_v2.sol\":3645:3648  i++ */\n      dup1\n      dup1\n      tag_149\n      swap1\n      tag_61\n      jump\t// in\n    tag_149:\n      swap2\n      pop\n      pop\n        /* \"Desktop/Smart Contract/sc_ijazah/backend/sc-service/smartcontract/contracts/ijazah_v2.sol\":3608:3848  for (uint256 i = 0; i < list.length; i++) {\r... */\n      jump(tag_135)\n    tag_136:\n      pop\n        /* \"Desktop/Smart Contract/sc_ijazah/backend/sc-service/smartcontract/contracts/ijazah_v2.sol\":3524:3855  function _removeFromList(bytes32[] storage list, bytes32 value) internal {\r... */\n      pop\n      pop\n      jump\t// out\n    tag_51:\n      dup3\n      dup1\n      sload\n      tag_150\n      swap1\n      tag_81\n      jump\t// in\n    tag_150:\n      swap1\n      0x00\n      mstore\n      keccak256(0x00, 0x20)\n      swap1\n      0x1f\n      add\n      0x20\n      swap1\n      div\n      dup2\n      add\n      swap3\n      dup3\n      tag_152\n      jumpi\n      0x00\n      dup6\n      sstore\n      jump(tag_151)\n    tag_152:\n      dup3\n      0x1f\n      lt\n      tag_153\n      jumpi\n      dup1\n      mload\n      not(0xff)\n      and\n      dup4\n      dup1\n      add\n      or\n      dup6\n      sstore\n      jump(tag_151)\n    tag_153:\n      dup3\n      dup1\n      add\n      0x01\n      add\n      dup6\n      sstore\n      dup3\n      iszero\n      tag_151\n      jumpi\n      swap2\n      dup3\n      add\n    tag_154:\n      dup3\n      dup2\n      gt\n      iszero\n      tag_155\n      jumpi\n      dup3\n      mload\n      dup3\n      sstore\n      swap2\n      0x20\n      add\n      swap2\n      swap1\n      0x01\n      add\n      swap1\n      jump(tag_154)\n    tag_155:\n    tag_151:\n      pop\n      swap1\n      pop\n      tag_156\n      swap2\n      swap1\n      tag_157\n      jump\t// in\n    tag_156:\n      pop\n      swap1\n      jump\t// out\n    tag_74:\n      pop\n      dup1\n      sload\n      tag_158\n      swap1\n      tag_81\n      jump\t// in\n    tag_158:\n      0x00\n      dup3\n      sstore\n      dup1\n      0x1f\n      lt\n      tag_160\n      jumpi\n      pop\n      jump(tag_159)\n    tag_160:\n      0x1f\n      add\n      0x20\n      swap1\n      div\n      swap1\n      0x00\n      mstore\n      keccak256(0x00, 0x20)\n      swap1\n      dup2\n      add\n      swap1\n      tag_161\n      swap2\n      swap1\n      tag_157\n      jump\t// in\n    tag_161:\n    tag_159:\n      pop\n      jump\t// out\n    tag_77:\n      pop\n      dup1\n      sload\n      0x00\n      dup3\n      sstore\n      0x02\n      mul\n      swap1\n      0x00\n      mstore\n      keccak256(0x00, 0x20)\n      swap1\n      dup2\n      add\n      swap1\n      tag_163\n      swap2\n      swap1\n      tag_164\n      jump\t// in\n    tag_163:\n      pop\n      jump\t// out\n    tag_157:\n    tag_165:\n      dup1\n      dup3\n      gt\n      iszero\n      tag_166\n      jumpi\n      0x00\n      dup2\n      0x00\n      swap1\n      sstore\n      pop\n      0x01\n      add\n      jump(tag_165)\n    tag_166:\n      pop\n      swap1\n      jump\t// out\n    tag_164:\n    tag_167:\n      dup1\n      dup3\n      gt\n      iszero\n      tag_168\n      jumpi\n      0x00\n      dup1\n      dup3\n      add\n      0x00\n      tag_169\n      swap2\n      swap1\n      tag_74\n      jump\t// in\n    tag_169:\n      0x01\n      dup3\n      add\n      exp(0x0100, 0x00)\n      dup2\n      sload\n      swap1\n      0xff\n      mul\n      not\n      and\n      swap1\n      sstore\n      pop\n      0x02\n      add\n      jump(tag_167)\n    tag_168:\n      pop\n      swap1\n      jump\t// out\n        /* \"#utility.yul\":23:638   */\n    tag_171:\n      0x00\n        /* \"#utility.yul\":154:244   */\n      tag_173\n        /* \"#utility.yul\":169:243   */\n      tag_174\n        /* \"#utility.yul\":236:242   */\n      dup5\n        /* \"#utility.yul\":169:243   */\n      tag_175\n      jump\t// in\n    tag_174:\n        /* \"#utility.yul\":154:244   */\n      tag_176\n      jump\t// in\n    tag_173:\n        /* \"#utility.yul\":145:244   */\n      swap1\n      pop\n        /* \"#utility.yul\":264:269   */\n      dup1\n        /* \"#utility.yul\":292:298   */\n      dup4\n        /* \"#utility.yul\":285:290   */\n      dup3\n        /* \"#utility.yul\":278:299   */\n      mstore\n        /* \"#utility.yul\":318:322   */\n      0x20\n        /* \"#utility.yul\":311:316   */\n      dup3\n        /* \"#utility.yul\":307:323   */\n      add\n        /* \"#utility.yul\":300:323   */\n      swap1\n      pop\n        /* \"#utility.yul\":343:349   */\n      dup3\n        /* \"#utility.yul\":374:375   */\n      0x00\n        /* \"#utility.yul\":359:632   */\n    tag_177:\n        /* \"#utility.yul\":384:390   */\n      dup6\n        /* \"#utility.yul\":381:382   */\n      dup2\n        /* \"#utility.yul\":378:391   */\n      lt\n        /* \"#utility.yul\":359:632   */\n      iszero\n      tag_179\n      jumpi\n        /* \"#utility.yul\":476:479   */\n      dup2\n        /* \"#utility.yul\":463:480   */\n      calldataload\n        /* \"#utility.yul\":455:461   */\n      dup6\n        /* \"#utility.yul\":451:481   */\n      add\n        /* \"#utility.yul\":506:553   */\n      tag_180\n        /* \"#utility.yul\":549:552   */\n      dup9\n        /* \"#utility.yul\":537:547   */\n      dup3\n        /* \"#utility.yul\":506:553   */\n      tag_181\n      jump\t// in\n    tag_180:\n        /* \"#utility.yul\":501:504   */\n      dup5\n        /* \"#utility.yul\":494:554   */\n      mstore\n        /* \"#utility.yul\":583:587   */\n      0x20\n        /* \"#utility.yul\":578:581   */\n      dup5\n        /* \"#utility.yul\":574:588   */\n      add\n        /* \"#utility.yul\":567:588   */\n      swap4\n      pop\n        /* \"#utility.yul\":617:621   */\n      0x20\n        /* \"#utility.yul\":612:615   */\n      dup4\n        /* \"#utility.yul\":608:622   */\n      add\n        /* \"#utility.yul\":601:622   */\n      swap3\n      pop\n        /* \"#utility.yul\":419:632   */\n      pop\n        /* \"#utility.yul\":406:407   */\n      0x01\n        /* \"#utility.yul\":403:404   */\n      dup2\n        /* \"#utility.yul\":399:408   */\n      add\n        /* \"#utility.yul\":394:408   */\n      swap1\n      pop\n        /* \"#utility.yul\":359:632   */\n      jump(tag_177)\n    tag_179:\n        /* \"#utility.yul\":363:377   */\n      pop\n        /* \"#utility.yul\":135:638   */\n      pop\n      pop\n      swap4\n      swap3\n      pop\n      pop\n      pop\n      jump\t// out\n        /* \"#utility.yul\":659:1275   */\n    tag_182:\n      0x00\n        /* \"#utility.yul\":778:856   */\n      tag_184\n        /* \"#utility.yul\":793:855   */\n      tag_185\n        /* \"#utility.yul\":848:854   */\n      dup5\n        /* \"#utility.yul\":793:855   */\n      tag_186\n      jump\t// in\n    tag_185:\n        /* \"#utility.yul\":778:856   */\n      tag_176\n      jump\t// in\n    tag_184:\n        /* \"#utility.yul\":769:856   */\n      swap1\n      pop\n        /* \"#utility.yul\":876:881   */\n      dup1\n        /* \"#utility.yul\":904:910   */\n      dup4\n        /* \"#utility.yul\":897:902   */\n      dup3\n        /* \"#utility.yul\":890:911   */\n      mstore\n        /* \"#utility.yul\":930:934   */\n      0x20\n        /* \"#utility.yul\":923:928   */\n      dup3\n        /* \"#utility.yul\":919:935   */\n      add\n        /* \"#utility.yul\":912:935   */\n      swap1\n      pop\n        /* \"#utility.yul\":955:961   */\n      dup3\n        /* \"#utility.yul\":1005:1008   */\n      dup6\n        /* \"#utility.yul\":997:1001   */\n      0x20\n        /* \"#utility.yul\":989:995   */\n      dup7\n        /* \"#utility.yul\":985:1002   */\n      mul\n        /* \"#utility.yul\":980:983   */\n      dup3\n        /* \"#utility.yul\":976:1003   */\n      add\n        /* \"#utility.yul\":973:1009   */\n      gt\n        /* \"#utility.yul\":970:972   */\n      iszero\n      tag_187\n      jumpi\n        /* \"#utility.yul\":1022:1023   */\n      0x00\n        /* \"#utility.yul\":1019:1020   */\n      dup1\n        /* \"#utility.yul\":1012:1024   */\n      revert\n        /* \"#utility.yul\":970:972   */\n    tag_187:\n        /* \"#utility.yul\":1050:1051   */\n      0x00\n        /* \"#utility.yul\":1035:1269   */\n    tag_188:\n        /* \"#utility.yul\":1060:1066   */\n      dup6\n        /* \"#utility.yul\":1057:1058   */\n      dup2\n        /* \"#utility.yul\":1054:1067   */\n      lt\n        /* \"#utility.yul\":1035:1269   */\n      iszero\n      tag_190\n      jumpi\n        /* \"#utility.yul\":1127:1130   */\n      dup2\n        /* \"#utility.yul\":1155:1190   */\n      tag_191\n        /* \"#utility.yul\":1186:1189   */\n      dup9\n        /* \"#utility.yul\":1174:1184   */\n      dup3\n        /* \"#utility.yul\":1155:1190   */\n      tag_192\n      jump\t// in\n    tag_191:\n        /* \"#utility.yul\":1150:1153   */\n      dup5\n        /* \"#utility.yul\":1143:1191   */\n      mstore\n        /* \"#utility.yul\":1220:1224   */\n      0x20\n        /* \"#utility.yul\":1215:1218   */\n      dup5\n        /* \"#utility.yul\":1211:1225   */\n      add\n        /* \"#utility.yul\":1204:1225   */\n      swap4\n      pop\n        /* \"#utility.yul\":1254:1258   */\n      0x20\n        /* \"#utility.yul\":1249:1252   */\n      dup4\n        /* \"#utility.yul\":1245:1259   */\n      add\n        /* \"#utility.yul\":1238:1259   */\n      swap3\n      pop\n        /* \"#utility.yul\":1095:1269   */\n      pop\n        /* \"#utility.yul\":1082:1083   */\n      0x01\n        /* \"#utility.yul\":1079:1080   */\n      dup2\n        /* \"#utility.yul\":1075:1084   */\n      add\n        /* \"#utility.yul\":1070:1084   */\n      swap1\n      pop\n        /* \"#utility.yul\":1035:1269   */\n      jump(tag_188)\n    tag_190:\n        /* \"#utility.yul\":1039:1053   */\n      pop\n        /* \"#utility.yul\":759:1275   */\n      pop\n      pop\n      swap4\n      swap3\n      pop\n      pop\n      pop\n      jump\t// out\n        /* \"#utility.yul\":1281:1625   */\n    tag_193:\n      0x00\n        /* \"#utility.yul\":1384:1449   */\n      tag_195\n        /* \"#utility.yul\":1399:1448   */\n      tag_196\n        /* \"#utility.yul\":1441:1447   */\n      dup5\n        /* \"#utility.yul\":1399:1448   */\n      tag_197\n      jump\t// in\n    tag_196:\n        /* \"#utility.yul\":1384:1449   */\n      tag_176\n      jump\t// in\n    tag_195:\n        /* \"#utility.yul\":1375:1449   */\n      swap1\n      pop\n        /* \"#utility.yul\":1472:1478   */\n      dup3\n        /* \"#utility.yul\":1465:1470   */\n      dup2\n        /* \"#utility.yul\":1458:1479   */\n      mstore\n        /* \"#utility.yul\":1510:1514   */\n      0x20\n        /* \"#utility.yul\":1503:1508   */\n      dup2\n        /* \"#utility.yul\":1499:1515   */\n      add\n        /* \"#utility.yul\":1548:1551   */\n      dup5\n        /* \"#utility.yul\":1539:1545   */\n      dup5\n        /* \"#utility.yul\":1534:1537   */\n      dup5\n        /* \"#utility.yul\":1530:1546   */\n      add\n        /* \"#utility.yul\":1527:1552   */\n      gt\n        /* \"#utility.yul\":1524:1526   */\n      iszero\n      tag_198\n      jumpi\n        /* \"#utility.yul\":1565:1566   */\n      0x00\n        /* \"#utility.yul\":1562:1563   */\n      dup1\n        /* \"#utility.yul\":1555:1567   */\n      revert\n        /* \"#utility.yul\":1524:1526   */\n    tag_198:\n        /* \"#utility.yul\":1578:1619   */\n      tag_199\n        /* \"#utility.yul\":1612:1618   */\n      dup5\n        /* \"#utility.yul\":1607:1610   */\n      dup3\n        /* \"#utility.yul\":1602:1605   */\n      dup6\n        /* \"#utility.yul\":1578:1619   */\n      tag_200\n      jump\t// in\n    tag_199:\n        /* \"#utility.yul\":1365:1625   */\n      pop\n      swap4\n      swap3\n      pop\n      pop\n      pop\n      jump\t// out\n        /* \"#utility.yul\":1647:1970   */\n    tag_201:\n      0x00\n        /* \"#utility.yul\":1777:1780   */\n      dup3\n        /* \"#utility.yul\":1770:1774   */\n      0x1f\n        /* \"#utility.yul\":1762:1768   */\n      dup4\n        /* \"#utility.yul\":1758:1775   */\n      add\n        /* \"#utility.yul\":1754:1781   */\n      slt\n        /* \"#utility.yul\":1744:1746   */\n      tag_203\n      jumpi\n        /* \"#utility.yul\":1795:1796   */\n      0x00\n        /* \"#utility.yul\":1792:1793   */\n      dup1\n        /* \"#utility.yul\":1785:1797   */\n      revert\n        /* \"#utility.yul\":1744:1746   */\n    tag_203:\n        /* \"#utility.yul\":1835:1841   */\n      dup2\n        /* \"#utility.yul\":1822:1842   */\n      calldataload\n        /* \"#utility.yul\":1860:1964   */\n      tag_204\n        /* \"#utility.yul\":1960:1963   */\n      dup5\n        /* \"#utility.yul\":1952:1958   */\n      dup3\n        /* \"#utility.yul\":1945:1949   */\n      0x20\n        /* \"#utility.yul\":1937:1943   */\n      dup7\n        /* \"#utility.yul\":1933:1950   */\n      add\n        /* \"#utility.yul\":1860:1964   */\n      tag_171\n      jump\t// in\n    tag_204:\n        /* \"#utility.yul\":1851:1964   */\n      swap2\n      pop\n        /* \"#utility.yul\":1734:1970   */\n      pop\n      swap3\n      swap2\n      pop\n      pop\n      jump\t// out\n        /* \"#utility.yul\":1991:2290   */\n    tag_205:\n      0x00\n        /* \"#utility.yul\":2109:2112   */\n      dup3\n        /* \"#utility.yul\":2102:2106   */\n      0x1f\n        /* \"#utility.yul\":2094:2100   */\n      dup4\n        /* \"#utility.yul\":2090:2107   */\n      add\n        /* \"#utility.yul\":2086:2113   */\n      slt\n        /* \"#utility.yul\":2076:2078   */\n      tag_207\n      jumpi\n        /* \"#utility.yul\":2127:2128   */\n      0x00\n        /* \"#utility.yul\":2124:2125   */\n      dup1\n        /* \"#utility.yul\":2117:2129   */\n      revert\n        /* \"#utility.yul\":2076:2078   */\n    tag_207:\n        /* \"#utility.yul\":2167:2173   */\n      dup2\n        /* \"#utility.yul\":2154:2174   */\n      calldataload\n        /* \"#utility.yul\":2192:2284   */\n      tag_208\n        /* \"#utility.yul\":2280:2283   */\n      dup5\n        /* \"#utility.yul\":2272:2278   */\n      dup3\n        /* \"#utility.yul\":2265:2269   */\n      0x20\n        /* \"#utility.yul\":2257:2263   */\n      dup7\n        /* \"#utility.yul\":2253:2270   */\n      add\n        /* \"#utility.yul\":2192:2284   */\n      tag_182\n      jump\t// in\n    tag_208:\n        /* \"#utility.yul\":2183:2284   */\n      swap2\n      pop\n        /* \"#utility.yul\":2066:2290   */\n      pop\n      swap3\n      swap2\n      pop\n      pop\n      jump\t// out\n        /* \"#utility.yul\":2296:2435   */\n    tag_209:\n      0x00\n        /* \"#utility.yul\":2380:2386   */\n      dup2\n        /* \"#utility.yul\":2367:2387   */\n      calldataload\n        /* \"#utility.yul\":2358:2387   */\n      swap1\n      pop\n        /* \"#utility.yul\":2396:2429   */\n      tag_211\n        /* \"#utility.yul\":2423:2428   */\n      dup2\n        /* \"#utility.yul\":2396:2429   */\n      tag_212\n      jump\t// in\n    tag_211:\n        /* \"#utility.yul\":2348:2435   */\n      swap3\n      swap2\n      pop\n      pop\n      jump\t// out\n        /* \"#utility.yul\":2455:2728   */\n    tag_181:\n      0x00\n        /* \"#utility.yul\":2560:2563   */\n      dup3\n        /* \"#utility.yul\":2553:2557   */\n      0x1f\n        /* \"#utility.yul\":2545:2551   */\n      dup4\n        /* \"#utility.yul\":2541:2558   */\n      add\n        /* \"#utility.yul\":2537:2564   */\n      slt\n        /* \"#utility.yul\":2527:2529   */\n      tag_214\n      jumpi\n        /* \"#utility.yul\":2578:2579   */\n      0x00\n        /* \"#utility.yul\":2575:2576   */\n      dup1\n        /* \"#utility.yul\":2568:2580   */\n      revert\n        /* \"#utility.yul\":2527:2529   */\n    tag_214:\n        /* \"#utility.yul\":2618:2624   */\n      dup2\n        /* \"#utility.yul\":2605:2625   */\n      calldataload\n        /* \"#utility.yul\":2643:2722   */\n      tag_215\n        /* \"#utility.yul\":2718:2721   */\n      dup5\n        /* \"#utility.yul\":2710:2716   */\n      dup3\n        /* \"#utility.yul\":2703:2707   */\n      0x20\n        /* \"#utility.yul\":2695:2701   */\n      dup7\n        /* \"#utility.yul\":2691:2708   */\n      add\n        /* \"#utility.yul\":2643:2722   */\n      tag_193\n      jump\t// in\n    tag_215:\n        /* \"#utility.yul\":2634:2722   */\n      swap2\n      pop\n        /* \"#utility.yul\":2517:2728   */\n      pop\n      swap3\n      swap2\n      pop\n      pop\n      jump\t// out\n        /* \"#utility.yul\":2734:2873   */\n    tag_216:\n      0x00\n        /* \"#utility.yul\":2818:2824   */\n      dup2\n        /* \"#utility.yul\":2805:2825   */\n      calldataload\n        /* \"#utility.yul\":2796:2825   */\n      swap1\n      pop\n        /* \"#utility.yul\":2834:2867   */\n      tag_218\n        /* \"#utility.yul\":2861:2866   */\n      dup2\n        /* \"#utility.yul\":2834:2867   */\n      tag_219\n      jump\t// in\n    tag_218:\n        /* \"#utility.yul\":2786:2873   */\n      swap3\n      swap2\n      pop\n      pop\n      jump\t// out\n        /* \"#utility.yul\":2879:3014   */\n    tag_192:\n      0x00\n        /* \"#utility.yul\":2961:2967   */\n      dup2\n        /* \"#utility.yul\":2948:2968   */\n      calldataload\n        /* \"#utility.yul\":2939:2968   */\n      swap1\n      pop\n        /* \"#utility.yul\":2977:3008   */\n      tag_221\n        /* \"#utility.yul\":3002:3007   */\n      dup2\n        /* \"#utility.yul\":2977:3008   */\n      tag_222\n      jump\t// in\n    tag_221:\n        /* \"#utility.yul\":2929:3014   */\n      swap3\n      swap2\n      pop\n      pop\n      jump\t// out\n        /* \"#utility.yul\":3020:3282   */\n    tag_21:\n      0x00\n        /* \"#utility.yul\":3128:3130   */\n      0x20\n        /* \"#utility.yul\":3116:3125   */\n      dup3\n        /* \"#utility.yul\":3107:3114   */\n      dup5\n        /* \"#utility.yul\":3103:3126   */\n      sub\n        /* \"#utility.yul\":3099:3131   */\n      slt\n        /* \"#utility.yul\":3096:3098   */\n      iszero\n      tag_224\n      jumpi\n        /* \"#utility.yul\":3144:3145   */\n      0x00\n        /* \"#utility.yul\":3141:3142   */\n      dup1\n        /* \"#utility.yul\":3134:3146   */\n      revert\n        /* \"#utility.yul\":3096:3098   */\n    tag_224:\n        /* \"#utility.yul\":3187:3188   */\n      0x00\n        /* \"#utility.yul\":3212:3265   */\n      tag_225\n        /* \"#utility.yul\":3257:3264   */\n      dup5\n        /* \"#utility.yul\":3248:3254   */\n      dup3\n        /* \"#utility.yul\":3237:3246   */\n      dup6\n        /* \"#utility.yul\":3233:3255   */\n      add\n        /* \"#utility.yul\":3212:3265   */\n      tag_209\n      jump\t// in\n    tag_225:\n        /* \"#utility.yul\":3202:3265   */\n      swap2\n      pop\n        /* \"#utility.yul\":3158:3275   */\n      pop\n        /* \"#utility.yul\":3086:3282   */\n      swap3\n      swap2\n      pop\n      pop\n      jump\t// out\n        /* \"#utility.yul\":3288:3953   */\n    tag_35:\n      0x00\n      dup1\n      0x00\n        /* \"#utility.yul\":3440:3442   */\n      0x60\n        /* \"#utility.yul\":3428:3437   */\n      dup5\n        /* \"#utility.yul\":3419:3426   */\n      dup7\n        /* \"#utility.yul\":3415:3438   */\n      sub\n        /* \"#utility.yul\":3411:3443   */\n      slt\n        /* \"#utility.yul\":3408:3410   */\n      iszero\n      tag_227\n      jumpi\n        /* \"#utility.yul\":3456:3457   */\n      0x00\n        /* \"#utility.yul\":3453:3454   */\n      dup1\n        /* \"#utility.yul\":3446:3458   */\n      revert\n        /* \"#utility.yul\":3408:3410   */\n    tag_227:\n        /* \"#utility.yul\":3499:3500   */\n      0x00\n        /* \"#utility.yul\":3524:3577   */\n      tag_228\n        /* \"#utility.yul\":3569:3576   */\n      dup7\n        /* \"#utility.yul\":3560:3566   */\n      dup3\n        /* \"#utility.yul\":3549:3558   */\n      dup8\n        /* \"#utility.yul\":3545:3567   */\n      add\n        /* \"#utility.yul\":3524:3577   */\n      tag_209\n      jump\t// in\n    tag_228:\n        /* \"#utility.yul\":3514:3577   */\n      swap4\n      pop\n        /* \"#utility.yul\":3470:3587   */\n      pop\n        /* \"#utility.yul\":3654:3656   */\n      0x20\n        /* \"#utility.yul\":3643:3652   */\n      dup5\n        /* \"#utility.yul\":3639:3657   */\n      add\n        /* \"#utility.yul\":3626:3658   */\n      calldataload\n        /* \"#utility.yul\":3685:3703   */\n      0xffffffffffffffff\n        /* \"#utility.yul\":3677:3683   */\n      dup2\n        /* \"#utility.yul\":3674:3704   */\n      gt\n        /* \"#utility.yul\":3671:3673   */\n      iszero\n      tag_229\n      jumpi\n        /* \"#utility.yul\":3717:3718   */\n      0x00\n        /* \"#utility.yul\":3714:3715   */\n      dup1\n        /* \"#utility.yul\":3707:3719   */\n      revert\n        /* \"#utility.yul\":3671:3673   */\n    tag_229:\n        /* \"#utility.yul\":3745:3808   */\n      tag_230\n        /* \"#utility.yul\":3800:3807   */\n      dup7\n        /* \"#utility.yul\":3791:3797   */\n      dup3\n        /* \"#utility.yul\":3780:3789   */\n      dup8\n        /* \"#utility.yul\":3776:3798   */\n      add\n        /* \"#utility.yul\":3745:3808   */\n      tag_181\n      jump\t// in\n    tag_230:\n        /* \"#utility.yul\":3735:3808   */\n      swap3\n      pop\n        /* \"#utility.yul\":3597:3818   */\n      pop\n        /* \"#utility.yul\":3857:3859   */\n      0x40\n        /* \"#utility.yul\":3883:3936   */\n      tag_231\n        /* \"#utility.yul\":3928:3935   */\n      dup7\n        /* \"#utility.yul\":3919:3925   */\n      dup3\n        /* \"#utility.yul\":3908:3917   */\n      dup8\n        /* \"#utility.yul\":3904:3926   */\n      add\n        /* \"#utility.yul\":3883:3936   */\n      tag_216\n      jump\t// in\n    tag_231:\n        /* \"#utility.yul\":3873:3936   */\n      swap2\n      pop\n        /* \"#utility.yul\":3828:3946   */\n      pop\n        /* \"#utility.yul\":3398:3953   */\n      swap3\n      pop\n      swap3\n      pop\n      swap3\n      jump\t// out\n        /* \"#utility.yul\":3959:5477   */\n    tag_13:\n      0x00\n      dup1\n      0x00\n      dup1\n      0x00\n      dup1\n        /* \"#utility.yul\":4230:4233   */\n      0xc0\n        /* \"#utility.yul\":4218:4227   */\n      dup8\n        /* \"#utility.yul\":4209:4216   */\n      dup10\n        /* \"#utility.yul\":4205:4228   */\n      sub\n        /* \"#utility.yul\":4201:4234   */\n      slt\n        /* \"#utility.yul\":4198:4200   */\n      iszero\n      tag_233\n      jumpi\n        /* \"#utility.yul\":4247:4248   */\n      0x00\n        /* \"#utility.yul\":4244:4245   */\n      dup1\n        /* \"#utility.yul\":4237:4249   */\n      revert\n        /* \"#utility.yul\":4198:4200   */\n    tag_233:\n        /* \"#utility.yul\":4290:4291   */\n      0x00\n        /* \"#utility.yul\":4315:4368   */\n      tag_234\n        /* \"#utility.yul\":4360:4367   */\n      dup10\n        /* \"#utility.yul\":4351:4357   */\n      dup3\n        /* \"#utility.yul\":4340:4349   */\n      dup11\n        /* \"#utility.yul\":4336:4358   */\n      add\n        /* \"#utility.yul\":4315:4368   */\n      tag_209\n      jump\t// in\n    tag_234:\n        /* \"#utility.yul\":4305:4368   */\n      swap7\n      pop\n        /* \"#utility.yul\":4261:4378   */\n      pop\n        /* \"#utility.yul\":4445:4447   */\n      0x20\n        /* \"#utility.yul\":4434:4443   */\n      dup8\n        /* \"#utility.yul\":4430:4448   */\n      add\n        /* \"#utility.yul\":4417:4449   */\n      calldataload\n        /* \"#utility.yul\":4476:4494   */\n      0xffffffffffffffff\n        /* \"#utility.yul\":4468:4474   */\n      dup2\n        /* \"#utility.yul\":4465:4495   */\n      gt\n        /* \"#utility.yul\":4462:4464   */\n      iszero\n      tag_235\n      jumpi\n        /* \"#utility.yul\":4508:4509   */\n      0x00\n        /* \"#utility.yul\":4505:4506   */\n      dup1\n        /* \"#utility.yul\":4498:4510   */\n      revert\n        /* \"#utility.yul\":4462:4464   */\n    tag_235:\n        /* \"#utility.yul\":4536:4599   */\n      tag_236\n        /* \"#utility.yul\":4591:4598   */\n      dup10\n        /* \"#utility.yul\":4582:4588   */\n      dup3\n        /* \"#utility.yul\":4571:4580   */\n      dup11\n        /* \"#utility.yul\":4567:4589   */\n      add\n        /* \"#utility.yul\":4536:4599   */\n      tag_181\n      jump\t// in\n    tag_236:\n        /* \"#utility.yul\":4526:4599   */\n      swap6\n      pop\n        /* \"#utility.yul\":4388:4609   */\n      pop\n        /* \"#utility.yul\":4648:4650   */\n      0x40\n        /* \"#utility.yul\":4674:4727   */\n      tag_237\n        /* \"#utility.yul\":4719:4726   */\n      dup10\n        /* \"#utility.yul\":4710:4716   */\n      dup3\n        /* \"#utility.yul\":4699:4708   */\n      dup11\n        /* \"#utility.yul\":4695:4717   */\n      add\n        /* \"#utility.yul\":4674:4727   */\n      tag_216\n      jump\t// in\n    tag_237:\n        /* \"#utility.yul\":4664:4727   */\n      swap5\n      pop\n        /* \"#utility.yul\":4619:4737   */\n      pop\n        /* \"#utility.yul\":4804:4806   */\n      0x60\n        /* \"#utility.yul\":4793:4802   */\n      dup8\n        /* \"#utility.yul\":4789:4807   */\n      add\n        /* \"#utility.yul\":4776:4808   */\n      calldataload\n        /* \"#utility.yul\":4835:4853   */\n      0xffffffffffffffff\n        /* \"#utility.yul\":4827:4833   */\n      dup2\n        /* \"#utility.yul\":4824:4854   */\n      gt\n        /* \"#utility.yul\":4821:4823   */\n      iszero\n      tag_238\n      jumpi\n        /* \"#utility.yul\":4867:4868   */\n      0x00\n        /* \"#utility.yul\":4864:4865   */\n      dup1\n        /* \"#utility.yul\":4857:4869   */\n      revert\n        /* \"#utility.yul\":4821:4823   */\n    tag_238:\n        /* \"#utility.yul\":4895:4958   */\n      tag_239\n        /* \"#utility.yul\":4950:4957   */\n      dup10\n        /* \"#utility.yul\":4941:4947   */\n      dup3\n        /* \"#utility.yul\":4930:4939   */\n      dup11\n        /* \"#utility.yul\":4926:4948   */\n      add\n        /* \"#utility.yul\":4895:4958   */\n      tag_181\n      jump\t// in\n    tag_239:\n        /* \"#utility.yul\":4885:4958   */\n      swap4\n      pop\n        /* \"#utility.yul\":4747:4968   */\n      pop\n        /* \"#utility.yul\":5035:5038   */\n      0x80\n        /* \"#utility.yul\":5024:5033   */\n      dup8\n        /* \"#utility.yul\":5020:5039   */\n      add\n        /* \"#utility.yul\":5007:5040   */\n      calldataload\n        /* \"#utility.yul\":5067:5085   */\n      0xffffffffffffffff\n        /* \"#utility.yul\":5059:5065   */\n      dup2\n        /* \"#utility.yul\":5056:5086   */\n      gt\n        /* \"#utility.yul\":5053:5055   */\n      iszero\n      tag_240\n      jumpi\n        /* \"#utility.yul\":5099:5100   */\n      0x00\n        /* \"#utility.yul\":5096:5097   */\n      dup1\n        /* \"#utility.yul\":5089:5101   */\n      revert\n        /* \"#utility.yul\":5053:5055   */\n    tag_240:\n        /* \"#utility.yul\":5127:5215   */\n      tag_241\n        /* \"#utility.yul\":5207:5214   */\n      dup10\n        /* \"#utility.yul\":5198:5204   */\n      dup3\n        /* \"#utility.yul\":5187:5196   */\n      dup11\n        /* \"#utility.yul\":5183:5205   */\n      add\n        /* \"#utility.yul\":5127:5215   */\n      tag_201\n      jump\t// in\n    tag_241:\n        /* \"#utility.yul\":5117:5215   */\n      swap3\n      pop\n        /* \"#utility.yul\":4978:5225   */\n      pop\n        /* \"#utility.yul\":5292:5295   */\n      0xa0\n        /* \"#utility.yul\":5281:5290   */\n      dup8\n        /* \"#utility.yul\":5277:5296   */\n      add\n        /* \"#utility.yul\":5264:5297   */\n      calldataload\n        /* \"#utility.yul\":5324:5342   */\n      0xffffffffffffffff\n        /* \"#utility.yul\":5316:5322   */\n      dup2\n        /* \"#utility.yul\":5313:5343   */\n      gt\n        /* \"#utility.yul\":5310:5312   */\n      iszero\n      tag_242\n      jumpi\n        /* \"#utility.yul\":5356:5357   */\n      0x00\n        /* \"#utility.yul\":5353:5354   */\n      dup1\n        /* \"#utility.yul\":5346:5358   */\n      revert\n        /* \"#utility.yul\":5310:5312   */\n    tag_242:\n        /* \"#utility.yul\":5384:5460   */\n      tag_243\n        /* \"#utility.yul\":5452:5459   */\n      dup10\n        /* \"#utility.yul\":5443:5449   */\n      dup3\n        /* \"#utility.yul\":5432:5441   */\n      dup11\n        /* \"#utility.yul\":5428:5450   */\n      add\n        /* \"#utility.yul\":5384:5460   */\n      tag_205\n      jump\t// in\n    tag_243:\n        /* \"#utility.yul\":5374:5460   */\n      swap2\n      pop\n        /* \"#utility.yul\":5235:5470   */\n      pop\n        /* \"#utility.yul\":4188:5477   */\n      swap3\n      swap6\n      pop\n      swap3\n      swap6\n      pop\n      swap3\n      swap6\n      jump\t// out\n        /* \"#utility.yul\":5483:5662   */\n    tag_244:\n      0x00\n        /* \"#utility.yul\":5573:5619   */\n      tag_246\n        /* \"#utility.yul\":5615:5618   */\n      dup4\n        /* \"#utility.yul\":5607:5613   */\n      dup4\n        /* \"#utility.yul\":5573:5619   */\n      tag_247\n      jump\t// in\n    tag_246:\n        /* \"#utility.yul\":5651:5655   */\n      0x20\n        /* \"#utility.yul\":5646:5649   */\n      dup4\n        /* \"#utility.yul\":5642:5656   */\n      add\n        /* \"#utility.yul\":5628:5656   */\n      swap1\n      pop\n        /* \"#utility.yul\":5563:5662   */\n      swap3\n      swap2\n      pop\n      pop\n      jump\t// out\n        /* \"#utility.yul\":5668:5864   */\n    tag_248:\n      0x00\n        /* \"#utility.yul\":5792:5858   */\n      tag_250\n        /* \"#utility.yul\":5854:5857   */\n      dup4\n        /* \"#utility.yul\":5846:5852   */\n      dup4\n        /* \"#utility.yul\":5792:5858   */\n      tag_251\n      jump\t// in\n    tag_250:\n        /* \"#utility.yul\":5778:5858   */\n      swap1\n      pop\n        /* \"#utility.yul\":5768:5864   */\n      swap3\n      swap2\n      pop\n      pop\n      jump\t// out\n        /* \"#utility.yul\":5870:6041   */\n    tag_252:\n      0x00\n        /* \"#utility.yul\":5956:5998   */\n      tag_254\n        /* \"#utility.yul\":5994:5997   */\n      dup4\n        /* \"#utility.yul\":5986:5992   */\n      dup4\n        /* \"#utility.yul\":5956:5998   */\n      tag_255\n      jump\t// in\n    tag_254:\n        /* \"#utility.yul\":6030:6034   */\n      0x20\n        /* \"#utility.yul\":6025:6028   */\n      dup4\n        /* \"#utility.yul\":6021:6035   */\n      add\n        /* \"#utility.yul\":6007:6035   */\n      swap1\n      pop\n        /* \"#utility.yul\":5946:6041   */\n      swap3\n      swap2\n      pop\n      pop\n      jump\t// out\n        /* \"#utility.yul\":6047:6165   */\n    tag_256:\n        /* \"#utility.yul\":6134:6158   */\n      tag_258\n        /* \"#utility.yul\":6152:6157   */\n      dup2\n        /* \"#utility.yul\":6134:6158   */\n      tag_259\n      jump\t// in\n    tag_258:\n        /* \"#utility.yul\":6129:6132   */\n      dup3\n        /* \"#utility.yul\":6122:6159   */\n      mstore\n        /* \"#utility.yul\":6112:6165   */\n      pop\n      pop\n      jump\t// out\n        /* \"#utility.yul\":6201:6933   */\n    tag_260:\n      0x00\n        /* \"#utility.yul\":6349:6403   */\n      tag_262\n        /* \"#utility.yul\":6397:6402   */\n      dup3\n        /* \"#utility.yul\":6349:6403   */\n      tag_263\n      jump\t// in\n    tag_262:\n        /* \"#utility.yul\":6419:6505   */\n      tag_264\n        /* \"#utility.yul\":6498:6504   */\n      dup2\n        /* \"#utility.yul\":6493:6496   */\n      dup6\n        /* \"#utility.yul\":6419:6505   */\n      tag_265\n      jump\t// in\n    tag_264:\n        /* \"#utility.yul\":6412:6505   */\n      swap4\n      pop\n        /* \"#utility.yul\":6529:6585   */\n      tag_266\n        /* \"#utility.yul\":6579:6584   */\n      dup4\n        /* \"#utility.yul\":6529:6585   */\n      tag_267\n      jump\t// in\n    tag_266:\n        /* \"#utility.yul\":6608:6615   */\n      dup1\n        /* \"#utility.yul\":6639:6640   */\n      0x00\n        /* \"#utility.yul\":6624:6908   */\n    tag_268:\n        /* \"#utility.yul\":6649:6655   */\n      dup4\n        /* \"#utility.yul\":6646:6647   */\n      dup2\n        /* \"#utility.yul\":6643:6656   */\n      lt\n        /* \"#utility.yul\":6624:6908   */\n      iszero\n      tag_270\n      jumpi\n        /* \"#utility.yul\":6725:6731   */\n      dup2\n        /* \"#utility.yul\":6719:6732   */\n      mload\n        /* \"#utility.yul\":6752:6815   */\n      tag_271\n        /* \"#utility.yul\":6811:6814   */\n      dup9\n        /* \"#utility.yul\":6796:6809   */\n      dup3\n        /* \"#utility.yul\":6752:6815   */\n      tag_244\n      jump\t// in\n    tag_271:\n        /* \"#utility.yul\":6745:6815   */\n      swap8\n      pop\n        /* \"#utility.yul\":6838:6898   */\n      tag_272\n        /* \"#utility.yul\":6891:6897   */\n      dup4\n        /* \"#utility.yul\":6838:6898   */\n      tag_273\n      jump\t// in\n    tag_272:\n        /* \"#utility.yul\":6828:6898   */\n      swap3\n      pop\n        /* \"#utility.yul\":6684:6908   */\n      pop\n        /* \"#utility.yul\":6671:6672   */\n      0x01\n        /* \"#utility.yul\":6668:6669   */\n      dup2\n        /* \"#utility.yul\":6664:6673   */\n      add\n        /* \"#utility.yul\":6659:6673   */\n      swap1\n      pop\n        /* \"#utility.yul\":6624:6908   */\n      jump(tag_268)\n    tag_270:\n        /* \"#utility.yul\":6628:6642   */\n      pop\n        /* \"#utility.yul\":6924:6927   */\n      dup6\n        /* \"#utility.yul\":6917:6927   */\n      swap4\n      pop\n        /* \"#utility.yul\":6325:6933   */\n      pop\n      pop\n      pop\n      swap3\n      swap2\n      pop\n      pop\n      jump\t// out\n        /* \"#utility.yul\":6967:7958   */\n    tag_274:\n      0x00\n        /* \"#utility.yul\":7135:7199   */\n      tag_276\n        /* \"#utility.yul\":7193:7198   */\n      dup3\n        /* \"#utility.yul\":7135:7199   */\n      tag_277\n      jump\t// in\n    tag_276:\n        /* \"#utility.yul\":7215:7311   */\n      tag_278\n        /* \"#utility.yul\":7304:7310   */\n      dup2\n        /* \"#utility.yul\":7299:7302   */\n      dup6\n        /* \"#utility.yul\":7215:7311   */\n      tag_279\n      jump\t// in\n    tag_278:\n        /* \"#utility.yul\":7208:7311   */\n      swap4\n      pop\n        /* \"#utility.yul\":7337:7340   */\n      dup4\n        /* \"#utility.yul\":7382:7386   */\n      0x20\n        /* \"#utility.yul\":7374:7380   */\n      dup3\n        /* \"#utility.yul\":7370:7387   */\n      mul\n        /* \"#utility.yul\":7365:7368   */\n      dup6\n        /* \"#utility.yul\":7361:7388   */\n      add\n        /* \"#utility.yul\":7412:7478   */\n      tag_280\n        /* \"#utility.yul\":7472:7477   */\n      dup6\n        /* \"#utility.yul\":7412:7478   */\n      tag_281\n      jump\t// in\n    tag_280:\n        /* \"#utility.yul\":7501:7508   */\n      dup1\n        /* \"#utility.yul\":7532:7533   */\n      0x00\n        /* \"#utility.yul\":7517:7913   */\n    tag_282:\n        /* \"#utility.yul\":7542:7548   */\n      dup6\n        /* \"#utility.yul\":7539:7540   */\n      dup2\n        /* \"#utility.yul\":7536:7549   */\n      lt\n        /* \"#utility.yul\":7517:7913   */\n      iszero\n      tag_284\n      jumpi\n        /* \"#utility.yul\":7613:7622   */\n      dup5\n        /* \"#utility.yul\":7607:7611   */\n      dup5\n        /* \"#utility.yul\":7603:7623   */\n      sub\n        /* \"#utility.yul\":7598:7601   */\n      dup10\n        /* \"#utility.yul\":7591:7624   */\n      mstore\n        /* \"#utility.yul\":7664:7670   */\n      dup2\n        /* \"#utility.yul\":7658:7671   */\n      mload\n        /* \"#utility.yul\":7692:7776   */\n      tag_285\n        /* \"#utility.yul\":7771:7775   */\n      dup6\n        /* \"#utility.yul\":7756:7769   */\n      dup3\n        /* \"#utility.yul\":7692:7776   */\n      tag_248\n      jump\t// in\n    tag_285:\n        /* \"#utility.yul\":7684:7776   */\n      swap5\n      pop\n        /* \"#utility.yul\":7799:7869   */\n      tag_286\n        /* \"#utility.yul\":7862:7868   */\n      dup4\n        /* \"#utility.yul\":7799:7869   */\n      tag_287\n      jump\t// in\n    tag_286:\n        /* \"#utility.yul\":7789:7869   */\n      swap3\n      pop\n        /* \"#utility.yul\":7898:7902   */\n      0x20\n        /* \"#utility.yul\":7893:7896   */\n      dup11\n        /* \"#utility.yul\":7889:7903   */\n      add\n        /* \"#utility.yul\":7882:7903   */\n      swap10\n      pop\n        /* \"#utility.yul\":7577:7913   */\n      pop\n        /* \"#utility.yul\":7564:7565   */\n      0x01\n        /* \"#utility.yul\":7561:7562   */\n      dup2\n        /* \"#utility.yul\":7557:7566   */\n      add\n        /* \"#utility.yul\":7552:7566   */\n      swap1\n      pop\n        /* \"#utility.yul\":7517:7913   */\n      jump(tag_282)\n    tag_284:\n        /* \"#utility.yul\":7521:7535   */\n      pop\n        /* \"#utility.yul\":7929:7933   */\n      dup3\n        /* \"#utility.yul\":7922:7933   */\n      swap8\n      pop\n        /* \"#utility.yul\":7949:7952   */\n      dup8\n        /* \"#utility.yul\":7942:7952   */\n      swap6\n      pop\n        /* \"#utility.yul\":7111:7958   */\n      pop\n      pop\n      pop\n      pop\n      pop\n      swap3\n      swap2\n      pop\n      pop\n      jump\t// out\n        /* \"#utility.yul\":7990:8706   */\n    tag_288:\n      0x00\n        /* \"#utility.yul\":8134:8186   */\n      tag_290\n        /* \"#utility.yul\":8180:8185   */\n      dup3\n        /* \"#utility.yul\":8134:8186   */\n      tag_291\n      jump\t// in\n    tag_290:\n        /* \"#utility.yul\":8202:8286   */\n      tag_292\n        /* \"#utility.yul\":8279:8285   */\n      dup2\n        /* \"#utility.yul\":8274:8277   */\n      dup6\n        /* \"#utility.yul\":8202:8286   */\n      tag_293\n      jump\t// in\n    tag_292:\n        /* \"#utility.yul\":8195:8286   */\n      swap4\n      pop\n        /* \"#utility.yul\":8310:8364   */\n      tag_294\n        /* \"#utility.yul\":8358:8363   */\n      dup4\n        /* \"#utility.yul\":8310:8364   */\n      tag_295\n      jump\t// in\n    tag_294:\n        /* \"#utility.yul\":8387:8394   */\n      dup1\n        /* \"#utility.yul\":8418:8419   */\n      0x00\n        /* \"#utility.yul\":8403:8681   */\n    tag_296:\n        /* \"#utility.yul\":8428:8434   */\n      dup4\n        /* \"#utility.yul\":8425:8426   */\n      dup2\n        /* \"#utility.yul\":8422:8435   */\n      lt\n        /* \"#utility.yul\":8403:8681   */\n      iszero\n      tag_298\n      jumpi\n        /* \"#utility.yul\":8504:8510   */\n      dup2\n        /* \"#utility.yul\":8498:8511   */\n      mload\n        /* \"#utility.yul\":8531:8590   */\n      tag_299\n        /* \"#utility.yul\":8586:8589   */\n      dup9\n        /* \"#utility.yul\":8571:8584   */\n      dup3\n        /* \"#utility.yul\":8531:8590   */\n      tag_252\n      jump\t// in\n    tag_299:\n        /* \"#utility.yul\":8524:8590   */\n      swap8\n      pop\n        /* \"#utility.yul\":8613:8671   */\n      tag_300\n        /* \"#utility.yul\":8664:8670   */\n      dup4\n        /* \"#utility.yul\":8613:8671   */\n      tag_301\n      jump\t// in\n    tag_300:\n        /* \"#utility.yul\":8603:8671   */\n      swap3\n      pop\n        /* \"#utility.yul\":8463:8681   */\n      pop\n        /* \"#utility.yul\":8450:8451   */\n      0x01\n        /* \"#utility.yul\":8447:8448   */\n      dup2\n        /* \"#utility.yul\":8443:8452   */\n      add\n        /* \"#utility.yul\":8438:8452   */\n      swap1\n      pop\n        /* \"#utility.yul\":8403:8681   */\n      jump(tag_296)\n    tag_298:\n        /* \"#utility.yul\":8407:8421   */\n      pop\n        /* \"#utility.yul\":8697:8700   */\n      dup6\n        /* \"#utility.yul\":8690:8700   */\n      swap4\n      pop\n        /* \"#utility.yul\":8110:8706   */\n      pop\n      pop\n      pop\n      swap3\n      swap2\n      pop\n      pop\n      jump\t// out\n        /* \"#utility.yul\":8712:8821   */\n    tag_302:\n        /* \"#utility.yul\":8793:8814   */\n      tag_304\n        /* \"#utility.yul\":8808:8813   */\n      dup2\n        /* \"#utility.yul\":8793:8814   */\n      tag_305\n      jump\t// in\n    tag_304:\n        /* \"#utility.yul\":8788:8791   */\n      dup3\n        /* \"#utility.yul\":8781:8815   */\n      mstore\n        /* \"#utility.yul\":8771:8821   */\n      pop\n      pop\n      jump\t// out\n        /* \"#utility.yul\":8827:8935   */\n    tag_247:\n        /* \"#utility.yul\":8904:8928   */\n      tag_307\n        /* \"#utility.yul\":8922:8927   */\n      dup2\n        /* \"#utility.yul\":8904:8928   */\n      tag_308\n      jump\t// in\n    tag_307:\n        /* \"#utility.yul\":8899:8902   */\n      dup3\n        /* \"#utility.yul\":8892:8929   */\n      mstore\n        /* \"#utility.yul\":8882:8935   */\n      pop\n      pop\n      jump\t// out\n        /* \"#utility.yul\":8941:9059   */\n    tag_309:\n        /* \"#utility.yul\":9028:9052   */\n      tag_311\n        /* \"#utility.yul\":9046:9051   */\n      dup2\n        /* \"#utility.yul\":9028:9052   */\n      tag_308\n      jump\t// in\n    tag_311:\n        /* \"#utility.yul\":9023:9026   */\n      dup3\n        /* \"#utility.yul\":9016:9053   */\n      mstore\n        /* \"#utility.yul\":9006:9059   */\n      pop\n      pop\n      jump\t// out\n        /* \"#utility.yul\":9065:9409   */\n    tag_251:\n      0x00\n        /* \"#utility.yul\":9171:9210   */\n      tag_313\n        /* \"#utility.yul\":9204:9209   */\n      dup3\n        /* \"#utility.yul\":9171:9210   */\n      tag_314\n      jump\t// in\n    tag_313:\n        /* \"#utility.yul\":9226:9287   */\n      tag_315\n        /* \"#utility.yul\":9280:9286   */\n      dup2\n        /* \"#utility.yul\":9275:9278   */\n      dup6\n        /* \"#utility.yul\":9226:9287   */\n      tag_316\n      jump\t// in\n    tag_315:\n        /* \"#utility.yul\":9219:9287   */\n      swap4\n      pop\n        /* \"#utility.yul\":9296:9348   */\n      tag_317\n        /* \"#utility.yul\":9341:9347   */\n      dup2\n        /* \"#utility.yul\":9336:9339   */\n      dup6\n        /* \"#utility.yul\":9329:9333   */\n      0x20\n        /* \"#utility.yul\":9322:9327   */\n      dup7\n        /* \"#utility.yul\":9318:9334   */\n      add\n        /* \"#utility.yul\":9296:9348   */\n      tag_318\n      jump\t// in\n    tag_317:\n        /* \"#utility.yul\":9373:9402   */\n      tag_319\n        /* \"#utility.yul\":9395:9401   */\n      dup2\n        /* \"#utility.yul\":9373:9402   */\n      tag_320\n      jump\t// in\n    tag_319:\n        /* \"#utility.yul\":9368:9371   */\n      dup5\n        /* \"#utility.yul\":9364:9403   */\n      add\n        /* \"#utility.yul\":9357:9403   */\n      swap2\n      pop\n        /* \"#utility.yul\":9147:9409   */\n      pop\n      swap3\n      swap2\n      pop\n      pop\n      jump\t// out\n        /* \"#utility.yul\":9415:9779   */\n    tag_321:\n      0x00\n        /* \"#utility.yul\":9531:9570   */\n      tag_323\n        /* \"#utility.yul\":9564:9569   */\n      dup3\n        /* \"#utility.yul\":9531:9570   */\n      tag_314\n      jump\t// in\n    tag_323:\n        /* \"#utility.yul\":9586:9657   */\n      tag_324\n        /* \"#utility.yul\":9650:9656   */\n      dup2\n        /* \"#utility.yul\":9645:9648   */\n      dup6\n        /* \"#utility.yul\":9586:9657   */\n      tag_325\n      jump\t// in\n    tag_324:\n        /* \"#utility.yul\":9579:9657   */\n      swap4\n      pop\n        /* \"#utility.yul\":9666:9718   */\n      tag_326\n        /* \"#utility.yul\":9711:9717   */\n      dup2\n        /* \"#utility.yul\":9706:9709   */\n      dup6\n        /* \"#utility.yul\":9699:9703   */\n      0x20\n        /* \"#utility.yul\":9692:9697   */\n      dup7\n        /* \"#utility.yul\":9688:9704   */\n      add\n        /* \"#utility.yul\":9666:9718   */\n      tag_318\n      jump\t// in\n    tag_326:\n        /* \"#utility.yul\":9743:9772   */\n      tag_327\n        /* \"#utility.yul\":9765:9771   */\n      dup2\n        /* \"#utility.yul\":9743:9772   */\n      tag_320\n      jump\t// in\n    tag_327:\n        /* \"#utility.yul\":9738:9741   */\n      dup5\n        /* \"#utility.yul\":9734:9773   */\n      add\n        /* \"#utility.yul\":9727:9773   */\n      swap2\n      pop\n        /* \"#utility.yul\":9507:9779   */\n      pop\n      swap3\n      swap2\n      pop\n      pop\n      jump\t// out\n        /* \"#utility.yul\":9785:10162   */\n    tag_328:\n      0x00\n        /* \"#utility.yul\":9919:9958   */\n      tag_330\n        /* \"#utility.yul\":9952:9957   */\n      dup3\n        /* \"#utility.yul\":9919:9958   */\n      tag_314\n      jump\t// in\n    tag_330:\n        /* \"#utility.yul\":9974:10063   */\n      tag_331\n        /* \"#utility.yul\":10056:10062   */\n      dup2\n        /* \"#utility.yul\":10051:10054   */\n      dup6\n        /* \"#utility.yul\":9974:10063   */\n      tag_332\n      jump\t// in\n    tag_331:\n        /* \"#utility.yul\":9967:10063   */\n      swap4\n      pop\n        /* \"#utility.yul\":10072:10124   */\n      tag_333\n        /* \"#utility.yul\":10117:10123   */\n      dup2\n        /* \"#utility.yul\":10112:10115   */\n      dup6\n        /* \"#utility.yul\":10105:10109   */\n      0x20\n        /* \"#utility.yul\":10098:10103   */\n      dup7\n        /* \"#utility.yul\":10094:10110   */\n      add\n        /* \"#utility.yul\":10072:10124   */\n      tag_318\n      jump\t// in\n    tag_333:\n        /* \"#utility.yul\":10149:10155   */\n      dup1\n        /* \"#utility.yul\":10144:10147   */\n      dup5\n        /* \"#utility.yul\":10140:10156   */\n      add\n        /* \"#utility.yul\":10133:10156   */\n      swap2\n      pop\n        /* \"#utility.yul\":9895:10162   */\n      pop\n      swap3\n      swap2\n      pop\n      pop\n      jump\t// out\n        /* \"#utility.yul\":10192:11037   */\n    tag_334:\n      0x00\n        /* \"#utility.yul\":10332:10337   */\n      dup2\n        /* \"#utility.yul\":10326:10338   */\n      sload\n        /* \"#utility.yul\":10361:10397   */\n      tag_336\n        /* \"#utility.yul\":10387:10396   */\n      dup2\n        /* \"#utility.yul\":10361:10397   */\n      tag_81\n      jump\t// in\n    tag_336:\n        /* \"#utility.yul\":10413:10502   */\n      tag_337\n        /* \"#utility.yul\":10495:10501   */\n      dup2\n        /* \"#utility.yul\":10490:10493   */\n      dup7\n        /* \"#utility.yul\":10413:10502   */\n      tag_332\n      jump\t// in\n    tag_337:\n        /* \"#utility.yul\":10406:10502   */\n      swap5\n      pop\n        /* \"#utility.yul\":10533:10534   */\n      0x01\n        /* \"#utility.yul\":10522:10531   */\n      dup3\n        /* \"#utility.yul\":10518:10535   */\n      and\n        /* \"#utility.yul\":10549:10550   */\n      0x00\n        /* \"#utility.yul\":10544:10681   */\n      dup2\n      eq\n      tag_339\n      jumpi\n        /* \"#utility.yul\":10695:10696   */\n      0x01\n        /* \"#utility.yul\":10690:11031   */\n      dup2\n      eq\n      tag_340\n      jumpi\n        /* \"#utility.yul\":10511:11031   */\n      jump(tag_338)\n        /* \"#utility.yul\":10544:10681   */\n    tag_339:\n        /* \"#utility.yul\":10628:10632   */\n      0xff\n        /* \"#utility.yul\":10624:10633   */\n      not\n        /* \"#utility.yul\":10613:10622   */\n      dup4\n        /* \"#utility.yul\":10609:10634   */\n      and\n        /* \"#utility.yul\":10604:10607   */\n      dup7\n        /* \"#utility.yul\":10597:10635   */\n      mstore\n        /* \"#utility.yul\":10664:10670   */\n      dup2\n        /* \"#utility.yul\":10659:10662   */\n      dup7\n        /* \"#utility.yul\":10655:10671   */\n      add\n        /* \"#utility.yul\":10648:10671   */\n      swap4\n      pop\n        /* \"#utility.yul\":10544:10681   */\n      jump(tag_338)\n        /* \"#utility.yul\":10690:11031   */\n    tag_340:\n        /* \"#utility.yul\":10757:10795   */\n      tag_341\n        /* \"#utility.yul\":10789:10794   */\n      dup6\n        /* \"#utility.yul\":10757:10795   */\n      tag_342\n      jump\t// in\n    tag_341:\n        /* \"#utility.yul\":10817:10818   */\n      0x00\n        /* \"#utility.yul\":10831:10985   */\n    tag_343:\n        /* \"#utility.yul\":10845:10851   */\n      dup4\n        /* \"#utility.yul\":10842:10843   */\n      dup2\n        /* \"#utility.yul\":10839:10852   */\n      lt\n        /* \"#utility.yul\":10831:10985   */\n      iszero\n      tag_345\n      jumpi\n        /* \"#utility.yul\":10919:10926   */\n      dup2\n        /* \"#utility.yul\":10913:10927   */\n      sload\n        /* \"#utility.yul\":10909:10910   */\n      dup2\n        /* \"#utility.yul\":10904:10907   */\n      dup10\n        /* \"#utility.yul\":10900:10911   */\n      add\n        /* \"#utility.yul\":10893:10928   */\n      mstore\n        /* \"#utility.yul\":10969:10970   */\n      0x01\n        /* \"#utility.yul\":10960:10967   */\n      dup3\n        /* \"#utility.yul\":10956:10971   */\n      add\n        /* \"#utility.yul\":10945:10971   */\n      swap2\n      pop\n        /* \"#utility.yul\":10867:10871   */\n      0x20\n        /* \"#utility.yul\":10864:10865   */\n      dup2\n        /* \"#utility.yul\":10860:10872   */\n      add\n        /* \"#utility.yul\":10855:10872   */\n      swap1\n      pop\n        /* \"#utility.yul\":10831:10985   */\n      jump(tag_343)\n    tag_345:\n        /* \"#utility.yul\":11014:11020   */\n      dup4\n        /* \"#utility.yul\":11009:11012   */\n      dup9\n        /* \"#utility.yul\":11005:11021   */\n      add\n        /* \"#utility.yul\":10998:11021   */\n      swap6\n      pop\n        /* \"#utility.yul\":10697:11031   */\n      pop\n      pop\n        /* \"#utility.yul\":10511:11031   */\n    tag_338:\n      pop\n        /* \"#utility.yul\":10299:11037   */\n      pop\n      pop\n      swap3\n      swap2\n      pop\n      pop\n      jump\t// out\n        /* \"#utility.yul\":11043:11364   */\n    tag_346:\n      0x00\n        /* \"#utility.yul\":11206:11273   */\n      tag_348\n        /* \"#utility.yul\":11270:11272   */\n      0x17\n        /* \"#utility.yul\":11265:11268   */\n      dup4\n        /* \"#utility.yul\":11206:11273   */\n      tag_325\n      jump\t// in\n    tag_348:\n        /* \"#utility.yul\":11199:11273   */\n      swap2\n      pop\n        /* \"#utility.yul\":11303:11328   */\n      0x496a617a6168207375646168207465726461667461722e000000000000000000\n        /* \"#utility.yul\":11299:11300   */\n      0x00\n        /* \"#utility.yul\":11294:11297   */\n      dup4\n        /* \"#utility.yul\":11290:11301   */\n      add\n        /* \"#utility.yul\":11283:11329   */\n      mstore\n        /* \"#utility.yul\":11355:11357   */\n      0x20\n        /* \"#utility.yul\":11350:11353   */\n      dup3\n        /* \"#utility.yul\":11346:11358   */\n      add\n        /* \"#utility.yul\":11339:11358   */\n      swap1\n      pop\n        /* \"#utility.yul\":11189:11364   */\n      swap2\n      swap1\n      pop\n      jump\t// out\n        /* \"#utility.yul\":11370:11740   */\n    tag_349:\n      0x00\n        /* \"#utility.yul\":11533:11600   */\n      tag_351\n        /* \"#utility.yul\":11597:11599   */\n      0x26\n        /* \"#utility.yul\":11592:11595   */\n      dup4\n        /* \"#utility.yul\":11533:11600   */\n      tag_325\n      jump\t// in\n    tag_351:\n        /* \"#utility.yul\":11526:11600   */\n      swap2\n      pop\n        /* \"#utility.yul\":11630:11664   */\n      0x48616e79612070656d696c696b2079616e672062697361206d656c616b756b61\n        /* \"#utility.yul\":11626:11627   */\n      0x00\n        /* \"#utility.yul\":11621:11624   */\n      dup4\n        /* \"#utility.yul\":11617:11628   */\n      add\n        /* \"#utility.yul\":11610:11665   */\n      mstore\n        /* \"#utility.yul\":11696:11704   */\n      0x6e20696e692e0000000000000000000000000000000000000000000000000000\n        /* \"#utility.yul\":11691:11693   */\n      0x20\n        /* \"#utility.yul\":11686:11689   */\n      dup4\n        /* \"#utility.yul\":11682:11694   */\n      add\n        /* \"#utility.yul\":11675:11705   */\n      mstore\n        /* \"#utility.yul\":11731:11733   */\n      0x40\n        /* \"#utility.yul\":11726:11729   */\n      dup3\n        /* \"#utility.yul\":11722:11734   */\n      add\n        /* \"#utility.yul\":11715:11734   */\n      swap1\n      pop\n        /* \"#utility.yul\":11516:11740   */\n      swap2\n      swap1\n      pop\n      jump\t// out\n        /* \"#utility.yul\":11746:12067   */\n    tag_352:\n      0x00\n        /* \"#utility.yul\":11909:11976   */\n      tag_354\n        /* \"#utility.yul\":11973:11975   */\n      0x17\n        /* \"#utility.yul\":11968:11971   */\n      dup4\n        /* \"#utility.yul\":11909:11976   */\n      tag_325\n      jump\t// in\n    tag_354:\n        /* \"#utility.yul\":11902:11976   */\n      swap2\n      pop\n        /* \"#utility.yul\":12006:12031   */\n      0x496a617a616820746964616b20646974656d756b616e2e000000000000000000\n        /* \"#utility.yul\":12002:12003   */\n      0x00\n        /* \"#utility.yul\":11997:12000   */\n      dup4\n        /* \"#utility.yul\":11993:12004   */\n      add\n        /* \"#utility.yul\":11986:12032   */\n      mstore\n        /* \"#utility.yul\":12058:12060   */\n      0x20\n        /* \"#utility.yul\":12053:12056   */\n      dup3\n        /* \"#utility.yul\":12049:12061   */\n      add\n        /* \"#utility.yul\":12042:12061   */\n      swap1\n      pop\n        /* \"#utility.yul\":11892:12067   */\n      swap2\n      swap1\n      pop\n      jump\t// out\n        /* \"#utility.yul\":12073:12448   */\n    tag_355:\n      0x00\n        /* \"#utility.yul\":12236:12303   */\n      tag_357\n        /* \"#utility.yul\":12300:12302   */\n      0x2b\n        /* \"#utility.yul\":12295:12298   */\n      dup4\n        /* \"#utility.yul\":12236:12303   */\n      tag_325\n      jump\t// in\n    tag_357:\n        /* \"#utility.yul\":12229:12303   */\n      swap2\n      pop\n        /* \"#utility.yul\":12333:12367   */\n      0x4a756d6c6168206d6174612070656c616a6172616e2064616e206e696c616920\n        /* \"#utility.yul\":12329:12330   */\n      0x00\n        /* \"#utility.yul\":12324:12327   */\n      dup4\n        /* \"#utility.yul\":12320:12331   */\n      add\n        /* \"#utility.yul\":12313:12368   */\n      mstore\n        /* \"#utility.yul\":12399:12412   */\n      0x68617275732073616d612e000000000000000000000000000000000000000000\n        /* \"#utility.yul\":12394:12396   */\n      0x20\n        /* \"#utility.yul\":12389:12392   */\n      dup4\n        /* \"#utility.yul\":12385:12397   */\n      add\n        /* \"#utility.yul\":12378:12413   */\n      mstore\n        /* \"#utility.yul\":12439:12441   */\n      0x40\n        /* \"#utility.yul\":12434:12437   */\n      dup3\n        /* \"#utility.yul\":12430:12442   */\n      add\n        /* \"#utility.yul\":12423:12442   */\n      swap1\n      pop\n        /* \"#utility.yul\":12219:12448   */\n      swap2\n      swap1\n      pop\n      jump\t// out\n        /* \"#utility.yul\":12454:12572   */\n    tag_358:\n        /* \"#utility.yul\":12541:12565   */\n      tag_360\n        /* \"#utility.yul\":12559:12564   */\n      dup2\n        /* \"#utility.yul\":12541:12565   */\n      tag_361\n      jump\t// in\n    tag_360:\n        /* \"#utility.yul\":12536:12539   */\n      dup3\n        /* \"#utility.yul\":12529:12566   */\n      mstore\n        /* \"#utility.yul\":12519:12572   */\n      pop\n      pop\n      jump\t// out\n        /* \"#utility.yul\":12578:12680   */\n    tag_255:\n        /* \"#utility.yul\":12651:12673   */\n      tag_363\n        /* \"#utility.yul\":12667:12672   */\n      dup2\n        /* \"#utility.yul\":12651:12673   */\n      tag_364\n      jump\t// in\n    tag_363:\n        /* \"#utility.yul\":12646:12649   */\n      dup3\n        /* \"#utility.yul\":12639:12674   */\n      mstore\n        /* \"#utility.yul\":12629:12680   */\n      pop\n      pop\n      jump\t// out\n        /* \"#utility.yul\":12686:12961   */\n    tag_127:\n      0x00\n        /* \"#utility.yul\":12840:12935   */\n      tag_366\n        /* \"#utility.yul\":12931:12934   */\n      dup3\n        /* \"#utility.yul\":12922:12928   */\n      dup5\n        /* \"#utility.yul\":12840:12935   */\n      tag_328\n      jump\t// in\n    tag_366:\n        /* \"#utility.yul\":12833:12935   */\n      swap2\n      pop\n        /* \"#utility.yul\":12952:12955   */\n      dup2\n        /* \"#utility.yul\":12945:12955   */\n      swap1\n      pop\n        /* \"#utility.yul\":12822:12961   */\n      swap3\n      swap2\n      pop\n      pop\n      jump\t// out\n        /* \"#utility.yul\":12967:13236   */\n    tag_129:\n      0x00\n        /* \"#utility.yul\":13118:13210   */\n      tag_368\n        /* \"#utility.yul\":13206:13209   */\n      dup3\n        /* \"#utility.yul\":13197:13203   */\n      dup5\n        /* \"#utility.yul\":13118:13210   */\n      tag_334\n      jump\t// in\n    tag_368:\n        /* \"#utility.yul\":13111:13210   */\n      swap2\n      pop\n        /* \"#utility.yul\":13227:13230   */\n      dup2\n        /* \"#utility.yul\":13220:13230   */\n      swap1\n      pop\n        /* \"#utility.yul\":13100:13236   */\n      swap3\n      swap2\n      pop\n      pop\n      jump\t// out\n        /* \"#utility.yul\":13242:13464   */\n    tag_18:\n      0x00\n        /* \"#utility.yul\":13373:13375   */\n      0x20\n        /* \"#utility.yul\":13362:13371   */\n      dup3\n        /* \"#utility.yul\":13358:13376   */\n      add\n        /* \"#utility.yul\":13350:13376   */\n      swap1\n      pop\n        /* \"#utility.yul\":13386:13457   */\n      tag_370\n        /* \"#utility.yul\":13454:13455   */\n      0x00\n        /* \"#utility.yul\":13443:13452   */\n      dup4\n        /* \"#utility.yul\":13439:13456   */\n      add\n        /* \"#utility.yul\":13430:13436   */\n      dup5\n        /* \"#utility.yul\":13386:13457   */\n      tag_256\n      jump\t// in\n    tag_370:\n        /* \"#utility.yul\":13340:13464   */\n      swap3\n      swap2\n      pop\n      pop\n      jump\t// out\n        /* \"#utility.yul\":13470:13843   */\n    tag_42:\n      0x00\n        /* \"#utility.yul\":13651:13653   */\n      0x20\n        /* \"#utility.yul\":13640:13649   */\n      dup3\n        /* \"#utility.yul\":13636:13654   */\n      add\n        /* \"#utility.yul\":13628:13654   */\n      swap1\n      pop\n        /* \"#utility.yul\":13700:13709   */\n      dup2\n        /* \"#utility.yul\":13694:13698   */\n      dup2\n        /* \"#utility.yul\":13690:13710   */\n      sub\n        /* \"#utility.yul\":13686:13687   */\n      0x00\n        /* \"#utility.yul\":13675:13684   */\n      dup4\n        /* \"#utility.yul\":13671:13688   */\n      add\n        /* \"#utility.yul\":13664:13711   */\n      mstore\n        /* \"#utility.yul\":13728:13836   */\n      tag_372\n        /* \"#utility.yul\":13831:13835   */\n      dup2\n        /* \"#utility.yul\":13822:13828   */\n      dup5\n        /* \"#utility.yul\":13728:13836   */\n      tag_260\n      jump\t// in\n    tag_372:\n        /* \"#utility.yul\":13720:13836   */\n      swap1\n      pop\n        /* \"#utility.yul\":13618:13843   */\n      swap3\n      swap2\n      pop\n      pop\n      jump\t// out\n        /* \"#utility.yul\":13849:14059   */\n    tag_38:\n      0x00\n        /* \"#utility.yul\":13974:13976   */\n      0x20\n        /* \"#utility.yul\":13963:13972   */\n      dup3\n        /* \"#utility.yul\":13959:13977   */\n      add\n        /* \"#utility.yul\":13951:13977   */\n      swap1\n      pop\n        /* \"#utility.yul\":13987:14052   */\n      tag_374\n        /* \"#utility.yul\":14049:14050   */\n      0x00\n        /* \"#utility.yul\":14038:14047   */\n      dup4\n        /* \"#utility.yul\":14034:14051   */\n      add\n        /* \"#utility.yul\":14025:14031   */\n      dup5\n        /* \"#utility.yul\":13987:14052   */\n      tag_302\n      jump\t// in\n    tag_374:\n        /* \"#utility.yul\":13941:14059   */\n      swap3\n      swap2\n      pop\n      pop\n      jump\t// out\n        /* \"#utility.yul\":14065:14800   */\n    tag_27:\n      0x00\n        /* \"#utility.yul\":14320:14323   */\n      0x80\n        /* \"#utility.yul\":14309:14318   */\n      dup3\n        /* \"#utility.yul\":14305:14324   */\n      add\n        /* \"#utility.yul\":14297:14324   */\n      swap1\n      pop\n        /* \"#utility.yul\":14334:14405   */\n      tag_376\n        /* \"#utility.yul\":14402:14403   */\n      0x00\n        /* \"#utility.yul\":14391:14400   */\n      dup4\n        /* \"#utility.yul\":14387:14404   */\n      add\n        /* \"#utility.yul\":14378:14384   */\n      dup8\n        /* \"#utility.yul\":14334:14405   */\n      tag_309\n      jump\t// in\n    tag_376:\n        /* \"#utility.yul\":14452:14461   */\n      dup2\n        /* \"#utility.yul\":14446:14450   */\n      dup2\n        /* \"#utility.yul\":14442:14462   */\n      sub\n        /* \"#utility.yul\":14437:14439   */\n      0x20\n        /* \"#utility.yul\":14426:14435   */\n      dup4\n        /* \"#utility.yul\":14422:14440   */\n      add\n        /* \"#utility.yul\":14415:14463   */\n      mstore\n        /* \"#utility.yul\":14480:14558   */\n      tag_377\n        /* \"#utility.yul\":14553:14557   */\n      dup2\n        /* \"#utility.yul\":14544:14550   */\n      dup7\n        /* \"#utility.yul\":14480:14558   */\n      tag_321\n      jump\t// in\n    tag_377:\n        /* \"#utility.yul\":14472:14558   */\n      swap1\n      pop\n        /* \"#utility.yul\":14568:14640   */\n      tag_378\n        /* \"#utility.yul\":14636:14638   */\n      0x40\n        /* \"#utility.yul\":14625:14634   */\n      dup4\n        /* \"#utility.yul\":14621:14639   */\n      add\n        /* \"#utility.yul\":14612:14618   */\n      dup6\n        /* \"#utility.yul\":14568:14640   */\n      tag_358\n      jump\t// in\n    tag_378:\n        /* \"#utility.yul\":14687:14696   */\n      dup2\n        /* \"#utility.yul\":14681:14685   */\n      dup2\n        /* \"#utility.yul\":14677:14697   */\n      sub\n        /* \"#utility.yul\":14672:14674   */\n      0x60\n        /* \"#utility.yul\":14661:14670   */\n      dup4\n        /* \"#utility.yul\":14657:14675   */\n      add\n        /* \"#utility.yul\":14650:14698   */\n      mstore\n        /* \"#utility.yul\":14715:14793   */\n      tag_379\n        /* \"#utility.yul\":14788:14792   */\n      dup2\n        /* \"#utility.yul\":14779:14785   */\n      dup5\n        /* \"#utility.yul\":14715:14793   */\n      tag_321\n      jump\t// in\n    tag_379:\n        /* \"#utility.yul\":14707:14793   */\n      swap1\n      pop\n        /* \"#utility.yul\":14287:14800   */\n      swap6\n      swap5\n      pop\n      pop\n      pop\n      pop\n      pop\n      jump\t// out\n        /* \"#utility.yul\":14806:15430   */\n    tag_64:\n      0x00\n        /* \"#utility.yul\":15033:15035   */\n      0x60\n        /* \"#utility.yul\":15022:15031   */\n      dup3\n        /* \"#utility.yul\":15018:15036   */\n      add\n        /* \"#utility.yul\":15010:15036   */\n      swap1\n      pop\n        /* \"#utility.yul\":15082:15091   */\n      dup2\n        /* \"#utility.yul\":15076:15080   */\n      dup2\n        /* \"#utility.yul\":15072:15092   */\n      sub\n        /* \"#utility.yul\":15068:15069   */\n      0x00\n        /* \"#utility.yul\":15057:15066   */\n      dup4\n        /* \"#utility.yul\":15053:15070   */\n      add\n        /* \"#utility.yul\":15046:15093   */\n      mstore\n        /* \"#utility.yul\":15110:15188   */\n      tag_381\n        /* \"#utility.yul\":15183:15187   */\n      dup2\n        /* \"#utility.yul\":15174:15180   */\n      dup7\n        /* \"#utility.yul\":15110:15188   */\n      tag_321\n      jump\t// in\n    tag_381:\n        /* \"#utility.yul\":15102:15188   */\n      swap1\n      pop\n        /* \"#utility.yul\":15198:15270   */\n      tag_382\n        /* \"#utility.yul\":15266:15268   */\n      0x20\n        /* \"#utility.yul\":15255:15264   */\n      dup4\n        /* \"#utility.yul\":15251:15269   */\n      add\n        /* \"#utility.yul\":15242:15248   */\n      dup6\n        /* \"#utility.yul\":15198:15270   */\n      tag_358\n      jump\t// in\n    tag_382:\n        /* \"#utility.yul\":15317:15326   */\n      dup2\n        /* \"#utility.yul\":15311:15315   */\n      dup2\n        /* \"#utility.yul\":15307:15327   */\n      sub\n        /* \"#utility.yul\":15302:15304   */\n      0x40\n        /* \"#utility.yul\":15291:15300   */\n      dup4\n        /* \"#utility.yul\":15287:15305   */\n      add\n        /* \"#utility.yul\":15280:15328   */\n      mstore\n        /* \"#utility.yul\":15345:15423   */\n      tag_383\n        /* \"#utility.yul\":15418:15422   */\n      dup2\n        /* \"#utility.yul\":15409:15415   */\n      dup5\n        /* \"#utility.yul\":15345:15423   */\n      tag_321\n      jump\t// in\n    tag_383:\n        /* \"#utility.yul\":15337:15423   */\n      swap1\n      pop\n        /* \"#utility.yul\":15000:15430   */\n      swap5\n      swap4\n      pop\n      pop\n      pop\n      pop\n      jump\t// out\n        /* \"#utility.yul\":15436:16616   */\n    tag_32:\n      0x00\n        /* \"#utility.yul\":15835:15838   */\n      0xa0\n        /* \"#utility.yul\":15824:15833   */\n      dup3\n        /* \"#utility.yul\":15820:15839   */\n      add\n        /* \"#utility.yul\":15812:15839   */\n      swap1\n      pop\n        /* \"#utility.yul\":15885:15894   */\n      dup2\n        /* \"#utility.yul\":15879:15883   */\n      dup2\n        /* \"#utility.yul\":15875:15895   */\n      sub\n        /* \"#utility.yul\":15871:15872   */\n      0x00\n        /* \"#utility.yul\":15860:15869   */\n      dup4\n        /* \"#utility.yul\":15856:15873   */\n      add\n        /* \"#utility.yul\":15849:15896   */\n      mstore\n        /* \"#utility.yul\":15913:15991   */\n      tag_385\n        /* \"#utility.yul\":15986:15990   */\n      dup2\n        /* \"#utility.yul\":15977:15983   */\n      dup9\n        /* \"#utility.yul\":15913:15991   */\n      tag_321\n      jump\t// in\n    tag_385:\n        /* \"#utility.yul\":15905:15991   */\n      swap1\n      pop\n        /* \"#utility.yul\":16001:16073   */\n      tag_386\n        /* \"#utility.yul\":16069:16071   */\n      0x20\n        /* \"#utility.yul\":16058:16067   */\n      dup4\n        /* \"#utility.yul\":16054:16072   */\n      add\n        /* \"#utility.yul\":16045:16051   */\n      dup8\n        /* \"#utility.yul\":16001:16073   */\n      tag_358\n      jump\t// in\n    tag_386:\n        /* \"#utility.yul\":16120:16129   */\n      dup2\n        /* \"#utility.yul\":16114:16118   */\n      dup2\n        /* \"#utility.yul\":16110:16130   */\n      sub\n        /* \"#utility.yul\":16105:16107   */\n      0x40\n        /* \"#utility.yul\":16094:16103   */\n      dup4\n        /* \"#utility.yul\":16090:16108   */\n      add\n        /* \"#utility.yul\":16083:16131   */\n      mstore\n        /* \"#utility.yul\":16148:16226   */\n      tag_387\n        /* \"#utility.yul\":16221:16225   */\n      dup2\n        /* \"#utility.yul\":16212:16218   */\n      dup7\n        /* \"#utility.yul\":16148:16226   */\n      tag_321\n      jump\t// in\n    tag_387:\n        /* \"#utility.yul\":16140:16226   */\n      swap1\n      pop\n        /* \"#utility.yul\":16273:16282   */\n      dup2\n        /* \"#utility.yul\":16267:16271   */\n      dup2\n        /* \"#utility.yul\":16263:16283   */\n      sub\n        /* \"#utility.yul\":16258:16260   */\n      0x60\n        /* \"#utility.yul\":16247:16256   */\n      dup4\n        /* \"#utility.yul\":16243:16261   */\n      add\n        /* \"#utility.yul\":16236:16284   */\n      mstore\n        /* \"#utility.yul\":16301:16429   */\n      tag_388\n        /* \"#utility.yul\":16424:16428   */\n      dup2\n        /* \"#utility.yul\":16415:16421   */\n      dup6\n        /* \"#utility.yul\":16301:16429   */\n      tag_274\n      jump\t// in\n    tag_388:\n        /* \"#utility.yul\":16293:16429   */\n      swap1\n      pop\n        /* \"#utility.yul\":16477:16486   */\n      dup2\n        /* \"#utility.yul\":16471:16475   */\n      dup2\n        /* \"#utility.yul\":16467:16487   */\n      sub\n        /* \"#utility.yul\":16461:16464   */\n      0x80\n        /* \"#utility.yul\":16450:16459   */\n      dup4\n        /* \"#utility.yul\":16446:16465   */\n      add\n        /* \"#utility.yul\":16439:16488   */\n      mstore\n        /* \"#utility.yul\":16505:16609   */\n      tag_389\n        /* \"#utility.yul\":16604:16608   */\n      dup2\n        /* \"#utility.yul\":16595:16601   */\n      dup5\n        /* \"#utility.yul\":16505:16609   */\n      tag_288\n      jump\t// in\n    tag_389:\n        /* \"#utility.yul\":16497:16609   */\n      swap1\n      pop\n        /* \"#utility.yul\":15802:16616   */\n      swap7\n      swap6\n      pop\n      pop\n      pop\n      pop\n      pop\n      pop\n      jump\t// out\n        /* \"#utility.yul\":16622:17041   */\n    tag_46:\n      0x00\n        /* \"#utility.yul\":16826:16828   */\n      0x20\n        /* \"#utility.yul\":16815:16824   */\n      dup3\n        /* \"#utility.yul\":16811:16829   */\n      add\n        /* \"#utility.yul\":16803:16829   */\n      swap1\n      pop\n        /* \"#utility.yul\":16875:16884   */\n      dup2\n        /* \"#utility.yul\":16869:16873   */\n      dup2\n        /* \"#utility.yul\":16865:16885   */\n      sub\n        /* \"#utility.yul\":16861:16862   */\n      0x00\n        /* \"#utility.yul\":16850:16859   */\n      dup4\n        /* \"#utility.yul\":16846:16863   */\n      add\n        /* \"#utility.yul\":16839:16886   */\n      mstore\n        /* \"#utility.yul\":16903:17034   */\n      tag_391\n        /* \"#utility.yul\":17029:17033   */\n      dup2\n        /* \"#utility.yul\":16903:17034   */\n      tag_346\n      jump\t// in\n    tag_391:\n        /* \"#utility.yul\":16895:17034   */\n      swap1\n      pop\n        /* \"#utility.yul\":16793:17041   */\n      swap2\n      swap1\n      pop\n      jump\t// out\n        /* \"#utility.yul\":17047:17466   */\n    tag_68:\n      0x00\n        /* \"#utility.yul\":17251:17253   */\n      0x20\n        /* \"#utility.yul\":17240:17249   */\n      dup3\n        /* \"#utility.yul\":17236:17254   */\n      add\n        /* \"#utility.yul\":17228:17254   */\n      swap1\n      pop\n        /* \"#utility.yul\":17300:17309   */\n      dup2\n        /* \"#utility.yul\":17294:17298   */\n      dup2\n        /* \"#utility.yul\":17290:17310   */\n      sub\n        /* \"#utility.yul\":17286:17287   */\n      0x00\n        /* \"#utility.yul\":17275:17284   */\n      dup4\n        /* \"#utility.yul\":17271:17288   */\n      add\n        /* \"#utility.yul\":17264:17311   */\n      mstore\n        /* \"#utility.yul\":17328:17459   */\n      tag_393\n        /* \"#utility.yul\":17454:17458   */\n      dup2\n        /* \"#utility.yul\":17328:17459   */\n      tag_349\n      jump\t// in\n    tag_393:\n        /* \"#utility.yul\":17320:17459   */\n      swap1\n      pop\n        /* \"#utility.yul\":17218:17466   */\n      swap2\n      swap1\n      pop\n      jump\t// out\n        /* \"#utility.yul\":17472:17891   */\n    tag_72:\n      0x00\n        /* \"#utility.yul\":17676:17678   */\n      0x20\n        /* \"#utility.yul\":17665:17674   */\n      dup3\n        /* \"#utility.yul\":17661:17679   */\n      add\n        /* \"#utility.yul\":17653:17679   */\n      swap1\n      pop\n        /* \"#utility.yul\":17725:17734   */\n      dup2\n        /* \"#utility.yul\":17719:17723   */\n      dup2\n        /* \"#utility.yul\":17715:17735   */\n      sub\n        /* \"#utility.yul\":17711:17712   */\n      0x00\n        /* \"#utility.yul\":17700:17709   */\n      dup4\n        /* \"#utility.yul\":17696:17713   */\n      add\n        /* \"#utility.yul\":17689:17736   */\n      mstore\n        /* \"#utility.yul\":17753:17884   */\n      tag_395\n        /* \"#utility.yul\":17879:17883   */\n      dup2\n        /* \"#utility.yul\":17753:17884   */\n      tag_352\n      jump\t// in\n    tag_395:\n        /* \"#utility.yul\":17745:17884   */\n      swap1\n      pop\n        /* \"#utility.yul\":17643:17891   */\n      swap2\n      swap1\n      pop\n      jump\t// out\n        /* \"#utility.yul\":17897:18316   */\n    tag_49:\n      0x00\n        /* \"#utility.yul\":18101:18103   */\n      0x20\n        /* \"#utility.yul\":18090:18099   */\n      dup3\n        /* \"#utility.yul\":18086:18104   */\n      add\n        /* \"#utility.yul\":18078:18104   */\n      swap1\n      pop\n        /* \"#utility.yul\":18150:18159   */\n      dup2\n        /* \"#utility.yul\":18144:18148   */\n      dup2\n        /* \"#utility.yul\":18140:18160   */\n      sub\n        /* \"#utility.yul\":18136:18137   */\n      0x00\n        /* \"#utility.yul\":18125:18134   */\n      dup4\n        /* \"#utility.yul\":18121:18138   */\n      add\n        /* \"#utility.yul\":18114:18161   */\n      mstore\n        /* \"#utility.yul\":18178:18309   */\n      tag_397\n        /* \"#utility.yul\":18304:18308   */\n      dup2\n        /* \"#utility.yul\":18178:18309   */\n      tag_355\n      jump\t// in\n    tag_397:\n        /* \"#utility.yul\":18170:18309   */\n      swap1\n      pop\n        /* \"#utility.yul\":18068:18316   */\n      swap2\n      swap1\n      pop\n      jump\t// out\n        /* \"#utility.yul\":18322:18605   */\n    tag_176:\n      0x00\n        /* \"#utility.yul\":18388:18390   */\n      0x40\n        /* \"#utility.yul\":18382:18391   */\n      mload\n        /* \"#utility.yul\":18372:18391   */\n      swap1\n      pop\n        /* \"#utility.yul\":18430:18434   */\n      dup2\n        /* \"#utility.yul\":18422:18428   */\n      dup2\n        /* \"#utility.yul\":18418:18435   */\n      add\n        /* \"#utility.yul\":18537:18543   */\n      dup2\n        /* \"#utility.yul\":18525:18535   */\n      dup2\n        /* \"#utility.yul\":18522:18544   */\n      lt\n        /* \"#utility.yul\":18501:18519   */\n      0xffffffffffffffff\n        /* \"#utility.yul\":18489:18499   */\n      dup3\n        /* \"#utility.yul\":18486:18520   */\n      gt\n        /* \"#utility.yul\":18483:18545   */\n      or\n        /* \"#utility.yul\":18480:18482   */\n      iszero\n      tag_399\n      jumpi\n        /* \"#utility.yul\":18548:18566   */\n      tag_400\n      tag_401\n      jump\t// in\n    tag_400:\n        /* \"#utility.yul\":18480:18482   */\n    tag_399:\n        /* \"#utility.yul\":18588:18598   */\n      dup1\n        /* \"#utility.yul\":18584:18586   */\n      0x40\n        /* \"#utility.yul\":18577:18599   */\n      mstore\n        /* \"#utility.yul\":18362:18605   */\n      pop\n      swap2\n      swap1\n      pop\n      jump\t// out\n        /* \"#utility.yul\":18611:18932   */\n    tag_175:\n      0x00\n        /* \"#utility.yul\":18788:18806   */\n      0xffffffffffffffff\n        /* \"#utility.yul\":18780:18786   */\n      dup3\n        /* \"#utility.yul\":18777:18807   */\n      gt\n        /* \"#utility.yul\":18774:18776   */\n      iszero\n      tag_403\n      jumpi\n        /* \"#utility.yul\":18810:18828   */\n      tag_404\n      tag_401\n      jump\t// in\n    tag_404:\n        /* \"#utility.yul\":18774:18776   */\n    tag_403:\n        /* \"#utility.yul\":18860:18864   */\n      0x20\n        /* \"#utility.yul\":18852:18858   */\n      dup3\n        /* \"#utility.yul\":18848:18865   */\n      mul\n        /* \"#utility.yul\":18840:18865   */\n      swap1\n      pop\n        /* \"#utility.yul\":18920:18924   */\n      0x20\n        /* \"#utility.yul\":18914:18918   */\n      dup2\n        /* \"#utility.yul\":18910:18925   */\n      add\n        /* \"#utility.yul\":18902:18925   */\n      swap1\n      pop\n        /* \"#utility.yul\":18703:18932   */\n      swap2\n      swap1\n      pop\n      jump\t// out\n        /* \"#utility.yul\":18938:19247   */\n    tag_186:\n      0x00\n        /* \"#utility.yul\":19103:19121   */\n      0xffffffffffffffff\n        /* \"#utility.yul\":19095:19101   */\n      dup3\n        /* \"#utility.yul\":19092:19122   */\n      gt\n        /* \"#utility.yul\":19089:19091   */\n      iszero\n      tag_406\n      jumpi\n        /* \"#utility.yul\":19125:19143   */\n      tag_407\n      tag_401\n      jump\t// in\n    tag_407:\n        /* \"#utility.yul\":19089:19091   */\n    tag_406:\n        /* \"#utility.yul\":19175:19179   */\n      0x20\n        /* \"#utility.yul\":19167:19173   */\n      dup3\n        /* \"#utility.yul\":19163:19180   */\n      mul\n        /* \"#utility.yul\":19155:19180   */\n      swap1\n      pop\n        /* \"#utility.yul\":19235:19239   */\n      0x20\n        /* \"#utility.yul\":19229:19233   */\n      dup2\n        /* \"#utility.yul\":19225:19240   */\n      add\n        /* \"#utility.yul\":19217:19240   */\n      swap1\n      pop\n        /* \"#utility.yul\":19018:19247   */\n      swap2\n      swap1\n      pop\n      jump\t// out\n        /* \"#utility.yul\":19253:19585   */\n    tag_197:\n      0x00\n        /* \"#utility.yul\":19405:19423   */\n      0xffffffffffffffff\n        /* \"#utility.yul\":19397:19403   */\n      dup3\n        /* \"#utility.yul\":19394:19424   */\n      gt\n        /* \"#utility.yul\":19391:19393   */\n      iszero\n      tag_409\n      jumpi\n        /* \"#utility.yul\":19427:19445   */\n      tag_410\n      tag_401\n      jump\t// in\n    tag_410:\n        /* \"#utility.yul\":19391:19393   */\n    tag_409:\n        /* \"#utility.yul\":19512:19516   */\n      0x1f\n        /* \"#utility.yul\":19508:19517   */\n      not\n        /* \"#utility.yul\":19501:19505   */\n      0x1f\n        /* \"#utility.yul\":19493:19499   */\n      dup4\n        /* \"#utility.yul\":19489:19506   */\n      add\n        /* \"#utility.yul\":19485:19518   */\n      and\n        /* \"#utility.yul\":19477:19518   */\n      swap1\n      pop\n        /* \"#utility.yul\":19573:19577   */\n      0x20\n        /* \"#utility.yul\":19567:19571   */\n      dup2\n        /* \"#utility.yul\":19563:19578   */\n      add\n        /* \"#utility.yul\":19555:19578   */\n      swap1\n      pop\n        /* \"#utility.yul\":19320:19585   */\n      swap2\n      swap1\n      pop\n      jump\t// out\n        /* \"#utility.yul\":19591:19723   */\n    tag_267:\n      0x00\n        /* \"#utility.yul\":19681:19684   */\n      dup2\n        /* \"#utility.yul\":19673:19684   */\n      swap1\n      pop\n        /* \"#utility.yul\":19711:19715   */\n      0x20\n        /* \"#utility.yul\":19706:19709   */\n      dup3\n        /* \"#utility.yul\":19702:19716   */\n      add\n        /* \"#utility.yul\":19694:19716   */\n      swap1\n      pop\n        /* \"#utility.yul\":19663:19723   */\n      swap2\n      swap1\n      pop\n      jump\t// out\n        /* \"#utility.yul\":19729:19871   */\n    tag_281:\n      0x00\n        /* \"#utility.yul\":19829:19832   */\n      dup2\n        /* \"#utility.yul\":19821:19832   */\n      swap1\n      pop\n        /* \"#utility.yul\":19859:19863   */\n      0x20\n        /* \"#utility.yul\":19854:19857   */\n      dup3\n        /* \"#utility.yul\":19850:19864   */\n      add\n        /* \"#utility.yul\":19842:19864   */\n      swap1\n      pop\n        /* \"#utility.yul\":19811:19871   */\n      swap2\n      swap1\n      pop\n      jump\t// out\n        /* \"#utility.yul\":19877:20007   */\n    tag_295:\n      0x00\n        /* \"#utility.yul\":19965:19968   */\n      dup2\n        /* \"#utility.yul\":19957:19968   */\n      swap1\n      pop\n        /* \"#utility.yul\":19995:19999   */\n      0x20\n        /* \"#utility.yul\":19990:19993   */\n      dup3\n        /* \"#utility.yul\":19986:20000   */\n      add\n        /* \"#utility.yul\":19978:20000   */\n      swap1\n      pop\n        /* \"#utility.yul\":19947:20007   */\n      swap2\n      swap1\n      pop\n      jump\t// out\n        /* \"#utility.yul\":20013:20154   */\n    tag_342:\n      0x00\n        /* \"#utility.yul\":20085:20088   */\n      dup2\n        /* \"#utility.yul\":20077:20088   */\n      swap1\n      pop\n        /* \"#utility.yul\":20108:20111   */\n      dup2\n        /* \"#utility.yul\":20105:20106   */\n      0x00\n        /* \"#utility.yul\":20098:20112   */\n      mstore\n        /* \"#utility.yul\":20142:20146   */\n      0x20\n        /* \"#utility.yul\":20139:20140   */\n      0x00\n        /* \"#utility.yul\":20129:20147   */\n      keccak256\n        /* \"#utility.yul\":20121:20147   */\n      swap1\n      pop\n        /* \"#utility.yul\":20067:20154   */\n      swap2\n      swap1\n      pop\n      jump\t// out\n        /* \"#utility.yul\":20160:20274   */\n    tag_263:\n      0x00\n        /* \"#utility.yul\":20261:20266   */\n      dup2\n        /* \"#utility.yul\":20255:20267   */\n      mload\n        /* \"#utility.yul\":20245:20267   */\n      swap1\n      pop\n        /* \"#utility.yul\":20234:20274   */\n      swap2\n      swap1\n      pop\n      jump\t// out\n        /* \"#utility.yul\":20280:20404   */\n    tag_277:\n      0x00\n        /* \"#utility.yul\":20391:20396   */\n      dup2\n        /* \"#utility.yul\":20385:20397   */\n      mload\n        /* \"#utility.yul\":20375:20397   */\n      swap1\n      pop\n        /* \"#utility.yul\":20364:20404   */\n      swap2\n      swap1\n      pop\n      jump\t// out\n        /* \"#utility.yul\":20410:20522   */\n    tag_291:\n      0x00\n        /* \"#utility.yul\":20509:20514   */\n      dup2\n        /* \"#utility.yul\":20503:20515   */\n      mload\n        /* \"#utility.yul\":20493:20515   */\n      swap1\n      pop\n        /* \"#utility.yul\":20482:20522   */\n      swap2\n      swap1\n      pop\n      jump\t// out\n        /* \"#utility.yul\":20528:20627   */\n    tag_314:\n      0x00\n        /* \"#utility.yul\":20614:20619   */\n      dup2\n        /* \"#utility.yul\":20608:20620   */\n      mload\n        /* \"#utility.yul\":20598:20620   */\n      swap1\n      pop\n        /* \"#utility.yul\":20587:20627   */\n      swap2\n      swap1\n      pop\n      jump\t// out\n        /* \"#utility.yul\":20633:20746   */\n    tag_273:\n      0x00\n        /* \"#utility.yul\":20735:20739   */\n      0x20\n        /* \"#utility.yul\":20730:20733   */\n      dup3\n        /* \"#utility.yul\":20726:20740   */\n      add\n        /* \"#utility.yul\":20718:20740   */\n      swap1\n      pop\n        /* \"#utility.yul\":20708:20746   */\n      swap2\n      swap1\n      pop\n      jump\t// out\n        /* \"#utility.yul\":20752:20875   */\n    tag_287:\n      0x00\n        /* \"#utility.yul\":20864:20868   */\n      0x20\n        /* \"#utility.yul\":20859:20862   */\n      dup3\n        /* \"#utility.yul\":20855:20869   */\n      add\n        /* \"#utility.yul\":20847:20869   */\n      swap1\n      pop\n        /* \"#utility.yul\":20837:20875   */\n      swap2\n      swap1\n      pop\n      jump\t// out\n        /* \"#utility.yul\":20881:20992   */\n    tag_301:\n      0x00\n        /* \"#utility.yul\":20981:20985   */\n      0x20\n        /* \"#utility.yul\":20976:20979   */\n      dup3\n        /* \"#utility.yul\":20972:20986   */\n      add\n        /* \"#utility.yul\":20964:20986   */\n      swap1\n      pop\n        /* \"#utility.yul\":20954:20992   */\n      swap2\n      swap1\n      pop\n      jump\t// out\n        /* \"#utility.yul\":20998:21182   */\n    tag_265:\n      0x00\n        /* \"#utility.yul\":21131:21137   */\n      dup3\n        /* \"#utility.yul\":21126:21129   */\n      dup3\n        /* \"#utility.yul\":21119:21138   */\n      mstore\n        /* \"#utility.yul\":21171:21175   */\n      0x20\n        /* \"#utility.yul\":21166:21169   */\n      dup3\n        /* \"#utility.yul\":21162:21176   */\n      add\n        /* \"#utility.yul\":21147:21176   */\n      swap1\n      pop\n        /* \"#utility.yul\":21109:21182   */\n      swap3\n      swap2\n      pop\n      pop\n      jump\t// out\n        /* \"#utility.yul\":21188:21382   */\n    tag_279:\n      0x00\n        /* \"#utility.yul\":21331:21337   */\n      dup3\n        /* \"#utility.yul\":21326:21329   */\n      dup3\n        /* \"#utility.yul\":21319:21338   */\n      mstore\n        /* \"#utility.yul\":21371:21375   */\n      0x20\n        /* \"#utility.yul\":21366:21369   */\n      dup3\n        /* \"#utility.yul\":21362:21376   */\n      add\n        /* \"#utility.yul\":21347:21376   */\n      swap1\n      pop\n        /* \"#utility.yul\":21309:21382   */\n      swap3\n      swap2\n      pop\n      pop\n      jump\t// out\n        /* \"#utility.yul\":21388:21570   */\n    tag_293:\n      0x00\n        /* \"#utility.yul\":21519:21525   */\n      dup3\n        /* \"#utility.yul\":21514:21517   */\n      dup3\n        /* \"#utility.yul\":21507:21526   */\n      mstore\n        /* \"#utility.yul\":21559:21563   */\n      0x20\n        /* \"#utility.yul\":21554:21557   */\n      dup3\n        /* \"#utility.yul\":21550:21564   */\n      add\n        /* \"#utility.yul\":21535:21564   */\n      swap1\n      pop\n        /* \"#utility.yul\":21497:21570   */\n      swap3\n      swap2\n      pop\n      pop\n      jump\t// out\n        /* \"#utility.yul\":21576:21735   */\n    tag_316:\n      0x00\n        /* \"#utility.yul\":21684:21690   */\n      dup3\n        /* \"#utility.yul\":21679:21682   */\n      dup3\n        /* \"#utility.yul\":21672:21691   */\n      mstore\n        /* \"#utility.yul\":21724:21728   */\n      0x20\n        /* \"#utility.yul\":21719:21722   */\n      dup3\n        /* \"#utility.yul\":21715:21729   */\n      add\n        /* \"#utility.yul\":21700:21729   */\n      swap1\n      pop\n        /* \"#utility.yul\":21662:21735   */\n      swap3\n      swap2\n      pop\n      pop\n      jump\t// out\n        /* \"#utility.yul\":21741:21910   */\n    tag_325:\n      0x00\n        /* \"#utility.yul\":21859:21865   */\n      dup3\n        /* \"#utility.yul\":21854:21857   */\n      dup3\n        /* \"#utility.yul\":21847:21866   */\n      mstore\n        /* \"#utility.yul\":21899:21903   */\n      0x20\n        /* \"#utility.yul\":21894:21897   */\n      dup3\n        /* \"#utility.yul\":21890:21904   */\n      add\n        /* \"#utility.yul\":21875:21904   */\n      swap1\n      pop\n        /* \"#utility.yul\":21837:21910   */\n      swap3\n      swap2\n      pop\n      pop\n      jump\t// out\n        /* \"#utility.yul\":21916:22064   */\n    tag_332:\n      0x00\n        /* \"#utility.yul\":22055:22058   */\n      dup2\n        /* \"#utility.yul\":22040:22058   */\n      swap1\n      pop\n        /* \"#utility.yul\":22030:22064   */\n      swap3\n      swap2\n      pop\n      pop\n      jump\t// out\n        /* \"#utility.yul\":22070:22261   */\n    tag_142:\n      0x00\n        /* \"#utility.yul\":22130:22150   */\n      tag_429\n        /* \"#utility.yul\":22148:22149   */\n      dup3\n        /* \"#utility.yul\":22130:22150   */\n      tag_361\n      jump\t// in\n    tag_429:\n        /* \"#utility.yul\":22125:22150   */\n      swap2\n      pop\n        /* \"#utility.yul\":22164:22184   */\n      tag_430\n        /* \"#utility.yul\":22182:22183   */\n      dup4\n        /* \"#utility.yul\":22164:22184   */\n      tag_361\n      jump\t// in\n    tag_430:\n        /* \"#utility.yul\":22159:22184   */\n      swap3\n      pop\n        /* \"#utility.yul\":22203:22204   */\n      dup3\n        /* \"#utility.yul\":22200:22201   */\n      dup3\n        /* \"#utility.yul\":22197:22205   */\n      lt\n        /* \"#utility.yul\":22194:22196   */\n      iszero\n      tag_431\n      jumpi\n        /* \"#utility.yul\":22208:22226   */\n      tag_432\n      tag_433\n      jump\t// in\n    tag_432:\n        /* \"#utility.yul\":22194:22196   */\n    tag_431:\n        /* \"#utility.yul\":22253:22254   */\n      dup3\n        /* \"#utility.yul\":22250:22251   */\n      dup3\n        /* \"#utility.yul\":22246:22255   */\n      sub\n        /* \"#utility.yul\":22238:22255   */\n      swap1\n      pop\n        /* \"#utility.yul\":22115:22261   */\n      swap3\n      swap2\n      pop\n      pop\n      jump\t// out\n        /* \"#utility.yul\":22267:22363   */\n    tag_259:\n      0x00\n        /* \"#utility.yul\":22333:22357   */\n      tag_435\n        /* \"#utility.yul\":22351:22356   */\n      dup3\n        /* \"#utility.yul\":22333:22357   */\n      tag_436\n      jump\t// in\n    tag_435:\n        /* \"#utility.yul\":22322:22357   */\n      swap1\n      pop\n        /* \"#utility.yul\":22312:22363   */\n      swap2\n      swap1\n      pop\n      jump\t// out\n        /* \"#utility.yul\":22369:22459   */\n    tag_305:\n      0x00\n        /* \"#utility.yul\":22446:22451   */\n      dup2\n        /* \"#utility.yul\":22439:22452   */\n      iszero\n        /* \"#utility.yul\":22432:22453   */\n      iszero\n        /* \"#utility.yul\":22421:22453   */\n      swap1\n      pop\n        /* \"#utility.yul\":22411:22459   */\n      swap2\n      swap1\n      pop\n      jump\t// out\n        /* \"#utility.yul\":22465:22542   */\n    tag_308:\n      0x00\n        /* \"#utility.yul\":22531:22536   */\n      dup2\n        /* \"#utility.yul\":22520:22536   */\n      swap1\n      pop\n        /* \"#utility.yul\":22510:22542   */\n      swap2\n      swap1\n      pop\n      jump\t// out\n        /* \"#utility.yul\":22548:22674   */\n    tag_436:\n      0x00\n        /* \"#utility.yul\":22625:22667   */\n      0xffffffffffffffffffffffffffffffffffffffff\n        /* \"#utility.yul\":22618:22623   */\n      dup3\n        /* \"#utility.yul\":22614:22668   */\n      and\n        /* \"#utility.yul\":22603:22668   */\n      swap1\n      pop\n        /* \"#utility.yul\":22593:22674   */\n      swap2\n      swap1\n      pop\n      jump\t// out\n        /* \"#utility.yul\":22680:22757   */\n    tag_361:\n      0x00\n        /* \"#utility.yul\":22746:22751   */\n      dup2\n        /* \"#utility.yul\":22735:22751   */\n      swap1\n      pop\n        /* \"#utility.yul\":22725:22757   */\n      swap2\n      swap1\n      pop\n      jump\t// out\n        /* \"#utility.yul\":22763:22849   */\n    tag_364:\n      0x00\n        /* \"#utility.yul\":22838:22842   */\n      0xff\n        /* \"#utility.yul\":22831:22836   */\n      dup3\n        /* \"#utility.yul\":22827:22843   */\n      and\n        /* \"#utility.yul\":22816:22843   */\n      swap1\n      pop\n        /* \"#utility.yul\":22806:22849   */\n      swap2\n      swap1\n      pop\n      jump\t// out\n        /* \"#utility.yul\":22855:23009   */\n    tag_200:\n        /* \"#utility.yul\":22939:22945   */\n      dup3\n        /* \"#utility.yul\":22934:22937   */\n      dup2\n        /* \"#utility.yul\":22929:22932   */\n      dup4\n        /* \"#utility.yul\":22916:22946   */\n      calldatacopy\n        /* \"#utility.yul\":23001:23002   */\n      0x00\n        /* \"#utility.yul\":22992:22998   */\n      dup4\n        /* \"#utility.yul\":22987:22990   */\n      dup4\n        /* \"#utility.yul\":22983:22999   */\n      add\n        /* \"#utility.yul\":22976:23003   */\n      mstore\n        /* \"#utility.yul\":22906:23009   */\n      pop\n      pop\n      pop\n      jump\t// out\n        /* \"#utility.yul\":23015:23322   */\n    tag_318:\n        /* \"#utility.yul\":23083:23084   */\n      0x00\n        /* \"#utility.yul\":23093:23206   */\n    tag_444:\n        /* \"#utility.yul\":23107:23113   */\n      dup4\n        /* \"#utility.yul\":23104:23105   */\n      dup2\n        /* \"#utility.yul\":23101:23114   */\n      lt\n        /* \"#utility.yul\":23093:23206   */\n      iszero\n      tag_446\n      jumpi\n        /* \"#utility.yul\":23192:23193   */\n      dup1\n        /* \"#utility.yul\":23187:23190   */\n      dup3\n        /* \"#utility.yul\":23183:23194   */\n      add\n        /* \"#utility.yul\":23177:23195   */\n      mload\n        /* \"#utility.yul\":23173:23174   */\n      dup2\n        /* \"#utility.yul\":23168:23171   */\n      dup5\n        /* \"#utility.yul\":23164:23175   */\n      add\n        /* \"#utility.yul\":23157:23196   */\n      mstore\n        /* \"#utility.yul\":23129:23131   */\n      0x20\n        /* \"#utility.yul\":23126:23127   */\n      dup2\n        /* \"#utility.yul\":23122:23132   */\n      add\n        /* \"#utility.yul\":23117:23132   */\n      swap1\n      pop\n        /* \"#utility.yul\":23093:23206   */\n      jump(tag_444)\n    tag_446:\n        /* \"#utility.yul\":23224:23230   */\n      dup4\n        /* \"#utility.yul\":23221:23222   */\n      dup2\n        /* \"#utility.yul\":23218:23231   */\n      gt\n        /* \"#utility.yul\":23215:23217   */\n      iszero\n      tag_447\n      jumpi\n        /* \"#utility.yul\":23304:23305   */\n      0x00\n        /* \"#utility.yul\":23295:23301   */\n      dup5\n        /* \"#utility.yul\":23290:23293   */\n      dup5\n        /* \"#utility.yul\":23286:23302   */\n      add\n        /* \"#utility.yul\":23279:23306   */\n      mstore\n        /* \"#utility.yul\":23215:23217   */\n    tag_447:\n        /* \"#utility.yul\":23064:23322   */\n      pop\n      pop\n      pop\n      pop\n      jump\t// out\n        /* \"#utility.yul\":23328:23648   */\n    tag_81:\n      0x00\n        /* \"#utility.yul\":23409:23410   */\n      0x02\n        /* \"#utility.yul\":23403:23407   */\n      dup3\n        /* \"#utility.yul\":23399:23411   */\n      div\n        /* \"#utility.yul\":23389:23411   */\n      swap1\n      pop\n        /* \"#utility.yul\":23456:23457   */\n      0x01\n        /* \"#utility.yul\":23450:23454   */\n      dup3\n        /* \"#utility.yul\":23446:23458   */\n      and\n        /* \"#utility.yul\":23477:23495   */\n      dup1\n        /* \"#utility.yul\":23467:23469   */\n      tag_449\n      jumpi\n        /* \"#utility.yul\":23533:23537   */\n      0x7f\n        /* \"#utility.yul\":23525:23531   */\n      dup3\n        /* \"#utility.yul\":23521:23538   */\n      and\n        /* \"#utility.yul\":23511:23538   */\n      swap2\n      pop\n        /* \"#utility.yul\":23467:23469   */\n    tag_449:\n        /* \"#utility.yul\":23595:23597   */\n      0x20\n        /* \"#utility.yul\":23587:23593   */\n      dup3\n        /* \"#utility.yul\":23584:23598   */\n      lt\n        /* \"#utility.yul\":23564:23582   */\n      dup2\n        /* \"#utility.yul\":23561:23599   */\n      eq\n        /* \"#utility.yul\":23558:23560   */\n      iszero\n      tag_450\n      jumpi\n        /* \"#utility.yul\":23614:23632   */\n      tag_451\n      tag_452\n      jump\t// in\n    tag_451:\n        /* \"#utility.yul\":23558:23560   */\n    tag_450:\n        /* \"#utility.yul\":23379:23648   */\n      pop\n      swap2\n      swap1\n      pop\n      jump\t// out\n        /* \"#utility.yul\":23654:23887   */\n    tag_61:\n      0x00\n        /* \"#utility.yul\":23716:23740   */\n      tag_454\n        /* \"#utility.yul\":23734:23739   */\n      dup3\n        /* \"#utility.yul\":23716:23740   */\n      tag_361\n      jump\t// in\n    tag_454:\n        /* \"#utility.yul\":23707:23740   */\n      swap2\n      pop\n        /* \"#utility.yul\":23762:23828   */\n      0xffffffffffffffffffffffffffffffffffffffffffffffffffffffffffffffff\n        /* \"#utility.yul\":23755:23760   */\n      dup3\n        /* \"#utility.yul\":23752:23829   */\n      eq\n        /* \"#utility.yul\":23749:23751   */\n      iszero\n      tag_455\n      jumpi\n        /* \"#utility.yul\":23832:23850   */\n      tag_456\n      tag_433\n      jump\t// in\n    tag_456:\n        /* \"#utility.yul\":23749:23751   */\n    tag_455:\n        /* \"#utility.yul\":23879:23880   */\n      0x01\n        /* \"#utility.yul\":23872:23877   */\n      dup3\n        /* \"#utility.yul\":23868:23881   */\n      add\n        /* \"#utility.yul\":23861:23881   */\n      swap1\n      pop\n        /* \"#utility.yul\":23697:23887   */\n      swap2\n      swap1\n      pop\n      jump\t// out\n        /* \"#utility.yul\":23893:24073   */\n    tag_433:\n        /* \"#utility.yul\":23941:24018   */\n      0x4e487b7100000000000000000000000000000000000000000000000000000000\n        /* \"#utility.yul\":23938:23939   */\n      0x00\n        /* \"#utility.yul\":23931:24019   */\n      mstore\n        /* \"#utility.yul\":24038:24042   */\n      0x11\n        /* \"#utility.yul\":24035:24036   */\n      0x04\n        /* \"#utility.yul\":24028:24043   */\n      mstore\n        /* \"#utility.yul\":24062:24066   */\n      0x24\n        /* \"#utility.yul\":24059:24060   */\n      0x00\n        /* \"#utility.yul\":24052:24067   */\n      revert\n        /* \"#utility.yul\":24079:24259   */\n    tag_452:\n        /* \"#utility.yul\":24127:24204   */\n      0x4e487b7100000000000000000000000000000000000000000000000000000000\n        /* \"#utility.yul\":24124:24125   */\n      0x00\n        /* \"#utility.yul\":24117:24205   */\n      mstore\n        /* \"#utility.yul\":24224:24228   */\n      0x22\n        /* \"#utility.yul\":24221:24222   */\n      0x04\n        /* \"#utility.yul\":24214:24229   */\n      mstore\n        /* \"#utility.yul\":24248:24252   */\n      0x24\n        /* \"#utility.yul\":24245:24246   */\n      0x00\n        /* \"#utility.yul\":24238:24253   */\n      revert\n        /* \"#utility.yul\":24265:24445   */\n    tag_401:\n        /* \"#utility.yul\":24313:24390   */\n      0x4e487b7100000000000000000000000000000000000000000000000000000000\n        /* \"#utility.yul\":24310:24311   */\n      0x00\n        /* \"#utility.yul\":24303:24391   */\n      mstore\n        /* \"#utility.yul\":24410:24414   */\n      0x41\n        /* \"#utility.yul\":24407:24408   */\n      0x04\n        /* \"#utility.yul\":24400:24415   */\n      mstore\n        /* \"#utility.yul\":24434:24438   */\n      0x24\n        /* \"#utility.yul\":24431:24432   */\n      0x00\n        /* \"#utility.yul\":24424:24439   */\n      revert\n        /* \"#utility.yul\":24451:24553   */\n    tag_320:\n      0x00\n        /* \"#utility.yul\":24543:24545   */\n      0x1f\n        /* \"#utility.yul\":24539:24546   */\n      not\n        /* \"#utility.yul\":24534:24536   */\n      0x1f\n        /* \"#utility.yul\":24527:24532   */\n      dup4\n        /* \"#utility.yul\":24523:24537   */\n      add\n        /* \"#utility.yul\":24519:24547   */\n      and\n        /* \"#utility.yul\":24509:24547   */\n      swap1\n      pop\n        /* \"#utility.yul\":24499:24553   */\n      swap2\n      swap1\n      pop\n      jump\t// out\n        /* \"#utility.yul\":24559:24681   */\n    tag_212:\n        /* \"#utility.yul\":24632:24656   */\n      tag_462\n        /* \"#utility.yul\":24650:24655   */\n      dup2\n        /* \"#utility.yul\":24632:24656   */\n      tag_308\n      jump\t// in\n    tag_462:\n        /* \"#utility.yul\":24625:24630   */\n      dup2\n        /* \"#utility.yul\":24622:24657   */\n      eq\n        /* \"#utility.yul\":24612:24614   */\n      tag_463\n      jumpi\n        /* \"#utility.yul\":24671:24672   */\n      0x00\n        /* \"#utility.yul\":24668:24669   */\n      dup1\n        /* \"#utility.yul\":24661:24673   */\n      revert\n        /* \"#utility.yul\":24612:24614   */\n    tag_463:\n        /* \"#utility.yul\":24602:24681   */\n      pop\n      jump\t// out\n        /* \"#utility.yul\":24687:24809   */\n    tag_219:\n        /* \"#utility.yul\":24760:24784   */\n      tag_465\n        /* \"#utility.yul\":24778:24783   */\n      dup2\n        /* \"#utility.yul\":24760:24784   */\n      tag_361\n      jump\t// in\n    tag_465:\n        /* \"#utility.yul\":24753:24758   */\n      dup2\n        /* \"#utility.yul\":24750:24785   */\n      eq\n        /* \"#utility.yul\":24740:24742   */\n      tag_466\n      jumpi\n        /* \"#utility.yul\":24799:24800   */\n      0x00\n        /* \"#utility.yul\":24796:24797   */\n      dup1\n        /* \"#utility.yul\":24789:24801   */\n      revert\n        /* \"#utility.yul\":24740:24742   */\n    tag_466:\n        /* \"#utility.yul\":24730:24809   */\n      pop\n      jump\t// out\n        /* \"#utility.yul\":24815:24933   */\n    tag_222:\n        /* \"#utility.yul\":24886:24908   */\n      tag_468\n        /* \"#utility.yul\":24902:24907   */\n      dup2\n        /* \"#utility.yul\":24886:24908   */\n      tag_364\n      jump\t// in\n    tag_468:\n        /* \"#utility.yul\":24879:24884   */\n      dup2\n        /* \"#utility.yul\":24876:24909   */\n      eq\n        /* \"#utility.yul\":24866:24868   */\n      tag_469\n      jumpi\n        /* \"#utility.yul\":24923:24924   */\n      0x00\n        /* \"#utility.yul\":24920:24921   */\n      dup1\n        /* \"#utility.yul\":24913:24925   */\n      revert\n        /* \"#utility.yul\":24866:24868   */\n    tag_469:\n        /* \"#utility.yul\":24856:24933   */\n      pop\n      jump\t// out\n\n    auxdata: 0xa264697066735822122076a256cff6ccbffc32a6a38b0190d535f365b62f4b5763dccdbd27b56bfd0f9d64736f6c63430008000033\n}\n",
				"bytecode": {
					"linkReferences": {},
					"object": "608060405234801561001057600080fd5b50336000806101000a81548173ffffffffffffffffffffffffffffffffffffffff021916908373ffffffffffffffffffffffffffffffffffffffff160217905550611ca9806100606000396000f3fe608060405234801561001057600080fd5b506004361061007d5760003560e01c8063bc50b3cd1161005b578063bc50b3cd146100d8578063d04a419b1461010b578063e6faad291461013f578063f266c7911461016f5761007d565b8063578d30da146100825780638da5cb5b1461009e57806391f2bceb146100bc575b600080fd5b61009c6004803603810190610097919061115c565b61018d565b005b6100a661041a565b6040516100b391906116b0565b60405180910390f35b6100d660048036038101906100d191906110cc565b61043e565b005b6100f260048036038101906100ed91906110cc565b6105b9565b6040516101029493929190611708565b60405180910390f35b610125600480360381019061012091906110cc565b6106f9565b6040516101369594939291906117a0565b60405180910390f35b610159600480360381019061015491906110f5565b610b79565b60405161016691906116ed565b60405180910390f35b610177610c0f565b60405161018491906116cb565b60405180910390f35b6000801b6001600088815260200190815260200160002060000154146101e8576040517f08c379a00000000000000000000000000000000000000000000000000000000081526004016101df9061180f565b60405180910390fd5b805182511461022c576040517f08c379a00000000000000000000000000000000000000000000000000000000081526004016102239061186f565b60405180910390fd5b600060016000888152602001908152602001600020905086816000018190555085816001019080519060200190610264929190610dc6565b5084816002018190555083816003019080519060200190610286929190610dc6565b5060005b83518110156103ab578160040160405180604001604052808684815181106102db577f4e487b7100000000000000000000000000000000000000000000000000000000600052603260045260246000fd5b60200260200101518152602001858481518110610321577f4e487b7100000000000000000000000000000000000000000000000000000000600052603260045260246000fd5b602002602001015160ff1681525090806001815401808255809150506001900390600052602060002090600202016000909190919091506000820151816000019080519060200190610374929190610dc6565b5060208201518160010160006101000a81548160ff021916908360ff160217905550505080806103a390611b47565b91505061028a565b506002879080600181540180825580915050600190039060005260206000200160009091909190915055867fb604f6e596d89a3657daccdbb69c509b6039e34c5cff6500a0ff22efec8ac4328787876040516104099392919061175b565b60405180910390a250505050505050565b60008054906101000a900473ffffffffffffffffffffffffffffffffffffffff1681565b3373ffffffffffffffffffffffffffffffffffffffff1660008054906101000a900473ffffffffffffffffffffffffffffffffffffffff1673ffffffffffffffffffffffffffffffffffffffff16146104cc576040517f08c379a00000000000000000000000000000000000000000000000000000000081526004016104c39061182f565b60405180910390fd5b6000801b60016000838152602001908152602001600020600001541415610528576040517f08c379a000000000000000000000000000000000000000000000000000000000815260040161051f9061184f565b60405180910390fd5b600160008281526020019081526020016000206000808201600090556001820160006105549190610e4c565b600282016000905560038201600061056c9190610e4c565b60048201600061057c9190610e8c565b5050610589600282610c67565b807f2378393e5e45ca60b5cc050d80fa00b05dc03948e54f0260efb5af5229b9ca3e60405160405180910390a250565b60016020528060005260406000206000915090508060000154908060010180546105e290611b15565b80601f016020809104026020016040519081016040528092919081815260200182805461060e90611b15565b801561065b5780601f106106305761010080835404028352916020019161065b565b820191906000526020600020905b81548152906001019060200180831161063e57829003601f168201915b50505050509080600201549080600301805461067690611b15565b80601f01602080910402602001604051908101604052809291908181526020018280546106a290611b15565b80156106ef5780601f106106c4576101008083540402835291602001916106ef565b820191906000526020600020905b8154815290600101906020018083116106d257829003601f168201915b5050505050905084565b60606000606080606060006001600088815260200190815260200160002090506000801b81600001541415610763576040517f08c379a000000000000000000000000000000000000000000000000000000000815260040161075a9061184f565b60405180910390fd5b60008160040180549050905060008167ffffffffffffffff8111156107b1577f4e487b7100000000000000000000000000000000000000000000000000000000600052604160045260246000fd5b6040519080825280602002602001820160405280156107e457816020015b60608152602001906001900390816107cf5790505b50905060008267ffffffffffffffff811115610829577f4e487b7100000000000000000000000000000000000000000000000000000000600052604160045260246000fd5b6040519080825280602002602001820160405280156108575781602001602082028036833780820191505090505b50905060005b83811015610a3a578460040181815481106108a1577f4e487b7100000000000000000000000000000000000000000000000000000000600052603260045260246000fd5b906000526020600020906002020160000180546108bd90611b15565b80601f01602080910402602001604051908101604052809291908181526020018280546108e990611b15565b80156109365780601f1061090b57610100808354040283529160200191610936565b820191906000526020600020905b81548152906001019060200180831161091957829003601f168201915b5050505050838281518110610974577f4e487b7100000000000000000000000000000000000000000000000000000000600052603260045260246000fd5b60200260200101819052508460040181815481106109bb577f4e487b7100000000000000000000000000000000000000000000000000000000600052603260045260246000fd5b906000526020600020906002020160010160009054906101000a900460ff16828281518110610a13577f4e487b7100000000000000000000000000000000000000000000000000000000600052603260045260246000fd5b602002602001019060ff16908160ff16815250508080610a3290611b47565b91505061085d565b50836001018460020154856003018484848054610a5690611b15565b80601f0160208091040260200160405190810160405280929190818152602001828054610a8290611b15565b8015610acf5780601f10610aa457610100808354040283529160200191610acf565b820191906000526020600020905b815481529060010190602001808311610ab257829003601f168201915b50505050509450828054610ae290611b15565b80601f0160208091040260200160405190810160405280929190818152602001828054610b0e90611b15565b8015610b5b5780601f10610b3057610100808354040283529160200191610b5b565b820191906000526020600020905b815481529060010190602001808311610b3e57829003601f168201915b50505050509250985098509850985098505050505091939590929450565b6000806001600086815260200190815260200160002090506000801b816000015414158015610bf6575083604051602001610bb49190611682565b6040516020818303038152906040528051906020012081600101604051602001610bde9190611699565b60405160208183030381529060405280519060200120145b8015610c055750828160020154145b9150509392505050565b60606002805480602002602001604051908101604052809291908181526020018280548015610c5d57602002820191906000526020600020905b815481526020019060010190808311610c49575b5050505050905090565b60005b8280549050811015610dc15781838281548110610cb0577f4e487b7100000000000000000000000000000000000000000000000000000000600052603260045260246000fd5b90600052602060002001541415610dae578260018480549050610cd39190611a40565b81548110610d0a577f4e487b7100000000000000000000000000000000000000000000000000000000600052603260045260246000fd5b9060005260206000200154838281548110610d4e577f4e487b7100000000000000000000000000000000000000000000000000000000600052603260045260246000fd5b906000526020600020018190555082805480610d93577f4e487b7100000000000000000000000000000000000000000000000000000000600052603160045260246000fd5b60019003818190600052602060002001600090559055610dc1565b8080610db990611b47565b915050610c6a565b505050565b828054610dd290611b15565b90600052602060002090601f016020900481019282610df45760008555610e3b565b82601f10610e0d57805160ff1916838001178555610e3b565b82800160010185558215610e3b579182015b82811115610e3a578251825591602001919060010190610e1f565b5b509050610e489190610eb0565b5090565b508054610e5890611b15565b6000825580601f10610e6a5750610e89565b601f016020900490600052602060002090810190610e889190610eb0565b5b50565b5080546000825560020290600052602060002090810190610ead9190610ecd565b50565b5b80821115610ec9576000816000905550600101610eb1565b5090565b5b80821115610f045760008082016000610ee79190610e4c565b6001820160006101000a81549060ff021916905550600201610ece565b5090565b6000610f1b610f16846118c0565b61188f565b9050808382526020820190508260005b85811015610f5b5781358501610f418882611078565b845260208401935060208301925050600181019050610f2b565b5050509392505050565b6000610f78610f73846118ec565b61188f565b90508083825260208201905082856020860282011115610f9757600080fd5b60005b85811015610fc75781610fad88826110b7565b845260208401935060208301925050600181019050610f9a565b5050509392505050565b6000610fe4610fdf84611918565b61188f565b905082815260208101848484011115610ffc57600080fd5b611007848285611ad3565b509392505050565b600082601f83011261102057600080fd5b8135611030848260208601610f08565b91505092915050565b600082601f83011261104a57600080fd5b813561105a848260208601610f65565b91505092915050565b60008135905061107281611c2e565b92915050565b600082601f83011261108957600080fd5b8135611099848260208601610fd1565b91505092915050565b6000813590506110b181611c45565b92915050565b6000813590506110c681611c5c565b92915050565b6000602082840312156110de57600080fd5b60006110ec84828501611063565b91505092915050565b60008060006060848603121561110a57600080fd5b600061111886828701611063565b935050602084013567ffffffffffffffff81111561113557600080fd5b61114186828701611078565b9250506040611152868287016110a2565b9150509250925092565b60008060008060008060c0878903121561117557600080fd5b600061118389828a01611063565b965050602087013567ffffffffffffffff8111156111a057600080fd5b6111ac89828a01611078565b95505060406111bd89828a016110a2565b945050606087013567ffffffffffffffff8111156111da57600080fd5b6111e689828a01611078565b935050608087013567ffffffffffffffff81111561120357600080fd5b61120f89828a0161100f565b92505060a087013567ffffffffffffffff81111561122c57600080fd5b61123889828a01611039565b9150509295509295509295565b600061125183836113d8565b60208301905092915050565b600061126983836113f6565b905092915050565b600061127d8383611673565b60208301905092915050565b61129281611a74565b82525050565b60006112a38261198d565b6112ad81856119e0565b93506112b883611948565b8060005b838110156112e95781516112d08882611245565b97506112db836119b9565b9250506001810190506112bc565b5085935050505092915050565b600061130182611998565b61130b81856119f1565b93508360208202850161131d85611958565b8060005b85811015611359578484038952815161133a858261125d565b9450611345836119c6565b925060208a01995050600181019050611321565b50829750879550505050505092915050565b6000611376826119a3565b6113808185611a02565b935061138b83611968565b8060005b838110156113bc5781516113a38882611271565b97506113ae836119d3565b92505060018101905061138f565b5085935050505092915050565b6113d281611a86565b82525050565b6113e181611a92565b82525050565b6113f081611a92565b82525050565b6000611401826119ae565b61140b8185611a13565b935061141b818560208601611ae2565b61142481611c1d565b840191505092915050565b600061143a826119ae565b6114448185611a24565b9350611454818560208601611ae2565b61145d81611c1d565b840191505092915050565b6000611473826119ae565b61147d8185611a35565b935061148d818560208601611ae2565b80840191505092915050565b600081546114a681611b15565b6114b08186611a35565b945060018216600081146114cb57600181146114dc5761150f565b60ff1983168652818601935061150f565b6114e585611978565b60005b83811015611507578154818901526001820191506020810190506114e8565b838801955050505b50505092915050565b6000611525601783611a24565b91507f496a617a6168207375646168207465726461667461722e0000000000000000006000830152602082019050919050565b6000611565602683611a24565b91507f48616e79612070656d696c696b2079616e672062697361206d656c616b756b6160008301527f6e20696e692e00000000000000000000000000000000000000000000000000006020830152604082019050919050565b60006115cb601783611a24565b91507f496a617a616820746964616b20646974656d756b616e2e0000000000000000006000830152602082019050919050565b600061160b602b83611a24565b91507f4a756d6c6168206d6174612070656c616a6172616e2064616e206e696c61692060008301527f68617275732073616d612e0000000000000000000000000000000000000000006020830152604082019050919050565b61166d81611abc565b82525050565b61167c81611ac6565b82525050565b600061168e8284611468565b915081905092915050565b60006116a58284611499565b915081905092915050565b60006020820190506116c56000830184611289565b92915050565b600060208201905081810360008301526116e58184611298565b905092915050565b600060208201905061170260008301846113c9565b92915050565b600060808201905061171d60008301876113e7565b818103602083015261172f818661142f565b905061173e6040830185611664565b8181036060830152611750818461142f565b905095945050505050565b60006060820190508181036000830152611775818661142f565b90506117846020830185611664565b8181036040830152611796818461142f565b9050949350505050565b600060a08201905081810360008301526117ba818861142f565b90506117c96020830187611664565b81810360408301526117db818661142f565b905081810360608301526117ef81856112f6565b90508181036080830152611803818461136b565b90509695505050505050565b6000602082019050818103600083015261182881611518565b9050919050565b6000602082019050818103600083015261184881611558565b9050919050565b60006020820190508181036000830152611868816115be565b9050919050565b60006020820190508181036000830152611888816115fe565b9050919050565b6000604051905081810181811067ffffffffffffffff821117156118b6576118b5611bee565b5b8060405250919050565b600067ffffffffffffffff8211156118db576118da611bee565b5b602082029050602081019050919050565b600067ffffffffffffffff82111561190757611906611bee565b5b602082029050602081019050919050565b600067ffffffffffffffff82111561193357611932611bee565b5b601f19601f8301169050602081019050919050565b6000819050602082019050919050565b6000819050602082019050919050565b6000819050602082019050919050565b60008190508160005260206000209050919050565b600081519050919050565b600081519050919050565b600081519050919050565b600081519050919050565b6000602082019050919050565b6000602082019050919050565b6000602082019050919050565b600082825260208201905092915050565b600082825260208201905092915050565b600082825260208201905092915050565b600082825260208201905092915050565b600082825260208201905092915050565b600081905092915050565b6000611a4b82611abc565b9150611a5683611abc565b925082821015611a6957611a68611b90565b5b828203905092915050565b6000611a7f82611a9c565b9050919050565b60008115159050919050565b6000819050919050565b600073ffffffffffffffffffffffffffffffffffffffff82169050919050565b6000819050919050565b600060ff82169050919050565b82818337600083830152505050565b60005b83811015611b00578082015181840152602081019050611ae5565b83811115611b0f576000848401525b50505050565b60006002820490506001821680611b2d57607f821691505b60208210811415611b4157611b40611bbf565b5b50919050565b6000611b5282611abc565b91507fffffffffffffffffffffffffffffffffffffffffffffffffffffffffffffffff821415611b8557611b84611b90565b5b600182019050919050565b7f4e487b7100000000000000000000000000000000000000000000000000000000600052601160045260246000fd5b7f4e487b7100000000000000000000000000000000000000000000000000000000600052602260045260246000fd5b7f4e487b7100000000000000000000000000000000000000000000000000000000600052604160045260246000fd5b6000601f19601f8301169050919050565b611c3781611a92565b8114611c4257600080fd5b50565b611c4e81611abc565b8114611c5957600080fd5b50565b611c6581611ac6565b8114611c7057600080fd5b5056fea264697066735822122076a256cff6ccbffc32a6a38b0190d535f365b62f4b5763dccdbd27b56bfd0f9d64736f6c63430008000033",
					"opcodes": "PUSH1 0x80 PUSH1 0x40 MSTORE CALLVALUE DUP1 ISZERO PUSH2 0x10 JUMPI PUSH1 0x0 DUP1 REVERT JUMPDEST POP CALLER PUSH1 0x0 DUP1 PUSH2 0x100 EXP DUP2 SLOAD DUP2 PUSH20 0xFFFFFFFFFFFFFFFFFFFFFFFFFFFFFFFFFFFFFFFF MUL NOT AND SWAP1 DUP4 PUSH20 0xFFFFFFFFFFFFFFFFFFFFFFFFFFFFFFFFFFFFFFFF AND MUL OR SWAP1 SSTORE POP PUSH2 0x1CA9 DUP1 PUSH2 0x60 PUSH1 0x0 CODECOPY PUSH1 0x0 RETURN INVALID PUSH1 0x80 PUSH1 0x40 MSTORE CALLVALUE DUP1 ISZERO PUSH2 0x10 JUMPI PUSH1 0x0 DUP1 REVERT JUMPDEST POP PUSH1 0x4 CALLDATASIZE LT PUSH2 0x7D JUMPI PUSH1 0x0 CALLDATALOAD PUSH1 0xE0 SHR DUP1 PUSH4 0xBC50B3CD GT PUSH2 0x5B JUMPI DUP1 PUSH4 0xBC50B3CD EQ PUSH2 0xD8 JUMPI DUP1 PUSH4 0xD04A419B EQ PUSH2 0x10B JUMPI DUP1 PUSH4 0xE6FAAD29 EQ PUSH2 0x13F JUMPI DUP1 PUSH4 0xF266C791 EQ PUSH2 0x16F JUMPI PUSH2 0x7D JUMP JUMPDEST DUP1 PUSH4 0x578D30DA EQ PUSH2 0x82 JUMPI DUP1 PUSH4 0x8DA5CB5B EQ PUSH2 0x9E JUMPI DUP1 PUSH4 0x91F2BCEB EQ PUSH2 0xBC JUMPI JUMPDEST PUSH1 0x0 DUP1 REVERT JUMPDEST PUSH2 0x9C PUSH1 0x4 DUP1 CALLDATASIZE SUB DUP2 ADD SWAP1 PUSH2 0x97 SWAP2 SWAP1 PUSH2 0x115C JUMP JUMPDEST PUSH2 0x18D JUMP JUMPDEST STOP JUMPDEST PUSH2 0xA6 PUSH2 0x41A JUMP JUMPDEST PUSH1 0x40 MLOAD PUSH2 0xB3 SWAP2 SWAP1 PUSH2 0x16B0 JUMP JUMPDEST PUSH1 0x40 MLOAD DUP1 SWAP2 SUB SWAP1 RETURN JUMPDEST PUSH2 0xD6 PUSH1 0x4 DUP1 CALLDATASIZE SUB DUP2 ADD SWAP1 PUSH2 0xD1 SWAP2 SWAP1 PUSH2 0x10CC JUMP JUMPDEST PUSH2 0x43E JUMP JUMPDEST STOP JUMPDEST PUSH2 0xF2 PUSH1 0x4 DUP1 CALLDATASIZE SUB DUP2 ADD SWAP1 PUSH2 0xED SWAP2 SWAP1 PUSH2 0x10CC JUMP JUMPDEST PUSH2 0x5B9 JUMP JUMPDEST PUSH1 0x40 MLOAD PUSH2 0x102 SWAP5 SWAP4 SWAP3 SWAP2 SWAP1 PUSH2 0x1708 JUMP JUMPDEST PUSH1 0x40 MLOAD DUP1 SWAP2 SUB SWAP1 RETURN JUMPDEST PUSH2 0x125 PUSH1 0x4 DUP1 CALLDATASIZE SUB DUP2 ADD SWAP1 PUSH2 0x120 SWAP2 SWAP1 PUSH2 0x10CC JUMP JUMPDEST PUSH2 0x6F9 JUMP JUMPDEST PUSH1 0x40 MLOAD PUSH2 0x136 SWAP6 SWAP5 SWAP4 SWAP3 SWAP2 SWAP1 PUSH2 0x17A0 JUMP JUMPDEST PUSH1 0x40 MLOAD DUP1 SWAP2 SUB SWAP1 RETURN JUMPDEST PUSH2 0x159 PUSH1 0x4 DUP1 CALLDATASIZE SUB DUP2 ADD SWAP1 PUSH2 0x154 SWAP2 SWAP1 PUSH2 0x10F5 JUMP JUMPDEST PUSH2 0xB79 JUMP JUMPDEST PUSH1 0x40 MLOAD PUSH2 0x166 SWAP2 SWAP1 PUSH2 0x16ED JUMP JUMPDEST PUSH1 0x40 MLOAD DUP1 SWAP2 SUB SWAP1 RETURN JUMPDEST PUSH2 0x177 PUSH2 0xC0F JUMP JUMPDEST PUSH1 0x40 MLOAD PUSH2 0x184 SWAP2 SWAP1 PUSH2 0x16CB JUMP JUMPDEST PUSH1 0x40 MLOAD DUP1 SWAP2 SUB SWAP1 RETURN JUMPDEST PUSH1 0x0 DUP1 SHL PUSH1 0x1 PUSH1 0x0 DUP9 DUP2 MSTORE PUSH1 0x20 ADD SWAP1 DUP2 MSTORE PUSH1 0x20 ADD PUSH1 0x0 KECCAK256 PUSH1 0x0 ADD SLOAD EQ PUSH2 0x1E8 JUMPI PUSH1 0x40 MLOAD PUSH32 0x8C379A000000000000000000000000000000000000000000000000000000000 DUP2 MSTORE PUSH1 0x4 ADD PUSH2 0x1DF SWAP1 PUSH2 0x180F JUMP JUMPDEST PUSH1 0x40 MLOAD DUP1 SWAP2 SUB SWAP1 REVERT JUMPDEST DUP1 MLOAD DUP3 MLOAD EQ PUSH2 0x22C JUMPI PUSH1 0x40 MLOAD PUSH32 0x8C379A000000000000000000000000000000000000000000000000000000000 DUP2 MSTORE PUSH1 0x4 ADD PUSH2 0x223 SWAP1 PUSH2 0x186F JUMP JUMPDEST PUSH1 0x40 MLOAD DUP1 SWAP2 SUB SWAP1 REVERT JUMPDEST PUSH1 0x0 PUSH1 0x1 PUSH1 0x0 DUP9 DUP2 MSTORE PUSH1 0x20 ADD SWAP1 DUP2 MSTORE PUSH1 0x20 ADD PUSH1 0x0 KECCAK256 SWAP1 POP DUP7 DUP2 PUSH1 0x0 ADD DUP2 SWAP1 SSTORE POP DUP6 DUP2 PUSH1 0x1 ADD SWAP1 DUP1 MLOAD SWAP1 PUSH1 0x20 ADD SWAP1 PUSH2 0x264 SWAP3 SWAP2 SWAP1 PUSH2 0xDC6 JUMP JUMPDEST POP DUP5 DUP2 PUSH1 0x2 ADD DUP2 SWAP1 SSTORE POP DUP4 DUP2 PUSH1 0x3 ADD SWAP1 DUP1 MLOAD SWAP1 PUSH1 0x20 ADD SWAP1 PUSH2 0x286 SWAP3 SWAP2 SWAP1 PUSH2 0xDC6 JUMP JUMPDEST POP PUSH1 0x0 JUMPDEST DUP4 MLOAD DUP2 LT ISZERO PUSH2 0x3AB JUMPI DUP2 PUSH1 0x4 ADD PUSH1 0x40 MLOAD DUP1 PUSH1 0x40 ADD PUSH1 0x40 MSTORE DUP1 DUP7 DUP5 DUP2 MLOAD DUP2 LT PUSH2 0x2DB JUMPI PUSH32 0x4E487B7100000000000000000000000000000000000000000000000000000000 PUSH1 0x0 MSTORE PUSH1 0x32 PUSH1 0x4 MSTORE PUSH1 0x24 PUSH1 0x0 REVERT JUMPDEST PUSH1 0x20 MUL PUSH1 0x20 ADD ADD MLOAD DUP2 MSTORE PUSH1 0x20 ADD DUP6 DUP5 DUP2 MLOAD DUP2 LT PUSH2 0x321 JUMPI PUSH32 0x4E487B7100000000000000000000000000000000000000000000000000000000 PUSH1 0x0 MSTORE PUSH1 0x32 PUSH1 0x4 MSTORE PUSH1 0x24 PUSH1 0x0 REVERT JUMPDEST PUSH1 0x20 MUL PUSH1 0x20 ADD ADD MLOAD PUSH1 0xFF AND DUP2 MSTORE POP SWAP1 DUP1 PUSH1 0x1 DUP2 SLOAD ADD DUP1 DUP3 SSTORE DUP1 SWAP2 POP POP PUSH1 0x1 SWAP1 SUB SWAP1 PUSH1 0x0 MSTORE PUSH1 0x20 PUSH1 0x0 KECCAK256 SWAP1 PUSH1 0x2 MUL ADD PUSH1 0x0 SWAP1 SWAP2 SWAP1 SWAP2 SWAP1 SWAP2 POP PUSH1 0x0 DUP3 ADD MLOAD DUP2 PUSH1 0x0 ADD SWAP1 DUP1 MLOAD SWAP1 PUSH1 0x20 ADD SWAP1 PUSH2 0x374 SWAP3 SWAP2 SWAP1 PUSH2 0xDC6 JUMP JUMPDEST POP PUSH1 0x20 DUP3 ADD MLOAD DUP2 PUSH1 0x1 ADD PUSH1 0x0 PUSH2 0x100 EXP DUP2 SLOAD DUP2 PUSH1 0xFF MUL NOT AND SWAP1 DUP4 PUSH1 0xFF AND MUL OR SWAP1 SSTORE POP POP POP DUP1 DUP1 PUSH2 0x3A3 SWAP1 PUSH2 0x1B47 JUMP JUMPDEST SWAP2 POP POP PUSH2 0x28A JUMP JUMPDEST POP PUSH1 0x2 DUP8 SWAP1 DUP1 PUSH1 0x1 DUP2 SLOAD ADD DUP1 DUP3 SSTORE DUP1 SWAP2 POP POP PUSH1 0x1 SWAP1 SUB SWAP1 PUSH1 0x0 MSTORE PUSH1 0x20 PUSH1 0x0 KECCAK256 ADD PUSH1 0x0 SWAP1 SWAP2 SWAP1 SWAP2 SWAP1 SWAP2 POP SSTORE DUP7 PUSH32 0xB604F6E596D89A3657DACCDBB69C509B6039E34C5CFF6500A0FF22EFEC8AC432 DUP8 DUP8 DUP8 PUSH1 0x40 MLOAD PUSH2 0x409 SWAP4 SWAP3 SWAP2 SWAP1 PUSH2 0x175B JUMP JUMPDEST PUSH1 0x40 MLOAD DUP1 SWAP2 SUB SWAP1 LOG2 POP POP POP POP POP POP POP JUMP JUMPDEST PUSH1 0x0 DUP1 SLOAD SWAP1 PUSH2 0x100 EXP SWAP1 DIV PUSH20 0xFFFFFFFFFFFFFFFFFFFFFFFFFFFFFFFFFFFFFFFF AND DUP2 JUMP JUMPDEST CALLER PUSH20 0xFFFFFFFFFFFFFFFFFFFFFFFFFFFFFFFFFFFFFFFF AND PUSH1 0x0 DUP1 SLOAD SWAP1 PUSH2 0x100 EXP SWAP1 DIV PUSH20 0xFFFFFFFFFFFFFFFFFFFFFFFFFFFFFFFFFFFFFFFF AND PUSH20 0xFFFFFFFFFFFFFFFFFFFFFFFFFFFFFFFFFFFFFFFF AND EQ PUSH2 0x4CC JUMPI PUSH1 0x40 MLOAD PUSH32 0x8C379A000000000000000000000000000000000000000000000000000000000 DUP2 MSTORE PUSH1 0x4 ADD PUSH2 0x4C3 SWAP1 PUSH2 0x182F JUMP JUMPDEST PUSH1 0x40 MLOAD DUP1 SWAP2 SUB SWAP1 REVERT JUMPDEST PUSH1 0x0 DUP1 SHL PUSH1 0x1 PUSH1 0x0 DUP4 DUP2 MSTORE PUSH1 0x20 ADD SWAP1 DUP2 MSTORE PUSH1 0x20 ADD PUSH1 0x0 KECCAK256 PUSH1 0x0 ADD SLOAD EQ ISZERO PUSH2 0x528 JUMPI PUSH1 0x40 MLOAD PUSH32 0x8C379A000000000000000000000000000000000000000000000000000000000 DUP2 MSTORE PUSH1 0x4 ADD PUSH2 0x51F SWAP1 PUSH2 0x184F JUMP JUMPDEST PUSH1 0x40 MLOAD DUP1 SWAP2 SUB SWAP1 REVERT JUMPDEST PUSH1 0x1 PUSH1 0x0 DUP3 DUP2 MSTORE PUSH1 0x20 ADD SWAP1 DUP2 MSTORE PUSH1 0x20 ADD PUSH1 0x0 KECCAK256 PUSH1 0x0 DUP1 DUP3 ADD PUSH1 0x0 SWAP1 SSTORE PUSH1 0x1 DUP3 ADD PUSH1 0x0 PUSH2 0x554 SWAP2 SWAP1 PUSH2 0xE4C JUMP JUMPDEST PUSH1 0x2 DUP3 ADD PUSH1 0x0 SWAP1 SSTORE PUSH1 0x3 DUP3 ADD PUSH1 0x0 PUSH2 0x56C SWAP2 SWAP1 PUSH2 0xE4C JUMP JUMPDEST PUSH1 0x4 DUP3 ADD PUSH1 0x0 PUSH2 0x57C SWAP2 SWAP1 PUSH2 0xE8C JUMP JUMPDEST POP POP PUSH2 0x589 PUSH1 0x2 DUP3 PUSH2 0xC67 JUMP JUMPDEST DUP1 PUSH32 0x2378393E5E45CA60B5CC050D80FA00B05DC03948E54F0260EFB5AF5229B9CA3E PUSH1 0x40 MLOAD PUSH1 0x40 MLOAD DUP1 SWAP2 SUB SWAP1 LOG2 POP JUMP JUMPDEST PUSH1 0x1 PUSH1 0x20 MSTORE DUP1 PUSH1 0x0 MSTORE PUSH1 0x40 PUSH1 0x0 KECCAK256 PUSH1 0x0 SWAP2 POP SWAP1 POP DUP1 PUSH1 0x0 ADD SLOAD SWAP1 DUP1 PUSH1 0x1 ADD DUP1 SLOAD PUSH2 0x5E2 SWAP1 PUSH2 0x1B15 JUMP JUMPDEST DUP1 PUSH1 0x1F ADD PUSH1 0x20 DUP1 SWAP2 DIV MUL PUSH1 0x20 ADD PUSH1 0x40 MLOAD SWAP1 DUP2 ADD PUSH1 0x40 MSTORE DUP1 SWAP3 SWAP2 SWAP1 DUP2 DUP2 MSTORE PUSH1 0x20 ADD DUP3 DUP1 SLOAD PUSH2 0x60E SWAP1 PUSH2 0x1B15 JUMP JUMPDEST DUP1 ISZERO PUSH2 0x65B JUMPI DUP1 PUSH1 0x1F LT PUSH2 0x630 JUMPI PUSH2 0x100 DUP1 DUP4 SLOAD DIV MUL DUP4 MSTORE SWAP2 PUSH1 0x20 ADD SWAP2 PUSH2 0x65B JUMP JUMPDEST DUP3 ADD SWAP2 SWAP1 PUSH1 0x0 MSTORE PUSH1 0x20 PUSH1 0x0 KECCAK256 SWAP1 JUMPDEST DUP2 SLOAD DUP2 MSTORE SWAP1 PUSH1 0x1 ADD SWAP1 PUSH1 0x20 ADD DUP1 DUP4 GT PUSH2 0x63E JUMPI DUP3 SWAP1 SUB PUSH1 0x1F AND DUP3 ADD SWAP2 JUMPDEST POP POP POP POP POP SWAP1 DUP1 PUSH1 0x2 ADD SLOAD SWAP1 DUP1 PUSH1 0x3 ADD DUP1 SLOAD PUSH2 0x676 SWAP1 PUSH2 0x1B15 JUMP JUMPDEST DUP1 PUSH1 0x1F ADD PUSH1 0x20 DUP1 SWAP2 DIV MUL PUSH1 0x20 ADD PUSH1 0x40 MLOAD SWAP1 DUP2 ADD PUSH1 0x40 MSTORE DUP1 SWAP3 SWAP2 SWAP1 DUP2 DUP2 MSTORE PUSH1 0x20 ADD DUP3 DUP1 SLOAD PUSH2 0x6A2 SWAP1 PUSH2 0x1B15 JUMP JUMPDEST DUP1 ISZERO PUSH2 0x6EF JUMPI DUP1 PUSH1 0x1F LT PUSH2 0x6C4 JUMPI PUSH2 0x100 DUP1 DUP4 SLOAD DIV MUL DUP4 MSTORE SWAP2 PUSH1 0x20 ADD SWAP2 PUSH2 0x6EF JUMP JUMPDEST DUP3 ADD SWAP2 SWAP1 PUSH1 0x0 MSTORE PUSH1 0x20 PUSH1 0x0 KECCAK256 SWAP1 JUMPDEST DUP2 SLOAD DUP2 MSTORE SWAP1 PUSH1 0x1 ADD SWAP1 PUSH1 0x20 ADD DUP1 DUP4 GT PUSH2 0x6D2 JUMPI DUP3 SWAP1 SUB PUSH1 0x1F AND DUP3 ADD SWAP2 JUMPDEST POP POP POP POP POP SWAP1 POP DUP5 JUMP JUMPDEST PUSH1 0x60 PUSH1 0x0 PUSH1 0x60 DUP1 PUSH1 0x60 PUSH1 0x0 PUSH1 0x1 PUSH1 0x0 DUP9 DUP2 MSTORE PUSH1 0x20 ADD SWAP1 DUP2 MSTORE PUSH1 0x20 ADD PUSH1 0x0 KECCAK256 SWAP1 POP PUSH1 0x0 DUP1 SHL DUP2 PUSH1 0x0 ADD SLOAD EQ ISZERO PUSH2 0x763 JUMPI PUSH1 0x40 MLOAD PUSH32 0x8C379A000000000000000000000000000000000000000000000000000000000 DUP2 MSTORE PUSH1 0x4 ADD PUSH2 0x75A SWAP1 PUSH2 0x184F JUMP JUMPDEST PUSH1 0x40 MLOAD DUP1 SWAP2 SUB SWAP1 REVERT JUMPDEST PUSH1 0x0 DUP2 PUSH1 0x4 ADD DUP1 SLOAD SWAP1 POP SWAP1 POP PUSH1 0x0 DUP2 PUSH8 0xFFFFFFFFFFFFFFFF DUP2 GT ISZERO PUSH2 0x7B1 JUMPI PUSH32 0x4E487B7100000000000000000000000000000000000000000000000000000000 PUSH1 0x0 MSTORE PUSH1 0x41 PUSH1 0x4 MSTORE PUSH1 0x24 PUSH1 0x0 REVERT JUMPDEST PUSH1 0x40 MLOAD SWAP1 DUP1 DUP3 MSTORE DUP1 PUSH1 0x20 MUL PUSH1 0x20 ADD DUP3 ADD PUSH1 0x40 MSTORE DUP1 ISZERO PUSH2 0x7E4 JUMPI DUP2 PUSH1 0x20 ADD JUMPDEST PUSH1 0x60 DUP2 MSTORE PUSH1 0x20 ADD SWAP1 PUSH1 0x1 SWAP1 SUB SWAP1 DUP2 PUSH2 0x7CF JUMPI SWAP1 POP JUMPDEST POP SWAP1 POP PUSH1 0x0 DUP3 PUSH8 0xFFFFFFFFFFFFFFFF DUP2 GT ISZERO PUSH2 0x829 JUMPI PUSH32 0x4E487B7100000000000000000000000000000000000000000000000000000000 PUSH1 0x0 MSTORE PUSH1 0x41 PUSH1 0x4 MSTORE PUSH1 0x24 PUSH1 0x0 REVERT JUMPDEST PUSH1 0x40 MLOAD SWAP1 DUP1 DUP3 MSTORE DUP1 PUSH1 0x20 MUL PUSH1 0x20 ADD DUP3 ADD PUSH1 0x40 MSTORE DUP1 ISZERO PUSH2 0x857 JUMPI DUP2 PUSH1 0x20 ADD PUSH1 0x20 DUP3 MUL DUP1 CALLDATASIZE DUP4 CALLDATACOPY DUP1 DUP3 ADD SWAP2 POP POP SWAP1 POP JUMPDEST POP SWAP1 POP PUSH1 0x0 JUMPDEST DUP4 DUP2 LT ISZERO PUSH2 0xA3A JUMPI DUP5 PUSH1 0x4 ADD DUP2 DUP2 SLOAD DUP2 LT PUSH2 0x8A1 JUMPI PUSH32 0x4E487B7100000000000000000000000000000000000000000000000000000000 PUSH1 0x0 MSTORE PUSH1 0x32 PUSH1 0x4 MSTORE PUSH1 0x24 PUSH1 0x0 REVERT JUMPDEST SWAP1 PUSH1 0x0 MSTORE PUSH1 0x20 PUSH1 0x0 KECCAK256 SWAP1 PUSH1 0x2 MUL ADD PUSH1 0x0 ADD DUP1 SLOAD PUSH2 0x8BD SWAP1 PUSH2 0x1B15 JUMP JUMPDEST DUP1 PUSH1 0x1F ADD PUSH1 0x20 DUP1 SWAP2 DIV MUL PUSH1 0x20 ADD PUSH1 0x40 MLOAD SWAP1 DUP2 ADD PUSH1 0x40 MSTORE DUP1 SWAP3 SWAP2 SWAP1 DUP2 DUP2 MSTORE PUSH1 0x20 ADD DUP3 DUP1 SLOAD PUSH2 0x8E9 SWAP1 PUSH2 0x1B15 JUMP JUMPDEST DUP1 ISZERO PUSH2 0x936 JUMPI DUP1 PUSH1 0x1F LT PUSH2 0x90B JUMPI PUSH2 0x100 DUP1 DUP4 SLOAD DIV MUL DUP4 MSTORE SWAP2 PUSH1 0x20 ADD SWAP2 PUSH2 0x936 JUMP JUMPDEST DUP3 ADD SWAP2 SWAP1 PUSH1 0x0 MSTORE PUSH1 0x20 PUSH1 0x0 KECCAK256 SWAP1 JUMPDEST DUP2 SLOAD DUP2 MSTORE SWAP1 PUSH1 0x1 ADD SWAP1 PUSH1 0x20 ADD DUP1 DUP4 GT PUSH2 0x919 JUMPI DUP3 SWAP1 SUB PUSH1 0x1F AND DUP3 ADD SWAP2 JUMPDEST POP POP POP POP POP DUP4 DUP3 DUP2 MLOAD DUP2 LT PUSH2 0x974 JUMPI PUSH32 0x4E487B7100000000000000000000000000000000000000000000000000000000 PUSH1 0x0 MSTORE PUSH1 0x32 PUSH1 0x4 MSTORE PUSH1 0x24 PUSH1 0x0 REVERT JUMPDEST PUSH1 0x20 MUL PUSH1 0x20 ADD ADD DUP2 SWAP1 MSTORE POP DUP5 PUSH1 0x4 ADD DUP2 DUP2 SLOAD DUP2 LT PUSH2 0x9BB JUMPI PUSH32 0x4E487B7100000000000000000000000000000000000000000000000000000000 PUSH1 0x0 MSTORE PUSH1 0x32 PUSH1 0x4 MSTORE PUSH1 0x24 PUSH1 0x0 REVERT JUMPDEST SWAP1 PUSH1 0x0 MSTORE PUSH1 0x20 PUSH1 0x0 KECCAK256 SWAP1 PUSH1 0x2 MUL ADD PUSH1 0x1 ADD PUSH1 0x0 SWAP1 SLOAD SWAP1 PUSH2 0x100 EXP SWAP1 DIV PUSH1 0xFF AND DUP3 DUP3 DUP2 MLOAD DUP2 LT PUSH2 0xA13 JUMPI PUSH32 0x4E487B7100000000000000000000000000000000000000000000000000000000 PUSH1 0x0 MSTORE PUSH1 0x32 PUSH1 0x4 MSTORE PUSH1 0x24 PUSH1 0x0 REVERT JUMPDEST PUSH1 0x20 MUL PUSH1 0x20 ADD ADD SWAP1 PUSH1 0xFF AND SWAP1 DUP2 PUSH1 0xFF AND DUP2 MSTORE POP POP DUP1 DUP1 PUSH2 0xA32 SWAP1 PUSH2 0x1B47 JUMP JUMPDEST SWAP2 POP POP PUSH2 0x85D JUMP JUMPDEST POP DUP4 PUSH1 0x1 ADD DUP5 PUSH1 0x2 ADD SLOAD DUP6 PUSH1 0x3 ADD DUP5 DUP5 DUP5 DUP1 SLOAD PUSH2 0xA56 SWAP1 PUSH2 0x1B15 JUMP JUMPDEST DUP1 PUSH1 0x1F ADD PUSH1 0x20 DUP1 SWAP2 DIV MUL PUSH1 0x20 ADD PUSH1 0x40 MLOAD SWAP1 DUP2 ADD PUSH1 0x40 MSTORE DUP1 SWAP3 SWAP2 SWAP1 DUP2 DUP2 MSTORE PUSH1 0x20 ADD DUP3 DUP1 SLOAD PUSH2 0xA82 SWAP1 PUSH2 0x1B15 JUMP JUMPDEST DUP1 ISZERO PUSH2 0xACF JUMPI DUP1 PUSH1 0x1F LT PUSH2 0xAA4 JUMPI PUSH2 0x100 DUP1 DUP4 SLOAD DIV MUL DUP4 MSTORE SWAP2 PUSH1 0x20 ADD SWAP2 PUSH2 0xACF JUMP JUMPDEST DUP3 ADD SWAP2 SWAP1 PUSH1 0x0 MSTORE PUSH1 0x20 PUSH1 0x0 KECCAK256 SWAP1 JUMPDEST DUP2 SLOAD DUP2 MSTORE SWAP1 PUSH1 0x1 ADD SWAP1 PUSH1 0x20 ADD DUP1 DUP4 GT PUSH2 0xAB2 JUMPI DUP3 SWAP1 SUB PUSH1 0x1F AND DUP3 ADD SWAP2 JUMPDEST POP POP POP POP POP SWAP5 POP DUP3 DUP1 SLOAD PUSH2 0xAE2 SWAP1 PUSH2 0x1B15 JUMP JUMPDEST DUP1 PUSH1 0x1F ADD PUSH1 0x20 DUP1 SWAP2 DIV MUL PUSH1 0x20 ADD PUSH1 0x40 MLOAD SWAP1 DUP2 ADD PUSH1 0x40 MSTORE DUP1 SWAP3 SWAP2 SWAP1 DUP2 DUP2 MSTORE PUSH1 0x20 ADD DUP3 DUP1 SLOAD PUSH2 0xB0E SWAP1 PUSH2 0x1B15 JUMP JUMPDEST DUP1 ISZERO PUSH2 0xB5B JUMPI DUP1 PUSH1 0x1F LT PUSH2 0xB30 JUMPI PUSH2 0x100 DUP1 DUP4 SLOAD DIV MUL DUP4 MSTORE SWAP2 PUSH1 0x20 ADD SWAP2 PUSH2 0xB5B JUMP JUMPDEST DUP3 ADD SWAP2 SWAP1 PUSH1 0x0 MSTORE PUSH1 0x20 PUSH1 0x0 KECCAK256 SWAP1 JUMPDEST DUP2 SLOAD DUP2 MSTORE SWAP1 PUSH1 0x1 ADD SWAP1 PUSH1 0x20 ADD DUP1 DUP4 GT PUSH2 0xB3E JUMPI DUP3 SWAP1 SUB PUSH1 0x1F AND DUP3 ADD SWAP2 JUMPDEST POP POP POP POP POP SWAP3 POP SWAP9 POP SWAP9 POP SWAP9 POP SWAP9 POP SWAP9 POP POP POP POP POP SWAP2 SWAP4 SWAP6 SWAP1 SWAP3 SWAP5 POP JUMP JUMPDEST PUSH1 0x0 DUP1 PUSH1 0x1 PUSH1 0x0 DUP7 DUP2 MSTORE PUSH1 0x20 ADD SWAP1 DUP2 MSTORE PUSH1 0x20 ADD PUSH1 0x0 KECCAK256 SWAP1 POP PUSH1 0x0 DUP1 SHL DUP2 PUSH1 0x0 ADD SLOAD EQ ISZERO DUP1 ISZERO PUSH2 0xBF6 JUMPI POP DUP4 PUSH1 0x40 MLOAD PUSH1 0x20 ADD PUSH2 0xBB4 SWAP2 SWAP1 PUSH2 0x1682 JUMP JUMPDEST PUSH1 0x40 MLOAD PUSH1 0x20 DUP2 DUP4 SUB SUB DUP2 MSTORE SWAP1 PUSH1 0x40 MSTORE DUP1 MLOAD SWAP1 PUSH1 0x20 ADD KECCAK256 DUP2 PUSH1 0x1 ADD PUSH1 0x40 MLOAD PUSH1 0x20 ADD PUSH2 0xBDE SWAP2 SWAP1 PUSH2 0x1699 JUMP JUMPDEST PUSH1 0x40 MLOAD PUSH1 0x20 DUP2 DUP4 SUB SUB DUP2 MSTORE SWAP1 PUSH1 0x40 MSTORE DUP1 MLOAD SWAP1 PUSH1 0x20 ADD KECCAK256 EQ JUMPDEST DUP1 ISZERO PUSH2 0xC05 JUMPI POP DUP3 DUP2 PUSH1 0x2 ADD SLOAD EQ JUMPDEST SWAP2 POP POP SWAP4 SWAP3 POP POP POP JUMP JUMPDEST PUSH1 0x60 PUSH1 0x2 DUP1 SLOAD DUP1 PUSH1 0x20 MUL PUSH1 0x20 ADD PUSH1 0x40 MLOAD SWAP1 DUP2 ADD PUSH1 0x40 MSTORE DUP1 SWAP3 SWAP2 SWAP1 DUP2 DUP2 MSTORE PUSH1 0x20 ADD DUP3 DUP1 SLOAD DUP1 ISZERO PUSH2 0xC5D JUMPI PUSH1 0x20 MUL DUP3 ADD SWAP2 SWAP1 PUSH1 0x0 MSTORE PUSH1 0x20 PUSH1 0x0 KECCAK256 SWAP1 JUMPDEST DUP2 SLOAD DUP2 MSTORE PUSH1 0x20 ADD SWAP1 PUSH1 0x1 ADD SWAP1 DUP1 DUP4 GT PUSH2 0xC49 JUMPI JUMPDEST POP POP POP POP POP SWAP1 POP SWAP1 JUMP JUMPDEST PUSH1 0x0 JUMPDEST DUP3 DUP1 SLOAD SWAP1 POP DUP2 LT ISZERO PUSH2 0xDC1 JUMPI DUP2 DUP4 DUP3 DUP2 SLOAD DUP2 LT PUSH2 0xCB0 JUMPI PUSH32 0x4E487B7100000000000000000000000000000000000000000000000000000000 PUSH1 0x0 MSTORE PUSH1 0x32 PUSH1 0x4 MSTORE PUSH1 0x24 PUSH1 0x0 REVERT JUMPDEST SWAP1 PUSH1 0x0 MSTORE PUSH1 0x20 PUSH1 0x0 KECCAK256 ADD SLOAD EQ ISZERO PUSH2 0xDAE JUMPI DUP3 PUSH1 0x1 DUP5 DUP1 SLOAD SWAP1 POP PUSH2 0xCD3 SWAP2 SWAP1 PUSH2 0x1A40 JUMP JUMPDEST DUP2 SLOAD DUP2 LT PUSH2 0xD0A JUMPI PUSH32 0x4E487B7100000000000000000000000000000000000000000000000000000000 PUSH1 0x0 MSTORE PUSH1 0x32 PUSH1 0x4 MSTORE PUSH1 0x24 PUSH1 0x0 REVERT JUMPDEST SWAP1 PUSH1 0x0 MSTORE PUSH1 0x20 PUSH1 0x0 KECCAK256 ADD SLOAD DUP4 DUP3 DUP2 SLOAD DUP2 LT PUSH2 0xD4E JUMPI PUSH32 0x4E487B7100000000000000000000000000000000000000000000000000000000 PUSH1 0x0 MSTORE PUSH1 0x32 PUSH1 0x4 MSTORE PUSH1 0x24 PUSH1 0x0 REVERT JUMPDEST SWAP1 PUSH1 0x0 MSTORE PUSH1 0x20 PUSH1 0x0 KECCAK256 ADD DUP2 SWAP1 SSTORE POP DUP3 DUP1 SLOAD DUP1 PUSH2 0xD93 JUMPI PUSH32 0x4E487B7100000000000000000000000000000000000000000000000000000000 PUSH1 0x0 MSTORE PUSH1 0x31 PUSH1 0x4 MSTORE PUSH1 0x24 PUSH1 0x0 REVERT JUMPDEST PUSH1 0x1 SWAP1 SUB DUP2 DUP2 SWAP1 PUSH1 0x0 MSTORE PUSH1 0x20 PUSH1 0x0 KECCAK256 ADD PUSH1 0x0 SWAP1 SSTORE SWAP1 SSTORE PUSH2 0xDC1 JUMP JUMPDEST DUP1 DUP1 PUSH2 0xDB9 SWAP1 PUSH2 0x1B47 JUMP JUMPDEST SWAP2 POP POP PUSH2 0xC6A JUMP JUMPDEST POP POP POP JUMP JUMPDEST DUP3 DUP1 SLOAD PUSH2 0xDD2 SWAP1 PUSH2 0x1B15 JUMP JUMPDEST SWAP1 PUSH1 0x0 MSTORE PUSH1 0x20 PUSH1 0x0 KECCAK256 SWAP1 PUSH1 0x1F ADD PUSH1 0x20 SWAP1 DIV DUP2 ADD SWAP3 DUP3 PUSH2 0xDF4 JUMPI PUSH1 0x0 DUP6 SSTORE PUSH2 0xE3B JUMP JUMPDEST DUP3 PUSH1 0x1F LT PUSH2 0xE0D JUMPI DUP1 MLOAD PUSH1 0xFF NOT AND DUP4 DUP1 ADD OR DUP6 SSTORE PUSH2 0xE3B JUMP JUMPDEST DUP3 DUP1 ADD PUSH1 0x1 ADD DUP6 SSTORE DUP3 ISZERO PUSH2 0xE3B JUMPI SWAP2 DUP3 ADD JUMPDEST DUP3 DUP2 GT ISZERO PUSH2 0xE3A JUMPI DUP3 MLOAD DUP3 SSTORE SWAP2 PUSH1 0x20 ADD SWAP2 SWAP1 PUSH1 0x1 ADD SWAP1 PUSH2 0xE1F JUMP JUMPDEST JUMPDEST POP SWAP1 POP PUSH2 0xE48 SWAP2 SWAP1 PUSH2 0xEB0 JUMP JUMPDEST POP SWAP1 JUMP JUMPDEST POP DUP1 SLOAD PUSH2 0xE58 SWAP1 PUSH2 0x1B15 JUMP JUMPDEST PUSH1 0x0 DUP3 SSTORE DUP1 PUSH1 0x1F LT PUSH2 0xE6A JUMPI POP PUSH2 0xE89 JUMP JUMPDEST PUSH1 0x1F ADD PUSH1 0x20 SWAP1 DIV SWAP1 PUSH1 0x0 MSTORE PUSH1 0x20 PUSH1 0x0 KECCAK256 SWAP1 DUP2 ADD SWAP1 PUSH2 0xE88 SWAP2 SWAP1 PUSH2 0xEB0 JUMP JUMPDEST JUMPDEST POP JUMP JUMPDEST POP DUP1 SLOAD PUSH1 0x0 DUP3 SSTORE PUSH1 0x2 MUL SWAP1 PUSH1 0x0 MSTORE PUSH1 0x20 PUSH1 0x0 KECCAK256 SWAP1 DUP2 ADD SWAP1 PUSH2 0xEAD SWAP2 SWAP1 PUSH2 0xECD JUMP JUMPDEST POP JUMP JUMPDEST JUMPDEST DUP1 DUP3 GT ISZERO PUSH2 0xEC9 JUMPI PUSH1 0x0 DUP2 PUSH1 0x0 SWAP1 SSTORE POP PUSH1 0x1 ADD PUSH2 0xEB1 JUMP JUMPDEST POP SWAP1 JUMP JUMPDEST JUMPDEST DUP1 DUP3 GT ISZERO PUSH2 0xF04 JUMPI PUSH1 0x0 DUP1 DUP3 ADD PUSH1 0x0 PUSH2 0xEE7 SWAP2 SWAP1 PUSH2 0xE4C JUMP JUMPDEST PUSH1 0x1 DUP3 ADD PUSH1 0x0 PUSH2 0x100 EXP DUP2 SLOAD SWAP1 PUSH1 0xFF MUL NOT AND SWAP1 SSTORE POP PUSH1 0x2 ADD PUSH2 0xECE JUMP JUMPDEST POP SWAP1 JUMP JUMPDEST PUSH1 0x0 PUSH2 0xF1B PUSH2 0xF16 DUP5 PUSH2 0x18C0 JUMP JUMPDEST PUSH2 0x188F JUMP JUMPDEST SWAP1 POP DUP1 DUP4 DUP3 MSTORE PUSH1 0x20 DUP3 ADD SWAP1 POP DUP3 PUSH1 0x0 JUMPDEST DUP6 DUP2 LT ISZERO PUSH2 0xF5B JUMPI DUP2 CALLDATALOAD DUP6 ADD PUSH2 0xF41 DUP9 DUP3 PUSH2 0x1078 JUMP JUMPDEST DUP5 MSTORE PUSH1 0x20 DUP5 ADD SWAP4 POP PUSH1 0x20 DUP4 ADD SWAP3 POP POP PUSH1 0x1 DUP2 ADD SWAP1 POP PUSH2 0xF2B JUMP JUMPDEST POP POP POP SWAP4 SWAP3 POP POP POP JUMP JUMPDEST PUSH1 0x0 PUSH2 0xF78 PUSH2 0xF73 DUP5 PUSH2 0x18EC JUMP JUMPDEST PUSH2 0x188F JUMP JUMPDEST SWAP1 POP DUP1 DUP4 DUP3 MSTORE PUSH1 0x20 DUP3 ADD SWAP1 POP DUP3 DUP6 PUSH1 0x20 DUP7 MUL DUP3 ADD GT ISZERO PUSH2 0xF97 JUMPI PUSH1 0x0 DUP1 REVERT JUMPDEST PUSH1 0x0 JUMPDEST DUP6 DUP2 LT ISZERO PUSH2 0xFC7 JUMPI DUP2 PUSH2 0xFAD DUP9 DUP3 PUSH2 0x10B7 JUMP JUMPDEST DUP5 MSTORE PUSH1 0x20 DUP5 ADD SWAP4 POP PUSH1 0x20 DUP4 ADD SWAP3 POP POP PUSH1 0x1 DUP2 ADD SWAP1 POP PUSH2 0xF9A JUMP JUMPDEST POP POP POP SWAP4 SWAP3 POP POP POP JUMP JUMPDEST PUSH1 0x0 PUSH2 0xFE4 PUSH2 0xFDF DUP5 PUSH2 0x1918 JUMP JUMPDEST PUSH2 0x188F JUMP JUMPDEST SWAP1 POP DUP3 DUP2 MSTORE PUSH1 0x20 DUP2 ADD DUP5 DUP5 DUP5 ADD GT ISZERO PUSH2 0xFFC JUMPI PUSH1 0x0 DUP1 REVERT JUMPDEST PUSH2 0x1007 DUP5 DUP3 DUP6 PUSH2 0x1AD3 JUMP JUMPDEST POP SWAP4 SWAP3 POP POP POP JUMP JUMPDEST PUSH1 0x0 DUP3 PUSH1 0x1F DUP4 ADD SLT PUSH2 0x1020 JUMPI PUSH1 0x0 DUP1 REVERT JUMPDEST DUP2 CALLDATALOAD PUSH2 0x1030 DUP5 DUP3 PUSH1 0x20 DUP7 ADD PUSH2 0xF08 JUMP JUMPDEST SWAP2 POP POP SWAP3 SWAP2 POP POP JUMP JUMPDEST PUSH1 0x0 DUP3 PUSH1 0x1F DUP4 ADD SLT PUSH2 0x104A JUMPI PUSH1 0x0 DUP1 REVERT JUMPDEST DUP2 CALLDATALOAD PUSH2 0x105A DUP5 DUP3 PUSH1 0x20 DUP7 ADD PUSH2 0xF65 JUMP JUMPDEST SWAP2 POP POP SWAP3 SWAP2 POP POP JUMP JUMPDEST PUSH1 0x0 DUP2 CALLDATALOAD SWAP1 POP PUSH2 0x1072 DUP2 PUSH2 0x1C2E JUMP JUMPDEST SWAP3 SWAP2 POP POP JUMP JUMPDEST PUSH1 0x0 DUP3 PUSH1 0x1F DUP4 ADD SLT PUSH2 0x1089 JUMPI PUSH1 0x0 DUP1 REVERT JUMPDEST DUP2 CALLDATALOAD PUSH2 0x1099 DUP5 DUP3 PUSH1 0x20 DUP7 ADD PUSH2 0xFD1 JUMP JUMPDEST SWAP2 POP POP SWAP3 SWAP2 POP POP JUMP JUMPDEST PUSH1 0x0 DUP2 CALLDATALOAD SWAP1 POP PUSH2 0x10B1 DUP2 PUSH2 0x1C45 JUMP JUMPDEST SWAP3 SWAP2 POP POP JUMP JUMPDEST PUSH1 0x0 DUP2 CALLDATALOAD SWAP1 POP PUSH2 0x10C6 DUP2 PUSH2 0x1C5C JUMP JUMPDEST SWAP3 SWAP2 POP POP JUMP JUMPDEST PUSH1 0x0 PUSH1 0x20 DUP3 DUP5 SUB SLT ISZERO PUSH2 0x10DE JUMPI PUSH1 0x0 DUP1 REVERT JUMPDEST PUSH1 0x0 PUSH2 0x10EC DUP5 DUP3 DUP6 ADD PUSH2 0x1063 JUMP JUMPDEST SWAP2 POP POP SWAP3 SWAP2 POP POP JUMP JUMPDEST PUSH1 0x0 DUP1 PUSH1 0x0 PUSH1 0x60 DUP5 DUP7 SUB SLT ISZERO PUSH2 0x110A JUMPI PUSH1 0x0 DUP1 REVERT JUMPDEST PUSH1 0x0 PUSH2 0x1118 DUP7 DUP3 DUP8 ADD PUSH2 0x1063 JUMP JUMPDEST SWAP4 POP POP PUSH1 0x20 DUP5 ADD CALLDATALOAD PUSH8 0xFFFFFFFFFFFFFFFF DUP2 GT ISZERO PUSH2 0x1135 JUMPI PUSH1 0x0 DUP1 REVERT JUMPDEST PUSH2 0x1141 DUP7 DUP3 DUP8 ADD PUSH2 0x1078 JUMP JUMPDEST SWAP3 POP POP PUSH1 0x40 PUSH2 0x1152 DUP7 DUP3 DUP8 ADD PUSH2 0x10A2 JUMP JUMPDEST SWAP2 POP POP SWAP3 POP SWAP3 POP SWAP3 JUMP JUMPDEST PUSH1 0x0 DUP1 PUSH1 0x0 DUP1 PUSH1 0x0 DUP1 PUSH1 0xC0 DUP8 DUP10 SUB SLT ISZERO PUSH2 0x1175 JUMPI PUSH1 0x0 DUP1 REVERT JUMPDEST PUSH1 0x0 PUSH2 0x1183 DUP10 DUP3 DUP11 ADD PUSH2 0x1063 JUMP JUMPDEST SWAP7 POP POP PUSH1 0x20 DUP8 ADD CALLDATALOAD PUSH8 0xFFFFFFFFFFFFFFFF DUP2 GT ISZERO PUSH2 0x11A0 JUMPI PUSH1 0x0 DUP1 REVERT JUMPDEST PUSH2 0x11AC DUP10 DUP3 DUP11 ADD PUSH2 0x1078 JUMP JUMPDEST SWAP6 POP POP PUSH1 0x40 PUSH2 0x11BD DUP10 DUP3 DUP11 ADD PUSH2 0x10A2 JUMP JUMPDEST SWAP5 POP POP PUSH1 0x60 DUP8 ADD CALLDATALOAD PUSH8 0xFFFFFFFFFFFFFFFF DUP2 GT ISZERO PUSH2 0x11DA JUMPI PUSH1 0x0 DUP1 REVERT JUMPDEST PUSH2 0x11E6 DUP10 DUP3 DUP11 ADD PUSH2 0x1078 JUMP JUMPDEST SWAP4 POP POP PUSH1 0x80 DUP8 ADD CALLDATALOAD PUSH8 0xFFFFFFFFFFFFFFFF DUP2 GT ISZERO PUSH2 0x1203 JUMPI PUSH1 0x0 DUP1 REVERT JUMPDEST PUSH2 0x120F DUP10 DUP3 DUP11 ADD PUSH2 0x100F JUMP JUMPDEST SWAP3 POP POP PUSH1 0xA0 DUP8 ADD CALLDATALOAD PUSH8 0xFFFFFFFFFFFFFFFF DUP2 GT ISZERO PUSH2 0x122C JUMPI PUSH1 0x0 DUP1 REVERT JUMPDEST PUSH2 0x1238 DUP10 DUP3 DUP11 ADD PUSH2 0x1039 JUMP JUMPDEST SWAP2 POP POP SWAP3 SWAP6 POP SWAP3 SWAP6 POP SWAP3 SWAP6 JUMP JUMPDEST PUSH1 0x0 PUSH2 0x1251 DUP4 DUP4 PUSH2 0x13D8 JUMP JUMPDEST PUSH1 0x20 DUP4 ADD SWAP1 POP SWAP3 SWAP2 POP POP JUMP JUMPDEST PUSH1 0x0 PUSH2 0x1269 DUP4 DUP4 PUSH2 0x13F6 JUMP JUMPDEST SWAP1 POP SWAP3 SWAP2 POP POP JUMP JUMPDEST PUSH1 0x0 PUSH2 0x127D DUP4 DUP4 PUSH2 0x1673 JUMP JUMPDEST PUSH1 0x20 DUP4 ADD SWAP1 POP SWAP3 SWAP2 POP POP JUMP JUMPDEST PUSH2 0x1292 DUP2 PUSH2 0x1A74 JUMP JUMPDEST DUP3 MSTORE POP POP JUMP JUMPDEST PUSH1 0x0 PUSH2 0x12A3 DUP3 PUSH2 0x198D JUMP JUMPDEST PUSH2 0x12AD DUP2 DUP6 PUSH2 0x19E0 JUMP JUMPDEST SWAP4 POP PUSH2 0x12B8 DUP4 PUSH2 0x1948 JUMP JUMPDEST DUP1 PUSH1 0x0 JUMPDEST DUP4 DUP2 LT ISZERO PUSH2 0x12E9 JUMPI DUP2 MLOAD PUSH2 0x12D0 DUP9 DUP3 PUSH2 0x1245 JUMP JUMPDEST SWAP8 POP PUSH2 0x12DB DUP4 PUSH2 0x19B9 JUMP JUMPDEST SWAP3 POP POP PUSH1 0x1 DUP2 ADD SWAP1 POP PUSH2 0x12BC JUMP JUMPDEST POP DUP6 SWAP4 POP POP POP POP SWAP3 SWAP2 POP POP JUMP JUMPDEST PUSH1 0x0 PUSH2 0x1301 DUP3 PUSH2 0x1998 JUMP JUMPDEST PUSH2 0x130B DUP2 DUP6 PUSH2 0x19F1 JUMP JUMPDEST SWAP4 POP DUP4 PUSH1 0x20 DUP3 MUL DUP6 ADD PUSH2 0x131D DUP6 PUSH2 0x1958 JUMP JUMPDEST DUP1 PUSH1 0x0 JUMPDEST DUP6 DUP2 LT ISZERO PUSH2 0x1359 JUMPI DUP5 DUP5 SUB DUP10 MSTORE DUP2 MLOAD PUSH2 0x133A DUP6 DUP3 PUSH2 0x125D JUMP JUMPDEST SWAP5 POP PUSH2 0x1345 DUP4 PUSH2 0x19C6 JUMP JUMPDEST SWAP3 POP PUSH1 0x20 DUP11 ADD SWAP10 POP POP PUSH1 0x1 DUP2 ADD SWAP1 POP PUSH2 0x1321 JUMP JUMPDEST POP DUP3 SWAP8 POP DUP8 SWAP6 POP POP POP POP POP POP SWAP3 SWAP2 POP POP JUMP JUMPDEST PUSH1 0x0 PUSH2 0x1376 DUP3 PUSH2 0x19A3 JUMP JUMPDEST PUSH2 0x1380 DUP2 DUP6 PUSH2 0x1A02 JUMP JUMPDEST SWAP4 POP PUSH2 0x138B DUP4 PUSH2 0x1968 JUMP JUMPDEST DUP1 PUSH1 0x0 JUMPDEST DUP4 DUP2 LT ISZERO PUSH2 0x13BC JUMPI DUP2 MLOAD PUSH2 0x13A3 DUP9 DUP3 PUSH2 0x1271 JUMP JUMPDEST SWAP8 POP PUSH2 0x13AE DUP4 PUSH2 0x19D3 JUMP JUMPDEST SWAP3 POP POP PUSH1 0x1 DUP2 ADD SWAP1 POP PUSH2 0x138F JUMP JUMPDEST POP DUP6 SWAP4 POP POP POP POP SWAP3 SWAP2 POP POP JUMP JUMPDEST PUSH2 0x13D2 DUP2 PUSH2 0x1A86 JUMP JUMPDEST DUP3 MSTORE POP POP JUMP JUMPDEST PUSH2 0x13E1 DUP2 PUSH2 0x1A92 JUMP JUMPDEST DUP3 MSTORE POP POP JUMP JUMPDEST PUSH2 0x13F0 DUP2 PUSH2 0x1A92 JUMP JUMPDEST DUP3 MSTORE POP POP JUMP JUMPDEST PUSH1 0x0 PUSH2 0x1401 DUP3 PUSH2 0x19AE JUMP JUMPDEST PUSH2 0x140B DUP2 DUP6 PUSH2 0x1A13 JUMP JUMPDEST SWAP4 POP PUSH2 0x141B DUP2 DUP6 PUSH1 0x20 DUP7 ADD PUSH2 0x1AE2 JUMP JUMPDEST PUSH2 0x1424 DUP2 PUSH2 0x1C1D JUMP JUMPDEST DUP5 ADD SWAP2 POP POP SWAP3 SWAP2 POP POP JUMP JUMPDEST PUSH1 0x0 PUSH2 0x143A DUP3 PUSH2 0x19AE JUMP JUMPDEST PUSH2 0x1444 DUP2 DUP6 PUSH2 0x1A24 JUMP JUMPDEST SWAP4 POP PUSH2 0x1454 DUP2 DUP6 PUSH1 0x20 DUP7 ADD PUSH2 0x1AE2 JUMP JUMPDEST PUSH2 0x145D DUP2 PUSH2 0x1C1D JUMP JUMPDEST DUP5 ADD SWAP2 POP POP SWAP3 SWAP2 POP POP JUMP JUMPDEST PUSH1 0x0 PUSH2 0x1473 DUP3 PUSH2 0x19AE JUMP JUMPDEST PUSH2 0x147D DUP2 DUP6 PUSH2 0x1A35 JUMP JUMPDEST SWAP4 POP PUSH2 0x148D DUP2 DUP6 PUSH1 0x20 DUP7 ADD PUSH2 0x1AE2 JUMP JUMPDEST DUP1 DUP5 ADD SWAP2 POP POP SWAP3 SWAP2 POP POP JUMP JUMPDEST PUSH1 0x0 DUP2 SLOAD PUSH2 0x14A6 DUP2 PUSH2 0x1B15 JUMP JUMPDEST PUSH2 0x14B0 DUP2 DUP7 PUSH2 0x1A35 JUMP JUMPDEST SWAP5 POP PUSH1 0x1 DUP3 AND PUSH1 0x0 DUP2 EQ PUSH2 0x14CB JUMPI PUSH1 0x1 DUP2 EQ PUSH2 0x14DC JUMPI PUSH2 0x150F JUMP JUMPDEST PUSH1 0xFF NOT DUP4 AND DUP7 MSTORE DUP2 DUP7 ADD SWAP4 POP PUSH2 0x150F JUMP JUMPDEST PUSH2 0x14E5 DUP6 PUSH2 0x1978 JUMP JUMPDEST PUSH1 0x0 JUMPDEST DUP4 DUP2 LT ISZERO PUSH2 0x1507 JUMPI DUP2 SLOAD DUP2 DUP10 ADD MSTORE PUSH1 0x1 DUP3 ADD SWAP2 POP PUSH1 0x20 DUP2 ADD SWAP1 POP PUSH2 0x14E8 JUMP JUMPDEST DUP4 DUP9 ADD SWAP6 POP POP POP JUMPDEST POP POP POP SWAP3 SWAP2 POP POP JUMP JUMPDEST PUSH1 0x0 PUSH2 0x1525 PUSH1 0x17 DUP4 PUSH2 0x1A24 JUMP JUMPDEST SWAP2 POP PUSH32 0x496A617A6168207375646168207465726461667461722E000000000000000000 PUSH1 0x0 DUP4 ADD MSTORE PUSH1 0x20 DUP3 ADD SWAP1 POP SWAP2 SWAP1 POP JUMP JUMPDEST PUSH1 0x0 PUSH2 0x1565 PUSH1 0x26 DUP4 PUSH2 0x1A24 JUMP JUMPDEST SWAP2 POP PUSH32 0x48616E79612070656D696C696B2079616E672062697361206D656C616B756B61 PUSH1 0x0 DUP4 ADD MSTORE PUSH32 0x6E20696E692E0000000000000000000000000000000000000000000000000000 PUSH1 0x20 DUP4 ADD MSTORE PUSH1 0x40 DUP3 ADD SWAP1 POP SWAP2 SWAP1 POP JUMP JUMPDEST PUSH1 0x0 PUSH2 0x15CB PUSH1 0x17 DUP4 PUSH2 0x1A24 JUMP JUMPDEST SWAP2 POP PUSH32 0x496A617A616820746964616B20646974656D756B616E2E000000000000000000 PUSH1 0x0 DUP4 ADD MSTORE PUSH1 0x20 DUP3 ADD SWAP1 POP SWAP2 SWAP1 POP JUMP JUMPDEST PUSH1 0x0 PUSH2 0x160B PUSH1 0x2B DUP4 PUSH2 0x1A24 JUMP JUMPDEST SWAP2 POP PUSH32 0x4A756D6C6168206D6174612070656C616A6172616E2064616E206E696C616920 PUSH1 0x0 DUP4 ADD MSTORE PUSH32 0x68617275732073616D612E000000000000000000000000000000000000000000 PUSH1 0x20 DUP4 ADD MSTORE PUSH1 0x40 DUP3 ADD SWAP1 POP SWAP2 SWAP1 POP JUMP JUMPDEST PUSH2 0x166D DUP2 PUSH2 0x1ABC JUMP JUMPDEST DUP3 MSTORE POP POP JUMP JUMPDEST PUSH2 0x167C DUP2 PUSH2 0x1AC6 JUMP JUMPDEST DUP3 MSTORE POP POP JUMP JUMPDEST PUSH1 0x0 PUSH2 0x168E DUP3 DUP5 PUSH2 0x1468 JUMP JUMPDEST SWAP2 POP DUP2 SWAP1 POP SWAP3 SWAP2 POP POP JUMP JUMPDEST PUSH1 0x0 PUSH2 0x16A5 DUP3 DUP5 PUSH2 0x1499 JUMP JUMPDEST SWAP2 POP DUP2 SWAP1 POP SWAP3 SWAP2 POP POP JUMP JUMPDEST PUSH1 0x0 PUSH1 0x20 DUP3 ADD SWAP1 POP PUSH2 0x16C5 PUSH1 0x0 DUP4 ADD DUP5 PUSH2 0x1289 JUMP JUMPDEST SWAP3 SWAP2 POP POP JUMP JUMPDEST PUSH1 0x0 PUSH1 0x20 DUP3 ADD SWAP1 POP DUP2 DUP2 SUB PUSH1 0x0 DUP4 ADD MSTORE PUSH2 0x16E5 DUP2 DUP5 PUSH2 0x1298 JUMP JUMPDEST SWAP1 POP SWAP3 SWAP2 POP POP JUMP JUMPDEST PUSH1 0x0 PUSH1 0x20 DUP3 ADD SWAP1 POP PUSH2 0x1702 PUSH1 0x0 DUP4 ADD DUP5 PUSH2 0x13C9 JUMP JUMPDEST SWAP3 SWAP2 POP POP JUMP JUMPDEST PUSH1 0x0 PUSH1 0x80 DUP3 ADD SWAP1 POP PUSH2 0x171D PUSH1 0x0 DUP4 ADD DUP8 PUSH2 0x13E7 JUMP JUMPDEST DUP2 DUP2 SUB PUSH1 0x20 DUP4 ADD MSTORE PUSH2 0x172F DUP2 DUP7 PUSH2 0x142F JUMP JUMPDEST SWAP1 POP PUSH2 0x173E PUSH1 0x40 DUP4 ADD DUP6 PUSH2 0x1664 JUMP JUMPDEST DUP2 DUP2 SUB PUSH1 0x60 DUP4 ADD MSTORE PUSH2 0x1750 DUP2 DUP5 PUSH2 0x142F JUMP JUMPDEST SWAP1 POP SWAP6 SWAP5 POP POP POP POP POP JUMP JUMPDEST PUSH1 0x0 PUSH1 0x60 DUP3 ADD SWAP1 POP DUP2 DUP2 SUB PUSH1 0x0 DUP4 ADD MSTORE PUSH2 0x1775 DUP2 DUP7 PUSH2 0x142F JUMP JUMPDEST SWAP1 POP PUSH2 0x1784 PUSH1 0x20 DUP4 ADD DUP6 PUSH2 0x1664 JUMP JUMPDEST DUP2 DUP2 SUB PUSH1 0x40 DUP4 ADD MSTORE PUSH2 0x1796 DUP2 DUP5 PUSH2 0x142F JUMP JUMPDEST SWAP1 POP SWAP5 SWAP4 POP POP POP POP JUMP JUMPDEST PUSH1 0x0 PUSH1 0xA0 DUP3 ADD SWAP1 POP DUP2 DUP2 SUB PUSH1 0x0 DUP4 ADD MSTORE PUSH2 0x17BA DUP2 DUP9 PUSH2 0x142F JUMP JUMPDEST SWAP1 POP PUSH2 0x17C9 PUSH1 0x20 DUP4 ADD DUP8 PUSH2 0x1664 JUMP JUMPDEST DUP2 DUP2 SUB PUSH1 0x40 DUP4 ADD MSTORE PUSH2 0x17DB DUP2 DUP7 PUSH2 0x142F JUMP JUMPDEST SWAP1 POP DUP2 DUP2 SUB PUSH1 0x60 DUP4 ADD MSTORE PUSH2 0x17EF DUP2 DUP6 PUSH2 0x12F6 JUMP JUMPDEST SWAP1 POP DUP2 DUP2 SUB PUSH1 0x80 DUP4 ADD MSTORE PUSH2 0x1803 DUP2 DUP5 PUSH2 0x136B JUMP JUMPDEST SWAP1 POP SWAP7 SWAP6 POP POP POP POP POP POP JUMP JUMPDEST PUSH1 0x0 PUSH1 0x20 DUP3 ADD SWAP1 POP DUP2 DUP2 SUB PUSH1 0x0 DUP4 ADD MSTORE PUSH2 0x1828 DUP2 PUSH2 0x1518 JUMP JUMPDEST SWAP1 POP SWAP2 SWAP1 POP JUMP JUMPDEST PUSH1 0x0 PUSH1 0x20 DUP3 ADD SWAP1 POP DUP2 DUP2 SUB PUSH1 0x0 DUP4 ADD MSTORE PUSH2 0x1848 DUP2 PUSH2 0x1558 JUMP JUMPDEST SWAP1 POP SWAP2 SWAP1 POP JUMP JUMPDEST PUSH1 0x0 PUSH1 0x20 DUP3 ADD SWAP1 POP DUP2 DUP2 SUB PUSH1 0x0 DUP4 ADD MSTORE PUSH2 0x1868 DUP2 PUSH2 0x15BE JUMP JUMPDEST SWAP1 POP SWAP2 SWAP1 POP JUMP JUMPDEST PUSH1 0x0 PUSH1 0x20 DUP3 ADD SWAP1 POP DUP2 DUP2 SUB PUSH1 0x0 DUP4 ADD MSTORE PUSH2 0x1888 DUP2 PUSH2 0x15FE JUMP JUMPDEST SWAP1 POP SWAP2 SWAP1 POP JUMP JUMPDEST PUSH1 0x0 PUSH1 0x40 MLOAD SWAP1 POP DUP2 DUP2 ADD DUP2 DUP2 LT PUSH8 0xFFFFFFFFFFFFFFFF DUP3 GT OR ISZERO PUSH2 0x18B6 JUMPI PUSH2 0x18B5 PUSH2 0x1BEE JUMP JUMPDEST JUMPDEST DUP1 PUSH1 0x40 MSTORE POP SWAP2 SWAP1 POP JUMP JUMPDEST PUSH1 0x0 PUSH8 0xFFFFFFFFFFFFFFFF DUP3 GT ISZERO PUSH2 0x18DB JUMPI PUSH2 0x18DA PUSH2 0x1BEE JUMP JUMPDEST JUMPDEST PUSH1 0x20 DUP3 MUL SWAP1 POP PUSH1 0x20 DUP2 ADD SWAP1 POP SWAP2 SWAP1 POP JUMP JUMPDEST PUSH1 0x0 PUSH8 0xFFFFFFFFFFFFFFFF DUP3 GT ISZERO PUSH2 0x1907 JUMPI PUSH2 0x1906 PUSH2 0x1BEE JUMP JUMPDEST JUMPDEST PUSH1 0x20 DUP3 MUL SWAP1 POP PUSH1 0x20 DUP2 ADD SWAP1 POP SWAP2 SWAP1 POP JUMP JUMPDEST PUSH1 0x0 PUSH8 0xFFFFFFFFFFFFFFFF DUP3 GT ISZERO PUSH2 0x1933 JUMPI PUSH2 0x1932 PUSH2 0x1BEE JUMP JUMPDEST JUMPDEST PUSH1 0x1F NOT PUSH1 0x1F DUP4 ADD AND SWAP1 POP PUSH1 0x20 DUP2 ADD SWAP1 POP SWAP2 SWAP1 POP JUMP JUMPDEST PUSH1 0x0 DUP2 SWAP1 POP PUSH1 0x20 DUP3 ADD SWAP1 POP SWAP2 SWAP1 POP JUMP JUMPDEST PUSH1 0x0 DUP2 SWAP1 POP PUSH1 0x20 DUP3 ADD SWAP1 POP SWAP2 SWAP1 POP JUMP JUMPDEST PUSH1 0x0 DUP2 SWAP1 POP PUSH1 0x20 DUP3 ADD SWAP1 POP SWAP2 SWAP1 POP JUMP JUMPDEST PUSH1 0x0 DUP2 SWAP1 POP DUP2 PUSH1 0x0 MSTORE PUSH1 0x20 PUSH1 0x0 KECCAK256 SWAP1 POP SWAP2 SWAP1 POP JUMP JUMPDEST PUSH1 0x0 DUP2 MLOAD SWAP1 POP SWAP2 SWAP1 POP JUMP JUMPDEST PUSH1 0x0 DUP2 MLOAD SWAP1 POP SWAP2 SWAP1 POP JUMP JUMPDEST PUSH1 0x0 DUP2 MLOAD SWAP1 POP SWAP2 SWAP1 POP JUMP JUMPDEST PUSH1 0x0 DUP2 MLOAD SWAP1 POP SWAP2 SWAP1 POP JUMP JUMPDEST PUSH1 0x0 PUSH1 0x20 DUP3 ADD SWAP1 POP SWAP2 SWAP1 POP JUMP JUMPDEST PUSH1 0x0 PUSH1 0x20 DUP3 ADD SWAP1 POP SWAP2 SWAP1 POP JUMP JUMPDEST PUSH1 0x0 PUSH1 0x20 DUP3 ADD SWAP1 POP SWAP2 SWAP1 POP JUMP JUMPDEST PUSH1 0x0 DUP3 DUP3 MSTORE PUSH1 0x20 DUP3 ADD SWAP1 POP SWAP3 SWAP2 POP POP JUMP JUMPDEST PUSH1 0x0 DUP3 DUP3 MSTORE PUSH1 0x20 DUP3 ADD SWAP1 POP SWAP3 SWAP2 POP POP JUMP JUMPDEST PUSH1 0x0 DUP3 DUP3 MSTORE PUSH1 0x20 DUP3 ADD SWAP1 POP SWAP3 SWAP2 POP POP JUMP JUMPDEST PUSH1 0x0 DUP3 DUP3 MSTORE PUSH1 0x20 DUP3 ADD SWAP1 POP SWAP3 SWAP2 POP POP JUMP JUMPDEST PUSH1 0x0 DUP3 DUP3 MSTORE PUSH1 0x20 DUP3 ADD SWAP1 POP SWAP3 SWAP2 POP POP JUMP JUMPDEST PUSH1 0x0 DUP2 SWAP1 POP SWAP3 SWAP2 POP POP JUMP JUMPDEST PUSH1 0x0 PUSH2 0x1A4B DUP3 PUSH2 0x1ABC JUMP JUMPDEST SWAP2 POP PUSH2 0x1A56 DUP4 PUSH2 0x1ABC JUMP JUMPDEST SWAP3 POP DUP3 DUP3 LT ISZERO PUSH2 0x1A69 JUMPI PUSH2 0x1A68 PUSH2 0x1B90 JUMP JUMPDEST JUMPDEST DUP3 DUP3 SUB SWAP1 POP SWAP3 SWAP2 POP POP JUMP JUMPDEST PUSH1 0x0 PUSH2 0x1A7F DUP3 PUSH2 0x1A9C JUMP JUMPDEST SWAP1 POP SWAP2 SWAP1 POP JUMP JUMPDEST PUSH1 0x0 DUP2 ISZERO ISZERO SWAP1 POP SWAP2 SWAP1 POP JUMP JUMPDEST PUSH1 0x0 DUP2 SWAP1 POP SWAP2 SWAP1 POP JUMP JUMPDEST PUSH1 0x0 PUSH20 0xFFFFFFFFFFFFFFFFFFFFFFFFFFFFFFFFFFFFFFFF DUP3 AND SWAP1 POP SWAP2 SWAP1 POP JUMP JUMPDEST PUSH1 0x0 DUP2 SWAP1 POP SWAP2 SWAP1 POP JUMP JUMPDEST PUSH1 0x0 PUSH1 0xFF DUP3 AND SWAP1 POP SWAP2 SWAP1 POP JUMP JUMPDEST DUP3 DUP2 DUP4 CALLDATACOPY PUSH1 0x0 DUP4 DUP4 ADD MSTORE POP POP POP JUMP JUMPDEST PUSH1 0x0 JUMPDEST DUP4 DUP2 LT ISZERO PUSH2 0x1B00 JUMPI DUP1 DUP3 ADD MLOAD DUP2 DUP5 ADD MSTORE PUSH1 0x20 DUP2 ADD SWAP1 POP PUSH2 0x1AE5 JUMP JUMPDEST DUP4 DUP2 GT ISZERO PUSH2 0x1B0F JUMPI PUSH1 0x0 DUP5 DUP5 ADD MSTORE JUMPDEST POP POP POP POP JUMP JUMPDEST PUSH1 0x0 PUSH1 0x2 DUP3 DIV SWAP1 POP PUSH1 0x1 DUP3 AND DUP1 PUSH2 0x1B2D JUMPI PUSH1 0x7F DUP3 AND SWAP2 POP JUMPDEST PUSH1 0x20 DUP3 LT DUP2 EQ ISZERO PUSH2 0x1B41 JUMPI PUSH2 0x1B40 PUSH2 0x1BBF JUMP JUMPDEST JUMPDEST POP SWAP2 SWAP1 POP JUMP JUMPDEST PUSH1 0x0 PUSH2 0x1B52 DUP3 PUSH2 0x1ABC JUMP JUMPDEST SWAP2 POP PUSH32 0xFFFFFFFFFFFFFFFFFFFFFFFFFFFFFFFFFFFFFFFFFFFFFFFFFFFFFFFFFFFFFFFF DUP3 EQ ISZERO PUSH2 0x1B85 JUMPI PUSH2 0x1B84 PUSH2 0x1B90 JUMP JUMPDEST JUMPDEST PUSH1 0x1 DUP3 ADD SWAP1 POP SWAP2 SWAP1 POP JUMP JUMPDEST PUSH32 0x4E487B7100000000000000000000000000000000000000000000000000000000 PUSH1 0x0 MSTORE PUSH1 0x11 PUSH1 0x4 MSTORE PUSH1 0x24 PUSH1 0x0 REVERT JUMPDEST PUSH32 0x4E487B7100000000000000000000000000000000000000000000000000000000 PUSH1 0x0 MSTORE PUSH1 0x22 PUSH1 0x4 MSTORE PUSH1 0x24 PUSH1 0x0 REVERT JUMPDEST PUSH32 0x4E487B7100000000000000000000000000000000000000000000000000000000 PUSH1 0x0 MSTORE PUSH1 0x41 PUSH1 0x4 MSTORE PUSH1 0x24 PUSH1 0x0 REVERT JUMPDEST PUSH1 0x0 PUSH1 0x1F NOT PUSH1 0x1F DUP4 ADD AND SWAP1 POP SWAP2 SWAP1 POP JUMP JUMPDEST PUSH2 0x1C37 DUP2 PUSH2 0x1A92 JUMP JUMPDEST DUP2 EQ PUSH2 0x1C42 JUMPI PUSH1 0x0 DUP1 REVERT JUMPDEST POP JUMP JUMPDEST PUSH2 0x1C4E DUP2 PUSH2 0x1ABC JUMP JUMPDEST DUP2 EQ PUSH2 0x1C59 JUMPI PUSH1 0x0 DUP1 REVERT JUMPDEST POP JUMP JUMPDEST PUSH2 0x1C65 DUP2 PUSH2 0x1AC6 JUMP JUMPDEST DUP2 EQ PUSH2 0x1C70 JUMPI PUSH1 0x0 DUP1 REVERT JUMPDEST POP JUMP INVALID LOG2 PUSH5 0x6970667358 0x22 SLT KECCAK256 PUSH23 0xA256CFF6CCBFFC32A6A38B0190D535F365B62F4B5763DC 0xCD 0xBD 0x27 0xB5 PUSH12 0xFD0F9D64736F6C6343000800 STOP CALLER "
				},
				"gasEstimates": {
					"creation": {
						"codeDepositCost": "1467400",
						"executionCost": "22400",
						"totalCost": "1489800"
					},
					"external": {
						"degrees(bytes32)": "infinite",
						"deleteDegree(bytes32)": "infinite",
						"getDegree(bytes32)": "infinite",
						"issueDegree(bytes32,string,uint256,string,string[],uint8[])": "infinite",
						"listDegrees()": "infinite",
						"owner()": "1234",
						"verifyDegree(bytes32,string,uint256)": "infinite"
					},
					"internal": {
						"_removeFromList(bytes32[] storage pointer,bytes32)": "infinite"
					}
				},
				"methodIdentifiers": {
					"degrees(bytes32)": "bc50b3cd",
					"deleteDegree(bytes32)": "91f2bceb",
					"getDegree(bytes32)": "d04a419b",
					"issueDegree(bytes32,string,uint256,string,string[],uint8[])": "578d30da",
					"listDegrees()": "f266c791",
					"owner()": "8da5cb5b",
					"verifyDegree(bytes32,string,uint256)": "e6faad29"
				}
			},
			"storageLayout": {
				"storage": [
					{
						"astId": 3,
						"contract": "Desktop/Smart Contract/sc_ijazah/backend/sc-service/smartcontract/contracts/ijazah_v2.sol:VerifikasiIjazah",
						"label": "owner",
						"offset": 0,
						"slot": "0",
						"type": "t_address"
					},
					{
						"astId": 47,
						"contract": "Desktop/Smart Contract/sc_ijazah/backend/sc-service/smartcontract/contracts/ijazah_v2.sol:VerifikasiIjazah",
						"label": "degrees",
						"offset": 0,
						"slot": "1",
						"type": "t_mapping(t_bytes32,t_struct(Degree)21_storage)"
					},
					{
						"astId": 50,
						"contract": "Desktop/Smart Contract/sc_ijazah/backend/sc-service/smartcontract/contracts/ijazah_v2.sol:VerifikasiIjazah",
						"label": "degreesList",
						"offset": 0,
						"slot": "2",
						"type": "t_array(t_bytes32)dyn_storage"
					}
				],
				"types": {
					"t_address": {
						"encoding": "inplace",
						"label": "address",
						"numberOfBytes": "20"
					},
					"t_array(t_bytes32)dyn_storage": {
						"base": "t_bytes32",
						"encoding": "dynamic_array",
						"label": "bytes32[]",
						"numberOfBytes": "32"
					},
					"t_array(t_struct(Subject)8_storage)dyn_storage": {
						"base": "t_struct(Subject)8_storage",
						"encoding": "dynamic_array",
						"label": "struct VerifikasiIjazah.Subject[]",
						"numberOfBytes": "32"
					},
					"t_bytes32": {
						"encoding": "inplace",
						"label": "bytes32",
						"numberOfBytes": "32"
					},
					"t_mapping(t_bytes32,t_struct(Degree)21_storage)": {
						"encoding": "mapping",
						"key": "t_bytes32",
						"label": "mapping(bytes32 => struct VerifikasiIjazah.Degree)",
						"numberOfBytes": "32",
						"value": "t_struct(Degree)21_storage"
					},
					"t_string_storage": {
						"encoding": "bytes",
						"label": "string",
						"numberOfBytes": "32"
					},
					"t_struct(Degree)21_storage": {
						"encoding": "inplace",
						"label": "struct VerifikasiIjazah.Degree",
						"members": [
							{
								"astId": 10,
								"contract": "Desktop/Smart Contract/sc_ijazah/backend/sc-service/smartcontract/contracts/ijazah_v2.sol:VerifikasiIjazah",
								"label": "degreeHash",
								"offset": 0,
								"slot": "0",
								"type": "t_bytes32"
							},
							{
								"astId": 12,
								"contract": "Desktop/Smart Contract/sc_ijazah/backend/sc-service/smartcontract/contracts/ijazah_v2.sol:VerifikasiIjazah",
								"label": "sekolah",
								"offset": 0,
								"slot": "1",
								"type": "t_string_storage"
							},
							{
								"astId": 14,
								"contract": "Desktop/Smart Contract/sc_ijazah/backend/sc-service/smartcontract/contracts/ijazah_v2.sol:VerifikasiIjazah",
								"label": "issueDate",
								"offset": 0,
								"slot": "2",
								"type": "t_uint256"
							},
							{
								"astId": 16,
								"contract": "Desktop/Smart Contract/sc_ijazah/backend/sc-service/smartcontract/contracts/ijazah_v2.sol:VerifikasiIjazah",
								"label": "ipfsUrl",
								"offset": 0,
								"slot": "3",
								"type": "t_string_storage"
							},
							{
								"astId": 20,
								"contract": "Desktop/Smart Contract/sc_ijazah/backend/sc-service/smartcontract/contracts/ijazah_v2.sol:VerifikasiIjazah",
								"label": "transcript",
								"offset": 0,
								"slot": "4",
								"type": "t_array(t_struct(Subject)8_storage)dyn_storage"
							}
						],
						"numberOfBytes": "160"
					},
					"t_struct(Subject)8_storage": {
						"encoding": "inplace",
						"label": "struct VerifikasiIjazah.Subject",
						"members": [
							{
								"astId": 5,
								"contract": "Desktop/Smart Contract/sc_ijazah/backend/sc-service/smartcontract/contracts/ijazah_v2.sol:VerifikasiIjazah",
								"label": "name",
								"offset": 0,
								"slot": "0",
								"type": "t_string_storage"
							},
							{
								"astId": 7,
								"contract": "Desktop/Smart Contract/sc_ijazah/backend/sc-service/smartcontract/contracts/ijazah_v2.sol:VerifikasiIjazah",
								"label": "grade",
								"offset": 0,
								"slot": "1",
								"type": "t_uint8"
							}
						],
						"numberOfBytes": "64"
					},
					"t_uint256": {
						"encoding": "inplace",
						"label": "uint256",
						"numberOfBytes": "32"
					},
					"t_uint8": {
						"encoding": "inplace",
						"label": "uint8",
						"numberOfBytes": "1"
					}
				}
			},
			"userdoc": {
				"kind": "user",
				"methods": {},
				"version": 1
			}
		}
	}
}